:020000040002F8
:10600000E8550020C1630200C9630200CB630200AF
:10601000CD630200CF630200D163020000000000E4
:10602000000000000000000000000000D363020038
:10603000D563020000000000D7630200D9630200AC
:1060400059660200DB6302006D6A0200C16602004D
:10605000DB630200DB63020079650200DB630200A0
:10606000DB630200DB630200DB630200DB63020030
:10607000DB630200DB630200DB630200DB63020020
:10608000DB630200B1660200DB630200DB63020037
:10609000DB630200DB630200D1660200DB63020007
:1060A000DB630200DB630200DB630200DB630200F0
:1060B000DB630200DB630200000000000000000060
:1060C000DB630200DB630200DB630200DB630200D0
:1060D000DB630200DB630200DB6302000000000000
:1060E00000000000000000000000000000000000B0
:1060F00000000000000000000000000000000000A0
:10610000000000000000000000000000000000008F
:10611000000000000000000000000000000000007F
:10612000000000000000000000000000000000006F
:10613000000000000000000000000000000000005F
:10614000000000000000000000000000000000004F
:10615000000000000000000000000000000000003F
:10616000000000000000000000000000000000002F
:10617000000000000000000000000000000000001F
:10618000000000000000000000000000000000000F
:1061900000000000000000000000000000000000FF
:1061A00000000000000000000000000000000000EF
:1061B00000000000000000000000000000000000DF
:1061C00000000000000000000000000000000000CF
:1061D00000000000000000000000000000000000BF
:1061E00000000000000000000000000000000000AF
:1061F000000000000000000000000000000000009F
:10620000DFF80CD000F07AF900480047E5A402005E
:10621000E855002030B450E8012F93B2C4892344DC
:106220008489A34228BF1B1B0489A34202BFBFF37A
:106230002F8F002007E0C3EA020340E80134002C5E
:10624000E9D14FF001000A6030BC704750E8012FDF
:10625000C2EA024240E801210029F7D1704730B478
:1062600050E8022F1FFAA2F3C488A34202BFBFF373
:106270002F8F00200DE0C48923448489A34228BFC6
:106280001B1BC2EA034340E80234002CE8D14FF064
:1062900001000A6030BC704750E8022FC2EA224277
:1062A00040E802210029F7D17047034653E8022F46
:1062B000D988B2EB324F4FF0000017BF92B241EADB
:1062C000014142EA014104E05A68B2EB324F08BF93
:1062D000012043E80212002AE8D1704730B4044696
:1062E00054E8000F0D4644E80053002BF8D1156028
:1062F00030BC704730B4044654E8000F40EA010552
:1063000044E80053002BF7D1156030BC704730B41F
:10631000044654E8000F00EA010544E80053002B4E
:10632000F7D1156030BC704730B4044654E8000F14
:1063300080EA010544E80053002BF7D1156030BC1A
:10634000704730B4044654E8000F00EB010544E800
:106350000053002BF7D1156030BC704730B40446B1
:1063600054E8000FA0EB010544E80053002BF7D1DF
:10637000156030BC704770B404464FF0000054E81C
:10638000006F0D68AE4207BF44E80023012044E8D7
:1063900000630E60002B1CBF0020F0E770BC70474C
:1063A00030B4044654E8000F88422CBF451A054615
:1063B00044E80053002BF5D1156030BC7047000055
:1063C0000648804706480047FEE7FEE7FEE7FEE78F
:1063D000FEE7FEE7FEE7FEE7FEE7FEE7D566020022
:1063E000016202002DE9F05F0546002092469B46BF
:1063F00088460646814640241BE0284641464746DB
:10640000224600F06BF853465A46C01A914110D309
:1064100011461846224600F016F82D1A67EB0108BF
:106420004F4622460120002100F00DF817EB00092D
:106430004E41201EA4F10104DFDC484631462A46C5
:106440004346BDE8F09F202A04DB203A00FA02F11F
:10645000002070479140C2F1200320FA03F3194352
:106460009040704700487047A414030040EA0103BD
:106470009B0703D009E008C9121F08C0042AFAD2FA
:1064800003E011F8013B00F8013B521EF9D27047BE
:10649000D2B201E000F8012B491EFBD27047002266
:1064A000F6E710B513460A4604461946FFF7F0FF13
:1064B000204610BD421C10F8011B0029FBD1801A98
:1064C000704730B504460020034600E05B1C934251
:1064D00003D2E05CCD5C401BF8D030BD202A04DB49
:1064E000203A21FA02F00021704721FA02F3D0404D
:1064F000C2F120029140084319467047064C074DEF
:1065000006E0E06840F0010394E807009847103483
:10651000AC42F6D3FFF778FEF02A0300102B0300FD
:1065200070B58C1810F8015B15F0070301D110F855
:10653000013B2A1106D110F8012B03E010F8016B82
:1065400001F8016B5B1EF9D12B0705D40023521E05
:106550000DD401F8013BFAE710F8013BCB1A921C6D
:1065600003E013F8015B01F8015B521EF9D5A1426B
:10657000D8D3002070BD00002DE9F8430025DFF8D6
:1065800094804FF4807601242F460095304605F024
:10659000AFF838B1D8F80403204203D0304605F0F4
:1065A0009DF82543361D64007F1CB6B2082FEDD33D
:1065B0004FF4BE74204605F09BF848B1204605F024
:1065C0008DF845F000456A460121002005F05EF88F
:1065D00015F0FF0F16D0012600242E420ED008EB36
:1065E0008401D1F81005D1F81015C0F304200A4A2F
:1065F000C1F3014152F8242002B190477600641C97
:10660000082CEAD3002D02DA684608F0DDF8BDE870
:10661000F883000000600040242D00201FB5094BC6
:106620000FCB8DE80F00074800231A466946103843
:1066300004F006FC08B100F0CFFB02480C3805F06E
:1066400049FF1FBDE813030010B503F073F9BDE85F
:10665000104003F047B9000070B54FF48076304623
:1066600004F084FB114CB50560B1304604F085FBA5
:106670000120C5F80803607920B901206071216804
:10668000002088474FF48276304604F06FFB0028E4
:106690000AD0304604F071FB0220C5F808032168D7
:1066A000BDE870400120084770BD00004423002071
:1066B00002490248091F0968006808478023002032
:1066C0000149024809F064BCAC35002000300040AC
:1066D00005F098BDF0B5D34AD3494FF08054136804
:1066E000D4F830010978D4F83421451CC1F30311E2
:1066F00007D08446164601270025BCF1060F04D0BA
:1067000013E003F0FF0C0E46F5E7032E05D0042E30
:1067100003D0052E01D0062E07D1B4F82463DFF88C
:106720000CC3C6F30426CCF80060DEB2062E06D1F8
:10673000032904D1DFF8FCC2BD4ECCF87460461CBE
:1067400006D084464FEA0206BCF1060F04D013E0DF
:1067500003F0FF0C0E46F7E7032E05D0042E03D0FE
:10676000052E01D0062E07D1D4F84462DFF8C8C246
:10677000C6F34236CCF80060DEB2062E08D10329FB
:1067800006D1AE4ED6F800C02CF0807CC6F800C012
:10679000461C05D084461646BCF1060F04D014E012
:1067A00003F0FF0C0E46F7E7032E05D0042E03D0AE
:1067B000052E01D0062E08D14FF08046C6F80C51A8
:1067C000C6F810519C4E361F3560DEB2062E08D139
:1067D000032906D1DFF860C203260CF1640CCCF863
:1067E0000060DEB2062E11D103290FD1DFF850C2AE
:1067F0000526CCF80060924E78363760904E083609
:1068000035600CF1040C3F26CCF80060461C05D026
:1068100084461646BCF1060F04D087E003F0FF0C57
:106820000E46F7E7032E7CD0042E7FD0052E01D034
:10683000062E7BD1834E3668DFF80CC2CCF80060A0
:10684000804E361D36680CF1040CCCF800607D4E8D
:10685000083636680CF1040CCCF80060794E0C3622
:1068600036680CF1040CCCF80060764E10363668B1
:106870000CF1040CCCF80060724E143636680CF142
:10688000040CCCF800606F4E18363668DFF8B8C1DB
:106890000CF1200CCCF800606A4E1C3636680CF106
:1068A000040CCCF80060674E203636680CF1040CFE
:1068B000CCF80060634E243636680CF1040CCCF83A
:1068C0000060604E283636680CF1040CCCF800608D
:1068D0005C4E2C3636680CF1040CCCF80060594E36
:1068E00030363668DFF860C10CF1400CCCF800603F
:1068F000544E343636680CF1040CCCF80060514E1E
:10690000383636680CF1040CCCF800604D4E3C363D
:1069100036680CF1040CCCF800604A4E40363668FC
:1069200000E003E00CF1040CCCF80060461C05D03C
:1069300084461646BCF1060F04D011E003F0FF0CAC
:106940000E46F7E7032E05D0042E03D0052E01D006
:10695000062E05D1D4F858423C4E04F04F04346062
:10696000441C04D003461146062B02D010E0DBB2D3
:10697000FAE7032905D0042903D0052901D0062907
:1069800006D133490B68DB0702D06FF001030B60BF
:1069900006280CD1032A0AD0042A08D0052A06D0DA
:1069A000062A04D12B48016841F480610160234824
:1069B0007438016841F470010160BFF34F8FBFF379
:1069C0006F8F4FF01021D1F80002002803DBD1F8BF
:1069D0000402002822DA204A176020480368002BAE
:1069E000FCD01523C1F800320468002CFCD0C1F89B
:1069F000043201680029FCD0156001680029FCD030
:106A0000BFF34F8F0D48F0380168154A01F4E0617B
:106A100011430160BFF34F8F00BFFDE712491148DA
:106A20000860F0BDE00F00F0E80F00F040350140D5
:106A30000DF0ADBA00C007403C050040FCED00E0A1
:106A4000105600400404001020C50040E40E004031
:106A5000000400403C17004004E5014000E4014010
:106A60000400FA050090D00350240020014800687B
:106A7000004700004C23002002E008C8121F08C194
:106A8000002AFAD170477047002001E001C1121FAF
:106A9000002AFBD1704700000121202803DA814041
:106AA0000548014003E0402802DA2038814009B15E
:106AB0000120704700207047FC06FFBD2DE9F84318
:106AC000804643F2020659B9694607F087F8B0429A
:106AD00002D008B100F080F99DF80000800744D48E
:106AE0000021404607F084F805003ED0112D3CD02F
:106AF0001F482049401AC708022000EB07440D2D0B
:106B00000AD00B2D1DD0B5421FD11B49204642464D
:106B1000BDE8F84304F0F2BF20464246174904F0AE
:106B2000EDFF1321404676DF00281ED005F01CFC47
:106B3000024601B020464346BDE8F04310A104F0F0
:106B4000E4BF204642461C49E2E7284605F00CFC1B
:106B50000246012000EB0740434618A104F0D5FF90
:106B60002846BDE8F84300F037B9BDE8F8830000D7
:106B7000582B0300202B0300C41C0300501C0300EF
:106B800073645F626C655F6761705F646973636F94
:106B90006E6E65637428292072657475726E656403
:106BA000202573206F6E20636F6E6E5F68616E6468
:106BB0006C652025642E0000101D03004173736571
:106BC0007274696E672E20706D5F636F6E6E5F7397
:106BD000656375726528292072657475726E6564C7
:106BE000202573206F6E20636F6E6E5F68616E6428
:106BF0006C652025642E000010B560B159B1027893
:106C00000B785208B2EB530F05D10622401C491CE9
:106C1000FFF757FC08B1002010BD012010BD800710
:106C200001D00020704701207047C3688B4206D80E
:106C300011440069491E814201D80120704700209B
:106C4000704790F82400012801D01F207047EE20E3
:106C5000704710B501220221002001F021F908B18E
:106C6000072810D107220221012001F019F908B1EB
:106C7000072808D100210A22084601F011F908B1BD
:106C8000072800D1002010BD10B560B10B480C4999
:106C9000401AC008032101EB00400AA104F02AFFBA
:106CA00007F022FD03E003210A4800F02FFC002832
:106CB00003D0BDE8104000F08FB810BDC82B030012
:106CC000202B0300457261736520626F6E6473212F
:106CD00000000000BC24002070B58CB015460E46A4
:106CE00000236C46C3F10F01415CE1545B1C102B87
:106CF000F8D30D2104F11000FFF7D1FB0020C0F103
:106D00000F02315C2244401C11740328F7D36846FB
:106D100046DF0020C0F10F01214491F820102954D2
:106D2000401C0328F6D30CB070BD38B501220024F6
:106D30006B4611468C2002F08CFD9DF8000009285E
:106D400000D10124204638BD0149C97800F0A0BD1A
:106D50001823002072B604F077FF00BF04F0AEFDE8
:106D60000028FBD111481249401AC408012000EB49
:106D7000044010A104F0BEFE11480068C00700D016
:106D800000BE022000EB04400EA104F0B3FEBFF3EE
:106D90004F8F0B48E43801680E4A01F4E06111435B
:106DA0000160BFF34F8F00BFFDE70000C82B030059
:106DB000202B0300466174616C206572726F720053
:106DC000F0ED00E053797374656D2072657365743E
:106DD000000000000400FA050EB500210091CDE985
:106DE00001106A4644F20100FFF7B4FF0EBD000037
:106DF000014801F032BC0000602300203AB1006875
:106E00000129426100D00021016100207047072064
:106E10007047000038B51148082358224168009196
:106E20000F49006803F07FFD002815D10D4A69461F
:106E30000D4801F017FC04000ED101210A4801F0B1
:106E40008CFC0123094A1946074801F0DEFB06497C
:106E5000012008390870204638BD0000B410030036
:106E6000E42D0020A9EE020060230020FFFF7F0038
:106E700070B50446007F0D4608B1002070BDA261C8
:106E800002F0AEFB401941F10001C4E902012069A2
:106E900000B125612146BDE87040002008F0E6BF42
:106EA000014600200877012008F0E0BF30B5EFF37D
:106EB000108172B60D4A9468012324B10370002931
:106EC00000D162B630BD93604FF0E023D3F880511B
:106ED000074C25401560C3F88041D3F884415460C5
:106EE0005A17C3F8842100220270E8E73C2E0020E4
:106EF000FC06FFBD0B498A68002A11D000280FD17B
:106F0000EFF3108072B60B684FF0E022C2F8003148
:106F10004B68C2F8043100228A60002800D162B6B2
:106F2000704700003C2E00202DE9F041064608681D
:106F30000C46411C4FF0A0474FF0010506D005FA62
:106F400000F1C7F80815206804F07AFB6068411C5E
:106F500002D0002104F062FB3168A069C1F8240569
:106F6000607D227D31681043C1F86C05D4E90012C0
:106F70003068C0F81425C0F80C15207D012815D103
:106F8000A068411C02D0002104F048FBE068411CCD
:106F900005D08540C7F80855E06804F051FBD4E9F6
:106FA00002123068C0F80825C0F81015BDE8F0815D
:106FB0002DE9F041064608680C46411C4FF0A047F9
:106FC0004FF0010506D005FA00F1C7F80815206852
:106FD00004F040FB6068411C02D0002104F027FB54
:106FE0003168A069C1F82405607D217D32680843BD
:106FF000C2F86C05D4E900123068C0F80C15C0F86E
:107000001425207D012815D1A068411C02D0002143
:1070100004F00DFBE068411C05D08540C7F8085519
:10702000E06804F017FBD4E902123068C0F80825C4
:10703000C0F81015BDE8F08103F020B92DE9F04744
:10704000814605884A484FF000088AB001784246D8
:10705000284600F035FC99F80500400701D40021CE
:1070600076E005F58077B8B205AB0122072106F07E
:1070700033FA04003F48404A4FF00101A0EB020000
:107080004FEAD00001EB00460AD0204605F06CF92B
:10709000024630462B46394904F037FD214629E0A7
:1070A000284602F089FE4FF6FF71044688422BD134
:1070B0008A46069802F0EAFD0446504510D0014683
:1070C000284602F059FE2846FFF73EFEE0B9284662
:1070D00008F0A0F92846FFF737FE0028BFD013E0DC
:1070E00006F0D0FB0446504508D1304624A104F0F8
:1070F00001FD0421284608F0BBF9B0E70146284607
:1071000002F03AFE4FF00108B8B22246072106F01D
:107110005BFA07001BD0862F1ED005F025F902462A
:1071200030462B462349009404F0F7FC39462846A4
:1071300008F09EF90021484606F0C6F8B8F1000FA5
:1071400002D0204602F022FE0AB0BDE8F0870121FD
:10715000484606F0B9F8F7E7142217496846FFF7E2
:1071600085F9ADF80250684601F0A8FCEFE7000091
:1071700018230020602B0300202B03000C200300A9
:10718000436F756C64206E6F7420616C6C6F63610B
:107190007465206E657720706565725F696420662E
:1071A0006F7220696E636F6D696E6720626F6E64C7
:1071B0002E00000028210300541003002DE9FC4795
:1071C000002517880646158090F82D00144689463C
:1071D00030B13A462146484600F098FB051E09D1D9
:1071E000B0784FF00C0A18B32088C846001DB8428A
:1071F00002D95046BDE8FC87684679DF0028F9D1FE
:107200002088032108F8001020881921401C80B232
:10721000208008F800102088401C80B2208000EBFD
:107220000801BDF8000009F094FA21880844208084
:10723000F0780222C8B1218896F9033001F1030CDD
:107240004846BC45D5D8425421884FF0010C491C12
:1072500089B2218000F801C02188491C89B22180AF
:1072600009F801302088401C20807068B8B121885E
:1072700090F9003001F1030C4846BC45B9D842549E
:1072800021880A22491C89B2218042542188491C44
:1072900089B2218009F801302088401C2080308983
:1072A00050B1CDE900474B460622022106F1080005
:1072B00009F02EFB051E9DD1308A50B1CDE9004763
:1072C0004B460722032106F1100009F021FB051EA1
:1072D00090D1308B50B1CDE900474B461522142197
:1072E00006F1180009F014FB051E83D1306A30B195
:1072F0003B462246494601F000F8051EDBD1706A84
:1073000030B13B462246494603F0E8F9051ED2D18A
:1073100096F82C0038B13B4622464946304608F0E4
:10732000E3F9051EC7D1307838B13B4622464946BD
:10733000304603F061FA051EBDD128465AE718B55C
:1073400004460020ADF8000013466A46204600F0CF
:1073500006F8002802D0BDF80000204418BD70B522
:10736000E0B1DAB1002402E0045D2C44A4B2651C53
:107370008D4206D21688A642F6D8061976789E4225
:10738000F2D18C420AD2A31C005D9BB200B1401E18
:107390000004000C02D01C188C4201D9002070BDE2
:1073A000138070BD80F8301070472DE9F0410D005A
:1073B000044606D02CB195F87A000026012803D0A7
:1073C00006E00E20BDE8F08195F89800012829D04C
:1073D000D5F8A000042825D0D5F89C00042821D099
:1073E0004FF00108A6702C2205F17801201DFFF74F
:1073F0003DF884F83060D5F8A4006063D5F8A800A3
:10740000A0634FF6FF70A4F8240404F58260C4F86A
:107410002004C4F82664A4F82A6484F82C64207834
:1074200010B104E00720CDE7FF2084F8540004F1F8
:1074300055072046C4F81074FFF703FCA4F81404A1
:1074400004F2144239462846FFF7B8FE0028B9D1A5
:1074500004F23120C4F818042046FFF7F2FBA4F828
:107460001C0404F21C4205F13C00D4F81814FFF788
:10747000A5FE0028A6D184F85180208BA4F84800EE
:1074800084F83C80266484F8506060690021606460
:10749000454604F13C02781E72DF002892D1257027
:1074A00090E710B50288102A1BD0112A20D0262A76
:1074B0001DD1007A0C46012801D0022817D1A078EE
:1074C0000521401CB0FBF1F201FB1201204600F047
:1074D0001DF800280BD0A16B002908D0BDE8104092
:1074E0000847C27B012A02D18088A1F8240410BD7C
:1074F0000C46002184F82E148088B4F824148842A5
:10750000F5D120790028F2D10121DFE72DE9F05FE4
:10751000044600780F4698B1A7700025C4F8265499
:10752000A4F82A5484F82C54A079012608B1012F1C
:1075300009D0E07980B1012F05D0022F03D00BE0F4
:107540000820BDE8F09F616B21B184F82D6408200C
:10755000884701E084F82D5404F2274100200A5C9A
:107560000AB1304603E0401C0628F8D300204FF053
:1075700002084FF0030B012F06D0022F0CD0032F6F
:107580000FD0042F15D110E0A17929B194F824105F
:1075900011B908B130460DE0E17911B108B14046AA
:1075A00008E0207A08B1584604E0607A08B1042067
:1075B00000E02846A070616B41B1032801D0042887
:1075C00004D1607910B194F82E0498B184F82F5446
:1075D00004F13C0018210746FEF761FF84F83C6087
:1075E00004F12C0006F080FA58B194F82C0084F8CD
:1075F000510008E084F8305484F82F64072088474D
:10760000E6E784F8516094F8240058B104F12800AA
:1076100006F06AFA20B194F8280084F8520001E0DC
:1076200084F8526084F85050A27804F2264104F5A0
:1076300082694FF0060A052A64D2DFE802F07C0373
:107640000F22420084F83160C4F82054C4E91015B8
:1076500084F83C808020A4F8480055E084F831800C
:1076600094F82420384612B10722027001E080F815
:1076700000B0228A8281C4F820544160E168B96078
:1076800042E06069B860208BB88194F824003D46E0
:107690000028204602D084F83CA001E084F83C6039
:1076A00009F012F950B185F814800421204601F048
:1076B0003EFC38BB052184F8311021E084F831B05C
:1076C0001EE0E069B860208CB88194F824003D4643
:1076D0000028204602D084F83CA001E084F83C60F9
:1076E00009F0F2F848B185F814800421204601F031
:1076F0001EFC38B984F831A002E0042084F831007F
:10770000C4F82094A07878B13A4604F15400D4F833
:10771000201472DF00287FF414AF94F8301094F82E
:10772000540073DF0028F6D1616B11B194F8310079
:107730008847002005E784F83150F5E770B504006C
:1077400012D001461C221448FEF790FE1248134D39
:107750000560206850B17ADF002806D120680168F2
:1077600029604068686005E00E2070BD0B487BDF33
:107770000028FAD108484FF6FF711438084A20F85B
:10778000041B0549343901600021FFF737FB00284D
:10779000EBD0032070BD000094290020702200204F
:1077A0006108030010B5044600F0A6F8002805D0D3
:1077B0002146BDE81040024803F034B910BD000076
:1077C000C029002070B515460E46044609F088F819
:1077D000002809D0054800EB8400C0692A463146DC
:1077E000BDE8704001F0D0BB70BD0000B0290020A2
:1077F00010B5044600F080F8002805D02146BDE809
:107800001040024803F00EB910BD0000C829002046
:1078100010B5044600F070F8002805D02146BDE8F8
:107820001040024803F0FEB810BD0000C42900203B
:1078300070B50546002400F05FF838B129460448C9
:1078400003F0F0F808B1022400E00124204670BDE6
:10785000BC29002070B50546002400F04DF838B171
:107860002946044803F0DEF808B1022400E00124B0
:10787000204670BDB829002010B51821034803F038
:10788000ACF8182800D0C0B210BD0000B02900200C
:1078900070B505460C46084609F022F860B1284646
:1078A00000F02AF840B10548294600EB8400BDE805
:1078B00070401C3003F0B6B8002070BDB029002025
:1078C00070B5054616460C46084609F009F800282A
:1078D0000ED0284600F010F8002809D0054832469E
:1078E00000EB84002946BDE870401C3001F01ABB53
:1078F00070BD0000B0290020142801D3002070477B
:107900000146014803F08EB8B42900207CB5054635
:1079100008880C460930904201D90C207CBD68468D
:107920006DDF0028FAD121880820685420881B21A7
:10793000401C80B2208029542088401C80B22080C6
:107940002844DDF801100160BDF805108180208811
:10795000801D80B220809DF80010490800D00121D0
:1079600029542088401C208000207CBD38B5044666
:1079700001882848284A801AC008042202EB0040E7
:10798000212933D012DC244A224B4FF00300A3EB11
:1079900002024FEAD20200EB0240102911D0112955
:1079A00030D1BDE838401DA104F0A4B83B292AD04D
:1079B000562927D11DA104F09DF8A088132176DF58
:1079C0000EE020A104F096F8072000F08BFA08B131
:1079D000FFF702FA1E48A18801801E4803F04EF905
:1079E00000280FD0BDE83840FFF7F6B91AA104F01F
:1079F00081F800200090A08869468FDF002801D020
:107A0000FFF7EAF938BD19A104F074F8A088132132
:107A100076DFE5E7C82B0300202B0300446973637E
:107A20006F6E6E65637465642E00000047415454A8
:107A3000205365727665722054696D656F75742E7A
:107A400000000000436F6E6E65637465642E000075
:107A500050220020B02400205048592075706461E5
:107A6000746520726571756573742E0047415454B6
:107A700020436C69656E742054696D656F75742E52
:107A80000000000010B51A4C0188606810290ED063
:107A900011292BD1401E606028D1FFF7DAF80028A9
:107AA00024D02168002921D0BDE810400847D0B972
:107AB00000210122084600F0F3F908B107280FD190
:107AC00007220221012000F0EBF908B1072807D1B5
:107AD00004220221002000F0E3F920B1072802D09F
:107AE000216801B188476068401C606010BD0000DB
:107AF000682200202DE9F04701883B4E40F2F3193F
:107B00004FF6FF7510291BD011293ED0122954D0F1
:107B1000502946D1C188F289841D914241D16189A1
:107B200002293ED18688304602F0F4F9050038D0AB
:107B300004F10C0000F0FCF8A8B3294630464EE0F2
:107B4000C17B8788044601292BD1A846284602F02C
:107B5000E1F9050017D02F80002028722348434602
:107B60004A460168C5F80A104068C5F80E0004F1DD
:107B7000100105F10A0002F091FA6872F0890028FC
:107B80000FD129462AE0042013E0808802F0C2F9D0
:107B9000040006D06068FFF783F908B107F04CFCD9
:107BA0002580BDE8F087FFE76868FFF779F90028CE
:107BB000F7D0BDE8F04707F03FBC87880646384657
:107BC00002F0A8F90400ECD02B464A4606F1080161
:107BD00004F10A0002F062FA607221463846BDE8FC
:107BE000F04700F0D1BB0000942900207022002053
:107BF0002DE9F04F044686880188424897B08346B5
:107C000010290CD0112950D0103019296AD01A2906
:107C100074D1217A0C09042C4DD301224CE0394D4A
:107C2000083DA868C0430B9069680BA802F01EFFCE
:107C30000B990CA800F042FB2C220CA96846FEF719
:107C400015FC0027E946A84610E000BF09EB4700F5
:107C50005FF00005B0F804A008EB85005146001D58
:107C600002F0A0FE6D1C1E2DF6D37F1C0098B842BA
:107C7000ECD8142E05D317B00420BDE8F04FFFF761
:107C8000ABB83146584602F0D8FE314608F1040040
:107C900002F0D3FEE07B022830D117B03146BDE8B8
:107CA000F04F1848001D02F0C8BE17B03146BDE8BD
:107CB000F04F02F077BE0022314601F033F9032C79
:107CC00001D3012200E000220E4831460C3001F0C1
:107CD00029F9022C01D3012200E000220948314693
:107CE000083006E0217A002908D1617AC1F3C00288
:107CF000314617B0BDE8F04F01F014B917B0BDE838
:107D0000F08F0000B829002010B50446074800781D
:107D100000280AD0204601F02BFF204607F028FD5E
:107D20002046BDE8104001F04DBA10BDA822002049
:107D3000007800F0010070470149085C70470000BE
:107D4000EA0E030007490B5C4FF0A041D1F804256F
:107D50000120984020EA0203C1F808351040C1F81C
:107D60000C057047E60E03000249085C012103F090
:107D7000AABC0000E60E03000249085C002103F0E3
:107D8000A2BC0000E60E03000649095C4FF0A040CB
:107D9000D0F80405C84010F0010000D0012080F0A8
:107DA00001007047E60E030010B500242046FFF7DF
:107DB000DBFF641C042CF9D310BD10B50024204651
:107DC000FFF7DAFF641C042CF9D310BD10B502468E
:107DD000064B4FF0FF3000215C5C944201D1084615
:107DE00010BD491C0429F7D310BD0000EA0E0300A2
:107DF00010B5002000F066F908B1062806D1012070
:107E000000F060F908B1062800D1002010BD000084
:107E10002DE9F0470D468146FFF7D8FF04460428B8
:107E200036D2DFF874801B481C4EA8F10C0725B32E
:107E3000012D0ED0022D2BD104EB440030444578A7
:107E4000002D25D0B968002922D02846BDE8F0478A
:107E5000084704EB4401755C0E44717849B10E4A41
:107E60004FF48041093A8068FFF702F808B987F8B3
:107E70000390B17808F80410E2E78068FFF710F883
:107E800004EB4401314418F804008D78A842D7D09F
:107E9000BDE8F087F00E03006422002030290020A6
:107EA00070B50023042810D20D4D00EB4004012AC8
:107EB00002D101290CD00022094E00EB40003044D1
:107EC00061B1012906D0022906D00723184670BDEA
:107ED0000E30C2B22A55F9E74270F7E78270F5E733
:107EE00030290020044A014600201279D20702D02E
:107EF000084600F003B87047582200202DE9F05FD3
:107F00006E4C054600266078B34618B184F801B07F
:107F100002F0F6F86A4F4FF47A694FF4C87A4FF0DE
:107F20000108182D69D2DFE805F00C131338475407
:107F3000696E727B727BC58484848484B3B6B9BC59
:107F4000C5C502F0DDF83868FEF7AAFF06465CE01A
:107F50000020FFF719FF00284FF0000008D0FFF7BE
:107F600003FF022D02D14FF4E16008E0484606E02D
:107F7000FFF702FF022D01D1C82000E05046410C5E
:107F8000C0034FF47A72801841F10001257052004D
:107F90000023FEF727FA01462AE00020FFF7F4FE4F
:107FA00000284FF0000004D0FFF7DEFE4FF44870C9
:107FB000E5E7FFF7E1FEDFE70020FFF7E5FE002839
:107FC0004FF0000002D0FFF7CFFECFE7FFF7D4FE5F
:107FD000D4E70020FFF7D8FE00284FF0000002D0C1
:107FE000FFF7C2FE01E0FFF7C7FE257040F6CD4166
:107FF00000223868FEF73CFF064646E00020FFF707
:10800000A1FE257008E0002051E025703DE084F8D5
:1080100001800120FFF796FE002240F26661E8E74A
:1080200084F801800120FFF78DFE00224FF40051FB
:10803000DFE77868FEF734FF0646D5F1110000D07F
:108040002EB10220FFF790FE84F802B01DE0012857
:1080500016D980B2C8214843C117C90341EA50412B
:10806000C0034FF47A72801841F1000152000023DE
:10807000FEF7B8F9014600227868FEF7F9FE0646D9
:108080000220FFF779FE84F802803046BDE8F09FB9
:1080900002F036F8B9E702F033F8B4E702F030F84E
:1080A00004E002F02DF80020FFF766FE0120FFF744
:1080B00063FEAAE7FFF781FEA7E700005822002031
:1080C000F00E0300012108F08ABC00002DE9F84FF2
:1080D0000546861C00208DF8000091460F464FF0A3
:1080E000010A6846FEF7E2FE1B4C04F21C48606879
:1080F0003860D4E90101194F401A3968081A0EE0B6
:108100000121404602F0ACFC02F09AF901464046DB
:1081100002F0A6FCD4E90101401A3968081A401C93
:108120008642EDD8B9F1000F03D0052065F3891020
:1081300002E0062065F39F5061683A68114004EB45
:108140008101C8606068304460609DF80000FEF7FF
:10815000D1FE5046BDE8F88F8C310020E823002086
:1081600070B50D4604460A2902D10D21FFF7F8FF2C
:10817000A0682268411CA1601554D4E90101814224
:1081800004D32046BDE8704002F0C5BE70BD0000BB
:10819000044881684068814201D101207047002075
:1081A000704700008C3100201CB5044601F004FE2D
:1081B00000236A46092105F0D1FA052805D10348B4
:1081C000012241792046FFF77BFB1CBD782200206D
:1081D0001CB504460020009042F6A620ADF8000031
:1081E00001208DF80200084801AA69460068019044
:1081F0002046A0DF002805D10448012281792046CD
:10820000FFF75EFB1CBD00001C0F0300782200205E
:108210000249084490F9340070470000242D0020E2
:1082200070B504464FF6FF750A462846AC4209D1A0
:108230004FF480742146104602F0CFFB80B2A0427A
:108240000BD070BDFF2CFCD82146104602F0B5FBC8
:1082500090F0010F01D0204670BD284670BD00008F
:1082600070B5084C050009D010342168002907D0EA
:1082700008682060496828468847F6E70834F4E72C
:1082800070BD0000102D0020054A012120B10128F9
:1082900005D19170FFF7E4BF51700020FAE77047F5
:1082A000102D002010B5D0E90234D1E90220D11AF6
:1082B000A04101D3012010BD002010BD73B58CB0CA
:1082C0000646002000900D9880B100246D4621469E
:1082D0000DA802F0A7FB30B1009805EB40008480A8
:1082E0000098401C0090641C142CF0D32C2269468A
:1082F0003046FEF7BBF80EB070BD2DE9F04117888F
:108300000646B81D14460D46984202D90C20BDE819
:10831000F0813188072206290AD34FF4486C4FF6C2
:10832000FF73614501D9994202D17088062801D2B4
:108330001046ECE7604501D99842F9D1994203D043
:10834000984201D08142F3D80520E85520881221B7
:10835000401C80B2208029542088401C80B220809C
:108360004119308808F0F5F92188084480B220804E
:108370004119708808F0EDF9218808442080002018
:10838000C5E7FEF729BD000038B54A7A0F4B62B148
:1083900000220A725969002906D001228DF80020B6
:1083A000ADF802006846884738BD0A7A62B19B681A
:1083B0004C68024619462046FEF75AFD0028F3D0C5
:1083C000BDE8384007F038B85B68F1E79429002031
:1083D000F0B585B016460F4604461D4614220B49DB
:1083E0006846FEF743F80A488DF80870ADF8024079
:1083F000ADF80A608DF80C50017800222046FFF796
:108400005FFA684600F05AFB05B0F0BD6810030043
:1084100018230020FEF752BBF0B50C4606461E4856
:108420001E4987B0401AC708042000EB07403346B6
:1084300022461BA103F069FB002004900590ADF8D3
:10844000104001900290ADF8124001AA04A93046F4
:1084500090DF05001DD003F087FF0346012000EBED
:108460000740044632461A4903F04FFBBDF804208A
:1084700012B9BDF8060028B1BDF80630204615A196
:1084800003F043FBBDF808201AB12046214903F050
:1084900035FB07B02846F0BD382B0300202B030026
:1084A0005570646174696E672064617461206C65E5
:1084B0006E67746820746F202575206F6E20636F5F
:1084C0006E6E656374696F6E20307825782E0000BB
:1084D00030180300546865207265717565737465A2
:1084E000642054582F5258207061636B6574206C5F
:1084F000656E67746820697320746F6F206C6F6E8F
:10850000672062792025752F2575206F6374657447
:10851000732E00007C18030070B504460948012141
:1085200002F0B9FABFF35F8F0025002808D120467A
:1085300001F000FF002803D1BFF35F8F0148056001
:1085400070BD0000842200202DE9FF410C4620B1BF
:108550004FF4064004B0BDE8F0812079002748F2CE
:10856000096538B141F61D5601281BD0022826D0D6
:10857000681DEFE70220207102970397E0680190E1
:10858000694601A806F0A6FB50B102988188E180F7
:1085900000882081BDF80010029806F019FCD9E788
:1085A0002846D7E70A4B6A460021A01D06F04AFB81
:1085B00038B1074918398F61CF61A842CAD1304616
:1085C000C8E703488188019806F002FCF5E700003F
:1085D000A023002010B50021024802F05CFA80F3CD
:1085E000100010BDA83500204FF480328A40016889
:1085F000C1F848230068C0F8082370474FF4A07200
:1086000002EB810189B200F01CBA2DE9F041054668
:108610000E464FF4A07000EB860081B228684FF43C
:108620008034B440984622F07F47C0F80843286859
:10863000C0F84843286803F02BFC286800EB86004C
:10864000C0F840752868C0F84443B8F1000F02D064
:108650002868C0F80443BDE8F0810068D0F804053C
:108660007047000070B54379234C44F823204279C9
:10867000231D03EBC202224C1579204A121BD40899
:108680002DB10825022000EB04401EA130E0056852
:108690000A88C5F8082590F904208978002A4FEA4D
:1086A000411104DB02F1E02282F8001405E002F03F
:1086B0000F0202F1E02282F8141D90F90410012249
:1086C000002909DB01F01F0502FA05F549098900B7
:1086D00001F1E021C1F800514179002503EBC1010E
:1086E0000A71417943F83100032000EB04400EA1E8
:1086F00003F000FA284670BD7C230020A82B03005D
:10870000202B030052544320696E7374616E6365BD
:1087100020616C726561647920696E697469616C4D
:10872000697A65642E0000005254433A20696E69EC
:108730007469616C697A65642E00000090F9040028
:10874000002809DB00F01F02012191404009800050
:1087500000F1E020C0F8001270470A46022100F044
:1087600067B94FF4827100F06CB9006801210160B3
:10877000704700680121416070472DE9F05F0746AE
:108780000C464FF4A07000EB84001FFA80FA3868A2
:108790004FF48036A6409B4622F07F45C0F84863E0
:1087A0003868C0F808633868D0F8048500EB8402A4
:1087B000D2F84095C2F840855146386803F068FB0E
:1087C000A9EB080020F07F40012806D1102003F01B
:1087D00043FE5146386803F05BFB3868D0F80485E7
:1087E000C0F84463A5EB080121F07F4138680129F6
:1087F00000EB840010D0C0F840553868D0F804155C
:108800006FF07F4C6A1A521E22F07F42ACEB0B03D2
:10881000934217D362B118E06D1CC0F84055102088
:1088200003F01AFE3868D0F8040540450AD10CE080
:1088300000EB84006D1CC0F840553868D0F8040582
:10884000884202D00D20BDE8F09F01223146384613
:1088500000F0EEF80020F6E713460A460021FFF785
:10886000B7BD00002DE9F843104D0F4680461E4667
:1088700091466946286802F069F8040014D01C216A
:10888000FDF70DFE01202071C4F81490380BC4F8D8
:108890000080C4E902606946286802F078F806F0B2
:1088A0003BF90020BDE8F8830420FBE760110300DA
:1088B00010B503780022072B06D2DFE803F0050489
:1088C0000610202930000A7010BD01230B700389A7
:1088D0008B818388CB81C06888600A7410BD0222B6
:1088E0000A7002898A818288CA81C2688A60807D12
:1088F000062802D00020087410BD0120FBE70322E7
:108900000A70C2888A810289CA81C068886010BDE5
:1089100004230B70C0888881CA818A6010BD05203D
:10892000087010BD70B5064D0646002455F8241099
:1089300009B130468847641C042CF7D370BD000091
:10894000642E002030B50446006887B00D4680686C
:1089500000281FD018216846FDF7A1FD0195A068E9
:108960000590207910B1012810D107E001208DF881
:10897000000020690290E068039005E002208DF875
:108980000000E0680003029060690490206881683C
:108990006846884707B030BDF0B585B017460C0073
:1089A00005463AD0112C38D0082C36D01C481D4929
:1089B000401AC6080D2C11D0204603F0D5FC024603
:1089C000012000EB06402B46174903F09EF82A468B
:1089D0000721684601F06EFF02941BE0022000EBC5
:1089E00006402A46114903F089F82A4603216846C1
:1089F00001F060FF27B13878C00701D0012000E006
:108A000002208DF8080000208DF80C0041F20110C2
:108A1000ADF80A00684600F05FF805B0F0BD000050
:108A2000682B0300202B0300F4220300E421030041
:108A30000368C3F84413002A02D00068C0F8041386
:108A4000704710B5006842581AB103F021FA0120AE
:108A500010BD002010BD000010B50446408801F094
:108A6000ABF9A080024801682046BDE810400847E5
:108A70008022002010B50446808801F0E7F860806D
:108A8000024801682046BDE81040084790220020B7
:108A90002DE9F04107460024064E074D05E000BFD2
:108AA00056F8241038468847641CE8788442F7DB7F
:108AB000BDE8F081C42C0020A822002010B5044697
:108AC000408801F079F9A080024801682046BDE89D
:108AD00010400847281003000149096808470000B2
:108AE000A410030070B586B0044614216846FDF753
:108AF000D6FCA0890125A0F54040ADF804002078FF
:108B00002F4E062833D2DFE800F0320303032C4A4D
:108B1000A08900F0EBF930B9E08943F6FE71A0F5C9
:108B20004040884223D8A07B8DF808002078032895
:108B30000FD000208DF80900A0680390606850B144
:108B400009208DF8000060680490684604F058FD24
:108B50000DE00120EEE708208DF800008DF81050A0
:108B6000F3E7A08900F0C2F908B1E08930B170786C
:108B7000002801D004F098FE06B070BD606830B1E6
:108B80000B208DF80000606802907570DDE70A2008
:108B90008DF80000BDF8040004F02AFFF5E76068D6
:108BA00048B114208DF80000606802904FF6FF7005
:108BB000ADF80400C9E713208DF80000F6E70000C7
:108BC0009422002038B504460F480078B0B1A4F5CF
:108BD0007F40FF380FD0684605F0CEFE88B10521F2
:108BE000017001210171C480684605F0D3FE05F0D3
:108BF00085FF002038BD48F2036038BD48F20160AF
:108C000038BD48F2076038BDA82300200D4808B5DC
:108C1000007888B1684605F0AFFE80B1062101708A
:108C2000684605F0B7FE0848017809B101210173D3
:108C300005F064FF002008BD48F2016008BD48F25D
:108C4000076008BDA8230020282F0020F0B587B0BA
:108C500014216846FDF723FC304C207818B1684693
:108C6000FFF760FE57E0201D01F0F7FE98BB40F6CD
:108C7000F8700168481C02D14FF0102041694FF094
:108C80008050026940694B1C01D100FB02F124486D
:108C900000220161A1F54051C160224902F0D0FAE1
:108CA000002823D121481C238C221F49006801F091
:108CB0003AFE04F031FA050016D0022D14D0002738
:108CC0000126062D14D005A805F056FE98B10670B1
:108CD0000C2D1BD200E01EE0DFE805F01810181084
:108CE000181718171812141248F20A6007B0F0BDCE
:108CF00026706760B3E748F20760F7E7077105E0A1
:108D0000032100E00221017100E0067105A805F0D1
:108D100041FE05F0F3FE0020E8E70000A823002054
:108D20005424002070110300742E0020D81003007A
:108D300038B5040014D0694605F0CCFFB0B1BDF8D9
:108D4000000000EB80010B4800EB8100C16851B1CD
:108D5000A17A41B1C168491EC1600020A07238BD2E
:108D600048F2046038BD48F2056038BD48F2096039
:108D700038BD0000002F00201FB501A9684605F08E
:108D800061FF04B010BD07B513460A4669460020CE
:108D900005F058FF0EBD07B513460A460021684688
:108DA00005F050FF0EBD20B119B100680860002029
:108DB000704748F204607047F8B50D46040018D0BB
:108DC000BDB1694605F086FFB0B1BDF800000C49A1
:108DD00000EB800001EB800001210C30666801F09F
:108DE0003FFE2E6060680C3068600120A072002099
:108DF000F8BD48F20460F8BD48F20960F8BD000013
:108E0000002F002018B10323002207F02BBF48F2E7
:108E1000046070470223002207F024BF094910B5FF
:108E20000A69042A0AD0084A096942F8210005485B
:108E30000121103001F014FE002010BD48F20B603B
:108E400010BD000088230020642E00202DE9F84F7B
:108E5000044624480078D8B1F4B112212046FDF729
:108E60001EFB0320DFF880902080002504F110080D
:108E700004F10E0A05EB850109EB81063089718941
:108E8000084487B2706804F0D1F8032807D009E0DD
:108E900048F20160BDE8F88F48F20460FAE72088E4
:108EA000401E20806088F1680844608020897189B4
:108EB00008442081608938446081C7F58060A189B9
:108EC00080B2814200D2A0815346A21D211D2846B6
:108ED000CDF8008005F09AFF6D1CADB2022DC9D30C
:108EE0000020D7E7A8230020002F002043F6FE71C2
:108EF000A0F54040884201D801207047002070470B
:108F000010B504460078182802D1FEF7B5FC207091
:108F100010BD10B504460078182802D1FEF7ACFC4D
:108F2000207010BD0AB101F088BD01F03BBD70B5E5
:108F30000D460446B0F81414D0F810040122FEF7D0
:108F4000FEF900B1057004F13C0204F5826104F100
:108F5000540072DF70BD000070B513460022054654
:108F6000112900D10122074C33B12179FEF7A8FC69
:108F700000226178284600E06178BDE87040FEF785
:108F80009FBC000020230020F7B517460E0011D02B
:108F90000098002560B100242146684601F042FD9A
:108FA00018B1A0B23946B0476D1C641C142CF3D321
:108FB0002846FEBD0020FEBD406805F0FDBC000057
:108FC00070B510B14FF4064070BD1C4C0025207BDD
:108FD00008B1257301E000F0A5F8207808282AD20E
:108FE000DFE800F02904080C10291422BDE87040C5
:108FF00000F026B8BDE8704000F082B8BDE87040CF
:1090000000F064B8BDE8704000F040B80620207061
:1090100060880A4900EB8000283901EB8000406835
:10902000BDE8704004F058B8072020706560BDE8C6
:10903000704004F05FB848F20E6070BD282F002029
:109040001149F0B48A1C00200346A1F128050C1830
:10905000A67A4EB1A37200EB800405EB8404E668A7
:1090600016B9247C012C0AD0401C80B20228EED311
:109070000B704B804B60F0BC41F61D507047108068
:10908000F0BC00F03DB80000282F00200C484188BB
:1090900001EB8102A0F1280101EB8201CA6852B103
:1090A0000521017007480221818001680023012207
:1090B000054802F029B8042202704968F6E700006A
:1090C000282F0020B02300205424002038B50A495E
:1090D000084803240B684268898803EB81015388A0
:1090E0000470DB1C00201B0400909B0B034802F063
:1090F0005FF938BD282F0020B02300205424002021
:10910000074910B54888091D05F034FE18B1BDE8BF
:109110001040FFF7DBBFBDE81040FFF7B7BF00000E
:10912000282F002070B5194C0121207808281AD268
:10913000DFE800F00419191C252929182089134A91
:10914000401C2081002060802073283A00EB8003BF
:1091500012F8233043B100232518401C80B2AB72B3
:109160000228F3D3217070BD0123F5E76068084938
:1091700040888A88C01C10448880022004E000F0E7
:1091800009F8062000E00720207070BD282F00207D
:10919000B02300200A4909484988026801EB81038D
:1091A0000749283901EB83014B6803604A608288D4
:1091B0000A8102228280002008747047B0230020B8
:1091C000282F00202DE9F043064680883288DFF8FA
:1091D0005C8185B00746502A37D010DC5449554B86
:1091E00006F10A05A1EB03014FEAD1014FF002039A
:1091F00003EB0144352A3AD0362A07D168E0522AD7
:1092000002D0542AF9D102E001F038F882E01422A9
:1092100049496846FDF72AF9ADF80270384600F072
:10922000CBFDADF8040000F0F5F90022444698F8B3
:1092300004103846FEF744FB0022E1783846FEF77A
:109240003FFB6846FFF708FC64E0307B012861D1F2
:10925000B07A01285ED13089A0F52451023959D164
:109260000121384601F05EF807F0E2FA52E098F882
:109270000610FEF70DFB00284CD0002298F80610CF
:109280003846FEF71DFBF288B2F5857F17D012B184
:1092900020462AA10BE02A88012A03D0204636A1C5
:1092A00002F02CFC6A88012A04D0204641A102F079
:1092B00025FC04E0A98800223846A1DF08B100217E
:1092C00025E0012298F807103846FEF7F9FA21E068
:1092D0004FF0000998F80710FEF7DAFAD0B1002233
:1092E00098F807103846FEF7EBFAF28812B12046DC
:1092F00012A104E0AA88012A04D020462DA102F080
:10930000FDFB03E0A87900B10120814649463846BB
:1093100006F00EFD0022364998F80200FEF752FAD8
:1093200005B0BDE8F04306F0D7B800007822002071
:10933000202B0300202B0300740F0300556E65786B
:10934000706563746564204741545420737461747C
:109350007573207768696C652067657474696E67DA
:109360002043415220636861722076616C75653AD2
:1093700020307825780000004D756C7469706C653C
:10938000202825642920434152206368617261636B
:1093900074657269737469637320666F756E642C8B
:1093A000207573696E6720746865206669727374CE
:1093B0002E000000556E6578706563746564204307
:1093C0004152206368617261637465726973746984
:1093D000632076616C7565206C656E677468202803
:1093E0002564292C2073746F726520302E000000D4
:1093F0003970020070B504460078002814D16088E6
:1094000000F03CFF6588284600F0C6F928B10748FF
:109410000122C1782846FEF753FA6088FEF7C4FEA1
:10942000BDE8704007F004BA70BD0000782200204B
:1094300070B5204C00252570FEF71EFA6070FEF70F
:109440001BFAA070FEF718FAE070FEF715FA20710B
:10945000FEF712FA6071FEF70FFAA071FEF70CFA30
:10946000E07162780121182A18D0A278182A15D044
:10947000E278182A12D02279182A0FD06279182A95
:109480000CD0A279182A09D0182807D004F10C00B2
:109490000560BFF35F8F2170002070BD0648074A4A
:1094A000801AC00801EB0040054902F023FB0320AD
:1094B00070BD000078220020202B0300202B030029
:1094C000A81403007CB504460078082837D1607AD8
:1094D00058BB207A1C4E4FF6FF75012811D0072883
:1094E00002D008282BD121E0A08800F0AFFB044671
:1094F000A84224D0012100F015FF2046FEF754FEBB
:109500001DE0A0886A46012103F09CFF68B901981C
:10951000007850B1A08800F099FBA8420FD001223A
:10952000F178FEF7CDF905F0D7FF08E0F0680128E3
:1095300005D1BFF35F8F044900200C310860BDE8FE
:109540007C4007F075B900007822002010B500F0CB
:10955000F1F900F0C7F9062001F018FC00F0EAF973
:1095600000F0C0F9062001F011FC00F0E3F900F072
:10957000B9F9062001F00AFC00F0DCF900F0B2F9BC
:10958000062001F003FC00F0D5F900F0ABF906204D
:1095900001F0FCFB00F0CEF900F0A4F9062001F088
:1095A000F5FB00F0C7F900F09DF9062001F0EEFB95
:1095B00000F0C0F900F096F9062001F0E7FB00F09A
:1095C000B9F900F08FF9062001F0E0FB00F0B2F9E4
:1095D00000F088F9BDE81040062001F0D7BB00007C
:1095E00010B50B48FFF739F8094A083AD2E90434B4
:1095F000C018D2E9063244F10001C31A71EB02022D
:1096000004D24FF08072801841F1000110BD0000BB
:10961000602300201CB5054AD2E90212CDE90012F0
:109620000022694604F0D4F81CBD00008C0F030032
:1096300003484FF6FF7181800121017000207047BF
:10964000882200202DE9FC41804600F0B5FB002473
:1096500003250127A0F57F412646FF3908D06A4639
:10966000082103F0EFFE18B90198841D868805686B
:1096700032462B4621464046B1DF042804D0082854
:1096800004D00B2808D002E0112000E00020002FB9
:1096900000D10B20BDE8FC810027A80701D50125DA
:1096A000E6E7344303D0002426460325E0E70648D6
:1096B00006494246401AC008012101EB0040044916
:1096C00002F01CFAE5E70000282B0300202B030022
:1096D000701703002DE9FC41804600F06DFBA0F5FA
:1096E0007F410646FF390ED001252A466D1C002712
:1096F000ADB26B460821304603F0EEFE040006D002
:10970000072C33D033E043F20200BDE8FC8101991D
:1097100003230A1D0B604046891DB2DF040004D0FC
:109720000C2C09D0052C09D009E03246082110463E
:1097300003F04AFF04461AE0012700E00024082154
:10974000304603F037FF70B102F00EFE03460948C1
:1097500009493246401AC008012101EB004007497F
:1097600002F0D3F90324002FBFD100E00C242046DF
:10977000CBE70000282B0300202B0300F01603008A
:1097800004488088A0F57F41FF3901D005F0AEBEC6
:1097900070470000882200200EB502A9019100F058
:1097A0000BFB6A46012103F04DFE08B100200EBDFF
:1097B000019800780EBD00002DE9F04107464FF6F4
:1097C000FF761048B3DF78B102F0CEFD02460E48B6
:1097D0000E49401AC008012101EB00400C4902F07B
:1097E0008DF90320BDE8F081064C43F20305A41E69
:1097F000324661883846AFDFA842F3D16088401C0A
:109800006080F5E78A220020282B0300202B03002C
:10981000A4160300428800EB82020C328A4201D96E
:10982000022070478188A1F57F42FF3A06D0018867
:1098300021B18068401C01D0002070470120704792
:10984000884204D20068401C01D0012070470020EB
:1098500070472DE9F0410F4604461E46154630215B
:109860007F2000F0EDF82146032000F0E9F83946AA
:10987000042000F0E5F845F08001052000F0E0F854
:1098800000217F2000F0DCF8032000F0C3F840F056
:1098900020042146032000F0D3F8052001F086FAC9
:1098A00024F02001032000F0CBF8002407E004F1AD
:1098B0003B00C0B200F0AEF83055641CE4B2AC42DC
:1098C000F5D330217F2000F0BBF8052000F0A2F88E
:1098D0000146052000F0B4F8BDE8F04100217F20EA
:1098E00000F0AEB870B52E2000F094F860F30706D3
:1098F0002D2000F08FF860F30F26302000F08AF85A
:10990000344660F307042F2000F084F860F30F243E
:10991000322000F07FF8254660F30705312000F083
:1099200079F860F30F250248C6800481458170BD37
:109930008824002070B5342000F06CF860F307062E
:10994000332000F067F860F30F26362000F062F84D
:10995000344660F30704352000F05CF860F30F2410
:10996000382000F057F8254660F30705372000F04F
:1099700051F860F30F25024806804480858070BD51
:109980008824002070B50D460446164630217F20FD
:1099900000F056F82146072000F052F8294608202A
:1099A00000F04EF831460A2000F04AF881210920E3
:1099B00000F046F800217F2000F042F8032000F07C
:1099C00029F840F020042146032000F039F8052052
:1099D00001F0ECF924F02001032000F031F83021EF
:1099E0007F2000F02DF8052000F014F80146052036
:1099F00000F026F8BDE8704000217F2000F020B87C
:109A000010B50024204600F005F8EA2800D1012412
:109A1000204610BD0EB502AA8DF8080001200346AD
:109A200000906821054801F02EFA012301AA68215F
:109A3000024801F025FA9DF804000EBDD81303007A
:109A40001CB502238DF8040000208DF8051000904D
:109A500001AA6821014801F016FA1CBDD8130300C1
:109A600010B5FFF7CDFF0028FDD000217F20FFF7C4
:109A7000E7FF80210620FFF7E3FF0A2001F096F9B7
:109A800001210620FFF7DCFF0A2001F08FF91021E9
:109A90000F20FFF7D5FF0A2001F088F901211120DE
:109AA000FFF7CEFF20217F20FFF7CAFF072100200C
:109AB000FFF7C6FF35210120FFF7C2FF0721112064
:109AC000FFF7BEFF31211320FFF7BAFF00217F20EF
:109AD000FFF7B6FF642001F069F9FDF726F90028C9
:109AE000FDD008223121BDE810400C20FFF74ABF0D
:109AF0003EB5027802230C46B3EB520F17D1B0F8F3
:109B00000110ADF80010C1788DF802108188ADF811
:109B1000041080798DF8060002AA01A92046FDF7FD
:109B2000DBF8032202A96846FCF7CBFC08B1002051
:109B30003EBD01203EBD000070B50D460446142810
:109B400010D2FDF7D9FE68B1084904EB840001EB9F
:109B50004000D0F802102960C188A980007AA8715D
:109B6000002070BD43F2020070BD00002C2A0020CE
:109B700070B5018890B0102961D1011D2C22684672
:109B8000FCF774FC9DF804004FF6FF760321344681
:109B9000B1EB500F2BD003F0D9FD9DF804006D46BA
:109BA00040080ED001280CD0022820D118E00D99D1
:109BB000281D1131FDF720F818B100BFBDF82C4069
:109BC00015E00CAA0BA9072003F094FD0028EED1A4
:109BD0000DE00D99281D491CFFF78AFF0028EDD1E3
:109BE0000CAA0BA9072003F085FD0028F1D1BDF8D0
:109BF0000000B44200EB8001124820F8114000EB55
:109C000041000199C0F80210BDF80810C1809DF80C
:109C10000A10017213D0BDF80000ADF82E0000202C
:109C2000ADF83040084E8DF82C000BAD044600BF57
:109C300056F8241028468847641C022CF8D310B02C
:109C400070BD00002C2A0020A00F03002DE9F04178
:109C50004FF6FF760546B04213D00B4F002400BFED
:109C600004EB840037F81000A84206D12046FDF727
:109C700043FE10B12046BDE8F081641CA4B2142C50
:109C8000EED33046F7E700002C2A00203EB50C4604
:109C9000054603F05BFD0BE0BDF80000A04207D0D5
:109CA0002846029900F00EF810B1BDF800003EBD44
:109CB00001AA6946072003F01DFD0028ECD14FF6EC
:109CC000FF703EBD2DE9F0410C46054600F111073D
:109CD00001F111061022491C401CFCF7F2FB48B9A7
:109CE000681C00F0FDF928B1601C00F0F9F908B11A
:109CF000012400E0002431463846FCF77DFF3B7824
:109D00000222B2EB530F0CD00321B1EB530F08D05A
:109D10003378B2EB530F04D0B1EB530F01D00121D4
:109D200000E00021084201D18C4302D00120BDE8AF
:109D3000F0810020FBE7018811B9421892780AB13E
:109D400001207047491C0829F7D30020704710B53F
:109D50000C460346FFF7EFFF00280AD01888218839
:109D6000884205D10822A11C981CFCF7AAFB08B167
:109D7000002010BD012010BD142804D2024A00EBBF
:109D8000800022F8101070472C2A002070B505467C
:109D9000FFF75CFF0446284603F058FB002808D173
:109DA000142C06D2034B04EB84024FF6FF7123F808
:109DB000121070BD2C2A002010B50446142808D2B9
:109DC000FDF79AFD28B1044904EB840031F8100036
:109DD00010BD4FF6FF7010BD2C2A00203EB5044682
:109DE00003F0B4FC0EE0019920464631FFF7AFFFC7
:109DF00028B9019920462A31FFF7A9FF10B1BDF813
:109E000008003EBD6A4602A9072003F073FC002843
:109E1000E9D14FF6FF703EBD10B50A4941600A48CE
:109E200000F01BFE58B902F0FFF907491C238C22F1
:109E3000087404488C39001F006800F074FD00208D
:109E400010BD000064110300D42F00202DE9F04163
:109E50002D4F002520B17D604FF40640BDE8F08114
:109E60000879012258B1294E01280CD0264C4FF018
:109E700002080834022820D0032841D127E00A71C3
:109E800003F038F93AE0002000EB800116F82110C9
:109E9000022908D0401C80B20228F5D33A707D60B8
:109EA00041F61D50DAE700EB800006F8205006EB83
:109EB0008000406803F010F920E00D71A4F80480E0
:109EC000002301221248216801F01EF916E00D71ED
:109ED000206803F001F90D4923682831498801EB16
:109EE000810206EB8201D1F804C0C4F800C04B60C7
:109EF000A3880B81A4F8048006F822500028ADD076
:109F00007D6048F20D60A9E7A8230020002F002003
:109F1000542400200146034802888A4200D00020D1
:109F200070470000802900202DE9FC5F0E00834669
:109F3000DDE90C47C6F1000098469246814600D400
:109F40000846012503E000BF90FBFAF06D1C504568
:109F5000FADAA84500D9454624B1002E01DB78077E
:109F600000D5641EB80702D5B8F1000F0AD0F80773
:109F700008D13CB1A54205D220215846641EFEF707
:109F8000EFF8F6E7002E02DA4E462D2102E07807C0
:109F900003D52B215846FEF7E3F807F0030002280B
:109FA0000BD1B8F1000F08D13CB1A54205D2302148
:109FB0005846641EFEF7D4F8F6E7CDE9004743465D
:109FC00052463146584606F0D9FBBDE8FC9F0000DA
:109FD00070B50D46044600684FF4887102F0EFF941
:109FE0004FF49071206802F0EAF94FF49271206802
:109FF00002F0E5F94FF4A271206802F0E0F94FF4A5
:10A00000AC71206802F0DBF920681249C0F8041333
:10A010002068690740F30730090E002804DB00F1CF
:10A02000E02080F8001405E000F00F0000F1E020CF
:10A0300080F8141D206840F30730002809DB00F089
:10A040001F02012191404009800000F1E020C0F88A
:10A05000001170BD10034200024600201268530731
:10A0600013D502F00300012802D002280CD105E02C
:10A07000C2F383100B68801C184404E002230868B4
:10A0800003EB925210440860012070470248007AA6
:10A09000002800D001207047D42F0020F0B584881C
:10A0A000A518944200D82246A41AC288D6189A420B
:10A0B00000D81346D21A4B880788BB420CD340887D
:10A0C000834209D88888A04206D3A84204D8C88809
:10A0D000904201D3B04201D90020F0BD0120F0BD73
:10A0E0000021425C0AB101207047491C1029F8D3B5
:10A0F00000207047800701D0002070470120704782
:10A100000A4810B5807860B1002401E0022C06D026
:10A110002046FDF729FE641C042CF7D310BD032450
:10A12000F6E7BDE81040FDF73FBE000058220020D2
:10A130001721018041800021017141711B21817132
:10A14000C17170472DE9FE4F2E4F984692460D0083
:10A15000814601D000260DE0684600F0A1FB6A466A
:10A160000021484603F0CAF83878009E10B99DF8DF
:10A17000090098B152463146484605F0A7FC04460E
:10A18000014600224846FEF7E7FE0D2C37D008DCDA
:10A19000A4B3082C33D00B2C09D130E00520BDE846
:10A1A000FE8F112C1ED0A4F54050023827D0204637
:10A1B00002F0DAF80246144814494B46401AC00827
:10A1C000012101EB0040124901F09FFC5FF0030503
:10A1D000B8F1000F04D0324621464846FEF7DCFBBA
:10A1E0002846DCE72A46F9784846FDF769FB5246DF
:10A1F000B9784846FDF764FB0025E9E7FFE7254607
:10A20000E6E7000020230020682B0300202B03003A
:10A210009C22030070B50E460C4915460446097889
:10A22000FDF736FB00280FD0204603F00DF800287C
:10A230002A463146204603D0BDE8704003F00AB8F4
:10A24000BDE87040FEF708BB70BD00001823002079
:10A2500070B5094D0646A978FDF71AFB0446E97862
:10A260003046FDF715FB014622463046BDE87040FA
:10A270000123FFF767BF000020230020F0B585B061
:10A280000546002714216846FCF709F9A5F57F402B
:10A29000ADF80250FF3825D02846FFF7D3F9040067
:10A2A00022D01B481B49401AC6080B2C22D0112C67
:10A2B0001ED0A4F5405002380ED0204602F054F8CB
:10A2C0000246012000EB06402B46134901F01DFC1D
:10A2D0002146284605F0B8F810483A4681782846C5
:10A2E000FDF7EEFA05B0F0BD0E208DF800000BE092
:10A2F0000127F1E70F208DF80000022000EB064057
:10A300002A46074901F0FAFB6846FEF7A5FBE3E79A
:10A31000202B0300202B0300781503007822002057
:10A32000CC1503000A4602494978FDF7C9BA000076
:10A33000782200202DE9F041002786B080463E4675
:10A34000FFF7C8F9040022D0112C22D01B481C4969
:10A35000401AC508862C1ED0A4F5405002380ED0F5
:10A36000204602F001F80246012000EB054043467A
:10A3700014A101F0CAFB2146404605F065F83946B4
:10A380004046FFF7CFFF06B03046BDE8F08101261A
:10A39000F5E70127F3E714221A496846FCF766F847
:10A3A0000220ADF8028000EB0540424616A101F004
:10A3B000A5FB6846FEF750FBE1E70000202B0300F9
:10A3C000202B03006773636D5F6C6F63616C5F6468
:10A3D000625F63616368655F757064617465282995
:10A3E0002072657475726E656420257320666F72C5
:10A3F00020636F6E6E5F68616E646C653A202564E1
:10A40000000000004C0F0300466C61736820667505
:10A410006C6C2E20436F756C64206E6F74207374A7
:10A420006F7265206461746120666F7220636F6E65
:10A430006E5F68616E646C653A2025640000000000
:10A440002DE9FF410026244800F004FB2248001FAC
:10A45000074600F0FFFA214C2149A06800900D68E2
:10A4600000E000986946284004EB80000C30FFF7BC
:10A47000F3FD0028F5D101AA009901EA050304EBD8
:10A480008303491CDB6842F82030401C00910228FD
:10A49000F2D3019800F0030001280BD0022810D15C
:10A4A0000198032101EB90500099BDF80A6001EB7F
:10A4B000900005E00198BDF80A60C0F383100844DD
:10A4C0000090384600F0C3FA08B10098A06004B0CC
:10A4D0003046BDE8F0810000A43500208C3100201A
:10A4E000E82300206848ACB003254FF0A041C0F835
:10A4F000005740200127C1F80C05FCF78FF8FFF743
:10A50000AFFAB903002001F073FB08B1FCF764FC5B
:10A5100001F0C6F9FCF77EFC08B1FCF75DFC5B4A74
:10A5200001215B48FCF76AFC08B1FCF755FCFFF71A
:10A530000DF801F067FC08B1FCF74EFC01F028FEB5
:10A5400008B1FCF749FC002469460120009401F0A1
:10A55000AFFC08B1FCF740FC684601F029FD08B1EA
:10A56000FCF73AFC9DF808004AA120F00F00401CBF
:10A5700020F0F00010308DF80800092202A87CDFDE
:10A5800008B1FCF729FC00941820ADF800000194F4
:10A59000ADF80200ADF804404FF4C870ADF8060005
:10A5A00068467ADF08B1FCF717FC00213C4800F050
:10A5B000DDFA08B1FCF710FC04208DF8AC00AC21EA
:10A5C0006846FBF76CFF02208DF800002BA8019075
:10A5D0008DF8027006208DF8030032480590ADF822
:10A5E00010704FF49670229044F2506023908DF8D2
:10A5F0007C702D4829902A4869462030FCF7D5FE0A
:10A6000008B1FCF7E9FB264801212030FCF7CAFE1F
:10A610002648009022486946143000F03AFB08B101
:10A62000FCF7DAFB1C216846FBF739FF4FF4A0303A
:10A63000CDE900404FF4F02002901D4805901D48E0
:10A640008DF80C500690ADF80E408DF8104068461D
:10A65000FDF774F808B1FCF7BFFB03F00FFA1648DA
:10A660001649401AC00805EB004015A101F042FA56
:10A670003046FCF709FB00BF01F020F90028FBD1B0
:10A6800001F0D4FBF8E70000180000504966020012
:10A69000D40E030069636D5F323039343800000036
:10A6A0009C2400205222002019CB020071BE02001F
:10A6B00081CB020083830200C82B0300202B030000
:10A6C00054656D706C617465206578616D706C6542
:10A6D00020737461727465642E00000070B51446B6
:10A6E00082880E4605462088111D0144921C99421D
:10A6F00001D8FE2A01D90C2070BD521C325420888A
:10A70000FF21401C80B2208031542088401C80B240
:10A7100020808119288806F01CF82188084480B21E
:10A720002080AA8842B1A96841B13044FBF79EFE5F
:10A730002088A98808442080002070BD072070BDB3
:10A740002DE9F047C5881E1DB6FBF5F78946B6FB17
:10A75000F5F1044605FB176C407916686843DDF88F
:10A7600020A0F718001F874200D9C61A166001E022
:10A770002468491E0029FBD1A5EB0C078846B74287
:10A7800016D818E004EB0C00001D09EB0803BAF121
:10A79000000F3A4602D00146184600E01946FBF782
:10A7A00065FE2468F61B4FF0000CB844B54201D991
:10A7B000374600E02F46002EE4D1BDE8F0870000C8
:10A7C00030B5024651B101F027FA0021074C08E0EC
:10A7D00034F821301568AB4202D11160002030BD41
:10A7E000491C8142F4D3052030BD00000000000068
:10A7F000BFF35F8F00F016B9F8B50F460178144625
:10A800000546012901D1687830B12088821C9A421E
:10A8100032D8012902D006E00720F8BD697801444A
:10A82000891C994228D8181A801E86B2ADF800609B
:10A830002188B81C084469467DDF0028EDD12978BD
:10A84000022904D06878BDF80020904205D3BDF8F5
:10A850000000B04201D809200AE00820012905D1F2
:10A860006978B14202D8ADF8001001E0ADF800609F
:10A87000BDF80010FE2901D90C20F8BD2288491C22
:10A88000B9542188491C89B2218078542088401C01
:10A890002080BDF80010084420800020F8BD000092
:10A8A000034A00219268C0E90021816070470000DE
:10A8B0002023002070B586B00D46064614461421AC
:10A8C0006846FBF7ECFD8DF80050ADF802402046DD
:10A8D000FFF772FAADF80400142269463046FBF720
:10A8E000C5FD06B070BD70B54FF6FF750E46A842A7
:10A8F00001D1002000E0401C84B208E0214630462F
:10A9000000F090F808B1204670BD641CA4B2FF2C82
:10A91000F4D9284670BD10B5FBF7C7FC08B100207C
:10A9200010BD112010BD10B531B1B2FBF3F403FB23
:10A9300014241CB1092010BD0E2010BD016000219F
:10A94000416081608281C381084610BD70B50C46AC
:10A950000546FBF75FFC002802D0218828680844E0
:10A9600070BD10B50A8849888A4203D1FBF794FC70
:10A97000012010BD002010BD70B50C460546FBF748
:10A980006EFC002802D061882868084470BD10B5AC
:10A990000A8849888A4203D1FBF758FC012010BD80
:10A9A000002010BD01F01F0301229A40D243490943
:10A9B00000EB8100114600F059B80A4601F01F0370
:10A9C0000121994010B552090C4600EB820000F0BD
:10A9D0005DF8204000D0012010BD2DE9F0418046F7
:10A9E0000D460024481E012101EB501716E058F8CF
:10A9F0002400C04390FAA0F0B0FA80F020280CD2D6
:10AA000000EB4416AE4208D231464046FFF7D5FF70
:10AA10000028ECD13046BDE8F081641CA742E6D89E
:10AA20002846F8E74A0950F8220001F01F020121E8
:10AA30009140084000D00120704701F01F0301221F
:10AA40009A40490900EB8100114600F029B8002125
:10AA500000F017B8012100F023B8012100F016B86A
:10AA600008B56A46FBF76DFC009808BD08B56A4654
:10AA7000FBF74DFC009808BD08B56A46FBF761FC82
:10AA800008BD08B56A46FBF742FC08BD08B56A4632
:10AA9000FBF730FC08BD08B56A46FBF71FFC08BD94
:10AAA00008B56A46FBF726FC009808BD08B56A465B
:10AAB000FBF754FC009808BD38B5044600258DF816
:10AAC00000506846FCF7F2F9216862680868904215
:10AAD0000ED9401E08600178238AE26801FB032535
:10AAE000227A2168101AC0B20A79824200D2087113
:10AAF0009DF80000FCF7FEF9284638BD38B505463C
:10AB000000208DF800000C466846FCF7CFF9E86895
:10AB1000298A201AB0FBF1F12A681068431C1360DF
:10AB200001709DF80000FCF7E5F938BD10B530B1B3
:10AB3000017A42680368891AC9B21A6006E00E20D9
:10AB400010BD03681A68541C1C601170491EC9B2FC
:10AB5000F7D2006800210171084610BDC20800F05C
:10AB600007030120895C98400840704710B560B128
:10AB70000161172120F8021B20F8021B1B2100F89D
:10AB8000021BFFF7D5FA002010BD0E2010BD0000FB
:10AB900070B585880C46002D4FD1018824291FD01F
:10ABA00006DC102909D011290CD0232921D11CE061
:10ABB0003A290BD055291CD10DE00146204601F061
:10ABC000EDFF16E0A01DFFF7B3FA12E001462046A4
:10ABD00002F0D6F90DE00146204602F02BF908E01C
:10ABE0000146204602F05EF803E00146204602F0EE
:10ABF000E3F8A07A002820D0E1882846A5DF0F4995
:10AC00000F4A0126891ACD0858B1112815D001F034
:10AC1000ABFB024606EB0540BDE8704009A100F021
:10AC20006DBF0023A372E6720420E28800EB0540AA
:10AC3000BDE87040104900F068BF70BD382B0300BC
:10AC4000202B030073645F626C655F6761747463DB
:10AC50005F65786368616E67655F6D74755F726567
:10AC6000717565737428292072657475726E6564D8
:10AC70002025732E00000000E817030020B10278A1
:10AC8000DE2A03D0082070470E2070474180002044
:10AC9000704760B159B10278DE2A0AD00968416074
:10ACA000DE2101704FF6FF714180002070470E20B9
:10ACB0007047082070477FB5054600294DD0002D0C
:10ACC0004BD008780C46DE2847D1A8886188884296
:10ACD00002D1204605F00AFE2888012825D0022846
:10ACE0003BD011283AD0512837D135F8040F61886C
:10ACF000884232D1A978A81C02292ED1017A0429D0
:10AD000003D0062901D0052927D100210091022274
:10AD10008DF8002001914FF4C07202910391ADF8BB
:10AD20000420007A05280FD010E0297A2046012956
:10AD300013D1A988428891420FD10121017204B038
:10AD4000BDE8704005F0D2BDADF804102888694612
:10AD5000B0DF002801D0616888477FBDA88861887E
:10AD60008842FAD14FF6FF7060807FBD00F18040CD
:10AD70000068002800D00120704708B500F180402D
:10AD8000002101600068009008BD00002DE9F0413D
:10AD9000040007D0044E4FF47A47751C3846A84784
:10ADA000641EFAD1BDE8F081E00E03002DE9F04108
:10ADB000040007D0044E4FF47A47751C3846A84764
:10ADC000641EFAD1BDE8F081D013030070B50D4CBC
:10ADD0000125207808B185260EE00020A060606083
:10ADE0002061E060084801F00FFB064601F01CFA04
:10ADF00008B901F0F3FA257001F0E8FA00B1A57086
:10AE0000304670BD102D00208982020038B5002523
:10AE10008DF800506846FCF749F8084CE068401E81
:10AE2000E060E06828B901F0D1FA10B901F0FCFA4D
:10AE3000A5709DF80000FCF75DF838BD102D0020CE
:10AE40002DE9F041064604780B4815460F4640F8B8
:10AE50002420083040F82430487B10B1084605F023
:10AE600021F80DB1054A00E0002223463946301D85
:10AE7000BDE8F04101F03EBB4024002051FF02003C
:10AE8000001D01F0A9BB38B5001D049C009401F021
:10AE9000BBFB38BDF0B505460478154889B01646A9
:10AEA00040F82420124A0869121DA2F1080742F84E
:10AEB0002400487F385520226846FBF7D7FA0494CF
:10AEC0002878385C48B10EB10A4A00E00022694691
:10AED000281D01F003FD09B0F0BD0EB1064A00E0E7
:10AEE0000022694605F10C0001F0C2FBF3E7000007
:10AEF0003C23002011060300590403000FB408B5D9
:10AF00000399002904D004AA00926A4600F00FF8C1
:10AF100001B05DF814FB10B582680446002A05D024
:10AF2000D4E90403216898470020A06010BD2DE9F2
:10AF3000FC4791460C00804676D014F8011B39B1CD
:10AF400025290ED04046FDF70BF920780028F4D1D2
:10AF500098F80C00002867D04046BDE8FC47FFF792
:10AF6000DABF0020012221782B291BD02D2902D005
:10AF7000302908D102E040F0010001E040F0020079
:10AF8000641C002AEFD100252A290ED02178A1F1D6
:10AF900030020A2A11D205EB850201EB4205641C3E
:10AFA000303DF1E740F00400EAE7D9F800100B1D4E
:10AFB000C9F800300968641C0D44217800232E294B
:10AFC0000BD114F8011FA1F130020A2A05D203EBBC
:10AFD000830201EB4203303BF3E76C290DD0682973
:10AFE0000BD0692921D00BDC252918D0582931D064
:10AFF00063290ED0642915D117E014F8011FECE77E
:10B00000702969D0732932D075291BD0782909D1CC
:10B0100020E0D9F80000011DC9F800100178404671
:10B02000FDF79EF8641C90E76CE0D9F800100A1D4B
:10B03000C9F800200968CDE900500A224046FEF711
:10B0400073FFEFE7D9F800100A1DC9F8002009685E
:10B050000A2206E0D9F800100A1DC9F80020096884
:10B060001022CDE90050404605F088FBDAE7D9F818
:10B07000001000270A1DC9F800200E68C00705D17E
:10B0800012E04046761C7F1CFDF76AF831780029F3
:10B09000F7D104E0202140466D1EFDF761F8BD4266
:10B0A000C0D9002DF6D1BDE74EB13046FBF702FA0C
:10B0B000074604E0202140466D1EFDF751F8BD42D1
:10B0C00006D9002DF6D103E04046761CFDF748F87E
:10B0D00031780029F8D1A5E7D9F80000011DC9F899
:10B0E0000010056830214046FDF73AF878214046C7
:10B0F000FDF736F808200021CDE9000103461022B3
:10B100002946B0E7BDE8FC872DE9F84388460500ED
:10B110002C482D499946A0EB01004FEAD0004FF092
:10B120000101164601EB004424D0286800282CD0E9
:10B13000002E34D0696840464FF010070A68511E4F
:10B1400011EA080F11D1014672432846FBF76DFD45
:10B1500000282ED028684B463246046901B041468B
:10B160002846A446BDE8F04360472046174B18A286
:10B17000009722E00E2000902046144B1EA220A132
:10B1800000F0CBFC0E20BDE8F8830820009020469C
:10B190000E4B26A21AA100F0C0FC0820F3E70920FC
:10B1A00000902046094B24A215A100F0B6FC09200E
:10B1B000E9E7064B214A2046009711A100F0ADFCBB
:10B1C0001020E0E7B02B0300202B03004B110300FD
:10B1D000616464725F69735F706167655F616C6908
:10B1E000676E656428705F66732C20706167655FA9
:10B1F0006164647229000000705F667300000000E3
:10B20000257320636865636B206661696C656420E3
:10B21000696E202573282920776974682076616C0F
:10B22000756520307825782E00000000705F667309
:10B230002D3E705F617069006C656E0060230300D5
:10B2400038B503001148124D4FF00E04A0EB050075
:10B250004FEAD0004FF0010505EB004009D061B185
:10B2600019600C6801B0A446BDE83040114618468C
:10B270006047084B08A2009402E0064B08A2009425
:10B2800009A100F04AFC0E2038BD0000B02B0300DD
:10B29000202B030000110300705F667300000000A4
:10B2A000705F617069000000257320636865636BDF
:10B2B000206661696C656420696E202573282920E9
:10B2C000776974682076616C756520307825782EF2
:10B2D00000000000044801214174007A08B10020F8
:10B2E0007047012070470000D42F0020012801D0B2
:10B2F000032808D10449002201284A7400D0002004
:10B30000087403F0ABBB7047D42F002070B5024621
:10B31000022801D0032A45D1234C207A002841D0AD
:10B32000012833D0022831D120480023022A0068A6
:10B3300002D0032A2AD11BE0E360017911B101296F
:10B3400024D10DE0D0E90565711B4FF48056B14260
:10B3500000D33146294481614569A9420ED015E0E8
:10B360000169491C0161426991420FD1237213E0C6
:10B37000E168491CE160082908D9E3602372022AC8
:10B380000AD00D21FDF7DEFA03F00CFB607C28B13A
:10B39000BDE8704000F04EBF0021F3E7BDE870400B
:10B3A00003F05CBB70BD0000D42F0020B823002048
:10B3B0002DE9F84F90468A463A493B4A0500A1EBF1
:10B3C00002014FEAD1014FF00102DDF828901E463C
:10B3D0004FF00E0002EB01441AD0B8F1000F1CD060
:10B3E0002868002822D00920002E29D069684968E1
:10B3F000B6FBF1F201FB1261002926D000902B4B25
:10B4000020462BA235A100F088FB0920BDE8F88F6B
:10B4100000902046254B3CA203E00090234B2046A1
:10B420003BA22EA100F079FB0E20EFE70820009050
:10B4300020461E4B38A229A100F06FFB0820E5E74B
:10B4400000902046194B37A2DCE75046FBF7E7FB9C
:10B45000102798B14046FBF7E2FBA0B132465146B7
:10B460002846FBF7E2FB98B1CDF8009028683346F8
:10B470004246C46851462846A047C7E720460B4BC2
:10B4800029A2009708E02046084B2DA2009703E070
:10B49000064B204633A2009710A100F03EFB10207F
:10B4A000B4E70000B02B0300202B03003811030089
:10B4B00021286C656E202520705F66732D3E705FBD
:10B4C000666C6173685F696E666F2D3E70726F6740
:10B4D00072616D5F756E69742900000025732063C9
:10B4E0006865636B206661696C656420696E202500
:10B4F00073282920776974682076616C756520301F
:10B500007825782E00000000705F66730000000050
:10B51000705F737263000000705F66732D3E705F32
:10B52000617069006C656E00616464725F69735F6D
:10B53000616C69676E6564333228646573742900D1
:10B54000616464725F69735F616C69676E656433BF
:10B5500032282875696E7433325F7429705F737294
:10B5600063290000616464725F69735F776974685E
:10B57000696E5F626F756E647328705F66732C20EE
:10B58000646573742C206C656E29000070B541EA07
:10B590004201DDE904564FF0A04441EA830141EA4B
:10B5A000052104EB800041EA0641C0F8001770BD98
:10B5B00070B541EA4201DDE904564FF0A04441EA8A
:10B5C000830141EA052104EB800041EA0641C0F80D
:10B5D000001770BD70B541EA4201DDE904564FF035
:10B5E000A04441EA830141EA052104EB800041EADD
:10B5F0000641C0F8001770BD1CB5002100910B4634
:10B6000001220191FFF7C2FF1CBD1CB50021009172
:10B610000B4601220191FFF7CBFF1CBD1CB5002298
:10B620000B46009211460192FFF7B0FF1CBD1CB5FE
:10B6300000220B46009211460192FFF7B9FF1CBD94
:10B640001CB5002100910B46012201911146FFF724
:10B650009DFF1CBD1CB5002100910B4601220191EC
:10B660001146FFF7A5FF1CBD4FF0A04202EB800082
:10B67000D0F8002722F44032C0F80027D0F8002785
:10B6800042EA0141C0F800177047000038B5094B85
:10B6900044181B6800936B4608E000BF53F8201065
:10B6A000D1F8205520C2C1F82055401C8442F5D85D
:10B6B00038BD0000A81003004FF0A04201218140D6
:10B6C000C2F80815704701224FF0A043824011B123
:10B6D000C3F808257047C3F80C257047034908B51F
:10B6E0000844002101600068009008BD006000402F
:10B6F00002494058012800D00020704700600040F7
:10B7000030B5154A01460020D2F8104423460AE01D
:10B71000DB681D79854205D1401C0A28F6DB4FF015
:10B72000FF3030BD1B68002BF2D1431CF9D0CB6831
:10B730001871D2F8103443B1DB68CC681B68236001
:10B74000D2F81024D268116030BDC2F81014C96854
:10B7500000220A6030BD00008C310020F0B595B0A9
:10B760001C4615460F4608461A9E00F025FB182178
:10B7700009A8FAF794FE0E96CDE909540023082291
:10B7800003A9384600F02DFB05980690BDF810007F
:10B79000ADF81C00BDF81200ADF81E0000208DF8B9
:10B7A00021000398082600F00300012802D0022897
:10B7B00018D032E003983346850AC0F3C2008DF8F2
:10B7C000200003980FA9C0F38314A200384600F0AC
:10B7D00008FB09A8009006AB22460FA9284600F0F6
:10B7E00047FA1AE00398840DC0F3C2008DF82000D8
:10B7F000082C01D2254600E0082533462A460FA929
:10B80000384600F0EEFA2E44641B09AB06AA29461E
:10B810000FA800F095F9002CEAD1384600F0D2FAD2
:10B8200015B0F0BD7047012004F034BE084810B5D3
:10B830000178084A515C19B1001D01F0E9F802E0F5
:10B840000C3000F0E3FFBDE81040002004F022BE01
:10B85000CC2300203823002008B5034A009240235F
:10B86000024AFFF77BFF08BD99F40200F42F002085
:10B870000A4A012902EBC00007D0022907D0032998
:10B8800007D0042907D00020704702207047042009
:10B89000704700797047407970470000202B030003
:10B8A00010B5FFF7C0FF04210348FFF729FF024945
:10B8B0000120C968487110BD102B03002DE9F04F1D
:10B8C0008DB0FCF765FC18B100200DB0BDE8F08F1D
:10B8D0007E4C4FF0000BC4F818B4BFF34F8F7C4977
:10B8E000A06802900D68D846284004EB80000BE069
:10B8F000D4F8180470B961680298814201D8A16037
:10B90000E2E7284004EB80000C3002A9FEF7A4FB1C
:10B910000028EDD1002005AA029901EA050304EBF5
:10B920008303491CDB6842F82030401C0291022846
:10B93000F2D3059800F00300022802D001284DD070
:10B94000AAE005985022810D8946B2EB905F00D89D
:10B9500050210E4666F39F50059008315D4800F077
:10B96000E2F9070078D000F027FA4346082205A93B
:10B97000384600F03EFA029908F1080A2940681A90
:10B980008000001D864222D9504D0C3530B1C2B224
:10B9900004EB8101301A90460C3104E02946F2B2E2
:10B9A000002590462846C6B25346384600F021FA94
:10B9B0000AEB080325B132462946384600F019FA49
:10B9C000029909F1030001EB900002903BE004EBC7
:10B9D00081015346324638460C31EFE70598C0F3F3
:10B9E0008310062800D30620059960F38911C1F35E
:10B9F0008310801C05918100364800F094F90700FF
:10BA00004AD000F0D9F94346082205A9384600F08B
:10BA1000F0F908F1080800260FE00298434600EA12
:10BA20000501401C04EB81010290042238460C31D0
:10BA300000F0DFF908F10408761C0598C0F38310C4
:10BA4000B042EAD847B1D4F81054D4F8180478B109
:10BA5000384600F0B7F934E01EE0E8684079012884
:10BA600004D12A682846394612689047E868056874
:10BA7000002DF2D1384600F0A5F98DF800B06846E7
:10BA8000FBF714FAD4F8180408B90298A0609DF8DE
:10BA90000000FBF72FFA14E0D4F8104405E0216809
:10BAA000204689688847E0680468002CF7D10A4876
:10BAB0000A49401AC008022101EB004008A100F029
:10BAC00019F8FCF765FB80F00100FEE68C310020E0
:10BAD000E8230020F02B0300C82B0300202B0300D9
