:020000040800F2
:10000000A0100020490200086D1F00083F1D0008D5
:10001000311F0008351A0008EB2500080000000019
:10002000000000000000000000000000892200081D
:10003000391A000800000000F51F0008BD23000861
:1000400063020008630200086302000863020008FC
:1000500063020008630200086302000863020008EC
:1000600063020008630200086302000863020008DC
:1000700063020008630200086302000863020008CC
:1000800063020008630200086302000863020008BC
:10009000630200086302000863020008851A000872
:1000A000630200086302000863020008630200089C
:1000B000630200086302000863020008630200088C
:1000C000630200086302000863020008630200087C
:1000D0006302000835240008630200086302000878
:1000E000630200086302000863020008630200085C
:1000F000630200086302000863020008630200084C
:10010000630200086302000863020008630200083B
:10011000630200086302000863020008630200082B
:10012000630200086302000863020008630200081B
:1001300000F002F800F078F80AA090E8000C824481
:100140008344AAF10107DA4501D100F06DF8AFF25E
:10015000090EBAE80F0013F0010F18BFFB1A43F0A5
:10016000010318473CEC00005CEC00000A444FF02F
:10017000000C10F8013B13F0070408BF10F8014B06
:100180001D1108BF10F8015B641E05D010F8016B4B
:10019000641E01F8016BF9D113F0080F1EBF10F8AF
:1001A000014BAD1C0C1B09D16D1E58BF01F801CBD2
:1001B000FAD505E014F8016B01F8016B6D1EF9D555
:1001C0009142D6D37047000000230024002500266A
:1001D000103A28BF78C1FBD8520728BF30C148BFAA
:1001E0000B60704766290AF0B08603681B0A28BFB7
:1001F00041F08001642900F05381782900F0CA8120
:10020000E42900F08981732900F06B860020704793
:100210001FB500F0FFFE04000020002109F038FDAA
:10022000E0601FBD10B510BD00F0CEFF1146FFF716
:10023000EFFF08F071F900F0ECFF03B4FFF7F2FFF5
:1002400003BC02F02AFB0000094880470948004728
:10025000FEE7FEE7FEE7FEE7FEE7FEE7FEE7FEE776
:10026000FEE7FEE704480549054A064B70470000D3
:10027000D523000831010008A00A0020A0100020AA
:10028000A00C0020A00C0020704753EA020C00F0E4
:1002900069802DE9F04B4FF00006002B1FBFB3FA29
:1002A00083F503FA05F424FA05F65E4012BF1643FF
:1002B000B2FA82F502FA05F4C5F120051EBF22FA52
:1002C00005FC44EA0C04203556EA044C4FEA144479
:1002D00018BF641C4FF000084FF00009904271EB0A
:1002E000030C39D3002919BFB1FA81F701FA07F6D7
:1002F000B0FA80F700FA07F6C7F120071EBF20FA10
:1003000007FC46EA0C062037B6FBF4FCA7EB050712
:10031000103F07F01F0BCBF120060CFA0BFB2CFA59
:1003200006F644BFB3460026202FA4BF5E464FF01A
:10033000000B5BEA060C08BF4FF0010B19EB0B0931
:10034000ABFB027C48EB0608C01B06FB02CC0BFB98
:1003500003CC71EB0C01C1E70B460246414648460F
:10036000BDE8F08B13B54FF000004FF00001AFF384
:100370000080BDE81C407047B2F120030AD5C2F1ED
:10038000200320FA02F001FA03F341FA02F140EAF5
:100390000300704741FA03F04FEAE171704710B56E
:1003A0004C1084EA530404D54042C1F1000138BF27
:1003B000491E1B4204D55242C3F1000338BF5B1EE5
:1003C000FFF763FF14F0804F04D04042C1F10001F9
:1003D00038BF491E14F0004F04D05242C3F100034D
:1003E00038BF5B1E10BD00000FB4044910B503AA4E
:1003F000029800F07BFD10BC5DF814FB2800002083
:1004000070B5044685690068C10601D5302600E054
:100410002026C00707D070BDD4E90121304690479F
:10042000206A401C20626D1EF6D570BD70B5044672
:1004300085690078C00707D170BDD4E9012120206B
:100440009047206A401C20626D1EF6D570BD70B5C5
:100450000C460546012A05D02878800600D5EA69B1
:10046000002302E0012305E05B1C934202D2E05C22
:100470000028F9D1A869E618C01AA861286A1844AA
:1004800028622846FFF7BCFF04E0D5E9012114F8F3
:10049000010B9047B442F8D32846FFF7C7FF70BD61
:1004A0002DE9F0410646002410687529314616A54D
:1004B00010D0AFF30080002802DA404213A507E015
:1004C00031688A0701D512A502E0490704D511A5B4
:1004D000012401E0AFF3008000210A2206F1240785
:1004E00009E0B0FBF2FCB0FBF2F302FB1C00303081
:1004F00078541846491C0028F3D123462A46304632
:10050000BDE8F04100F073BA000000002D000000CB
:100510002B000000200000002DE9F0418046D21D94
:1005200022F007020025D2E90002F52915A614D011
:10053000011E72F1000106DA0023D0EB030063EB29
:10054000020211A608E0D8F800108B0701D50FA60B
:1005500002E0490701D50EA601251146002408F145
:10056000240704E000F0F3F930323A55641C50EAF5
:100570000102F7D12B46324621464046BDE8F04104
:1005800000F035BA000000002D0000002B00000034
:100590002000000070B504460D4621461068AFF3F8
:1005A00000802188090502D50F4A7A4402E00E4AEC
:1005B0007A440E32002104F1240305E000F00F0616
:1005C0000009965D5E54491C0028F7D1207800236D
:1005D000000704D5702D02D009B102231132204644
:1005E000BDE8704000F003BAC6E500002DE9F05FF9
:1005F000894604464FF0000ADFF874B1FB44C0F8A6
:1006000020A02046E1688847002874D0252806D01D
:10061000D4E901219047206A401C2062F1E70026BE
:100620005F462046E16888472028054607DB312DD4
:1006300005D2781910F8200C08B10643F1E7B0078D
:1006400001D526F00406C4F81CA00027C4F818A0A1
:100650002A2D09D0284602F019F938B304EB87088F
:10066000303DC8F8185019E059F8041B204604EB37
:1006700087029161E1688847012F054618D1E0693A
:10068000002820DA26F020061DE0D8F8180000EB3C
:10069000800005EB40003038C8F818002046E168BB
:1006A0008847054602F0F2F80028EED1012F0AD063
:1006B0002E2D08D12046E16888477F1C0546022F71
:1006C00046F02006C4DBA069002803DA404246F069
:1006D0000106A061F00701D026F010066C2D0BD0AA
:1006E000682D09D04C2D39D06A2D35D0742D35D0D8
:1006F0007A2D33D016E038E0E1682F46204688474F
:10070000B842054609D16C2F26D04FF48060E168CD
:10071000064320468847054604E06C2F1AD04FF464
:10072000807006430DB3A5F14100192802D8203589
:1007300046F400664A462946204626604E46FFF7A4
:1007400051FD80B101280BD0F61D26F0070000F105
:10075000080956E74020E4E78020D8E70020D6E7E4
:1007600006F104094DE7284652E7206ABDE8F09FEC
:100770009CE5000040EA010310B59B070FD1042A55
:100780000DD310C808C9121F9C42F8D020BA19BA5C
:10079000884201D9012010BD4FF0FF3010BD1AB1C1
:1007A000D30703D0521C07E0002010BD10F8013B16
:1007B00011F8014B1B1B07D110F8013B11F8014B3D
:1007C0001B1B01D1921EF1D1184610BD431A28BF40
:1007D0009A4240F29D83032A1044114440F226803D
:1007E00010F0030F1EBF11F8013D521E00F8013D2D
:1007F00010F0030F7FF4F6AF11F0030300F0E08375
:10080000083AC0F00B8051F8043D083A51F804CD85
:1008100040F8043D40F804CDFFF7F3BF121D5CBF64
:1008200051F8043D40F8043DAFF30080D20724BFE7
:1008300011F8013D11F801CD48BF11F8012C24BF7A
:1008400000F8013D00F801CD48BF00F8012C7047C9
:1008500010B5203AC0F00B80B1E81850203AA0E85B
:100860001850B1E81850A0E81850BFF4F5AF5FEA8F
:10087000027C24BFB1E81850A0E8185044BF18C942
:1008800018C0BDE810405FEA827C24BF51F8043BE9
:1008900040F8043B08BF7047D20728BF31F8023B3D
:1008A00048BF11F8012B28BF20F8023B48BF00F8D1
:1008B000012B70474FF000020429C0F0128010F0A5
:1008C000030C00F01B80CCF1040CBCF1020F18BF2C
:1008D00000F8012BA8BF20F8022BA1EB0C0100F0BF
:1008E0000DB85FEAC17C24BF00F8012B00F8012B92
:1008F00048BF00F8012B70474FF0000200B51346C7
:1009000094469646203922BFA0E80C50A0E80C502F
:10091000B1F12001BFF4F7AF090728BFA0E80C50E0
:1009200048BF0CC05DF804EB890028BF40F8042BD9
:1009300008BF704748BF20F8022B11F0804F18BF46
:1009400000F8012B7047704770477047704730B50B
:10095000B0F10A024FEA900E71F100034EEA817E77
:10096000B0EB0E0061EB91014FEA101E4EEA017EE2
:1009700010EB0E0041EB11114FEA102E4EEA016E02
:1009800010EB0E0041EB11214FEA104E4EEA014EE2
:1009900010EB0E0041EB1141401841F100014FEA0C
:1009A000D00040EA41704FEAD10110EB80054FEAD8
:1009B000810444EA907444EB01046D1944EB04048F
:1009C000521BA3414FF0000348BF0A3200D530BD8F
:1009D000401C41F1000130BD10B500F01FFB006864
:1009E00010BD10B5044600F019FB046010BD2DE9E0
:1009F000F0470D4699469246044600F124080168E6
:100A0000880604D5E06921F01001216000E0012092
:100A1000A84201DD471B00E00027A1697A1902EB1B
:100A20000900081AA0612078C00602D42046FFF70A
:100A3000E7FC002608E0D4E901211AF806009047F7
:100A4000206A401C761C20624E45F4DB2078C006EC
:100A50000AD52046FFF7D4FC06E0D4E90121302076
:100A60009047206A401C2062381EA7F10107F4DC81
:100A700007E0D4E9012118F805009047206A401CDE
:100A80002062281EA5F10105F3DC2046FFF7CEFC0D
:100A90002078000602D50220BDE8F0870120FBE7A0
:100AA00070472DE9FF4F0C461E464FF0FF378BB0C5
:100AB000D2E90001DDF860800A908A46C1F30A5548
:100AC00005B93D46002108464FF00000BAF1000F7D
:100AD00000F4400005DA00EB80004FF4400101EA29
:100AE00050004FEA9059B9F1010F00DDB9460A985C
:100AF00050EA4A000ED044F61050A5F2FF354543A7
:100B00002F14B8F1000F1ED07542291E1EDDC9F149
:100B100000021CE0B8F1010F4FF0000001D03021BD
:100B200003E0F24305E02154401CB042FBDB3046B9
:100B30000022002121540B99C1F80880C1E900204E
:100B40000FB0BDE8F08FBD1B6D1CDEE74A4600DA32
:100B5000694206A800F0BEFA06AB93E8070003ABB3
:100B600083E8070050460A9900F09CFB8DE80700D7
:100B7000A0F500501F3800900398002D0ADD42F2C6
:100B80001F014A460844002303A90390684600F069
:100B900005FE09E0A0F500504A461F38002303A9CE
:100BA0000390684600F00FFE8DE807000004000C7B
:100BB00003D04FF0FF30410800E01046B8F1000FBD
:100BC00003D00022009215461EE0751E05D4FFF7E3
:100BD000BEFE303262556D1EF9D5B3460122084380
:100BE00002D000227F1C04E02078302801D10022AE
:100BF0007F1E002A099784D01DE0112D07DAFFF728
:100C0000A6FE303262556D1C50EA0102F5D1084350
:100C100002D00098C8B10EE00021681E05E0235CF8
:100C2000625C63542254401E491C8142F7DBAB4690
:100C3000A81B401E0990002004F80B000B98099A8D
:100C4000C0F80880C0E9002B7AE711264FF00008B1
:100C500057E72DE9F04F88460446D21D22F00701E0
:100C600091B0D1E90001CDE90A0101F0C0FC0246D2
:100C70000B98C00F01D02D2007E02068810701D517
:100C80002B2002E0202101EAC000032A099001D0B4
:100C9000072A05DB03464146204600F0DBF90BE15D
:100CA0002078800601D5E06900E00620B8F1650FE4
:100CB000814606D0B8F1660F18D0B8F1670F70D131
:100CC00031E00020B9F1110F009001DB112301E0A8
:100CD00009F101030AAA01A90CA8FFF7E2FEDDE968
:100CE0000C70002609F10105834647E001204B46C0
:100CF00000904FF000470AAA01A90CA8FFF7D1FE07
:100D0000DDE90DB00C995D46002610B909F101002E
:100D10000D18B9EB050003D4C0F1FF3609F1010548
:100D2000A5EB09002BE0B9F1010F01DA4FF0010941
:100D30000020B9F1110F0090484601DD112300E0B9
:100D400003460AAA01A90CA8FFF7ABFEDDE90C7067
:100D50004D4600268346207800070AD4AB4500DACA
:100D60005D4601A8012D04DD411911F8011C30294F
:100D700007D04F4502DA17F1040F04DA012082464A
:100D80000FE06D1EEEE7002F02DCED1B3E4403E09A
:100D9000781CA84200DD7D1CB81B00F1010A4FF051
:100DA00000472078000703D4AA4501DB4FF0FF3A43
:100DB0000021B7F1004F0DF143088DF8431024D006
:100DC00002202B23002F01DA7F422D230A21021E4D
:100DD000A0F1010000DC5FB197FBF1FC97FBF1F2A1
:100DE00001FB1C7C17460CF1300C08F801CDEEE736
:100DF000A8F1010003702188090501D5452100E013
:100E00006521A0F1010800F8011C09980FA9A1EBC8
:100E10000807FF1D00B10120411901EBEA70A1692B
:100E20003844081A401EA0612078C00602D420462B
:100E3000FFF7E6FA099828B1D4E901219047206A22
:100E4000401C20622078C00622D52046FFF7D8FA41
:100E50001EE0002E04DBB34502DD01A8805D00E04A
:100E60003020D4E901219047206A401C2062761C82
:100E7000AAF101005FEA000A0AD100F0CBF8C068CD
:100E80000168405CD4E901219047206A401C20623F
:100E9000281EA5F10105DCDC07E0D4E9012118F8E2
:100EA000010B9047206A401C2062381EA7F1010701
:100EB000F3DC2046FFF7BAFA032011B041E610B583
:100EC000436913B1AFF3008001E0FFF7C0FA0120DE
:100ED00010BD127800F124010A7000224A7001222C
:100EE000EDE711684FF0FF32E9E70000074B70B5FE
:100EF0000D467B4400F09BF80446284600F05CF960
:100F000010B14FF0FF3070BD204670BD733500004A
:100F1000032A40F2308010F0030C00F0158011F825
:100F2000013BBCF1020F624498BF11F801CB00F8FD
:100F3000013B38BF11F8013BA2F1040298BF00F851
:100F400001CB38BF00F8013B11F003033FF480AC44
:100F5000083AC0F0088051F8043B083A51F804CB35
:100F6000A0E80810F5E7121D5CBF51F8043B40F8FB
:100F7000043BAFF30080D20724BF11F8013B11F806
:100F800001CB48BF11F8012B24BF00F8013B00F84A
:100F900001CB48BF00F8012B7047431A28BF9A4283
:100FA0007FF656AC104410F0030F11441EBF11F829
:100FB000013D521E00F8013D10F0030F7FF4F6AF23
:100FC000103AC0F00A8010B531E91850103A20E903
:100FD0001850BFF4F9AFBDE81040530724BF31E902
:100FE000081020E9081044BF51F8043D40F8043DC2
:100FF00012F0030F08BF7047D20728BF31F8023D37
:1010000048BF11F8012C28BF20F8023D48BF00F866
:10101000012C7047004870475C0A00200048704768
:101020003C0A002001694A1C02610878704700B53B
:101030008FB0CDE901310021059105497944CDE911
:10104000031011466846FFF7D1FA0FB000BD00004B
:10105000E5FFFFFF2DE9F0411F4604460326016826
:10106000072A01F4006004DB08B116A505E016A507
:1010700003E008B115A500E015A521F010002060DF
:10108000A069C01EA0610FB1401EA0612046FFF7FD
:10109000B7F94FB1D4E9012138469047206A401C86
:1010A0002062C01C206206E0206AFAE7D4E9012130
:1010B00015F8010B9047761EF8D22046FFF7B6F9D7
:1010C000BDE8F0814E414E006E616E00494E460013
:1010D000696E66002DE9F047814616468AB03548AC
:1010E00078440DC88DE80D0032487844801C03AC6C
:1010F0000DC884E80D0041F69B300844372190FB71
:10110000F1F290FBF1F5A5F1800501FB12041B3C07
:1011100002D56442012000E00020DFF898A080465C
:101120000027FA44AAF1BE0A0EE0E0070AD03246D0
:10113000684607EB470101230AEB810100F043FBFE
:101140008DE8070064107F1C002CEED1194F7F44FE
:10115000AE3F19E0E80715D007EB04100DF1180AAF
:1011600090E80E008AE80E00C068F04201D198199C
:1011700008903246012306A903A800F024FB03AB24
:1011800083E807006D10641C002DE3D14FF00103CC
:1011900032466946B8F1000F03A802D000F0FEFA0B
:1011A00001E000F010FBC9E90001C9F808200AB00D
:1011B000BDE8F08758DC0000007B00F0800070473D
:1011C000004870473C0A00207546FFF7F9FFAE461D
:1011D00005006946534620F00700854618B020B543
:1011E000FFF740F8BDE820404FF000064FF0000741
:1011F0004FF000084FF0000B21F00701AC46ACE8BF
:10120000C009ACE8C009ACE8C009ACE8C0098D462B
:10121000704710B50446AFF300802046BDE810408B
:10122000FFF70BB84FF0013C50F8042B51F8043B8A
:101230009A4221D1A2EB0C03934313EACC1317D1AA
:1012400050F8042B51F8043B9A4215D1A2EB0C0341
:10125000934313EACC130BD150F8042B51F8043B01
:101260009A4209D1A2EB0C03934313EACC13DBD0CF
:101270004FF00000704700BFD01A01BAB1FA81F1F7
:1012800001F0180122FA01F0CB40C1F12001DBB2DC
:10129000C0B2C01A2CFA01F3D11A914311EAC3115A
:1012A000E6D170475FEA400C08BF91F0000F4FEAAB
:1012B0008C234FEAC12243EA51514FEA1C5018BF18
:1012C00000F5F0404FEA300018BF41F000415FEAFE
:1012D0006C5C00F02980BCF1FF3F08BF40F080400B
:1012E0007047130C06BF12044FF0100C4FF0000CA7
:1012F000130E04BF12020CF1080C130F04BF1201ED
:101300000CF1040C930F04BF92000CF1020CD30FEC
:1013100004BF52000CF1010C11464FF00002A0F185
:101320001F00A0EB0C00704711F0004F08BF704782
:1013300031F000413FF4D5AF0B0C06BF09044FF06C
:10134000100C4FF0000C0B0E04BF09020CF1080C3E
:101350000B0F04BF09010CF1040C8B0F04BF8900B3
:101360000CF1020CCB0F04BF49000CF1010CCCF1C5
:101370002003A0EB0C0022FA03F302FA0CF241EA7C
:10138000030100F10100704720F07F4C80EA030068
:1013900023F07F47ACEB070303F57C5300F00040DC
:1013A00003F1FF032DE980494FEA154B09B44FEAD9
:1013B000144325EA0B4E24EA03480FF2042606EBF9
:1013C000132749083E785FEA320203FB0667C7F538
:1013D000000707FB06F64FEA54374FEAD64606F1F8
:1013E000020607FB066CCCF1005C4FEA1C472CEAB6
:1013F000074C07FB06F40CFB06F504EB15464FEA19
:10140000961634BF00204FF000404FEAD13706FB5C
:1014100007FC4FEA1C4C0CFB0BF7D21B03FB0CF731
:1014200061EB07010CFB0EF7B0EB074072EB1742C4
:101430000CFB08F734BFA2EB0742B2EB074261EBAB
:1014400017414FEA0C444FEA910706FB07FC4FEAAD
:101450001C4C0CFB0BF7B0EBC74072EB573203FB95
:101460000CF734BFA2EBC742B2EBC74261EB573176
:101470000CFB0EF7B0EBC70072EB57720CFB08F7D2
:1014800034BFA2EBC702B2EBC70261EB5771039FF7
:101490004FEA816141EA921104EBCC044FEAD13763
:1014A0004FEA826206FB07FC42EA90124FEA806034
:1014B0004FEA1C4C0CFB0BF7D21B03FB0CF761EB48
:1014C00007010CFB0EF7B0EB074072EB17420CFB69
:1014D00008F734BFA2EB0742B2EB074261EB1741BA
:1014E0004FEA8C554FEA910704EB9C2406FB07FC5E
:1014F0004FEA1C4C0CFB0BF7B0EBC74072EB5732BA
:1015000003FB0CF734BFA2EBC742B2EBC74261EB5F
:1015100057310CFB0EF7B0EBC70072EB57720CFBA8
:1015200008F734BFA2EBC702B2EBC70261EB5771F9
:1015300015EB4C254FEA816141EA92114FEA826234
:101540004FEAD13742EA901206FB07FC44F100044F
:101550004FEA80604FEA1C4C0CFB0BF7D21B03FBDD
:101560000CF761EB07010CFB0EF7B0EB074072EBD9
:1015700017420CFB08F734BFA2EB0742B2EB07425D
:1015800061EB174115EB1C154FEA813141EA92419D
:101590004FEA823242EA90424FEA80304FEA0C76BC
:1015A00044F1000448EA03434EEA0B484FF0000EB2
:1015B000B2EB080C71EB030724BF624639464EEBD1
:1015C0000E0E4FF0000B0018524149414BEB0B0B34
:1015D000B2EB080C71EB03077BF1000B24BF6246F2
:1015E00039464EEB0E0E4FF0000B001852414941A8
:1015F0004BEB0B0BB2EB080C71EB03077BF1000B11
:1016000024BF624639464EEB0E0E51EA020718BF60
:1016100046F0010616EB0E7655F1000254F100017A
:1016200003D5BDE88901BDE80088BDE88901BDE8B2
:101630000048B619524141EB0101A3F10103704783
:1016400080807F7E7D7C7B7A7978777676757473FF
:10165000727171706F6E6E6D6C6C6B6A6A696868BE
:10166000676666656464636362616160605F5F5E54
:101670005E5D5D5C5C5B5B5A5A59595858575756CA
:10168000565555555454535352525251515050502F
:101690004F4F4F4E4E4D4D4D4C4C4C4B4B4B4A4A81
:1016A0004A494949484848474747474646464545C5
:1016B00045444444444343434342424242414141FE
:1016C000002B9C4630D477002BD01CB54FEA37074F
:1016D00003B44FF010004FF01001BAF1000F06D024
:1016E000BCF1000FDCBF40F0080040F008014FF0F3
:1016F00000000FBCBDE810400BF1010BBBF1010F66
:1017000008BF5FEA170722BF12F1010211F10101C0
:101710004FF0004143F1000300F0004043EA0000B5
:101720007047F9D35708D0E746EA064613F1400F51
:101730004FEA16461FDD13F1200FDFBF16430A469E
:10174000002120335B42BED0C3F1200746EA0646A3
:1017500002FA07F74FEA164646EA0706C3F12007E2
:1017600022FA03F201FA07F721FA03F14FF000031E
:1017700042EA0702A7E746EA020646EA06464FEAB9
:10178000164646EA0106BCBF46EA0646360C4FF04E
:1017900000034FF000024FF0000194E72DE9804C68
:1017A0009A46934670B491E8380007C831EA400C75
:1017B00048BF34EA430C03D5FFF7E6FDFFF780FF8F
:1017C000F0BCBDE8008C2DE9804C9A46934670B47D
:1017D00091E8380007C810F0804F08BF13F0804F21
:1017E00003D100F005F8FFF76BFFF0BCBDE8008CFB
:1017F00020F07F4780EA030023F07F4C07EB0C03C7
:10180000A3F57C5300F00040A3F1FE0392F0000F1B
:1018100000F0B38095F0000F00F077802DE90149CA
:101820004FEA11404FEA144621EA004800FB06FC4B
:1018300024EA064708FB06F607FB08F800FB07F753
:1018400018EB06484CEB164C4FEA124B18EB0748C6
:101850004FEA15464CEB174022EA0B4E0BFB06FCF9
:1018600025EA06470EFB06F607FB0EFE0BFB07F705
:101870001EEB064E4CEB164C4FF000061EEB074ECF
:101880004CEB174B18EB0B0840F1000018EB0E0B5C
:1018900058EB000840F100008F1A4FF000013CBFE8
:1018A000C943661B14BFB5EB040C00213CBFC94300
:1018B000F61B4FEA17444EEA8E0E27EA04454FEA1C
:1018C0001C4704FB07622CEA074C05FB07F70CFBDF
:1018D00005F604FB0CFC16EB074642EB174216EB31
:1018E0000C4642EB1C421BEB060658EB0202414140
:1018F00046EA9E0601D5BDE80189B619524141EB81
:101900000101A3F10103BDE801894FEA14454FEA43
:10191000114724EA054621EA074C05FB07F406FBBC
:1019200007F70CFB06F105FB0CFC11EB074144EB40
:1019300017444FEA124711EB0C4144EB1C4422EAD6
:10194000074C05FB07F206FB07F70CFB06F605FB49
:101950000CFC16EB074642EB174216EB0C4642EB2B
:101960001C456A1854F1000148BF7047B61952412E
:1019700041EB0101A3F10103704795F0000F37D04F
:101980004FEA11424FEA144721EA024624EA074C83
:1019900002FB07F106FB07F70CFB06F402FB0CFC4D
:1019A00014EB074441EB17414FEA154714EB0C4485
:1019B00041EB1C4125EA074C02FB07F506FB07F744
:1019C0000CFB06F602FB0CFC16EB074645EB174535
:1019D00016EB0C4645EB1C42121951F1000148BFB1
:1019E0007047B619524141EB0101A3F10103704761
:1019F0004FEA14454FEA114724EA054621EA074C0D
:101A000005FB07F106FB07F70CFB06F24FF000069B
:101A100005FB0CFC12EB074241EB174112EB0C42A9
:101A200051EB1C4148BF7047921841EB0101A3F1F3
:101A30000103704700BFFEE7704700002DE9F04149
:101A400004460D46164600274FF6FF70844214D018
:101A500040F2654060434FF47A71694390FBF1F8BE
:101A600005FB08F0064921F81600A8F1010001B2B3
:101A7000304602F0F5F8074300BF3846BDE8F08174
:101A8000DC04002010B54FF4007000F011F80128BC
:101A900007D102F065F902F06DFE4FF4007000F01E
:101AA00001F810BD014908607047000014040140AE
:101AB000014600200022074B1B6803EA0102054B88
:101AC00014331B680B4013B10AB1012000E0002061
:101AD0007047000000040140002123498279002A58
:101AE0003AD00A46126803689A430B461A600A1DE8
:101AF000126803689A430B1D1A60027911440A6840
:101B000003681A430A60184A0832126803689A4345
:101B1000154B08331A601A1D126803689A43124B5A
:101B20000C331A604279102A0ED11A1F126803680A
:101B30001A430D4B08331A601A1D126803681A43C2
:101B4000094B0C331A600DE00749427911440A68C9
:101B500003681A430A6005E0027911440A680368C1
:101B60009A430A6070470000000401401FB501213C
:101B7000082000F051FA0121084600F04DFA042037
:101B80008DF80F0003208DF80E004FF40070ADF8B3
:101B90000C0003A9124800F045F80921012000F0CB
:101BA00021F84FF40070009000208DF80400082008
:101BB0008DF8050001208DF806006846FFF78CFFC0
:101BC00017208DF8080002208DF8090001208DF8FB
:101BD0000A008DF80B0002A800F0CAF91FBD000032
:101BE000000C014030B500228B071C0F0F2303FAB5
:101BF00004F20B4B8C1053F824309343084C8D1097
:101C000044F8253023468C1053F824308C07240FD9
:101C100000FA04F42343024C8D1044F8253030BD03
:101C2000080001402DE9F041024600250026002071
:101C300000230024002791F803C00CF00F0591F851
:101C400003C00CF0100CBCF1000F03D091F802C0DF
:101C50004CEA050591F800C0BCF1000F31D01468C2
:101C600000202BE04FF0010C0CFA00F3B1F800C09B
:101C70000CEA03069E4220D183004FF00F0C0CFAB1
:101C800003F7BC4305FA03FC4CEA040491F803C0D3
:101C9000BCF1280F06D14FF0010C0CFA00FCC2F881
:101CA00014C00AE091F803C0BCF1480F05D14FF011
:101CB000010C0CFA00FCC2F810C0401C0828D1D35B
:101CC0001460B1F800C0BCF1FF0F34DD546800208F
:101CD0002EE000F1080C4FF0010808FA0CF3B1F8FF
:101CE00000C00CEA03069E4221D183004FF00F0C86
:101CF0000CFA03F7BC4305FA03FC4CEA040491F820
:101D000003C0BCF1280F05D100F1080C08FA0CF84B
:101D1000C2F8148091F803C0BCF1480F07D100F15C
:101D2000080C4FF0010808FA0CF8C2F81080401CAB
:101D30000828CED35460BDE8F0810161704700BF30
:101D4000FEE7000010B5044600F00AF803490863F6
:101D500034222046FEF77CFD10BD00004C0200201E
:101D6000F8B56A460221392005F0F4F99DF8010022
:101D70009DF8001040EA012004B2204608F050FE11
:101D80000746054908F04EFD0646044908F0D6FC12
:101D900005462846F8BD00005CEFA6430000A841B8
:101DA0001CB500240020019001AA01217F2005F02C
:101DB000F5F904438020019001AA0121062005F0D5
:101DC000EDF90443642001F059FA0020019001AAC2
:101DD00001217F2005F0E2F904436A460121002039
:101DE00005F0B8F904439DF80000EA2801D001206D
:101DF0001CBD3648007820B19DF8001034A0FEF7D5
:101E0000F3FA0021374805F04BFB0021012003F0D5
:101E1000D7FC0443242005F089FF044307F02CFA83
:101E2000314801F095FD044301F0DEFB04432F48E7
:101E3000006880F001002D4908600846007800F035
:101E40000101012003F034F904432848006880F0C0
:101E500002002649086008460078C0F340010420CB
:101E600003F026F904432148006880F008001F4968
:101E700008600121022003F01BF91C48006880F073
:101E800040001A49086008460078C0F380110F200E
:101E900003F00EF904F070FE04434FF07E50144935
:101EA00008600846006807F073FB044334B1074834
:101EB000007848B10FA0FEF797FA05E003480078D4
:101EC00010B112A0FEF790FA204691E740000020E2
:101ED00061646472657373203D2030782530325818
:101EE0000D0A0000DC000020AC0200209C02002053
:101EF000D8000020436F756C64206E6F7420696E8B
:101F0000697469616C697A652E0D0A0049434D3226
:101F10003039343820496E697469616C697A65209A
:101F200053756365737366756C2E2E2E0D0A000053
:101F300000BFFEE770B504460D464FF6FF760CE095
:101F4000207802F01DFC38B16178074A32F81100A0
:101F5000864200DD064600BFA41C281EA5F101052F
:101F6000EED1304670BD00004C01002070470000EB
:101F700070B5002100230F22C47804B3154C2468E7
:101F800004F4E064C4F5E064210AC1F10403CA402A
:101F9000447804FA03F184781440214309010E4C7B
:101FA0000678A155047804F01F050124AC4005789B
:101FB0006D11AD0005F1E025C5F8004109E0047898
:101FC00004F01F050124AC40044D0678761145F855
:101FD000264070BD0CED00E000E400E080E100E090
:101FE00002490143024A1160704700000000FA05EF
:101FF0000CED00E07047000029B1064AD2690243A7
:10200000044BDA6104E0034AD2698243014BDA618E
:10201000704700000010024029B1064A926902434D
:10202000044B9A6104E0034A92698243014B9A612E
:10203000704700000010024030B50021002200244B
:1020400000232D4D6D6805F00C0121B1042905D048
:10205000082923D105E0294D056022E0274D0560C0
:102060001FE0254D6D6805F47012234D6D6805F471
:102070008034022505EB92421CB9214D5543056081
:102080000BE01D4D6D6805F400351DB11C4D554329
:10209000056002E0194D5543056002E0174D0560EB
:1020A00000BF00BF144D6D6805F0F0010909154D22
:1020B0006B5C0568DD4045600F4D6D6805F4E061BF
:1020C000090A104D6B5C4568DD4085600A4D6D68FE
:1020D00005F46051C90A0B4D6B5C4568DD40C56075
:1020E000054D6D6805F44041890B074D6B5CC56873
:1020F000B5FBF3F5056130BD0010024000127A0017
:1021000000093D002C0000203C00002000B587B0F5
:1021100001210820FFF780FF01218803FFF76CFFF2
:102120004FF48050ADF8180010208DF81B000320EC
:102130008DF81A0006A92048FFF774FD4FF480516E
:102140001D48FFF7FAFD4FF46040ADF81800182065
:102150008DF81B0003208DF81A0006A91648FFF71A
:1021600061FD4FF460411448FFF7E7FD0020ADF832
:1021700004004FF48270ADF806000020ADF80800AE
:102180000220ADF80A000120ADF80C004002ADF8C5
:102190000E000820ADF810000020ADF81200072056
:1021A000ADF8140001A9054800F050F801210348DA
:1021B00000F032F807B000BD000C014000380040CC
:1021C00070B505460E46002405E0601CC4B2C82C5C
:1021D00001DD012070BD02210E4800F029F8002821
:1021E000F3D029460B4800F02FF8002405E0601CCE
:1021F000C4B2C82C01DD0120ECE70121054800F044
:1022000017F80028F3D0034800F01BF830700020C6
:10221000E0E700000038004021B1028842F04002AF
:10222000028004E002884FF6BF731A4002807047B4
:102230000246002013890B400BB1012000E0002072
:1022400070470146888970478181704710B5002228
:10225000028802F441520B884C8823438C88234324
:10226000CC8823430C8923434C8923438C89234303
:10227000CC8923431A430280838B4FF2FF7423409F
:1022800083830B8A038210BD70470146C82901DD94
:10229000C82000E00846024640F2654050434FF433
:1022A0007A7390FBF3F080B2704710B500F002F83B
:1022B00010BD00000CB5002001900090334800686C
:1022C00040F480303149086000BF3048006800F4B5
:1022D000003000900198401C0190009818B90198B6
:1022E000B0F5A06FF1D12948006800F4003010B1BA
:1022F0000120009001E0002000900098012843D1C7
:102300002348006840F01000214908600846006832
:1023100020F0030008600846006840F002000860F2
:102320001A484068194948600846406848600846AD
:10233000406840F4806048600846406820F47C10A3
:1023400048600846406840F4E81048600846006865
:1023500040F08070086000BF0C48006800F000701A
:102360000028F9D00948406820F003000749486078
:102370000846406840F00200486000BF03484068DB
:1023800000F00C000828F9D10CBD0000001002403C
:1023900000200240042808D14FF0E021096941F0F3
:1023A00004014FF0E022116107E04FF0E0210969DC
:1023B00021F004014FF0E022116170470448D0E998
:1023C00000305A1C40F100000149C1E9002070476B
:1023D0002000002010B51348006840F001001149AA
:1023E000086008464068104908400E4948600846A1
:1023F00000680E4908400B4908600846006820F450
:10240000802008600846406820F4FE0048604FF4D1
:102410001F008860FFF749FF4FF000600449086023
:1024200010BD0000001002400000FFF8FFFFF6FEA4
:1024300008ED00E010B540F22551044800F014F812
:1024400010B1024800F0CCF810BD00000038014087
:1024500021B1828942F40052828104E082894DF6E2
:10246000FF731A408281704770B502460024002332
:102470000025002040F66A16B14200D100BFC1F32A
:10248000421501F01F03012606FA03F3012D02D1C4
:102490009689334006E0022D02D1168A334001E0CE
:1024A000968A33400C12012606FA04F4168834404A
:1024B00013B10CB1012000E0002070BDF0B503465F
:1024C000002400260025002040F66A17B94200D1FA
:1024D00000BF1846C1F3421401F01F06012707FA96
:1024E00006F5012C01D10C3004E0022C01D1103092
:1024F00000E014301AB107682F43076002E0076854
:10250000AF430760F0BD00002DE9F04786B00546F7
:102510000E460024A24600BFA1460027B08900B1A4
:1025200000BF2F462C8A4CF6FF700440F08804430D
:102530002C82AC894EF6F3100440B08831890843F0
:10254000718908430443AC81AC8A4FF6FF400440D4
:10255000B0890443AC8201A8FFF76EFD1F48874293
:1025600002D1DDF810A001E0DDF80CA0A88900F48C
:10257000004040B10AEBCA0000EB0A103168490084
:10258000B0FBF1F807E00AEBCA0000EB0A10316873
:102590008900B0FBF1F86420B8FBF0F004012009D9
:1025A000642101FB1089A88900F4004040B1322069
:1025B00000EBC900B0FBF1F000F00700044308E0B5
:1025C000322000EB09106421B0FBF1F000F00F00A5
:1025D00004432C8106B0BDE8F087000000380140BC
:1025E00001468888C0F30800704700BFFEE7490035
:1025F00050EAC12018BF04204A0D18BF40F0010066
:1026000040F2FF72B2EB515F08BF40F002000128B8
:1026100008BF052070474100080218BF04200A0EB9
:1026200018BF40F001004FF07F4232EA010108BFBD
:1026300040F00200012808BF052070472DE9F04155
:102640004F1E00EBC7010446D1E9000115461E46A6
:1026500037F006020DD02A46334607F069FD7F1E8B
:1026600004EBC703D3E9002307F05AFB37F0060257
:10267000F1D1022F25D0042F13D0062F18BFBDE8AB
:10268000F0812A46334607F053FDD4E90A2307F0C8
:1026900047FB2A46334607F04BFDD4E9082307F0F1
:1026A0003FFB2A46334607F043FDD4E9062307F0F3
:1026B00037FB2A46334607F03BFDD4E9042307F0F5
:1026C0002FFB2A46334607F033FDD4E9022307F0F7
:1026D00027FB2A46334607F02BFDD4E90023BDE84B
:1026E000F04107F01DBB012208F063BC07F018BBE6
:1026F000002213461046114607F0C2BB024A0020D2
:10270000110708F056BC000001FDFFFF012108F091
:102710007EBC0021084608F085B86FF05E0108070E
:1027200008F075BC2DE9F04D0D4614464FF07F4181
:10273000B1EB440F9EBF4FF0FF312960BDE8F08D33
:102740004FF0004040EA0421C4F3C750783810F03D
:102750001F024A4B4FEA601CC2F120067B44C4F3BF
:10276000C750A0F178004FEA601003EB800053F8E7
:102770002C3008BFD0E901C612D0D0F804C0934075
:102780002CFA06F73B4387680CFA02FC27FA06F896
:10279000C06807FA02F2F0404CEA080C42EA000670
:1027A000A3FB0132ACFB01C0A6FB016101EB0C06EF
:1027B0008E4234BF4FF0010C4FF0000CC118614441
:1027C000BCF1000F02D0814202D903E0814201D264
:1027D000012000E00020104400F120024FEA92188E
:1027E0008006CA0C40EA42304F03C5F8008008F06A
:1027F00017F98246384608F02BF96FF0120108F0FD
:1028000006FC0746304608F023F96FF0250108F072
:10281000FEFB83463946504607F090FF594607F0C5
:102820008DFF00F500666FF30B065146304608F049
:1028300017FB394608F014FB594608F07FFA104997
:1028400008F04EF907460F49304608F049F9394675
:1028500007F074FF07460C49304608F041F9394645
:1028600007F06CFF14F0004F08BFBDE8F08DC8F111
:10287000805180F000402960BDE8F08D40C5000027
:10288000DB0FC92F22AAFD290000C92F30380A28E2
:1028900001D2012070470020704700BF7047000040
:1028A0000120014908707047B90100202DE9F04D61
:1028B0008D4F21F0004A86B005460C46BA452ADB0A
:1028C000AAEB070028430AD08848824501DC1AD1C8
:1028D000CDB106B02846BDE8F04DFFF704BF844AED
:1028E000844B284607F024FC07460E46824A834B59
:1028F0002846214607F01CFC06B03A463346BDE8A0
:10290000F04D07F00DBA0120FEF76BF806B0BDE8F8
:10291000F04DFFF7EDBE7A48824542DABAF1795FB1
:102920000BDA2846FFF763FE042808BFFFF7E6FE30
:10293000284606B02146BDE8F08D2A460B461046D3
:1029400007F0F6FB834602466E480E460B4606210C
:102950007844FFF773FE5A46334607F0E9FB80469A
:1029600069488A465A46334604217844FFF766FE92
:102970005A46334607F0DCFB00223B4607F0D0F90D
:1029800002460B464046514607F07AFA2A4623464D
:1029900007F0CEFB06B02A462346BDE8F04D07F00F
:1029A000BFB9284624F0004100223D463B4607F0CF
:1029B000BDFC4FF0FF3208F0FCFA064602465348D1
:1029C0000F460B4606217844FFF738FE32463B4659
:1029D00007F0AEFBCDE900014D4832463B460421ED
:1029E0007844FFF72BFE32463B4607F0A1FB00225E
:1029F0002B4607F095F9834602913046394607F099
:102A000069F8804643480D46504517DCDDE9000172
:102A10005A46029B07F034FA42462B4607F088FBE1
:102A200042462B4607F07CF9012208F0C2FA304AF0
:102A3000304B07F06DFD304A304B4CE04FF0000A50
:102A400052460B46404607F06BF9CDE9031052465B
:102A50002B461046194607F06BFB32463B4607F003
:102A600065FCDDE9033207F00BFA06460F46DDE9A7
:102A700000015A46029B07F003FA834600910122A7
:102A80003046394608F095FA194A1A4B07F04EFCC1
:102A900006460F4601224046294608F08AFA5A4661
:102AA000009B07F045FB32463B4607F031FD0646EA
:102AB0000F4601225046294608F07BFA0E4DDFF8FA
:102AC00058802A46434607F031FC32463B4607F021
:102AD0002DFC2A46434607F029FC002CD8BF81F084
:102AE000004106B0BDE8F08D0000F03F0000F07F2F
:102AF000075C143326A6913C182D4454FB21F93F62
:102B00000000E03F5CC2000072C20000E6C10000AD
:102B1000FCC100003333EF3FFB21E93F2DE9F84FC3
:102B200004460D4621F0004000917349814211DCBA
:102B30007249884201DC06D12CB120462946BDE805
:102B4000F84FFFF7D0BD6E48002DCCBF6D496E49E0
:102B5000BDE8F88F6D49814211DD6D498142D8BFD2
:102B60004FF0FF366DDD20462946FFF740FD042873
:102B700008BFFFF7C3FD20462946BDE8F88F654929
:102B8000654F25F00045814233DD6449814219DDFE
:102B9000002632464FF080432046294607F0C0F811
:102BA00080468A4601222046294608F002FA002281
:102BB0003B4607F0ADFC4246534607F061F9044638
:102BC0000D463EE001260022BA463B4620462946F5
:102BD00007F0A6F880460F460022534620462946B5
:102BE00007F096FC42463B4607F04AF904460D467C
:102BF00027E04B4981421BDDDFF828A10226002295
:102C000053462046294607F093FA00223B4607F038
:102C100087F880460F46002253462046294607F093
:102C200077FC42463B4607F02BF904460D4608E088
:102C3000032622462B4600203B4907F021F9044693
:102C40000D4622462B461046194607F071FA8B4670
:102C5000824602460B4607F06BFA074602463348A7
:102C600088460B4606217844FFF7E8FC52465B464F
:102C700007F05EFA82462E488B463A4643460521C7
:102C80007844FFF7DBFC3A46434607F051FA024628
:102C90000B46002E504659460CDA07F041F8224602
:102CA0002B4607F045FA01B022462B46BDE8F04F0F
:102CB00007F03CBB07F034F822462B4607F038FA01
:102CC0001C4A7A4402EBC603D3E9002307F020FC38
:102CD00022462B4607F01CFC174A7A4402EBC60337
:102CE000D3E9002307F022FB009A002AB8BF81F045
:102CF0000041BDE8F88F0000000010440000F07FA4
:102D0000182D4454FB21F93FFB21F9BF0000DC3FA3
:102D10000000203E0000F33F0000F03F0000E63FCF
:102D2000008003400000F83F0000F0BFFEBF00003D
:102D3000BCBF00005ABF000022BF00002DE9F04DCB
:102D40009446CCF1000423F000464CEA0404524FB0
:102D500046EAD4749A46884621F00042BC4206D81E
:102D6000454240EA050442EAD474BC4204D9BDE8B5
:102D7000F04D6246FFF7BABCAAF14055A5F17F6558
:102D800055EA0C040BD0022404EAAA74434DDFF880
:102D900010E144EAD87452EA000B04D00CE0BDE81C
:102DA000F04DFFF7BBBE002C14BF012CBDE8F08D29
:102DB000022C30D0032C32D056EA0C0B0AD0BE4283
:102DC00020D1BA4209D126F0804622F08042334613
:102DD000114617E000291ADB25E0DFF8C8B0FB44F4
:102DE000002C04BFDBE90001BDE8F08D012C02BF1F
:102DF000DBE9000181F00041BDE8F08D022C0AD032
:102E0000032C0CD0BA4212D1B8F1000F0BDA2348D0
:102E10002549BDE8F08D28462449BDE8F08D2846B7
:102E20007146BDE8F08D1D482149BDE8F08D921B2B
:102E300012153C2AC4BF19481D490EDCBAF1000F17
:102E4000BEBF12F13C0F0020014606DB624607F0D0
:102E500017F821F00041FFF761FE002C08BFBDE824
:102E6000F08D012C04BF81F00041BDE8F08D114AC6
:102E7000114B022C07D007F04BFB2A46BDE8F04D62
:102E80000A4B07F045BB07F043FB2A46BDE8F04D6F
:102E9000064B07F04BBA00000000F07F182D445499
:102EA000FB2109C0B6BE0000FB21F9BFFB21094090
:102EB000FB21F93F075C143326A6A13C2DE9FE4F08
:102EC00007468846B8F1000F01DB404601E0C8F133
:102ED00000000646002F01DB384600E07842054638
:102EE000AE4201DD304600E0284682460CE0504606
:102EF0000AEBD0714FEA610A304606EBD0714E10F2
:102F0000284605EBD0714D10BAF5005FEFDCAE42FC
:102F100009DB304606F08EF901460090284603F0A2
:102F200035FB814608E0284606F084F9014600900A
:102F3000304603F02BFB81464946484603F026FB0A
:102F400002901D49C868029903F020FB83461A4984
:102F5000896801EB0B00029903F018FB83461649C0
:102F6000496801EB0B00029903F010FB83461249FC
:102F7000096801EB0B00494603F008FB0446AE422A
:102F800005DA0E49086800EBD071C4EB6104B8F1B2
:102F9000000F0ADA002F04DA0848006840420444AF
:102FA00006E006480068041B02E0002F00DA6442D5
:102FB00001940198BDE8FE8F040200201402002055
:102FC00010B503460C46002100220BB9481E10BD67
:102FD00041F4004141F4804141F4005141F48051F9
:102FE00041F4006141F4806141F4007141F4807169
:102FF00041F0800141F0400141F0200141F0100119
:1030000041F0080123EA010010B14FF0FF30DEE784
:1030100003F0080098B142F4804242F4005242F4B6
:10302000805242F4806242F0800214B94FF0FF30C7
:10303000CDE724EA020010B14FF0FF30C7E70020CF
:10304000C5E710B50446702C1FD00CDC072C19D036
:1030500004DC052C14D0062C20D112E00F2C12D049
:10306000102C1BD110E0762C14D004DC712C0DD068
:10307000722C13D10BE07E2C0DD07F2C0ED10BE0E7
:1030800000BF00BF00BF00BF00BF00BF00BF02F015
:1030900007FB10BD00BF00BF0020FAE700BF00BF64
:1030A0000120F6E72DE9F843044602464F486946F9
:1030B000B0EB420F09D94FF0E640B0EB420F94BF9E
:1030C00000204FF0FF30009030E0494B22F00040EC
:1030D000834271D94749204607F002FD07F0FEFD03
:1030E000804607F061FC00F0030000904249404632
:1030F00007F0F6FC05464149404607F0F1FC06465C
:103100003F49404607F0ECFC07463E49404607F081
:10311000E7FC214607F012FE394607F0A1FE3146D2
:1031200007F09EFE294607F09BFE04462546009CBC
:10313000002C45DB294614F0010F08461CD007F08F
:10314000CFFC0646304907F0CBFC304907F0F6FDCE
:10315000314607F0C5FC2E4907F0F0FA314607F07A
:10316000BFFC294607F0BCFC294607F0E7FA14F03B
:10317000020F1CD0BDE8F88307F0B2FC05462549D4
:1031800007F0AEFC244907F0D9FA294607F0A8FC5D
:10319000224907F0D3FA294607F0A2FC4FF07E51EE
:1031A00007F0CCFA14F0020F08BFBDE8F88380F0F6
:1031B0000040BDE8F883FFE71046FFF7B3FAB4E735
:1031C0006800B0F17F4F3CBF4FF07E50BDE8F88300
:1031D00007D14FF00100FDF704FCBDE8F843FFF70D
:1031E00098BA2846BDE8F843FFF790BAB61F927E1A
:1031F000490E494683F9223F1A61342C0020A2333C
:1032000000A0FD390000C93F336D4C39DA82083C1B
:10321000A0AA2ABEB93AB2BACA9F2A3DDDFFFFBEB4
:1032200010B50420FFF7B6F8104800681049B0FB4D
:10323000F1F0104908700D4800680D49B0FBF1F439
:103240004FF47A70444301200B4908804FF0E0208E
:10325000006940F002004FF0E02108610846446137
:10326000006940F00100086110BD0000000000206E
:1032700040420F00180000201A00002030B504461C
:10328000002504E04FF47A7000F004F86D1CA542AC
:10329000F8D330BD70B5034600224FF0E0267569C3
:1032A0000D4E367803FB06F44FF0E026B16910E0CE
:1032B0004FF0E026B06988420BD0884202D20E1A45
:1032C000324402E02E1A0E4432440146A24200D398
:1032D00000E0EDE700BF70BD1800002000200149AC
:1032E00008707047B9010020014611B94FF0FF3056
:1032F0007047034B0DCB81E80D000020F8E700007C
:1033000038050020014611B94FF0FF307047034BDC
:103310000C330DCB81E80D000020F7E738050020C5
:10332000014611B94FF0FF307047034B34330DCBDA
:1033300081E80D000020F7E738050020014611B9AB
:103340004FF0FF3070470348B0F88C000880002031
:10335000F8E7000038050020014611B94FF0FF30B2
:1033600070470348D0F8880008600020F8E70000A4
:1033700038050020014611B94FF0FF307047034B6C
:1033800064330DCB81E80D000020F7E738050020FD
:10339000F8B506460F4615460DB100202860684670
:1033A00000F026F804461CB1104804600020F8BD67
:1033B000009808B90020FAE70098B04209D900F057
:1033C00013F93E20094908600DB101202860002052
:1033D000EDE73846009900F0B7F804461CB1034801
:1033E00004600020E3E70098E1E70000D40100203A
:1033F00038B5044600250CB9052038BD6A460221BF
:10340000702003F083FA054635B140200849086072
:10341000002020602846F0E79DF8000000022060B0
:103420009DF801102068084420602846E5E7000068
:10343000D4010020014611B94FF0FF307047034816
:10344000B0F88E0008800020F8E700003805002062
:10345000014611B94FF0FF307047034B1C330DCBC1
:1034600081E80D000020F7E738050020014611B97A
:103470004FF0FF307047034802680A6080888880F8
:103480000020F7E77E05002010B50446204600F036
:1034900017F810BD38B50446002000906846FFF7C5
:1034A000F3FF0546044900980968401A2060034963
:1034B00020680860284638BD2C010020300100201B
:1034C00038B50446002000906A4604214FF4587035
:1034D00001F01BFD05460DB1284638BD9DF80000E2
:1034E00001069DF8010001EB00419DF8020001EB8F
:1034F00000209DF80310084420600020EDE7000044
:10350000014611B94FF0FF307047034B58330DCBD4
:1035100081E80D000020F7E738050020014611B9C9
:103520004FF0FF3070470748B0F84000088005486A
:10353000B0F8420048800348B0F84400888000207A
:10354000F0E70000380500202DE9F04180460D46E7
:10355000002418E0281B102801D9102000E0281BA7
:1035600087B208EB04023946722003F0CFF9064611
:103570003EB100F039F84120054908603046BDE809
:10358000F0813C4400BFAC42E4D33046F7E7000092
:10359000D401002010B500F001F810BD38B50020AE
:1035A00000906A460221402001F0B9FC04466A46B8
:1035B0000221422001F0B3FC04446A4602214C205F
:1035C00001F0ADFC04446A4602214E2001F0A7FC44
:1035D00004446A4602218A2001F0A1FC04440CB193
:1035E000204638BD0020FCE738B54FF480600090DD
:1035F0000025002424E01E48C07820F040001C492B
:10360000C8700846C07820F08000C8700846C178AD
:10361000032004F0DBFE04431F2005F065F804439B
:103620001E2005F061F80443002012490871684625
:10363000FFF7DEFE04430CB1204638BD681CC5B25E
:10364000009808B1062DD6DB0948C07840F040004C
:103650000749C8700846C07840F08000C870084626
:10366000C178032004F0B2FE04432046E5E70000E1
:1036700026050020D401002010B500F001F810BD8F
:1036800038B5002000906A4602219E2001F047FCD8
:1036900004466A4602219A2001F041FC04436A462E
:1036A00004218C2001F03BFC04436A460421842061
:1036B00001F035FC04436A460221962001F02FFCFC
:1036C00004436A460221922001F029FC04436A4621
:1036D0000421802001F023FC04436A4602219C203F
:1036E00001F01DFC04436A460221982001F017FCFA
:1036F00004436A460221942001F011FC04436A4607
:103700000221882001F00BFC0443204638BD002034
:10371000704710B50446204600F001F810BDF8B51A
:10372000044600200090694620B201F0D4FB064612
:10373000324602214FF4FF7001F0F1FB05460DB156
:103740002846F8BD0020FCE710B50446204600F0EE
:1037500001F810BDF8B504460020009069462068C5
:1037600001F0C1FB0646324604214FF4B66001F079
:10377000D6FB05466946606801F0B5FB0646324651
:1037800004214FF4B86001F0CAFB0543218908B257
:10379000694601F0A0FB06463246022140F2E450A1
:1037A00001F0BDFB05430DB12846F8BD0020FCE744
:1037B00010B50446204600F001F810BDF8B50546E6
:1037C000002000906946284601F08DFB06463246EF
:1037D00004214FF4867001F0A2FB04460CB1204690
:1037E000F8BD0020FCE710B50446204600F001F8C3
:1037F00010BDF8B50646082E10D004DC022E07D006
:10380000042E14D107E0102E0BD0202E0FD10BE088
:103810004FF000740DE04FF080640AE04FF0006458
:1038200007E04FF0805404E04FF0005401E0202006
:10383000F8BD00BF6946204601F055FB07463A46F1
:1038400004214FF4F07001F06AFB05460DB12846E3
:10385000EEE70020ECE710B50446204600F001F842
:1038600010BDF8B50646082E10D004DC022E07D095
:10387000042E14D107E0102E0BD0202E0FD10BE018
:103880004FF400240DE04FF480240AE04FF400349C
:1038900007E04FF4803404E04FF4004401E02020BE
:1038A000F8BD00BF6946204601F01DFB07463A46B9
:1038B000042140F2F44001F032FB05460DB12846E8
:1038C000EEE70020ECE770B504460025042C01DC8F
:1038D000022504E00A2C01DC012500E00025284631
:1038E00000F001F870BDF8B5054600200090052DE8
:1038F0000ED2DFE805F0030507090B00002409E0FC
:10390000012407E0032405E0072403E00F2401E07D
:103910002020F8BD00BF6946204601F0DCFA0746CA
:103920003A46022140F20A3001F0F9FA06466946A9
:10393000204601F0D8FA07463A46042140F60C70BA
:1039400001F0EDFA06430EB13046E2E70020E0E771
:1039500010B50446204600F001F810BDF8B5044645
:10396000002000906946206801F0BDFA0646324604
:10397000042140F2E46001F0D2FA0546694660682D
:1039800001F0B1FA0646324604214FF4DD6001F041
:10399000C6FA05446946A06801F0A5FA0646324613
:1039A000042140F2EC6001F0BAFA05440DB128465A
:1039B000F8BD6946E06801F096FA064632460421F1
:1039C00040F6B40001F0ABFA05466946206901F003
:1039D0008AFA06463246042140F6B80001F09FFA02
:1039E00005446946606901F07EFA064632460421C4
:1039F00040F6BC0001F093FA05440DB12846D7E724
:103A00006946A06901F06FFA06463246042140F289
:103A1000E47001F084FA05466946E06901F063FA52
:103A20000646324604214FF4FD6001F078FA054461
:103A30006946206A01F057FA06463246042140F2F0
:103A4000EC7001F06CFA05440DB12846B0E7002097
:103A5000AEE710B50446204600F001F810BDF8B5F9
:103A60000446002000906946206801F03CFA0646B2
:103A7000324604214FF4B87001F051FA0546694608
:103A8000606801F030FA0646324604214FF4BA70FD
:103A900001F045FA05446946A06801F024FA06469B
:103AA000324604214FF4BC7001F039FA05446946EE
:103AB000E06801F018FA0646324604214FF4BE7061
:103AC00001F02DFA05446946206901F00CFA06461A
:103AD000324604214FF4C07001F021FA05446946D2
:103AE000606901F000FA0646324604214FF4C270C4
:103AF00001F015FA05446946A06901F0F4F906469B
:103B0000324604214FF4C47001F009FA05446946B5
:103B1000E06901F0E8F90646324604214FF4C67028
:103B200001F0FDF905446946206A01F0DCF906461A
:103B3000324604214FF4C87001F0F1F905440DB18B
:103B40002846F8BD0020FCE710B50446204600F0EA
:103B500001F810BDF8B5044600200090694620B277
:103B600001F0B9F90646324602214C2001F0D7F99E
:103B700005460DB12846F8BD0020FCE710B5044607
:103B8000204600F001F810BD38B50446200A8DF833
:103B90000000E0B28DF801006A460221402001F0E9
:103BA000BEF90546284638BD10B50446204600F04B
:103BB00001F810BD70B50446200A054908704C7024
:103BC0000A460221422001F0AAF90546284670BDA6
:103BD0003401002010B50446204600F001F810BD65
:103BE000F8B5044600200090694620B201F073F950
:103BF0000646324602218A2001F091F905460DB1B0
:103C00002846F8BD0020FCE710B50446204600F029
:103C100001F810BDF8B504466946204601F063F985
:103C20000646324604214FF4987001F078F90546B3
:103C30002846F8BD10B50446204600F001F810BD36
:103C400038B5044620128DF80000E0B28DF801006E
:103C50006A4602214E2001F062F90546284638BD29
:103C600070B504460D462946204600F001F870BDA7
:103C70002DE9F84304460E460020009000270D2C45
:103C80001FD2DFE804F007091E0B0D0F11131517E3
:103C9000191B1D00BE2714E0BA2712E0B62710E05A
:103CA000B2270EE0AC270CE0A8270AE0A02708E026
:103CB000A42706E0BC2704E0B82702E0B42700E010
:103CC00000BF00BF6946304601F005F98046B8B232
:103CD0004246022101F023F9054615B12846BDE808
:103CE000F8830020FBE70146312070472DE9FC41B5
:103CF00006460F46144600251DE01849481923467C
:103D00006A4601A900F08CFC8046701B404500DA31
:103D100014E0BDF80010BDF80400FFF751F928B118
:103D2000FFF762FC4FF0FF30BDE8FC814544388866
:103D3000401C388000BFB542DFDB00BF5CB1608A49
:103D4000E18B08446082A08AE18B0844A082E0886D
:103D5000E18A0844E0800020E6E70000E405002056
:103D60002DE9F043B9B00020389037903690359067
:103D7000339034903090319032902D902E902F903F
:103D8000642114A8FCF7B8FD38A801F0CAFCBDF9FD
:103D9000E00042F20231084000287DD00020079068
:103DA00001F0B8FCFE4A03C200BF14AA07A935A857
:103DB00002F0B4F900B1CDE2BDF81C40F948D0E9F9
:103DC0000010002359405840014310D07CB1F44802
:103DD000D0E90030F349D1E900219D1A60EB0101DF
:103DE0002246E3172846FCF7DAFAEF4A03C22CB161
:103DF000EB48D0E90010EB4AC2E900109AE235AA7C
:103E000036A937A802F046F900B19BE2BDF8DC0004
:103E100000F4004038B30120E449088030A8FFF7DF
:103E20007FFA01F02BFCE249086001F033FC01212C
:103E300001FA00F8404606F0F3FD07464FF08041D6
:103E400006F04EFE06464FF09D4106F0EBFC05469F
:103E5000D849284606F044FE0546D74A294630A8E8
:103E600000F05AFE00BFBDF8DC0000F480400028DE
:103E70007BD0002004900590069001900290039062
:103E80000120CE49088033A8FFF748FB01F030FC41
:103E9000012101FA00F800E09DE2404606F0C0FD75
:103EA0000746C74906F01CFE06464FF08E4106F055
:103EB000B9FC0546C349284606F012FE0546BDF981
:103EC000CC000490BDF9CE000590BDF9D00006905D
:103ED000BD4A294604A800F01FFE33A8FFF7C6FA22
:103EE00001F006FC012101FA00F8404606F098FDB9
:103EF0000746B34906F0F4FD06464FF0934106F03D
:103F000091FC0546AF49284606F0EAFD0546BDF995
:103F1000CC000190BDF9CE000290BDF9D000039015
:103F2000AA4A294601A800F0F7FDA948007800F048
:103F30000200A8B104984001049005984001059042
:103F400006984001069001AA04A930A802F086F85C
:103F5000A04A294630A800F0DFFD01209E490880D4
:103F600001F0BAFB9D49086000BFBDF8DC0000F01D
:103F7000200088B101209A49088030A8FFF7FAF99B
:103F800001F0BCFB974908604FF05E55964A294600
:103F900030A800F0C1FD00BFBDF8DC0000F4005007
:103FA000002844D030A8FFF7ABFA309806F038FD6F
:103FB00005464FF05E5106F093FD8C49086031983C
:103FC00006F02EFD05464FF05E5106F089FD87494B
:103FD0004860329806F024FD05464FF05E5106F029
:103FE0007FFD82498860804A1168804A106806F027
:103FF00037FF7F4908607C4A51687C4A506806F068
:104000002FFF7B494860784A9168784A906806F0AB
:1040100027FF7749886000207449086048608860FD
:104020007349086048608860012072490880BDF8C3
:10403000DC0000F4006000287ED001206E4908807A
:104040002DA8FFF751F96D492DA800F089FD0EA9A3
:104050002DA800F0E7FD0EA911A801F0B5FC1198FC
:1040600002F09CFA66490860129802F097FA6449D7
:104070004860139802F092FA614988604E490868D6
:10408000002106F0F9FD01D8012000E00020804663
:1040900006F0C6FC07464FF07C5106F0E1FE0646EE
:1040A000454908684FF08F4106F01AFD81463146B8
:1040B00006F044FB054606F077FC08903E49486848
:1040C000002106F0D9FD01D8012000E00020804643
:1040D00006F0A6FC07464FF07C5106F0C1FE0646EE
:1040E000354948684FF08F4106F0FAFC8146314669
:1040F00006F024FB054606F057FC09902E49886817
:10410000002106F0B9FD01D8012000E00020804622
:1041100006F086FC07464FF07C5106F0A1FE0646ED
:10412000254988684FF08F4106F0DAFC8146314618
:1041300006F004FB054600E016E006F035FC0A90A8
:1041400008AA11A90BA801F09BFC0B9802F026FA13
:104150002C4908600C9802F021FA2A4948600D9811
:1041600002F01CFA27498860BDF8DC0000F480608A
:10417000A0B10120244908802DA8FFF7C3F801F061
:10418000C3FA074606F04CFC06464FF09C4106F089
:1041900049FB054606F008FC1C4939E05AE00000DE
:1041A0002001002018010020C00000209000002005
:1041B000A80000200AE81C41F00200209400002022
:1041C00000007A4335FA8E3C280300203403002097
:1041D0009C0200201C03002092000020AC00002064
:1041E00096000020B40000204C030020580300205B
:1041F00064030020980000209A000020D0020020D4
:10420000C4030020B80300209C000020B000002060
:10421000086072492DA800F0A3FC7148007800F0F6
:104220008000B0B101A92DA800F0FCFC01A904A8F0
:1042300001F042FC049802F0B1F96A49086005985F
:1042400002F0ACF967494860069802F0A7F96549A1
:10425000886000BFBDF8DC0000F4807030B32DA88A
:10426000FFF7F6F85E48006800F4802018B15E4958
:104270002DA800F0D9FB5A48008800F4005090B1F6
:104280005A492DA800F06CFC01F020FA074606F010
:10429000C7FB06464FF09C4106F0C4FA054606F0FF
:1042A00083FB53490860012052490880BDF8D800BB
:1042B00000F0800060B35048FFF740F84F48FFF728
:1042C0004BF84748006800F4800088B14A480088ED
:1042D000102101EA202018B102204949087007E0A6
:1042E0004548007800F0100010B1012044490870E2
:1042F0003B48006800F4801010B10120414908805B
:104300003748006800F4800010B101203E49088061
:10431000BDF8D80000F4806050B13148006800F466
:10432000001028B13948FFF785F801203849088086
:1043300004F0F4F9BDF81C10481E80B20790002963
:104340007FF45DAD00BF359800B903E035980028D3
:104350007FF42BAD00BFBDF8E00000F4806050B1E9
:104360001F48008800F4006028B12A48007810B186
:1043700029A0FCF739F8BDF8DC0000F01000C8B146
:104380001748008800F48060A0B10020069006A8BD
:10439000FFF780F8264906980968884209D01D4829
:1043A000007818B123A00699FCF71EF8204906985A
:1043B000086000BFBDF8E00000F4007050B108488C
:1043C000008800F4805028B11248007810B11EA077
:1043D000FCF70AF800BF39B0BDE8F083FC0200200A
:1043E0009C020020D00300208003002070030020E6
:1043F000B8000020A0000020CC000020D000002049
:10440000CE000020A2000020A6000020D400002042
:10441000A40000204000002053746570204465749F
:1044200065637465643E3E3E3E3E3E3E0D0A0000BE
:1044300028010020095374657020436F756E746500
:10444000722025640D0A00003E3E20534D44204951
:104450006E74657272757074202A2A2A2A2A2A2A92
:104460002A2A0D0A0000000000BF054A128802F047
:104470004002002AF9D0C2B2014B1B1D1A807047BE
:104480000038014010B514212948FDF753FD0446BA
:104490002848008840B12848408BA04201DD2046D2
:1044A00001E02548408B04462448008840B122485A
:1044B000808BA04201DD204601E01F48808B04462E
:1044C0001F48008840B11C48C08BA04201DD204637
:1044D00001E01948C08B0446272000F051F918B9B3
:1044E000142000F04DF928B1052C01DA204600E037
:1044F000052004461F2000F043F918B90B2000F0F6
:104500003FF928B1052C01DA204600E005200446D9
:10451000232000F035F918B90F2000F031F928B147
:10452000052C01DA204600E005200446204610BD97
:104530008CE80008980100204C0100209C0100201C
:104540009A01002010B50A211048FDF7F3FC04463B
:10455000272000F015F918B9142000F011F928B13E
:104560000F2C01DA204600E00F2004461F2000F047
:1045700007F918B90B2000F003F928B11C2C01DA57
:10458000204600E01C200446204610BDD0E800086C
:1045900010B50E210948FDF7CDFC04461F2000F0A0
:1045A000EFF818B90B2000F0EBF828B1052C01DA70
:1045B000204600E005200446204610BDB4E800086F
:1045C00001460022086808B90020704708686FF3A8
:1045D0000F0018B91032088800040860086800F05D
:1045E0007F4018B90832086800020860086800F0C7
:1045F000704018B9121D086800010860086800F0D2
:10460000404018B9921C086880000860086800F0F3
:10461000004018B1521E0868400808601046D4E7F0
:1046200070B5044602206578267845EA06250D8097
:104630000D8805F4004525B1801D13B15D886D1C02
:104640005D800D8805F480454DB1801D13B11D8C32
:104650006D1C1D84801D13B11D896D1C1D810D886D
:1046600005F4005525B1801D13B19D8B6D1C9D83F4
:104670000D8805F4805525B1083013B15D896D1C96
:104680005D810D8805F4006525B10C3013B1DD8B1B
:104690006D1CDD830D8805F4806525B10E3013B1E6
:1046A000DD8A6D1CDD820D8805F4007505B1801D65
:1046B0000D8805F4807525B10E3013B11D8D6D1C6C
:1046C0001D850D7805F0800525B1801D13B19D89EC
:1046D0006D1C9D810D7805F0200525B10C3013B1BE
:1046E0009D886D1C9D800D7805F0100525B1001D7D
:1046F00013B19D8C6D1C9D840D7805F0080535B1B6
:10470000E578A67845EA06251580801C01E000259D
:104710001580158805F4804505B1801C158805F4C1
:10472000005505B1801C158805F4805505B1801C25
:10473000158805F4806535B1801C23B1B3F8585055
:104740006D1CA3F85850157805F0800535B1801D13
:1047500023B1B3F85A506D1CA3F85A50801C70BD99
:104760000146034805C8C1E9000200207047000067
:104770002000002001200149087370479C0200209E
:1047800001464811044A52F8200001F01F0301229B
:104790009A40104070470000A40100202DE9F0412C
:1047A00005460E46002319E000210A4600240DE0CC
:1047B00003EB430020440C4F57F8200035F81470E9
:1047C0003F0480FB077079184241641C032CEFDB27
:1047D000880F40EA820046F823005B1C032BE3DBD2
:1047E0000020BDE8F0810000180A0020F0B586B076
:1047F00005460C4600260020002113E0675C57B1F7
:10480000675C7F1EDFF870C03CF817700DF10C0C70
:104810004CF8217005E000270DF10C0C4CF82170CC
:104820000126491C0329E9DB002121E053F821700E
:1048300052F821C0A7EB0C074DF82170B6B95DF80E
:1048400021700DF10C0C5CF821C0B7EB6C0F00DA95
:104850000120012D0BD003AF57F8217007EB67073C
:104860005DF821C0674502DA012000E00120491C03
:104870000329DBDB06B0F0BD2CE900082DE9F04789
:1048800098B081468A4600240FE000250AE0032004
:1048900000FB045019F80000032101FB054115AA93
:1048A00050546D1C032DF2DB641C032CEDDB5748C8
:1048B0000078203806281CD2DFE800F00B07030F31
:1048C0001317534F4FF0160817E0524F4FF01608CA
:1048D00013E0514F4FF016080FE04D4F4FF01708FF
:1048E0000BE04D4F4FF0160807E04B4F4FF0160806
:1048F00003E0494F4FF0160800BF00BF002410E04E
:104900004648005D803009A941F8240051F8241080
:1049100001FA08F0394601F055FE09A941F82400D2
:10492000641C032CECDB002411E0032094FBF0F169
:1049300000FB114009A951F820001AF9041048435E
:104940004DF8240000200CA941F82400641C092C17
:10495000EBDB00242AE0002525E0002004EB4401E5
:1049600029442F4A42F82100002619E006EB4602AE
:104970002A445DF8221004EB44023244294B53F8D8
:10498000220001F01FFE04EB44012944244A52F89E
:104990002110084404EB4401294442F82100761C0C
:1049A000032EE3DB6D1C032DD7DB641C032CD2DB51
:1049B000002423E000251EE0002619E0032000FB70
:1049C00004500CA951F82000032101FB046115AA31
:1049D0005156032202FB0652114B53F8222001FBD1
:1049E0000200032101FB04510CAA42F82100761CAD
:1049F000032EE3DB6D1C032DDEDB641C032CD9DBF3
:104A00000CA8FFF726F818B0BDE8F0878BB00008B7
:104A1000666666263333331399999909E4010020B9
:104A2000180A0020F00000202DE9F04104460D4650
:104A300000262168084601F0C5FDC0F18048616884
:104A4000084601F0BFFDA8EB0008A168084601F088
:104A5000B9FDA8EB0007384600F0A2FD06462E601F
:104A6000206868606068A860A068E8600020BDE811
:104A7000F08100002DE9F04104460F4616461D4620
:104A80004FF000082148008810B92148008818B16B
:104A9000288840F0080028802A2C01DBBDE8F0813E
:104AA00036F9148008F1010000B9F7E78FB1601101
:104AB000184951F8200004F01F02012191400843D9
:104AC0006111144A42F82100288840EA0800288031
:104AD00010E060110F4951F8200004F01F0201217D
:104AE0009140884361110B4A42F821002946304623
:104AF00001F066FE0548008810B90548008818B125
:104B0000288840F00800288000BFC7E798010020EF
:104B10009C010020A4010020FEB505460E46144667
:104B20006A4629460D4801F016FE009805F078FF08
:104B30000746314605F0D4FF2060019805F070FF6C
:104B40000746314605F0CCFF6060029805F068FF2B
:104B50000746314605F0C4FFA060FEBDC401002039
:104B600070B588B005460C4604A92846FFF75CFFDF
:104B70006A462B4904A801F093FD0098002824DB25
:104B8000019805F04DFF06464FF0425105F0A8FF91
:104B90002060029805F044FF06464FF0425105F0B0
:104BA0009FFF6060039805F03BFF06464FF04251BF
:104BB00005F096FFA060009805F032FF06464FF022
:104BC000425105F08DFFE06027E00199484205F071
:104BD00027FF06464FF0425105F082FF2060029900
:104BE000484205F01DFF06464FF0425105F078FFA0
:104BF00060600399484205F013FF06464FF04251AA
:104C000005F06EFFA0600099484205F009FF0646D6
:104C10004FF0425105F064FFE06008B070BD000045
:104C2000C401002030B589B005460C4605A92846C8
:104C3000FFF7FAFE01AA0F4905A801F031FD01981E
:104C4000002808DB02982060039860600498A06048
:104C50000198E0600BE002984042206003984042D7
:104C6000606004984042A06001984042E06009B052
:104C700030BD0000C40100204A780B7842EA0322CC
:104C800012B20280CA788B7842EA032212B24280C2
:104C90004A790B7942EA032212B2828070470A787D
:104CA00013064A7843EA02438A7843EA0222CB7821
:104CB0001A4302600A7913064A7943EA02438A7961
:104CC00043EA0222CB791A4342600A7A13064A7AEF
:104CD00043EA02438A7A43EA0222CB7A1A43826089
:104CE00070472DE9F04105460C462646B5F8A2006E
:104CF00000F4004088B1214605F12C00FFF7BCFF0D
:104D0000B5F92C00C0036863B5F92E00C103A9638F
:104D1000B5F93000C103E963A41DB5F8A20000F4A1
:104D2000804058B1214605F14000FFF7A5FFA41DC2
:104D3000214605F14600FFF79FFFA41DB5F8A2002C
:104D400000F4005098B1214605F17400FFF794FF7C
:104D500005F1580105F17400FFF720FD05F1800011
:104D60002168C5F89C10A188A5F8A010A41DB5F86D
:104D7000A20000F4006020B121462846FFF78FFF13
:104D80000C3495F8A20000F0800028B1214605F10E
:104D90008000FFF771FFA41DB5F8A20000F4806049
:104DA00058B1214605F10C00FFF779FF207B010681
:104DB000607B41EA0040A8610E34B5F8A20000F41F
:104DC000807058B1214605F11C00FFF768FF207B79
:104DD0000106607B41EA0040A8620E3495F8A2000B
:104DE00000F0200070B1214605F16400FFF757FF85
:104DF0002168C5F890106168C5F89410A168C5F8DD
:104E000098100C3495F8A20000F0100058B12078EA
:104E10000106607841EA0041A07841EA0020E1788B
:104E200008432867241DB5F8A40000F4804038B179
:104E30006078217840EA012000B2A5F87A00A41C2D
:104E4000B5F8A40000F4005038B16078217840EA49
:104E5000012000B2A5F87C00A41CB5F8A40000F461
:104E6000805038B16078217840EA012000B2A5F87E
:104E70007E00A41CB5F8A40000F4806038B160780E
:104E8000217840EA012000B2A5F88E00A41C95F814
:104E9000A40000F0800090B16078217840EA012001
:104EA000A5F88C00A0780106E07841EA004120795D
:104EB00041EA002061790843C5F88800A41D6078A4
:104EC000217840EA012007B2A41C0120C5F8A800FF
:104ED000A01BBDE8F08170B504460D46294620466A
:104EE00000F044FD70BD70B504460D4629462046CD
:104EF00000F042FD70BD70B504460D4616463246C0
:104F00002946204601F032F970BD70B504460D46C1
:104F1000164632462946204601F072FC70BD70B537
:104F200004460D46164632462946204603F070F9DF
:104F300070BD2DE9F84381460F46154600200090CC
:104F4000804606E0002047F8280045F8280008F1D0
:104F50000108B8F1030FF5DB6A463946484602F00E
:104F6000BFF8064616B13046BDE8F883002407E0D6
:104F700057F82400009990FBF1F047F82400641CD6
:104F8000032CF5DBB9F1010F06D13B214FF4817001
:104F900003F046FA064605E01E2140F2151003F024
:104FA0003FFA06460EB13046DEE7142003F04EF815
:104FB000002000906A462946484602F091F80646CD
:104FC0000EB13046D0E7002407E055F824000099E0
:104FD00090FBF1F045F82400641C032CF5DB002065
:104FE000C2E7000010B504460B48048034B18020AD
:104FF0000A4908800020FEF776FE0CE02920FFF722
:10500000BFFB28B9002005490880FEF76CFE02E0CE
:105010000120FEF768FE10BD9601002098010020D7
:1050200070B504460025214880787F2801D10120F1
:1050300000E0002004F08001084300B300201B4979
:10504000887004F0020008B93820887004F001006C
:1050500028B91648807840F007001449887004F099
:10506000040028B91148807840F040000F4988704A
:105070000E4A921C0121072003F02CF9054304F08D
:10508000080018B101F096FD054302E002F0FCFFB4
:10509000054304F0040018B101F0E0F8054302E014
:1050A00001F08EF90543284670BD0000260500205A
:1050B00070B505460E460024284604F03FFA20B19C
:1050C00001F0B4F808B9052070BD284604F055FA7F
:1050D00020B101F0B7F808B90520F5E701F0A4F90F
:1050E0000948007828B100200749087003F058F8F3
:1050F0000443054A3146284600F008F8044300F00E
:1051000057FC2046E0E70000B20100202DE9F84FEF
:10511000044688469146002700250026002000907E
:10512000112C0AD1B8F1000F04D04FF40060DF4910
:10513000088002E00020DD490880122C0AD1B8F175
:10514000000F04D04FF40050D949088002E000203D
:10515000D74908802C2C0CD1B8F1000F06D04FF4A1
:105160008060D4490880FEF7D2FA02E00020D149DD
:1051700008802B2C09D1B8F1000F03D02020CE4994
:10518000088002E00020CC4908802D2C02D1404646
:10519000FFF728FF292C02D1404600F0A3F9C74BA6
:1051A000C74A41462046FFF765FCC4480088FEF721
:1051B000E5FC0746C048008848B1C049098848F264
:1051C000080241EA0200FEF7BFFC074304E0BB48C7
:1051D0000088FEF7B9FC0743B848008800F4004097
:1051E00030B1B848008840F48040B649088005E0F6
:1051F000B448008820F48040B2490880AF48007865
:1052000000F0400030B1AF48008840F40050AD4994
:10521000088005E0AB48008820F40050A9490880C8
:10522000A648007800F0200048B9A448008800F49F
:10523000806020B9A148008800F4807030B1A14896
:10524000008840F480509F49088005E09D48008810
:1052500020F480509B4908809B48008838B19948C9
:1052600000889949098808439649088006E09548CE
:105270000088954909888843924908808D480088AC
:1052800038B1904800888B49098808438D490880C7
:1052900006E08C4800888749098888438949088046
:1052A0002B2C04D1B8F1000F01D045F0040585483E
:1052B0000088FEF779FC0743844800688449084069
:1052C00020B98248007900F0180008B146F00106C4
:1052D0007E4800687F49084020B97C48808800F4F7
:1052E0003A7008B146F002067248008810B9724858
:1052F000008808B146F002067348008808B146F0FD
:105300000206724800687449084020B96F48007965
:1053100000F0840008B146F008066C4800686F4948
:10532000084008B146F0040606F0010008B145F453
:10533000807545F420755D4800885D4909880843FB
:1053400005435E48008800F4806008B145F04005E0
:105350005A48007800F0170010B905F4006018B141
:1053600045F4004545F480455648007800F080003B
:1053700018B145F4804545F400455248008800F4D2
:10538000806018B145F01005FEF7C1F94B48008860
:1053900000F4807008B145F008052846FEF74AFC85
:1053A0000743092C03D00F2C01D00A2C08D14C49FB
:1053B000204600F085FD4A491631204600F080FD68
:1053C000032C01D00B2C0ED14549891C204600F03E
:1053D00077FD43491831204600F072FD40491C31E9
:1053E000204600F06DFD1D2C03D0232C01D01E2C77
:1053F00009D13B492631204600F062FD3849383159
:10540000204600F05DFD192C01D01F2C0ED134492F
:105410002831204600F054FD31493A31204600F051
:105420004FFD2F493E31204600F04AFD02F07AF947
:10543000074300F05DF9824600F054F98346514677
:1054400002F0DAF807431D48008868B91F48006871
:1054500000F4003040B91848008828B9012089F8C4
:10546000000002F001FE074346F08000FFF7D8FD80
:10547000074306F0080010B906F0040018B126F042
:10548000040646F008063046FEF7A4FB0743132C3B
:1054900008D1B8F1000F05D06846FDF7F5FF009878
:1054A00002F07EF83846BDE8F88F0000B401002015
:1054B000B60100209C0100209A0100209E010020DE
:1054C00038E80008A001002098010020A401002075
:1054D000188E01E60A8E9EE20C48108340000010F0
:1054E0005601002010B504464CB1802008490880C0
:1054F0000848008858B90120FEF7F5FB07E0054889
:10550000008820B9002002490880FEF7ECFB10BD9E
:1055100098010020960100202DE9F04707468846B3
:1055200016461D46DDF820900024EBB2F2B241464B
:10553000384601F063FA044300F0F6FF04433C20D0
:1055400002F084FD00F0E0FF04434A4629463B2078
:1055500001F0DCF90443384601F00CF8044320461E
:10556000BDE8F0872DE9F04106460F4615469846FE
:105570000024EAB243463946304602F0F1FE0443C5
:1055800000F0D2FF04433C2002F060FD00F0BCFFBD
:105590000443304600F0EEFF04432046BDE8F081AE
:1055A0002DE9F14F81B00198002802DC0020BDE810
:1055B000FC8FDFF8C4904FEA690A4FF0C047694694
:1055C00001A804F0C3FA06464FF00008009800282E
:1055D00005DD009800EBD0714910A0EB4108009860
:1055E000A0EB080000900198A0F1804529460198A1
:1055F00000F0E8FF0199A1EB6004022E23DBC7EB6A
:105600006501284600F0DEFF83465946284600F033
:10561000D9FF45102946204600F0D4FFA4EB6004D2
:10562000032E10D1C7EB6501284600F0CBFF83465F
:105630005946284600F0C6FF45102946204600F08E
:10564000C1FFA4EB6004B8F1000F04D0514620461E
:1056500000F0B8FF04460098002803DD00984010D1
:10566000044107E00098401C20B94946204600F05C
:10567000A9FF044620469AE79A79825A0148B0F970
:105680007A007047380500200148B0F908007047DB
:10569000260500200148407B7047000026050020B9
:1056A0000148007870470000AC01002001480078F4
:1056B000704700002605002010B50446204600F083
:1056C00001F810BD4FF48051018070470148806A95
:1056D00070470000380500200148B0F97C00704791
:1056E0003805002001480079704700002605002099
:1056F0000148007B70470000260500200148B0F9F2
:105700007E0070473805002001488069704700001E
:10571000380500201CB56846FFF722F8DDE90001D6
:105720001CBD38B5044600250CB1002020806A4617
:105730000121192001F0EAF8054614B19DF8000096
:1057400020806A460121182001F0E0F8054634B1B6
:1057500020889DF8001040EA012000B220802846F1
:1057600038BD000010B540F2831014490880401C79
:105770004880401C8880401CC880401C0881411C17
:105780000E484181491C8181491CC181481C0B493B
:105790000882411C09484182491C8182491CC182FE
:1057A000002000F0E7FE012000F0E4FE022000F0FF
:1057B000E1FE032000F0DEFE10BD0000F60900202F
:1057C00070B505460E4600248021062002F0FEFD3D
:1057D0000443642002F03AFC12216248FBF76AF8A5
:1057E0000120604948707F2088700846C573C21C3C
:1057F0000121032001F08AF8044302F0D1FC0443A4
:10580000594A0121002001F081F8044370205649D3
:1058100008700A460121052002F05CFD044351484E
:10582000C07B022803D110204E49C87002E000203E
:105830004C49C8704B48C178032002F0C7FD0443AF
:10584000304600F0A3F804430CB1204670BD454833
:10585000807B20F00200801C4249887301F086FEA4
:105860000443FDF797FE04434FF44870FDF751FFE2
:10587000044302203C4908700A460121102002F02E
:1058800029FD04430120384908700A4601211220ED
:1058900002F020FD0443E420334908700A46012148
:1058A000262002F017FD04432F4A0121752001F044
:1058B0002DF82D48007840F008002B4908700A4662
:1058C0000121752002F006FD01202649C872887268
:1058D0000A2001F071FE0A2001F0DAFC032001F039
:1058E00079FE0443002001F0E9FC04430021762006
:1058F00002F06CFD04431F21682002F067FD0443A1
:105900001E21682002F062FD04430021662002F09F
:105910005DFD04430021672002F058FD0443124A54
:105920000121862000F06CFF04430F48007800F04E
:10593000080008B1312089E70A48807B20F0010087
:10594000401C084988730846807B00F0010018B1AC
:105950000121022001F018FD02F086FB04432046DD
:1059600074E7000026050020BC0100200246100A52
:1059700008704A70084670470246100E0870100CF6
:105980004870100A8870CA700846704710B50446FF
:10599000204600F001F810BD10B50446902243F2F5
:1059A000AA710248FFF7A7FA10BD00008EB00008E8
:1059B00010B50120034908700121022001F0E4FC28
:1059C00010BD0000B80100202DE9FF4104460D463E
:1059D0002A4E24B94FF0FF3004B0BDE8F08115B96C
:1059E0004FF0FF30F8E769462846FFF71DF81E2202
:1059F0000399019800F0D0FE47001E2202990098FA
:105A000000F0CAFE022101FB1070801320601E22EC
:105A1000DDE9020100F0C0FE47001E22DDE90001C1
:105A200000F0BAFE022101FB007080136060019952
:105A300008461E2200F0B0FE4000C0F180470299E7
:105A400008461E2200F0A8FE022101FB1070801300
:105A5000A06010223146206800F09EFE20601022D7
:105A60003146606800F098FE606010223146A06800
:105A700000F092FEA0600020AEE7000081CE090099
:105A800010B5034613B94FF0FF3010BD11B94FF0F8
:105A9000FF30FAE712B94FF0FF30F6E710680C68F4
:105AA000001B186050684C68001B586090688C6838
:105AB000001B98600020E8E7F0B58DB004460D4665
:105AC000284F1CB94FF0FF300DB0F0BD15B94FF0A5
:105AD000FF30F9E709A92846FEF7A6FF694609A89D
