:020000040800F2
:1000000068070020650200085B1B0008AB150008AC
:10001000591B00085B040008D91C00080000000000
:100020000000000000000000000000005F1B00084E
:100030005D040008000000005D1B0008611B000853
:100040007F0200087F0200087F0200087F0200088C
:100050007F0200087F0200087F0200087F0200087C
:100060007F0200085F0400087F0200087F0200088A
:100070007F0200087F0200087F0200087F0200085C
:100080007F0200087F0200087F0200087F0200084C
:100090007F0200087F0200087F0200087F0200083C
:1000A0007F0200087F0200087F0200087F0200082C
:1000B0007F0200087F0200087F0200087F0200081C
:1000C0007F0200087F0200087F0200087F0200080C
:1000D0007F0200087F0200087F0200087F020008FC
:1000E0007F0200087F0200087F0200087F020008EC
:1000F0007F0200087F0200087F0200087F020008DC
:10010000000000007F0200087F0200087F02000854
:100110000000000000000000051C00087F0200082D
:100120007F0200087F0200087F0200087F020008AB
:100130007F0200087F0200087F0200087F0200089B
:100140007F0200087F0200087F0200087F0200088B
:100150007F0200087F0200087F0200087F0200087B
:100160007F0200087F02000800000000000000007D
:10017000000000000000000000000000000000007F
:100180007F0200087F02000800000000000000005D
:100190007F0200087F02000800000000000000004D
:1001A000000000000000000000000000000000004F
:1001B0007F02000800000000000000007F0200082D
:1001C0007F02000800F002F800F03CF80AA090E876
:1001D000000C82448344AAF10107DA4501D100F002
:1001E00031F8AFF2090EBAE80F0013F0010F18BF93
:1001F000FB1A43F001031847941E0000B41E0000D0
:10020000103A24BF78C878C1FAD8520724BF30C842
:1002100030C144BF04680C60704700000023002414
:1002200000250026103A28BF78C1FBD8520728BF06
:1002300030C148BF0B6070471FB501F015FF1FBDEF
:1002400010B510BD00F0CFF81146FFF7F5FF01F033
:10025000F7FE00F0EDF803B4FFF7F2FF03BC00F087
:10026000F5F800000948804709480047FEE7FEE727
:10027000FEE7FEE7FEE7FEE7FEE7FEE7FEE7FEE756
:1002800004480549054A064B70470000F51B000865
:10029000C5010008680100206807002068030020ED
:1002A0006803002053EA020C00F069802DE9F04B4E
:1002B0004FF00006002B1FBFB3FA83F503FA05F4D5
:1002C00024FA05F65E4012BF1643B2FA82F502FA2E
:1002D00005F4C5F120051EBF22FA05FC44EA0C0412
:1002E000203556EA044C4FEA144418BF641C4FF002
:1002F00000084FF00009904271EB030C39D300293C
:1003000019BFB1FA81F701FA07F6B0FA80F700FADF
:1003100007F6C7F120071EBF20FA07FC46EA0C06C5
:100320002037B6FBF4FCA7EB0507103F07F01F0BC7
:10033000CBF120060CFA0BFB2CFA06F644BFB346B1
:100340000026202FA4BF5E464FF0000B5BEA060C90
:1003500008BF4FF0010B19EB0B09ABFB027C48EB1C
:100360000608C01B06FB02CC0BFB03CC71EB0C0197
:10037000C1E70B46024641464846BDE8F08B13B53F
:100380004FF000004FF00001AFF30080BDE81C40CB
:1003900070474FF0000200B5134694469646203948
:1003A00022BFA0E80C50A0E80C50B1F12001BFF42E
:1003B000F7AF090728BFA0E80C5048BF0CC05DF894
:1003C00004EB890028BF40F8042B08BF704748BFE2
:1003D00020F8022B11F0804F18BF00F8012B704756
:1003E000704770477047754600F02CF8AE46050020
:1003F0006946534620F00700854618B020B5FFF740
:100400003FFFBDE820404FF000064FF000074FF0DF
:1004100000084FF0000B21F00701AC46ACE8C00922
:10042000ACE8C009ACE8C009ACE8C0098D4670472B
:1004300010B50446AFF300802046BDE81040FFF73A
:100440000ABF000000487047080100200149182039
:10045000ABBEFEE7260002007047FEE770470820AB
:1004600000F028B872B6FEE770B5044600F022F935
:100470000546601C02D004480078044400F01AF9D4
:10048000401BA042FAD370BD0400002010B508281C
:100490000ED1401CC0B20F280AD01A2001F052FD24
:1004A000012805D101F0DEFCBDE8104001F0B2BC2E
:1004B00010BD0000044910B50A68024202D008606D
:1004C000FFF7E4FF10BD0000143C01402DE9F84F98
:1004D000DFF8ACA1002201240AF1040B03254FF040
:1004E0000F090BF1040E00BF0B6804FA02F633404B
:1004F000B3426ED10F7907F00307012F01D0022F0D
:1005000016D187684FEA420805FA08FC27EA0C076B
:10051000D1F80CC00CFA08FC4CEA070CC0F808C073
:100520004768B7430E79C6F3001696403E434660CF
:100530000E79F643B6070AD0C6684FEA420C05FAB0
:100540000CF7BE438F6807FA0CF73743C7600E7984
:1005500006F00306022E10D1D60800EB8608D8F864
:10056000206057074FEAD76C09FA0CF7BE430F69B2
:1005700007FA0CF73743C8F8207006684FEA420CB8
:1005800005FA0CF7BE430F7907F0030707FA0CF7DB
:10059000374307604E6816F4403F6BD0394E3768DA
:1005A00047F480473760366822F0030706F4804638
:1005B0000096354E07EB060CDCF8086897074FEA03
:1005C000177809FA08F7BE43304FB84202D1002726
:1005D0001FE04FE02E4FB84201D1012719E02D4F07
:1005E000B84201D1022714E02B4FB84201D10327B2
:1005F0000FE02A4FB84201D104270AE0284FB84241
:1006000001D1052705E0274FB84201D1062700E0B8
:10061000072707FA08F73743CCF80878DAF80060BC
:100620005746D1F804C09E435FEACC3C00D51E4338
:100630003E60DBF800605F46D1F804C09E435FEA8D
:100640008C3C00D51E433E60DEF800607746D1F852
:1006500004C09E435FEACC2C00D51E433E60084F89
:100660000C373E68D1F804C09E435FEA8C2C00D55D
:100670001E433E60521C102AFFF436AFBDE8F88FCF
:10068000003C01404438024000300140000002407C
:100690000004024000080240000C0240001002402A
:1006A00000140240001802400AB181617047090439
:1006B000FBE700000148806870470000040000204C
:1006C00070B5040025D094F83D00002520B984F8C9
:1006D0003C50204600F04AFA242084F83D0020686F
:1006E000016821F0010101602068016841F40041C6
:1006F00001602068016821F40041016000F0A0FB66
:100700004D4A6168914201D84C4900E04C49884209
:1007100001D2012070BD4B492368B0FBF1F15E6846
:1007200026F03F060E435E606368934206D94FF49D
:10073000967359434FF47A73B1FBF3F12368491C64
:100740001E6A26F03F06314319626168914210D853
:100750004900401EB0FBF1F2521CC2F30B02042A06
:1007600001D2042022E0B0FBF1F0401CC0F30B00EA
:100770001CE0A268F2B301EBC10303EB0116431EB8
:10078000B3FBF6F35B1C43F480431B0549D092B3E3
:1007900001EBC10202EB0111401EB0FBF1F0401C65
:1007A000C0F30B0040F4804040F400402168CA6967
:1007B0004CF6FF739A431043C861D4E90710014314
:1007C0002068026822F0C00211430160D4E90301ED
:1007D00001432068826848F2FF339A4311438160E5
:1007E000D4E9050108432168CA6822F0FF021043DA
:1007F000C86001E00EE016E02068016841F00101E8
:1008000001602564202084F83D00256384F83E5073
:10081000002070BD01EB4106431EB3FBF6F35B1CE9
:10082000B3E70120C2E701EB4101401EB0FBF1F04C
:10083000401CC0F30B00B7E7A086010080841E00B7
:1008400000093D0040420F002DE9F84F1F46904639
:100850008A460446DDF82890FFF72CFF054694F8F9
:100860003D0020287FD119230122404920460095D0
:1008700000F0E8FF002876D194F83C00012872D0FF
:10088000012084F83C0020680168C90703D1016891
:1008900041F0010101602068016821F400610160FC
:1008A000212084F83D00102084F83E0000262664B4
:1008B000C4F824806785608D20852D48E0622B4632
:1008C0004A465146204600F0CBFE90B92068416967
:1008D0008069009036E02A464946204601F064F8D7
:1008E00050B1206C042804D12068016841F40071E3
:1008F00001600120BDE8F88F606A21680078086116
:10090000606A401C6062618D491E6185218D491EAF
:1009100089B2218522685369DB435B070BD451B14F
:1009200000781061606A401C6062608D401E6085C6
:10093000208D401E20852A464946204600F05CFF57
:100940000028CED1208D0028C5D154F83D0B016878
:1009500041F400710160202004F81E09E6776677F3
:100960000020C7E7FFE70220C4E7000002001000F4
:100970000000FFFF2DE9FF4F83B09A46DDE9119794
:1009800093460446DDF84080FFF794FE054694F850
:100990003D00202870D1192301227149204600957D
:1009A00000F050FF0028F5D194F83C00012863D0F6
:1009B000012084F83C0020680168C90703D1016860
:1009C00041F0010101602068016821F400610160CB
:1009D000222084F83D00402084F83E000026266452
:1009E000C4F82480A4F82A90608D20855D48E062D8
:1009F000CDE9007553465A462046049900F07EFE24
:100A000000287CD1208DD0B1012821D00228206877
:100A100024D0416980690090208D032869D801287D
:100A20002BD0514902283B464FF00002009559D087
:100A30008846204600F006FF002860D13CE0206890
:100A4000416981690091016841F40071016077E0BA
:100A50002068016821F480610160F0E7016821F4F9
:100A6000806101602068016841F4006101602068D4
:100A700041698069009063E06FE02A46394620466C
:100A800000F05FFF98BB20680069616A08704EE063
:100A90002068016841F40071016020680069616AA2
:100AA0000870606A401C6062218D491E2185618D3D
:100AB000491E6185216838E02068016821F4806161
:100AC000016020680069616A0870606A401C6062A9
:100AD000208D401E2085608D401E60853B46002293
:100AE00041460095204600F0ADFE00B9D0E706E093
:100AF000FFE72A463946204600F023FF18B10120BF
:100B000007B0BDE8F08F20680069616A0870606A0C
:100B1000401C6062218D491E2185618D491E6185C1
:100B200021684A69D24352070AD409690170606A90
:100B3000401C6062208D401E2085608D401E6085B7
:100B4000208D00287FF468AF202084F83D0084F8D1
:100B50003E6084F83C600020D2E70220D0E700002D
:100B6000020010000000FFFF0400010010B586B075
:100B7000044614216846FFF70CFC1449206888429B
:100B800021D113480021026842F00202026000688D
:100B900000F0020005904FF4407000901220CDE963
:100BA0000101032003900420049069460948FFF7DF
:100BB0008DFC07481030016841F4001101600068A5
:100BC00000F40010059006B010BD00000054004075
:100BD0003038024000040240024881680278114423
:100BE00081607047040000200B4810B5016841F493
:100BF00000710160016841F480610160016841F4A5
:100C000080710160032000F06FF8002000F006F80A
:100C100000F024F8002010BD003C024070B50D4DDE
:100C200004464FF47A712878B1FBF0F00A4909685C
:100C3000B1FBF0F000F004FB48B9102C07D2002201
:100C40002146501E00F030F800206C6070BD01207D
:100C500070BD000004000020000000200A4808B514
:100C6000016841F480410160006800F48040009018
:100C70000548001F016841F080510160006800F0E4
:100C80008050009008BD000044380240002809DB75
:100C900000F01F02012191404009800000F1E02096
:100CA000C0F8001170470000F0B40E4B1B680C46F2
:100CB000C3F30223C3F10705042D00D90425191D30
:100CC000072901D2002300E0DB1E012606FA05F108
:100CD000491E214099409E40761E16403143F0BC8B
:100CE00000F0FBBF0CED00E0064900F007020868C9
:100CF0004FF6FF03184040EA0220034A1043086001
:100D0000704700000CED00E00000FA052DE9F04707
:100D10000E46050065D0DFF81481D8F80000F7B260
:100D200000F00700B04207D288F80070D8F8000041
:100D300000F00700B04254D128683D4C810712D51D
:100D4000400703D5206840F4E05020602878000771
:100D500003D5206840F4604020602068A96820F036
:100D6000F000084320602878C0072DD0304968681B
:100D70000839012812D0022813D0032811D009689D
:100D8000890700292DDA216821F003010143216040
:100D9000FFF790FC814641F2883A0EE0096889032A
:100DA000EFE709688901ECE7FFF784FCA0EB090194
:100DB000514502D90320BDE8F0872068696800F03A
:100DC0000C00B0EB810FEFD1D8F80010404601F0D5
:100DD0000701B14207D90770006800F00700B04270
:100DE00001D00120E7E72878400705D52068E968A9
:100DF00020F4E050084320602878000706D52068DA
:100E0000296920F4604040EAC100206000F028F821
:100E10002168084AC1F30311515CC84006490860C3
:100E200006480068FFF7FAFE0020C4E7003C0240D5
:100E3000083802407220000800000020080000204E
:100E40000448054900680968044AC1F38221515CDD
:100E5000C840704700000020083802408220000887
:100E6000154810B5006810F00C02144813D041105A
:100E7000042A0FD0082A0ED10F4C241F22682368A1
:100E800002F03F025B0207D52068C0F38810A0FB88
:100E9000010106E0084610BD2168C1F38811A1FBDD
:100EA00000010023FFF7FEF92168C1F30141491C4D
:100EB0004900B0FBF1F010BD083802400024F400F6
:100EC0002DE9F84F04006ED02078DFF86093C0075A
:100ED000A9F104054AD009F104000168C1F38101B8
:100EE000012908D00068C0F3810002280AD1D9F88E
:100EF0000000400206D52868800337D560680028C6
:100F0000E1D033E06068B0F5803F10D0B0F5A02F9D
:100F1000286810D020F480302860286820F48020D1
:100F200028606068A8B1FFF7C5FB06460DE0286899
:100F300040F48030F4E740F480202860F7E700BFF9
:100F4000FFF7B8FB801B642873D828688003F7D5A7
:100F50000CE0FFF7AFFB064605E000BFFFF7AAFB7A
:100F6000801B6428F0D828688003F7D42078DFF845
:100F7000C08280074FF0000A3ED5AC48001D0168D2
:100F800011F00C0F08D00068C0F3810002280BD1CB
:100F9000D9F80000400207D42868800716D5E06819
:100FA000012800D112E03CE1E068B8B10120C8F8A6
:100FB0000000FFF77FFB064605E000BFFFF77AFB66
:100FC000801B0228C0D828688007F7D528682169C7
:100FD00020F0F80040EAC10028600DE0C8F800A049
:100FE000FFF768FB064604E0FFF764FB801B02285E
:100FF0001FD828688007F7D42078000722D58B4EA9
:101000008C486169703671B101210160FFF752FBB4
:10101000074604E0FFF74EFBC01B022809D83068E2
:101020008007F7D50EE0C0F800A0FFF743FB0746A6
:1010300005E082E0FFF73EFBC01B02287DD8306848
:101040008007F7D42078400768D5DFF8E0B10027A3
:101050000BF13C0BDBF80000C0000BD4DBF80010F8
:1010600041F08051CBF80010DBF80000012700F0C0
:1010700080500090704E3068C00510D4306840F445
:1010800080703060FFF716FB009005E0FFF712FB61
:101090000099401A022850D83068C005F6D5634E32
:1010A000A0686C3601280FD00528306810D020F0D9
:1010B00001003060306820F004003060A068B8B1F2
:1010C000FFF7F8FA00900FE0306840F00100F4E715
:1010D00040F004003060F7E7FFF7ECFA0099411A9E
:1010E00041F28830814268D830688007F4D50EE03C
:1010F000FFF7E0FA009007E0FFF7DCFA0099411AE9
:1011000041F28830814258D830688007F4D42FB13A
:10111000DBF8001021F08051CBF80010A069D8B3A3
:101120004249091D0968C1F3810102294CD00228F6
:10113000504607D0C8F8600000E03EE0FFF7BAFA7A
:1011400004463DE04746C8F86000FFF7B3FA06469C
:1011500005E000BFFFF7AEFA801B02282DD82868F3
:101160008001F7D4F4E907010843E168334A4908EC
:1011700002EB0141A26841EA82110843217C40EA66
:101180000160217D40EA0171C9F800100120386634
:10119000FFF790FA044606E045E000BFFFF78AFA41
:1011A000001B022809D828688001F7D53BE000BF62
:1011B000FFF780FA001B022802D90320BDE8F88F50
:1011C00028688001F4D42EE00128F7D0D9F8000077
:1011D000E26900F48001914223D1226A00F03F01CC
:1011E00091421ED147F6C071626A0140B1EB821F85
:1011F00017D1A26A4FF0FF3300F4403103EB5202E3
:10120000B1EB024F0DD194F82C2000F07061B1EBDE
:10121000026F06D194F8301000F0E040B0EB017F8F
:1012200001D00120CAE70020C8E7000004380240CE
:1012300000004742800E4742007000400000FFFF60
:1012400010B5401EB0F1807F01D3012010BD4FF0DA
:10125000E02460610F21601700F03FFD0020A061D5
:1012600007202061002010BD7047704770B590F8CE
:101270003C20012A32D0012480F83C40022280F830
:101280003D2003685A689D6822F070060A68324360
:101290005A60134B02689A4214D0B2F1804F11D0B9
:1012A000104B9A420ED0104B9A420BD00F4B9A42E1
:1012B00008D00F4B9A4205D00E4B9A4202D00E4BEB
:1012C0009A4204D1496825F080031943916080F85F
:1012D0003D40002180F83C10084670BD022070BDE2
:1012E000000001400004004000080040000C0040E5
:1012F00000040140004001400018004010B5040007
:1013000003D094F83D0010B107E0012010BD00208B
:1013100084F83C00204600F01FF8022084F83D00CD
:10132000211D206800F074FC012084F8460084F838
:101330003E0084F83F0084F8400084F8410084F8BF
:10134000420084F8430084F8440084F8450084F89F
:101350003D00002010BD000008B5114A0168114889
:10136000914211D1016841F0100101600068002232
:1013700000F01000009001213620FFF795FCBDE839
:1013800008403620FFF782BC074A914207D1016826
:1013900041F020010160006800F02000009008BDCD
:1013A00000100040403802400014004090F83D100A
:1013B000012901D001207047022180F83D10016809
:1013C000CA6842F00102CA6000681149884214D01C
:1013D000B0F1804F11D00F4988420ED00E4988429B
:1013E0000BD00E49884208D00D49884205D00D49DE
:1013F000884202D00C49884204D1816801F007017B
:10140000062903D0016841F0010101600020704706
:10141000000001400004004000080040000C0040B3
:10142000000401400040014000180040704770B5C2
:101430000446006801694FF00005C943890715D4C7
:10144000C168C943890711D4E91E016101202077D1
:10145000206880698007204602D0FFF7E7FF04E09C
:1014600000F098F8204600F096F82577206801698A
:10147000C943490717D4C168C943490713D46FF05A
:1014800004010161022020772068806910F4407F08
:10149000204602D0FFF7CAFF04E000F07BF82046A8
:1014A00000F079F8257720680169C943090716D447
:1014B000C168C943090712D46FF008010161042013
:1014C00020772068C0698007204602D0FFF7AEFF72
:1014D00004E000F05FF8204600F05DF82577206812
:1014E0000169C943C90617D4C168C943C90613D4E1
:1014F0006FF010010161082020772068C06910F4A6
:10150000407F204602D0FFF791FF04E000F042F850
:10151000204600F040F8257720680169C943C907D3
:1015200008D1C168C943C90704D1891E0161204699
:1015300000F032F820680169C943090609D4C1687E
:10154000C943090605D46FF0800101612046FFF709
:101550008BFE20680169C943490609D4C168C943A3
:10156000490605D46FF040010161204600F01CF8E7
:1015700020680169C94389060BD4C168C94389063B
:1015800007D46FF0200101612046BDE87040FFF7ED
:101590006CBE70BD704770470249884201D100F0AF
:1015A000BBBB7047780000207047FEE71C4800B5C1
:1015B000016887B00A6842F400420A6001680A685C
:1015C00022F400420A6000681649884221D1164878
:1015D0000021026842F400120260006800F400106A
:1015E00005904FF4407000901220CDE901010220D7
:1015F00003900420049069460C48FEF767FF0A48F0
:101600002038016841F400110160016821F40011E3
:10161000016007B002485DF804EBFFF751B8000025
:1016200024000020005400404038024000040240E2
:1016300001684A69D24352050FD46FF480624A614F
:10164000002140F8301F202242738173026942F06A
:1016500004020261017301207047002070470000FE
:10166000F8B50446C06A1E460D461746082807D03E
:10167000012805D010F5803F02D0206B122804D13C
:101680002068016841F480710160134600224FF028
:1016900001112046009600F0D5F840B1206800689E
:1016A000C00502D54FF4007020640320F8BD206906
:1016B000B0F5804F0ED00620216800EAD51040F02A
:1016C000F000086133463A460B49204600F0EEF838
:1016D00078B902E005F0FE0000E0E8B22168086198
:1016E000054933463A46891F204600F0DFF80028B6
:1016F000DCD00120F8BD0000080001002DE9F84F02
:101700000446006889460B9D01689846174641F4D7
:10171000806101602068016841F48071016000957A
:101720004FF0011B0022594620460A9B00F08AF820
:101730004FF4007A40B120680068C00501D5C4F8B4
:1017400040A00320BDE8F88F216809F0FE00086181
:101750002B46284920460A9A00F0A8F8F0BB2068DA
:101760004169806900902A4620460A9900F01CF9D8
:1017700040B1206C04283AD12068016841F400711E
:10178000016034E0FEB2B8F1010F09D02168380AD7
:1017900008612A4620460A9900F006F90028E8D197
:1017A000206806612A4620460A9900F0FDF80028C4
:1017B000DFD12068016841F480710160009500224A
:1017C000594620460A9B00F03DF80028B3D1216815
:1017D00009F0FF0040F00100086100E007E02B463F
:1017E000044920460A9A00F061F80028AAD0012096
:1017F000A8E700000200010070B516460D46044639
:101800000DE02046FFF714FF08B1012070BD681CF1
:1018100005D0FEF74FFF801BA84207D835B12068DE
:101820004069C0434007ECD4002070BD002044F85C
:10183000300F20216173A073216941F020012161E3
:101840002073E2E72DE9F0471E4690460D46044618
:10185000C1F30747DDF8209008E0701C06D0FEF7C2
:1018600029FFA0EB0900B0420FD876B12068012F04
:1018700018D0806925EA00000004000C14D0002173
:101880004145EAD00020BDE8F087002044F8300F41
:1018900020216173A073216941F02001216120732F
:1018A0000120F0E74069E5E70121E9E72DE9F0478C
:1018B0009A4691460E46044600254FF02008C1F393
:1018C000074725E020684069C043400514D42068DC
:1018D000016841F40071016021686FF48060486123
:1018E000256384F83D8084F83E50206C40F004006D
:1018F000206484F83C501FE0B9F1FF3F08D0FEF7A8
:10190000D9FEA0EB0A0149450CD8B9F1000F09D066
:101910002068012F13D0806926EA00000004000C23
:101920000BD0CFE744F8305F84F80D80A5732069B1
:1019300040F02000206125730120BDE8F087406958
:10194000EAE72DE9F041002590460E46044620279F
:1019500017E04069C043C0060CD454F8301B6FF048
:101960001000486144F810596777A577206A206213
:10197000257717E0FEF79EFEA0EB0800B04208D8DE
:101980003EB120684169C9434906E2D40020BDE860
:10199000F08144F8305F6773A573206940F0200040
:1019A000206125730120F2E770B516460D46044606
:1019B0000DE02046FFF73CFE08B1012070BD681C19
:1019C00005D0FEF777FE801BA84207D835B1206806
:1019D0004069C0430006ECD4002070BD002044F8EC
:1019E000300F20216173A073216941F02001216132
:1019F0002073E2E770B586B014216846FEF7C9FC93
:101A000023480025016841F080010160016801F070
:101A100080010591016841F004010160016801F055
:101A200004010591016841F001010160016801F0C4
:101A300001010591016841F0020101600068154E45
:101A400000F002000590002220213046FEF72CFE17
:101A5000082000904FF488100224CDE90104694663
:101A60000D48FEF733FD2020009001AA012082E8F6
:101A7000310069463046FEF729FD00220121092088
:101A8000FFF712F90920FFF701F906B070BD000059
:101A90003038024000040240000802400D4810B5F2
:101AA0000B4901600C49416000214FF48042816084
:101AB000C0E9031241618161C1610162FEF700FE6C
:101AC000002803D0BDE81040FEF7CCBC10BD0000DC
:101AD0000054004024000020801A06001CB5002499
:101AE0000F4800940D490194016040F2E731C0E9CC
:101AF000011442F210718461C160FFF7FFFB08B16D
:101B0000FEF7B0FC0094694605480194FFF7AEFB70
:101B1000002801D0FEF7A6FC1CBD0000001000400C
:101B2000780000200B4810B509490160632141602D
:101B3000002142F21072C0E902128161FFF7DEFB60
:101B4000002803D0BDE81040FEF78CBC10BD00009B
:101B500000140040C0000020FEE7FEE77047704719
:101B6000FFF73AB830B593B034216846FEF711FC60
:101B700014210DA8FEF70DFC1C480025016841F05A
:101B800080510160006800F0805012901848016890
:101B900041F4404101600068022400F4404012908A
:101BA00001200090000401908001CDE9064008204A
:101BB0000890C820CDE909040B9468460C94FFF7FF
:101BC0007FF908B172B6FEE70DA90F2081E8310058
:101BD0004FF48050CDE9100503210DA8FFF796F8CA
:101BE000002801D072B6FEE713B030BD4038024085
:101BF000007000400248016841F4700101607047C4
:101C000088ED00E00148FFF712BC000078000020DA
:101C1000F0B50268254C264D264E274F274B4FF036
:101C2000804CA04209D0604507D0A84205D0B04200
:101C300003D0B84201D0984204D122F0700E4A6815
:101C400042EA0E02A0421BD0604519D0A84217D02C
:101C5000B04215D0B84213D0984211D0184DA842C6
:101C60000ED0184DA8420BD0174DA84208D0174DE2
:101C7000A84205D0164DA84202D0164DA84203D165
:101C800022F44075CA682A434D6922F080022A4333
:101C900002608A68C2620A688262A04201D09842E9
:101CA00001D10969016301214161F0BD00000140DA
:101CB0000004004000080040000C00400004014007
:101CC000004001400044014000480140001800402D
:101CD000001C004000200040FEE70907090E002814
:101CE00004DB00F1E02080F80014704700F00F00E2
:101CF00000F1E02080F8141D704738B5012200245F
:101D00006B4611468C2000F03BF89DF80000092836
:101D100000D10124204638BD7CB514260024254678
:101D20000A20FEF7A1FB6B46012210218C2000F057
:101D300027F89DF80000C0071AD08EB16B46062226
:101D400011218C2000F01CF8BDF8000060F30F0496
:101D5000BDF8020060F31F44BDF8040060F30F05F6
:101D60000648211449428481C181694201827CBDB7
:101D7000761E16F0FF06D3D1F2E700001000002017
:101D80002DE9F0410F4604461E46154630217F20BE
:101D900000F0F6F82146032000F0F2F8394604205E
:101DA00000F0EEF845F08001052000F0E9F8002190
:101DB0007F2000F0E5F8032000F0C4F840F0200494
:101DC0002146032000F0DCF80120FEF74DFB24F053
:101DD0002001032000F0D4F8002407E004F13B00C8
:101DE000C0B200F0AFF83055641CE4B2AC42F5D399
:101DF00030217F2000F0C4F8052000F0A3F8014650
:101E0000052000F0BDF8BDE8F04100217F2000F082
:101E1000B7B8000070B52E2000F094F860F3070604
:101E20002D2000F08FF860F30F26302000F08AF8A4
:101E3000344660F307042F2000F084F860F30F2489
:101E4000322000F07FF8254660F30705312000F0CE
:101E500079F860F30F250248C6800481458170BD82
:101E60001000002070B5342000F06CF860F3070615
:101E7000332000F067F860F30F26362000F062F898
:101E8000344660F30704352000F05CF860F30F245B
:101E9000382000F057F8254660F30705372000F09A
:101EA00051F860F30F25024806804480858070BD9C
:101EB0001000002070B50D460446164630217F20E4
:101EC00000F05EF82146072000F05AF82946082065
:101ED00000F056F831460A2000F052F8812109201E
:101EE00000F04EF800217F2000F04AF8032000F0B7
:101EF00029F840F020042146032000F041F8012099
:101F0000FEF7B2FA24F02001032000F039F8302166
:101F10007F2000F035F8052000F014F80146052078
:101F200000F02EF8BDE8704000217F2000F028B8B6
:101F300010B50024204600F005F8EA2800D101245D
:101F4000204610BD1FB50D49044609688869800701
:101F500002D40868C00701D1FFF728FB01214FF424
:101F60007A7203A88DE807000B462246D021034869
:101F7000FEF700FD9DF80C0004B010BD2400002009
:101F80001CB58DF804000A488DF8051000688169B9
:101F9000890702D40068C00701D1FFF707FB64205E
:101FA0000090022301AAD0210148FEF74DFC1CBD80
:101FB0002400002010B5FFF7BBFF0028FDD0002152
:101FC0007F20FFF7DDFF80210620FFF7D9FF0A20E1
:101FD000FEF74AFA01210620FFF7D2FF0A20FEF79A
:101FE00043FA01210F20FFF7CBFF0A20FEF73CFA4E
:101FF00001211120FFF7C4FF20217F20FFF7C0FF40
:1020000007210020FFF7BCFF35210120FFF7B8FFB3
:1020100007211120FFF7B4FF31211320FFF7B0FF94
:1020200000217F20FFF7ACFFFFF767FE0028FDD0FF
:1020300002223121BDE810400C20FFF73BBF000019
:10204000FEF7D2FDFFF78EFDFFF7D4FCFFF726FD6C
:10205000FFF744FDFFF766FDFFF7ACFF0148FFF710
:10206000A5F9FEE7780000204FF04070E1EE100A7D
:102070007047000000000000000001020304060792
:10208000080900000000010203040000AC20000861
:10209000000000201000000000020008BC20000822
:1020A00010000020580700001C0200080024F40063
:0C20B00001000000100000000000000013
:04000005080001C529
:00000001FF
