:020000040002F8
:1060000030560020DD630200E5630200E763020012
:10601000E9630200EB630200ED6302000000000090
:10602000000000000000000000000000EF6302001C
:10603000F163020000000000F3630200F563020058
:1060400051660200F76302006D690200F763020007
:10605000F7630200F763020095650200F763020030
:10606000F7630200F7630200F7630200F7630200C0
:10607000F7630200F7630200F7630200F7630200B0
:10608000F7630200A5660200F7630200F7630200EF
:10609000F7630200F7630200BD660200F7630200C7
:1060A000F7630200F7630200F7630200F763020080
:1060B000F7630200F7630200000000000000000028
:1060C000F7630200F7630200F7630200F763020060
:1060D000F7630200F7630200F763020000000000AC
:1060E00000000000000000000000000000000000B0
:1060F00000000000000000000000000000000000A0
:10610000000000000000000000000000000000008F
:10611000000000000000000000000000000000007F
:10612000000000000000000000000000000000006F
:10613000000000000000000000000000000000005F
:10614000000000000000000000000000000000004F
:10615000000000000000000000000000000000003F
:10616000000000000000000000000000000000002F
:10617000000000000000000000000000000000001F
:10618000000000000000000000000000000000000F
:1061900000000000000000000000000000000000FF
:1061A00000000000000000000000000000000000EF
:1061B00000000000000000000000000000000000DF
:1061C00000000000000000000000000000000000CF
:1061D00000000000000000000000000000000000BF
:1061E00000000000000000000000000000000000AF
:1061F000000000000000000000000000000000009F
:10620000DFF80CD000F088F900480047EDBB020031
:106210003056002000B583B002900091019244F204
:10622000010071466A4600F07FFE03B000BD000029
:1062300030B450E8012F93B2C48923448489A34227
:1062400028BF1B1B0489A34202BFBFF32F8F00206E
:1062500007E0C3EA020340E80134002CE9D14FF023
:1062600001000A6030BC704750E8012FC2EA0242C8
:1062700040E801210029F7D1704730B450E8022FDF
:106280001FFAA2F3C488A34202BFBFF32F8F0020DE
:106290000DE0C48923448489A34228BF1B1BC2EAA2
:1062A000034340E80234002CE8D14FF001000A60BB
:1062B00030BC704750E8022FC2EA224240E8022177
:1062C0000029F7D17047034653E8022FD988B2EB73
:1062D000324F4FF0000017BF92B241EA014142EA4B
:1062E000014104E05A68B2EB324F08BF012043E895
:1062F0000212002AE8D1704730B4044654E8000F77
:106300000D4644E80053002BF8D1156030BC7047AF
:1063100030B4044654E8000F40EA010544E8005355
:10632000002BF7D1156030BC704730B4044654E8F8
:10633000000F00EA010544E80053002BF7D1156077
:1063400030BC704730B4044654E8000F80EA0105C1
:1063500044E80053002BF7D1156030BC704730B4CF
:10636000044654E8000F00EB010544E80053002BFD
:10637000F7D1156030BC704730B4044654E8000FC4
:10638000A0EB010544E80053002BF7D1156030BCA9
:10639000704770B404464FF0000054E8006F0D6879
:1063A000AE4207BF44E80023012044E800630E60CA
:1063B000002B1CBF0020F0E770BC704730B40446CF
:1063C00054E8000F88422CBF451A054644E80053A4
:1063D000002BF5D1156030BC70470000064880479F
:1063E00006480047FEE7FEE7FEE7FEE7FEE7FEE7BA
:1063F000FEE7FEE7FEE7FEE7D56602000162020067
:106400002DE9F05F0546002092469B4688460646E9
:10641000814640241BE0284641464746224600F07C
:106420006BF853465A46C01A914110D3114618468C
:10643000224600F016F82D1A67EB01084F46224657
:106440000120002100F00DF817EB00094E41201E3D
:10645000A4F10104DFDC484631462A464346BDE844
:10646000F09F202A04DB203A00FA02F10020704756
:106470009140C2F1200320FA03F319439040704782
:1064800000487047A04D030040EA01039B0703D07A
:1064900009E008C9121F08C0042AFAD203E011F863
:1064A000013B00F8013B521EF9D27047D2B201E025
:1064B00000F8012B491EFBD270470022F6E710B509
:1064C00013460A4604461946FFF7F0FF204610BD62
:1064D000421C10F8011B0029FBD1801A704730B50F
:1064E00004460020034600E05B1C934203D2E05CBC
:1064F000CD5C401BF8D030BD202A04DB203A21FAC5
:1065000002F00021704721FA02F3D040C2F12002CC
:106510009140084319467047064C074D06E0E06875
:1065200040F0010394E8070098471034AC42F6D3DA
:10653000FFF76AFE7C6703009C67030070B58C1848
:1065400010F8015B15F0070301D110F8013B2A1187
:1065500006D110F8012B03E010F8016B01F8016B74
:106560005B1EF9D12B0705D40023521E0DD401F870
:10657000013BFAE710F8013BCB1A921C03E013F839
:10658000015B01F8015B521EF9D5A142D8D300206E
:1065900070BD00002DE9F84F0026002000904FF458
:1065A00080770125002410E0384606F0F3FE40B164
:1065B00000BF25480068284018B1384606F0DCFEC8
:1065C0002E436D00381D87B2641C082CECD34FF4A9
:1065D000BE7006F0DFFE50B14FF4BE7006F0CCFE88
:1065E00046F000466A460121002006F055FEF0B252
:1065F00010B3012500241DE005EA0600C0B100BF6C
:10660000124850F82400C0F30420814600BF0F4810
:1066100050F82400C0F301408246204602F02CFBD3
:106620008046B8F1000F02D051464846C04700BF2F
:106630006D00641C082CDFD306F0004010B16846E2
:106640000BF07AF8BDE8F88F046300401065004055
:1066500010B54FF4807006F004F980B14FF48070EB
:1066600006F008F9012006F00FF90D48407930B91D
:1066700001200B49487108460168002088474FF403
:10668000827006F0EEF850B14FF4827006F0F2F826
:10669000022006F0F9F8024801680120884710BD81
:1066A000A423002010B5034A1068034A11688847E4
:1066B00010BD0000F8230020F423002010B507F0DF
:1066C0000BFE10BD01480249086070470090D003DE
:1066D000BC24002010B505F08BFC28B1924800883E
:1066E000C0F304209149086005F0DAFC10B190482D
:1066F0009049486705F010FD30B18B48E0380068DC
:10670000C0F342308C49086005F032FD28B18B4857
:10671000006820F080708949086005F047FD48B1A5
:106720000020874908604FF08041C1F8100182497C
:10673000091F086005F066FD18B103207E49643129
:10674000086005F07DFD68B105207E4908600120E4
:106750007C497831086000207A49083108603F2080
:10676000091F086005F08AFD002855D06E48E0300A
:106770000068754908606C48E4300068091D0860CD
:106780006948E8300068091D08606748EC30006817
:10679000091D08606448F0300068091D08606248FF
:1067A000F4300068091D08605F48F83000686649E9
:1067B000203108605C48FC300068091D08606348AF
:1067C0000068091D08606148001D0068091D086017
:1067D0005E4808300068091D08605C480C3000689D
:1067E000091D086059481030006857494031086059
:1067F000564814300068091D086054481830006875
:10680000091D086051481C300068091D08604F4888
:1068100020300068091D086005F0BEFB30B1424819
:10682000CC38006800F04F004949086005F00CFCC6
:1068300040B14848006800F0010018B16FF0010055
:106840004449086005F04AFC28B14348006840F418
:1068500080604149086039487438006840F470002D
:1068600036497439086000BF00BF00BFBFF34F8FC7
:1068700000BF00BF00BF00BF00BF00BFBFF36F8FEE
:1068800000BF00BF00BF3548006800F0004028B9D5
:106890003248001D006800F00040E8B30120304994
:1068A000086000BF2F4800680028FBD015202B4946
:1068B000086000BF2B4800680028FBD0152127483E
:1068C000001D016000BF274800680028FBD00020A1
:1068D0002349086000BF234800680028FBD000BFA0
:1068E00000BF00BF00BF00BFBFF34F8F00BF00BF9E
:1068F00000BF1248F038006800F4E0601A4908430D
:10690000001D0E49F039086000BF00BF00BFBFF393
:106910004F8F00BF00BF00E003E000BF00BF00BF1B
:10692000FDE7FFF7CFFE10BD240300104035014006
:106930000DF0ADBA00C007403C050040FCED00E0A2
:106940000C0100401056004020C5004024040010F7
:10695000E40E0040000400403C170040001200100C
:1069600004E5014000E401400000FA0510B50249C9
:106970000868804710BD0000AC23002002E008C872
:10698000121F08C1002AFAD170477047002001E0A9
:1069900001C1121F002AFBD17047000001462029C7
:1069A00008DA012088400A4A104008B101207047E7
:1069B0000020FCE7402909DAA1F12000012202FAB7
:1069C00000F008B10120F2E70020F0E70120EEE737
:1069D000FC06FFBD00BFEFF31081084672B670479A
:1069E000F8B505460E46D6B96946284609F0D0FEE8
:1069F000044643F202018C420AD000BF274637B159
:106A000000BF3B4AB1213846FFF704FC00BF00BF7E
:106A10009DF80000C0F3400000B1F8BD00BF0021A8
:106A2000284609F0C7FE0446002C5ED0112C5CD02D
:106A30000D2C21D12F49304A891AC908022242EA75
:106A400001402A462D4906F055FF1321284676DFDE
:106A50000446002C49D0204607F04EFD0746254944
:106A6000254A891AC908022242EA01402B463A46C1
:106A700023A106F04BFF38E00B2C0BD11D491E4A19
:106A8000891AC908022242EA01402A462A4906F028
:106A900031FF2AE043F2020084420BD11549164A25
:106AA000891AC908022242EA01402A46234906F00F
:106AB00021FF1AE0204607F01FFD07460D490E4A48
:106AC000891AC908012242EA01402B463A461CA114
:106AD00006F01CFF00BF274637B100BF044AE02183
:106AE0003846FFF797FB00BF00BF00BF95E70000E7
:106AF00094590300E4670300AC6703004C5503009E
:106B000073645F626C655F6761705F646973636F14
:106B10006E6E65637428292072657475726E656483
:106B2000202573206F6E20636F6E6E5F68616E64E8
:106B30006C652025642E00000C560300C055030030
:106B4000417373657274696E672E20706D5F636F39
:106B50006E6E5F7365637572652829207265747542
:106B6000726E6564202573206F6E20636F6E6E5F9A
:106B700068616E646C652025642E000070B5054662
:106B80000C4605B10CB9002070BD2878400821786A
:106B9000B0EB510F01D00020F6E70622611C681C03
:106BA000FFF79DFC08B90120EEE70020ECE7014665
:106BB00001F0030008B9012070470020FCE70246FD
:106BC00050680068401E084008B901207047002046
:106BD000FCE70246002104E0505C08B10120704748
:106BE000491C0629F8D30020F9E710B50346D868F8
:106BF000884206D88818401E1C69A04201D801208E
:106C000010BD0020FCE7000010B504466CB1084838
:106C1000C068A04209D806480069A04205D32046B2
:106C200004F02BFD08B1012010BD0020FCE700009E
:106C3000C024002070B504460D4604F22740FFF73B
:106C4000C8FF0646012D06D0022D0DD0032D11D010
:106C5000042D19D113E0A07928B194F8240010B9BB
:106C60000EB1012070BD00BFE07910B10EB102205D
:106C7000F8E700BF207A08B10320F3E700BF607A8D
:106C800008B10420EEE700BF0020EBE70146481CF6
:106C9000052290FBF2F302FB1300C0B270470146DD
:106CA00091F82420012A01D1EE2000E01F20704736
:106CB00010B501220221002001F03CFC044600BF77
:106CC0001CB1072C01D0204610BD00BF07220221B5
:106CD000012001F02FFC044600BF1CB1072C01D09D
:106CE0002046F1E700BF0A220021084601F022FCFD
:106CF000044600BF1CB1072C01D02046E4E700BFCA
:106D00000020E1E730B5ABB0AC216846FFF7D5FB1A
:106D100002208DF8000001208DF8020006208DF879
:106D200003000120ADF810001149059101218DF8F3
:106D30007C104FF49671229144F2506123910D48DA
:106D4000299069460C4800F072FD044600BF2546B4
:106D50003DB100BF09A240F272212846FFF75AFA5E
:106D600000BF00BF0121044800F05EFD2BB030BD24
:106D700052220020F5ED0200F42400202E2E5C2E7D
:106D80002E5C2E2E5C6D61696E2E630070B504461C
:106D9000012C02D102F06AFA11E00321084800F048
:106DA0000DFE054600BF2E463EB100BF05A240F2D3
:106DB000BA213046FFF72EFA00BF00BF00BF70BDFA
:106DC000F42400202E2E5C2E2E5C2E2E5C6D61692C
:106DD0006E2E630070B58CB004460D46164600203A
:106DE00005E0C0F10F01615C0DF80010401C102897
:106DF000F7D30D2104A8FFF760FB002005E02A5C13
:106E0000C0F10F0304A9CA54401C0328F7D36846F5
:106E100046DF002005E0C0F10F0208A9895C31546B
:106E2000401C0328F7D30CB070BD10B504460220F7
:106E300001F01AFA10BD000010B5044602480178AE
:106E4000204600F041FF10BD7C23002010B5002437
:106E500007E00749096811F83400012107F01CFC1C
:106E6000641C044800788442F3D3002010BD000065
:106E7000B8230020BC2300202DE9F84306460D4628
:106E800017460A2F02D20720BDE8F88307F048FD15
:106E900038B907F0DBFC044600BF204600B1F3E739
:106EA00000BF184806601848057018480760184861
:106EB0000021016041608160C160164A116051602B
:106EC00015E006EBC50814480068009098F8020029
:106ED0008DF8010098F80000104A694607F032FC6E
:106EE000044600BF204600B1CEE700BF00BF281E09
:106EF000A5F10101CDB2E4D1094A0021094800F011
:106F000043F9C1E7B8230020BC230020C0230020A0
:106F1000282E0020C8230020084A030049AA0200A6
:106F200021930200044A03002DE9FE4307460E4662
:106F3000144672B600BF06F0DDFD00BF00BF06F0CC
:106F400041FB0028FBD100BF00BF012F0CD06FF424
:106F50008050384498B1B0F5405F2CD06FF4405168
:106F60000844002847D115E03149324A891AC90836
:106F7000012242EA014030A106F0B2FC47E02C4970
:106F80002C4A891AC908012242EA014032A106F0BE
:106F9000A7FC3CE025462649DFF898C0A1EB0C0190
:106FA000C9084FF0010C4CEA014034A1D5E9003288
:106FB00006F0ACFC2BE02546A86807F09DFA804659
:106FC000D5E900108DE8430019491A4BC91AC908C0
:106FD000012343EA014043462FA1AA6806F0D0FCF2
:106FE0001349144A891AC908012242EA014034A10E
:106FF00006F076FC0BE00E490E4A891AC9080122F8
:1070000042EA0140324633A106F074FC00BF00BFE3
:1070100000BF3648006800F0010000B100BE00BFAC
:1070200022463146384600F063F8BDE8FE83000092
:1070300054680300AC670300534F46544445564917
:1070400043453A20415353455254494F4E204641FF
:10705000494C454400000000534F465444455649AE
:1070600043453A20494E56414C4944204D454D4FE9
:107070005259204143434553530000004153534567
:107080005254494F4E204641494C4544206174209A
:1070900025733A25750000004552524F5220257540
:1070A000205B25735D2061742025733A25750D0AD8
:1070B00050432061743A2030782530387800000041
:1070C000456E64206F66206572726F722072657003
:1070D0006F727400554E4B4E4F574E204641554CE3
:1070E000542061742030782530385800F0ED00E0ED
:1070F00018B5012300939DF800301E4B18605960AD
:107100009A606FF48043034463B1012B19D1194B8A
:10711000DA60DB681B68174CA3612346DB685B6899
:10712000E3610EE0134B1A611B699B68114C6361AC
:1071300023461B691B68A36123461B695B68E361E7
:1071400000BF00BF0B4B1B680A4B5B68094B9B6879
:10715000084BDB68074B1B69064B5B69054B9B695A
:10716000044BDB6972B600BF9DF80030002BFBD1E9
:1071700062B618BD382E002010B5024802F064F93E
:1071800010BD0000D023002010B503460C460AB9FC
:10719000072010BD19684A61012C01D1012000E0CF
:1071A000002008610020F4E738B51348006800901B
:1071B0000823582211491248006805F096F8044641
:1071C0000CB1204638BD0F4A69460F4802F042F91B
:1071D00004460CB12046F5E701210B4802F0E0F926
:1071E00001230A4A1946084802F000F9012008491B
:1071F00008702046E6E700001C4A0300582E0020D5
:107200000C4A030017210300D0230020FFFF7F005A
:10721000DC2300202DE9F04106460D461746344692
:10722000207F10B10020BDE8F081A76103F0EEFBE4
:10723000401941F10001C4E90201206900B1256152
:10724000214600200CF04CFBEDE770B504462546C6
:1072500000202877294601200CF042FB70BD10B5B4
:10726000044620460BF0E2F810BD000070B504465D
:1072700025460E488068B0B1ADB9FFF7ABFB0646B6
:107280000A4800680A490860084840684FF0E02151
:10729000C1F804010020054988601EB900BF62B62C
:1072A00000BF00BF00BF00BF70BD0000C02E0020A7
:1072B00000E100E0F8B505460C4617462088001DA1
:1072C000B84201D90C20F8BD684679DF064600BFF8
:1072D000304600B1F7E700BF0320218868542088BA
:1072E000401C20801920218868542088401C208060
:1072F00020884119BDF800000CF05EFD218808448B
:1073000020800020DFE7704770B505460C462068F6
:10731000401C28B1206805F0F6FF206805F08AFFC0
:107320006068401C18B10021606805F069FF28689A
:10733000A169C0F8241500BF617D227D286841EA5B
:107340000203C0F86C3500BFD4E90012286807F0CA
:107350000CF9207D012814D1A068401C18B100212F
:10736000A06805F04DFFE068401C28B1E06805F01A
:10737000CAFFE06805F05EFFD4E90221286807F043
:10738000DDF870BD70B505460C462068401C28B17C
:10739000206805F0C3FF206805F058FF6068401CB6
:1073A00018B10021606805F038FF2868A169C0F8AD
:1073B000241500BF617D227D286841EA0203C0F8E0
:1073C0006C3500BFD4E90012286807F006F9207D6B
:1073D000012814D1A068401C18B10021A06805F054
:1073E0001CFFE068401C28B1E06805F097FFE068EA
:1073F00005F02CFFD4E90221286807F0CFF870BD12
:1074000070B504460D46204604F06EFA70BD10B506
:107410000446637903F003022179208804F01CFA02
:1074200010BD10B50446207918B9204600F008F8C0
:1074300003E02046FFF7EBFF00BF00BF10BD0000D8
:107440002DE9FE4307463E884FF0000800225948C8
:107450000178304600F04EFC7879C0F3800028B9FE
:107460000021384608F03AFBBDE8FE8306F580713E
:1074700088B201AB0122072108F050FC0546C5B1D6
:10748000284607F039F881464B494C4A891AC90801
:10749000012242EA014033464A46494906F036FA9B
:1074A000294630460BF0E6FA0021384608F016FB74
:1074B000DAE7304603F0DAFD04464FF6FF718C42FE
:1074C0001BD1029803F022FD04464FF6FF70844260
:1074D00013D02146304603F0A7FD3046FFF7ACFC41
:1074E00058B930460BF05AFA3046FFF7A5FC20B9E0
:1074F0000021384608F0F2FAB6E74FF6FF708442F2
:107500001FD108F021FE04464FF6FF70844212D1CD
:1075100029492A4A891AC908012242EA014029A1B7
:1075200006F0DEF9042130460BF0A4FA00213846BB
:1075300008F0D4FA98E72146304603F075FD4FF085
:10754000010806F5807188B22246072108F06EFC1A
:10755000054625B90121384608F0C0FA28E0862DF5
:1075600007D130460BF04CFA0121384608F0B6FA44
:107570001EE0284606F0C0FF81460F490F4A891ACF
:10758000C908012242EA014033464A461A4900949A
:1075900006F0CCF9294630460BF06CFA002138464B
:1075A00008F09CFAB8F1000F02D0204603F046FD27
:1075B00000BF59E779230020EC670300AC670300A4
:1075C000545C0300436F756C64206E6F7420616CB3
:1075D0006C6F63617465206E657720706565725F9E
:1075E000696420666F7220696E636F6D696E6720D3
:1075F000626F6E642E000000705D0300002114E0D5
:107600000C48D0F81024012308E000BFD0680079AE
:10761000884201D1002303E0D0680268002AF4D137
:1076200000BF0BB108467047491C0A29E8DB4FF040
:10763000FF30F8E7103200202DE9FC41054688466E
:107640001646002437880020308095F82D0058B168
:107650003A463146404600F071FB044600BF2046E2
:1076600008B1BDE8FC8100BFA87850B13A46314668
:107670004046FFF71FFE044600BF204600B1F0E77A
:1076800000BFE87860B1E97848B23B4632464146EF
:1076900002F0DCFC044600BF204600B1E1E700BF79
:1076A000686868B1696891F900003B463246414616
:1076B0000CF0ADF9044600BF204600B1D1E700BF91
:1076C000288900280EDD43460622022105F1080024
:1076D000CDE900670CF077FC044600BF204600B1FE
:1076E000BFE700BF288A00280EDD4346072203219A
:1076F00005F11000CDE900670CF065FC044600BF01
:10770000204600B1ADE700BF288B00280EDD4346C0
:107710001522142105F11800CDE900670CF053FC87
:10772000044600BF204600B19BE700BF286A58B15D
:107730003B4632464146286A01F0B0FB044600BF92
:10774000204600B18DE700BF686A58B13B4632461B
:107750004146686A04F088FA044600BF204600B13A
:107760007FE700BF95F82C0000280BDD3B46324632
:10777000414628460BF034FB044600BF204600B1CA
:107780006FE700BF287858B13B463246414628464D
:1077900004F059FB044600BF204600B161E700BF7A
:1077A00020465EE7F8B504460E46154600200090D8
:1077B0002B466A463146204600F008F807460FB9C6
:1077C0000020F8BDBDF800002044FAE7F0B50446FB
:1077D0000D461E4604B10AB90020F0BD002103E0A9
:1077E000605C401C084481B2481CA84206DA10883C
:1077F0008842F5DC481C205CB042F1D1A94201DB93
:107800000020EAE7881C87B2605C10B1605C401E13
:1078100000E0002083B213B1F818A84201DD002077
:10782000DBE717801846D8E780F83010704770B54E
:1078300004460D4605B10CB90E2070BD05F1780067
:1078400001F0CDFA08B90720F7E70020A0702C223C
:1078500005F17801201DFEF717FE002084F83000A6
:10786000D5F8A4006063D5F8A800A0634FF6FF70B8
:10787000A4F8240404F58260C4F82004002140F236
:107880002C40C4F82614A4F82A140155207810B905
:10789000FF2084F8540004F15500C4F81004204679
:1078A000FFF7FDF940F21441085304F2144204F1C9
:1078B00055012846FFF7C0FE064600BF304600B11E
:1078C000BBE700BF04F231204FF48361085120462A
:1078D000FFF7E5F9A4F81C044FF48360015904F2A2
:1078E0001C4205F13C00FFF7A7FE064600BF3046EC
:1078F00000B1A2E700BF012151200155208B81B2C8
:1079000048200153012084F83C00002121645020CC
:1079100001556169616404F13C02002104F15400E5
:1079200072DF064600BF304600B186E700BF012087
:107930002070304681E770B504460D462E462088FB
:10794000102804D0112807D026280FD109E021469D
:10795000304607F015FB0AE02146304607F0BDFC33
:1079600005E02146304607F07EFE00E000BF00BF84
:1079700070BD70B5044694F8540074DF012084F89B
:107980002E04002084F830040021502001550621E7
:10799000204602F076FB054600BF284600B170BDC8
:1079A00000BFA178204600F009F8054625B1A06B7C
:1079B00010B12846A16B88470020F0E770B5044657
:1079C0000E46207808B9082070BDA670002140F24C
:1079D0002C40C4F82614A4F82A140155A07910B13B
:1079E000A078012809D0E07910B1A078012804D04E
:1079F000E07970B1A07802280BD1606B30B1012022
:107A000084F82D040820616B884702E0002084F888
:107A10002D0431462046FFF70DF9A070606BA0B130
:107A2000A078032802D0A07804280ED1607960B134
:107A300094F82E0448B9002084F83004012084F81A
:107A40002F040720616B884702E0002084F82F0490
:107A5000182104F13C00FEF730FD012084F83C00C1
:107A600004F12C0008F05AFD20B194F82C1051209C
:107A7000015502E001215120015594F8240060B124
:107A800004F1280008F04AFD20B194F82810522093
:107A9000015502E0012152200155002150200155DD
:107AA000A078052824D2DFE800F01F030A1118008F
:107AB00004F13C0120460BF01BFA054619E004F1E5
:107AC0003C0120460BF0FCF9054612E004F13C01B4
:107AD00020460BF01FFA05460BE004F13C0120465E
:107AE0000BF046FA054604E0002084F8310000E07F
:107AF00000BF00BFA07898B104F13C0204F154002B
:107B0000D4F8201472DF05460DB128465CE794F8DE
:107B1000301094F8540073DF05460DB1284653E742
:107B2000606B18B194F83100616B884700204BE717
:107B30002DE9F041044600BF14B90E20BDE8F081E4
:107B400000BF1C2221461C48FEF79EFC1B481A4918
:107B50000860206860B120687ADF05460DB12846CC
:107B6000ECE7164821680A6802604968416005E050
:107B700012487BDF05460DB12846DFE7002617E0F7
:107B800006EB86000E4901EB800700BF4FF6FF7041
:107B9000388000BF0B4800EB461078600A4A00218D
:107BA000381DFFF7F1FA05460DB10320C6E7761C34
:107BB000002EE5D00020C1E7CC290020782200204B
:107BC000B829002098290020D53E030010B50446AE
:107BD000204600F0A5F820B12146034804F027FC18
:107BE00010BD0020FCE70000F829002070B5044615
:107BF0000D46164620460CF0B7F908B9002070BDB6
:107C0000034951F824003246294602F0AFFAF6E75C
:107C1000042A002010B50446204600F081F820B167
:107C20002146034804F003FC10BD0020FCE70000DF
:107C3000002A002010B50446204600F071F820B15B
:107C40002146034804F0F3FB10BD0020FCE70000D0
:107C5000FC29002070B504460025204600F060F89D
:107C600050B12146054804F0E2FB06460EB1022061
:107C700000E00120054600BF284670BDF429002021
:107C800070B504460025204600F04AF850B1214660
:107C9000054804F0CCFB06460EB1022000E00120AE
:107CA000054600BF284670BDF029002010B51821F8
:107CB000044804F08CFB0446182C00D110BDE0B23F
:107CC000FCE70000E829002070B505460C46204678
:107CD0000CF04AF950B1284600F022F830B10449BE
:107CE00001EB8400294604F0A2FB70BD0020FCE7F4
:107CF000042A002070B505460C46164620460CF0B6
:107D000033F950B1284600F00BF830B1034901EBCC
:107D100084003246294602F08AF970BD042A002008
:107D200010B50446142C01DB002010BD214602488A
:107D300004F07DFBF9E70000EC2900202DE9FC416F
:107D400005460C46174620880930B84202D90C2057
:107D5000BDE8FC8168466DDF064600BF304600B1D5
:107D6000F6E700BF0820218868542088401C208046
:107D70001B20218868542088401C208020882844AB
:107D8000DDF801100160BDF8051081802088801D9C
:107D900020809DF80000400818B900202188685410
:107DA00002E00120218868542088401C20800020A7
:107DB000CEE70000F8B505460F46002428882128A4
:107DC00045D004DC102812D0112878D104E03B28DB
:107DD0005AD05628F9D173E04849494A891AC90846
:107DE000032242EA014047A105F07AFD84E04349BD
:107DF000434A891AC908032242EA014045A105F015
:107E00006FFD072000F0C4FB044600BF26463EB1CC
:107E100000BF43A24FF4E1713046FEF7FBF900BF0B
:107E200000BFA8884249088008460188414804F0FC
:107E3000B1FC044600BF26463EB100BF38A240F266
:107E4000C5113046FEF7E6F900BF00BF54E02B49EC
:107E50002B4A891AC908042242EA014036A105F0DA
:107E60003FFD00200090A88869468FDF044600BFD0
:107E700026463EB100BF2AA240F2D1113046FEF79D
:107E8000C9F900BF00BF37E01C491D4A891AC9085B
:107E9000042242EA01402DA105F022FDA888132109
:107EA00076DF044600BF26463EB100BF1CA240F26A
:107EB000D9113046FEF7AEF900BF00BF1CE01AE052
:107EC0000E490F4A891AC908042242EA014025A135
:107ED00005F006FDA888132176DF044600BF26467C
:107EE0003EB100BF0EA240F2E1113046FEF792F91A
:107EF00000BF00BF00E000BF00BFF8BD5468030032
:107F0000AC670300446973636F6E6E656374656488
:107F10002E000000436F6E6E65637465642E000072
:107F20002E2E5C2E2E5C2E2E5C6D61696E2E6300F3
:107F300050220020E82400205048592075706461C8
:107F4000746520726571756573742E0047415454D1
:107F500020436C69656E742054696D656F75742E6D
:107F6000000000004741545420536572766572202A
:107F700054696D656F75742E0000000070B505467C
:107F80000E462888102802D011282CD115E0174859
:107F9000006860B901F082F8044600BF34B11448AB
:107FA000006818B1204612490968884700BF0F4889
:107FB0000068401C0D49086016E00C480068401E2F
:107FC0000A4908600846006860B9FEF771FE044679
:107FD00000BF34B10648006818B12046044909685A
:107FE000884700BF00E000BF00BF70BD74220020C2
:107FF0007022002070B504460D462088102806D057
:10800000112808D012280ED0502810D107E02046A1
:1080100006F07EFF0CE0204607F046F908E0204617
:1080200007F052FB04E0204606F05AFF00E000BFD4
:1080300000BF70BD2DE9F04104460F46A688208898
:10804000102806D0112819D019283FD01A284AD153
:1080500018E009F0BBFF304609F02CFE30B900BF34
:1080600022A2F0210420FEF7D5F806E0E07B0228EA
:1080700003D131462C4804F0E9F934E0304609F0E8
:10808000C9FF30E0207A0509042D01DB012000E062
:1080900000200246314624480C3001F0C8FF032D71
:1080A00001DB012000E00020024631461E48083076
:1080B00001F0BDFF022D01DB012000E0002002469F
:1080C00031461948001D01F0B2FF0CE0207A48B992
:1080D000607AC0F3C0052A46314613480C3001F0DF
:1080E000A6FF00BF00BF00BFBDE8F0812E2E5C2EB2
:1080F0002E5C2E2E5C2E2E5C2E2E5C2E2E5C636F44
:108100006D706F6E656E74735C626C655C636F6DD1
:108110006D6F6E5C626C655F636F6E6E5F737461D2
:1081200074652E6300000000F429002070B5044639
:108130000D4600BF0748007800B970BD00BF20465B
:1081400002F04EFE20460AF079FF204602F03EFA89
:1081500000BFF2E7B422002070B5044620460BF0C1
:1081600025FE054605F0010070BD000038B506F09B
:1081700071F8044600BF25463DB100BF15A24FF47B
:10818000FA712846FEF746F800BF00BF00200090B5
:108190006946012005F07CFE044600BF25463DB13E
:1081A00000BF0CA24FF4FD712846FEF733F800BF64
:1081B00000BF684605F01CFF044600BF25463DB1E0
:1081C00000BF04A24FF4FF712846FEF723F800BF5A
:1081D00000BF38BD2E2E5C2E2E5C2E2E5C6D61698C
:1081E0006E2E630001460148405C704788470300DB
:1081F00010B50146094B585C00BF4FF0A044234620
:1082000000BFD3F81045C44004F001040CB10120B4
:1082100000E00020024682F0010010BD8847030004
:108220007CB500240DE00848055D03260020009081
:108230003346024601460190284604F079FF00BF0C
:10824000641C042CEFD37CBD8847030010B50446A2
:1082500004F0010008B100F04BF804F0020008B18E
:10826000FFF7DEFF10BD000010B502460949885C2B
:1082700000BF4FF0A0442146D1F8043501248440CA
:108280009C43C1F80845012484401C40C1F80C45BA
:1082900000BF10BD8447030010B504460249085DC5
:1082A000012105F046F810BD8447030010B50446CF
:1082B0000249085D002105F03CF810BD8447030029
:1082C00010B50146094B585C00BF4FF0A04423464F
:1082D00000BFD3F80445C44004F001040CB10120F0
:1082E00000E00020024682F0010010BD8447030038
:1082F0007CB500240CE00948055D00200090034691
:10830000012211460190284604F012FF00BF641CB0
:10831000042CF0D300F004F87CBD00008447030077
:1083200010B5002403E02046FFF7B6FF641C042CC0
:10833000F9D310BD10B5002403E02046FFF7B6FFC7
:10834000641C042CF9D310BD02464FF0FF3000210D
:1083500006E0054B5B5C934201D1084602E0491CF4
:108360000429F6D300BF70478847030070B505465F
:108370000C4600260648056014B120460BF002F9B1
:108380000448006810B9FEF793FC0646304670BDFD
:10839000702200207422002010B5002000F022FB83
:1083A000044600BF1CB1062C01D0204610BD00BF02
:1083B000012000F017FB044600BF1CB1062C01D0C1
:1083C0002046F3E700BF0020F0E700002DE9F04170
:1083D00006460F464FF0000800243046FFF7B4FF72
:1083E0000446042C3ED20FB3012F02D0022F38D105
:1083F00030E004EB4400214911F8008004EB440014
:108400000844407850B11E4A4FF480411D4800682E
:10841000FEF700FF05460DB91948067004EB44004D
:10842000164908448078184908551AE0154800682C
:10843000FEF70BFF1448005D04EB44010F4A1144A2
:108440008978884205D104EB44001146084490F82D
:10845000028006E004EB44000849084490F80180DB
:1084600000BF00BFB8F1000F06D00848006818B17F
:108470004046064909688847BDE8F0816829002020
:108480006822002094470300692200206422002013
:1084900010B50446042C03D22046FFF7A9FE10BDF8
:1084A0000020FCE770B50546042D06D0072D18D036
:1084B0000A2D2FD10AF08AFD2DE0132117480088DC
:1084C00076DF0446082C0BD000BF26463EB100BF25
:1084D00013A240F247213046FDF79CFE00BF00BFCB
:1084E00019E00E4800884FF6FF71884211D11048FC
:1084F000FFF73FFA0446082C0BD000BF26463EB1DA
:1085000000BF07A240F251213046FDF783FE00BFB5
:1085100000BF00E000BF00BF70BD0000502200207F
:108520002E2E5C2E2E5C2E2E5C6D61696E2E6300ED
:10853000F424002030B503460020042B23D2012A66
:1085400007D1012903D103F10E04E4B200E00024B5
:10855000224679B1012902D0022911D104E003EBAE
:1085600043040A4D2A550DE003EB4304074D2C4408
:10857000627007E003EB4304044D2C44A27001E059
:10858000072000BF00E0072030BD00006829002060
:1085900070B5044600250548007800F0010018B1C8
:1085A000204600F05BF80546284670BD5C2200209E
:1085B0002DE9F04105460F4600241F4805601F487D
:1085C000076005F0020000B3002606E00122114614
:1085D0003046FFF7AFFF0446761C042E01D2002C74
:1085E000F4D034B940F2333204211548FEF744FC8C
:1085F000044614B9FEF72AFC04462CB9114A00219E
:108600001148FEF7C1FD044600BF05F0010080B12E
:108610000120FFF71BFE2CB90C4A00210C48FEF785
:10862000B3FD04462CB90B4A01210B48FEF7ACFD03
:1086300004462046BDE8F0815C2200206422002030
:10864000984703004D8B0200944703000DB70200CA
:108650008C4703002B6E0200904703002DE9F04782
:10866000044600260025DA48007820B10020D849C9
:10867000087003F037F8182C7ED2DFE804F00C16EF
:10868000174A7EB2F6F4F3F2F1F0EFEEEDECEBEA1E
:10869000E9E8E7E6E5E403F025F8CE480068FEF7F0
:1086A000D4FD0646CC4804708DE100BF0020FFF7E2
:1086B00007FE58B10020FFF7EFFD022C02D14FF466
:1086C000E16001E04FF47A60054609E00020FFF721
:1086D000EDFD022C01D1C82001E04FF4C870054621
:1086E000BD4804704FF40040A5FB00104FF47A73AE
:1086F000CF1840F100015A0000233846FDF780FEF4
:10870000814600224946B3480068FEF783FD0646CD
:1087100059E10020FFF7D4FD58B10020FFF7BCFD60
:10872000032C02D14FF4487001E04FF47A60054603
:1087300009E00020FFF7BAFD032C01D1C82001E0B9
:108740004FF4C8700546A44804704FF40040A5FBE0
:1087500000104FF47A728F1840F10001520000238C
:108760003846FDF74DFE814600224946994800688B
:10877000FEF750FD064626E124E10020FFF7A0FDAC
:1087800058B10020FFF788FD042C02D14FF47A6025
:1087900001E04FF47A6005460AE00020FFF786FD0D
:1087A000042C02D14FF4C87001E04FF4C8700546A4
:1087B000894804704FF40040A5FB00104FF47A7311
:1087C000CF1840F100015A0000233846FDF718FE8B
:1087D0008146002249467F480068FEF71BFD064699
:1087E000F1E00020FFF76CFD50B10020FFF754FDD1
:1087F000052C01D1C82001E04FF47A60054609E05C
:108800000020FFF753FD052C01D1C82001E04FF4F3
:10881000C8700546704804704FF40040A5FB002066
:108820004FF47A73D71840F100015A0000233846FC
:10883000FDF7E6FD81460022494666480068FEF7DE
:10884000E9FC0646BFE0B8E0B6E0AAE0A1E098E0A7
:1088500092E05FE05DE05BE059E057E051E042E02C
:1088600033E024E015E00EE0FFE70020FFF7FCFC1A
:1088700059480470002240F2666156480068FEF7CD
:10888000C9FC06469FE00020FFF710FD5248047027
:1088900099E001204E490870FFF7E6FC002240F203
:1088A00066614C480068FEF7B5FC06468BE0012087
:1088B00047490870FFF7D8FC00224FF400514548A3
:1088C0000068FEF7A7FC06467DE0012040490870DD
:1088D000FFF7CAFC002240F266613E480068FEF7DE
:1088E00099FC06466FE0012039490870FFF7BCFC8F
:1088F00000224FF4005137480068FEF78BFC064613
:1089000061E0FFF717FD344804705CE000BF00BF72
:1089100000BF00BF31480068FEF797FC0646C4F16F
:10892000110515B30EBB012D18D9A8B2C8214843B3
:108930004FF4004180FB01104FF47A728F1840F120
:108940000001520000233846FDF75AFD81460022FF
:10895000494622480068FEF75DFC06460220FFF704
:10896000A5FC01201E49087005E00220FFF794FCD9
:1089700000201B49087026E002F0B4FE164804707F
:1089800021E002F0AFFE0020FFF790FC12480470D7
:1089900019E002F0A7FE0120FFF788FC0E480470E2
:1089A00011E002F09FFE0020FFF780FC0120FFF79E
:1089B0007DFC0948047006E000BFFFF7BBFC0648D9
:1089C000047000E000BF00BF3046BDE8F087000043
:1089D000592200208C4703005822002090470300B2
:1089E0006022002010B50446012120460BF07DFBDB
:1089F00010BD00002DE9FC4704460D461646A71C95
:108A00004FF001080020019001A8FEF728FC304833
:108A1000406828602E4840682D498968411A2D48D1
:108A20000068401CA0EB010915E001212A4803F071
:108A300031FD03F075F882465146274803F02AFDC0
:108A40002348406822498968411A22480068401C2E
:108A5000A0EB010900BF4F45E7D8B8F1000F30D0B7
:108A60000021009176B1009921F00301491C009189
:108A7000009921F00401091D0091009964F3891106
:108A800000910DE0009921F00301891C00910099EB
:108A900021F00401091D0091009964F39F51009198
:108AA0000B4949680B4A12681140094A0C3202EB23
:108AB0008100009901600649496839440C3A5160C7
:108AC00000BF9DF80400FEF7D1FB4046BDE8FC87DF
:108AD00010320020742400202C36002070B504468B
:108AE0000D460A2D03D10D212046FFF7F7FFA1689F
:108AF000481CA06020684554D4E90110884202D384
:108B0000204603F064FF70BD04488068034949684B
:108B1000884201D1012070470020FCE7103200207C
:108B20000246002108E0074B1B6803EBC1000378F5
:108B3000934200D17047491C034800788142F2DB20
:108B40000020F7E7B8230020BC23002010B504461E
:108B500020780221FFF73AFC10BD0000F8B5054669
:108B600015490320FFF724FD044600BF26463EB109
:108B700000BF12A240F282213046FDF74BFB00BF3E
:108B800000BF69460020FFF7F1FB044600BF264600
:108B90003EB100BF09A240F285213046FDF73AFB05
:108BA00000BF00BF9DF80000022801D1012000E0B5
:108BB00000202870F8BD0000A58402002E2E5C2E37
:108BC0002E5C2E2E5C6D61696E2E63007CB50446B2
:108BD000204602F04BFA054600236A46092107F0B9
:108BE000FBF9052805D10122024801782046FFF74C
:108BF00081F87CBD902200207CB504460E46002002
:108C0000019042F6A620ADF8040001208DF8060080
:108C10000748006800906A4601A92046A0DF054683
:108C20002DB90122034801782046FFF763F87CBD87
:108C3000FC4703009122002001468879012809D1D0
:108C40000879012806D1488842F60212904201D1E3
:108C5000012070470020FCE74FF0FF31054A42F841
:108C60002010082804DBFF23A0F1080150325354E0
:108C7000704700005C2D00200146024850F821009A
:108C8000704700005C2D00202DE9F04F03460C4694
:108C90004FF0FF390AB1002000E0082084460AB1F5
:108CA000082000E00C208046614624E0154850F87A
:108CB0002100401CF0B91D460846274616464FFACB
:108CC00080FBDFF840A00AF1300A0AF805B0DFF8AF
:108CD00034A04AF820704EB94FFA85FBA0F1080A7B
:108CE000DFF820E00EF1500E0EF80AB000BF4FFA88
:108CF00081F902E0491C4145D8D300BF4846BDE890
:108D0000F08F00005C2D002001460148405670475E
:108D10008C2D00202DE9F04104460D464FF6FF76DC
:108D2000304684420AD14FF48071284603F04FFB4D
:108D300086B2B6F5807F10D126460EE0FF2C0CDC03
:108D40002146284603F02CFB80F001070FB1204696
:108D500001E04FF6FF70064600BF3046BDE8F081E7
:108D600070B505460DB9094C01E0084C083409E01E
:108D7000204602F08AFC064606B904E028467168DF
:108D8000884700BFF4E700BF70BD0000502D0020F1
:108D900010B504462CB90120064948700020FFF7A1
:108DA000DFFF012C04D1012002498870FFF7D8FFB2
:108DB00010BD0000482D00202DE9F0470246134663
:108DC0008C46D3E90245DCE90267B6EB040877EB91
:108DD000050002D30120BDE8F0870020FBE7014633
:108DE0008878012805D191F82000012801D10020C0
:108DF0007047886A042802D0486A042801D10020FC
:108E0000F6E70120F4E733B58BB00546002000906B
:108E10000C9878B100240BE021460CA803F007FB66
:108E200028B1009A501C009001A820F81240641C40
:108E3000142CF1D32C2269462846FDF725FB0DB0F2
:108E400030BD01460888062808DB0888B0F5486F61
:108E500006DD08884FF6FF72904201D00720704768
:108E60004888062808DB4888B0F5486F06DD488842
:108E70004FF6FF72904201D00720F0E708884FF6C6
:108E8000FF72904208D04888904205D008884A88EE
:108E9000904201DD0720E2E70020E0E72DE9F04104
:108EA00007460D46144698462088801D404502D945
:108EB0000C20BDE8F0813846FFF7C3FF064600BF2F
:108EC000304600B1F5E700BF0520218868542088AE
:108ED000401C20801220218868542088401C20805B
:108EE0002288511938880AF067FF218808442080B9
:108EF0002288511978880AF05FFF21880844208071
:108F00000020D6E710B5044600BF04A240F2571176
:108F10002046FDF77FF900BF10BD00002E2E5C2E0D
:108F20002E5C2E2E5C6D61696E2E630030B587B0AD
:108F30001C216846FDF7C1FA002000904FF4A030D4
:108F400001904FF4F020029003208DF80C000020D7
:108F5000ADF80E008DF810000A4805900A480690FA
:108F60006846FEF7E5FD044600BF25463DB100BF5B
:108F700006A24FF4B7712846FDF74CF900BF00BFB9
:108F800007B030BDA1EE0200058F02002E2E5C2E30
:108F90002E5C2E2E5C6D61696E2E6300F8B5054661
:108FA0000C46607A88B9207A10B91048476801E009
:108FB0000E4887682A4639466068FEF72BF9064650
:108FC00016B1304609F0FCFC0EE000202072074884
:108FD000406948B101208DF80000ADF80250034807
:108FE00041696846884700BFF8BD0000CC290020D1
:108FF000F0B585B004460D4617461E4614220B49AF
:109000006846FDF741FAADF802408DF80850ADF81A
:109010000A708DF80C600022054801782046FEF7A2
:1090200069FE684600F060FD05B0F0BD244903000C
:109030007923002010B586B00446208806F004FD90
:1090400000BB2088FEF7C2FD30B92088012241F222
:10905000060100F042FB15E0208800220A49097849
:10906000FEF748FE02208DF804002088ADF80600C7
:1090700000208DF80C0000218DF80D1001A800F0E3
:1090800033FD00BF06B010BD7923002070B5044643
:109090000D4629462046FDF7A3FC70BD10B5012200
:1090A00000210846FFF746FA044600BF1CB1072C12
:1090B00001D0204610BD00BF072202210120FFF78A
:1090C00039FA044600BF1CB1072C01D02046F1E755
:1090D00000BF042202210020FFF72CFA044600BF43
:1090E0001CB1072C01D02046E4E700BF0020E1E7D7
:1090F0002DE9FF4105460C4629492A4A891AC90823
:10910000042242EA01402B46224627A104F0FEFB3E
:10911000002002900390ADF80840ADF80A4000909E
:1091200001906A4602A9284690DF0646002E32D0FA
:10913000304605F0E1F9074619491A4A891AC90863
:10914000012242EA01403B462A46234904F0DEFB65
:10915000BDF8000010B9BDF8020068B1BDF80230DA
:10916000BDF800200E490F4FC91BC908012747EA67
:1091700001401AA104F0CAFBBDF8040058B1BDF8C3
:1091800004200749074BC91AC908012343EA0140D3
:10919000224904F0AFFB304604B0BDE8F081000086
:1091A000C4670300AC6703005570646174696E673F
:1091B0002064617461206C656E67746820746F2030
:1091C0002575206F6E20636F6E6E656374696F6EB8
:1091D00020307825782E00002C510300546865203B
:1091E0007265717565737465642054582F525820E8
:1091F0007061636B6574206C656E67746820697359
:1092000020746F6F206C6F6E672062792025752F38
:109210002575206F63746574732E00007851030008
:109220002DE9F04105460F460F4C0121204603F081
:1092300068F9064600BF00BF00BF00BFBFF35F8FE5
:1092400000BF00BF00BF0EB9012000E0002040B108
:10925000284602F0B7FB08B1BDE8F081024804F0EF
:1092600063FD00BFF8E700008822002070B50D49BB
:109270000D4A891AC908032242EA01400BA104F0F1
:109280002FFB08F0C1F9044600BF25463DB100BFE1
:109290000AA24FF40C712846FCF7BCFF00BF00BFC8
:1092A00070BD000054680300AC6703004572617331
:1092B0006520626F6E647321000000002E2E5C2E0C
:1092C0002E5C2E2E5C6D61696E2E630070B50646B5
:1092D0000D4616B14FF4064070BD287920B1012823
:1092E00009D0022815D111E002202871284608F083
:1092F0003FFD044610E0284600F05CFE044648F2BC
:109300000960844201D141F61D5405E041F61D5427
:1093100002E048F20E6400BF00BF2046DCE7000018
:109320002DE9F0418046002414E01248006800EB6B
:10933000C405287805F080FA07466878012800D12E
:1093400000E00020784080F001062878314600F0E7
:10935000F9FA641C084800788442E6DB0748D0E943
:109360000010002359405840014301D00AF0D8FAB8
:10937000BDE8F081B8230020BC230020C8230020D2
:1093800070B5044620793D2802D141F23D0001E04C
:109390004FF48850054620880022294602F05CFAE6
:1093A00070BD000010B50021034803F0AAF8044680
:1093B00084F3100010BD00002C36002070B5054667
:1093C0000C464FF4803000FA04F1284600F09AFA77
:1093D00070BD70B505460C464FF4A07000EB8400DC
:1093E00086B23146284600F025FB70BD2DE9F047D6
:1093F00004460D4616461F464FF4803000FA05F825
:109400004FF4A07000EB85001FFA80F926F07F462C
:109410004146206804F026FD4146206804F01CFD0A
:109420004946206804F011FD32462946206804F0C0
:1094300003FD4146206804F012FD1FB1414620683B
:1094400004F013FDBDE8F08710B50446206804F071
:10945000F8FC10BD2DE9F04704460D46174660792B
:10946000324941F820706079314901EBC000007940
:1094700068B108262F49304A891AC908022242EAEF
:1094800001402EA104F02CFA3046BDE8F08729886F
:109490002068C0F8081500BF94F90420AB78104686
:1094A0001946002808DB4FEA417C4FEA1C68DFF8C8
:1094B000B0C00CF800800BE04FEA417C4FEA1C6919
:1094C000DFF8A0C000F00F08A8F104080CF808901D
:1094D00000BF00BF94F90410084600280DDB00BF50
:1094E00000BF00F01F0301229A4043099B0003F1D3
:1094F000E023C3F8002100BF00BF00BF00BF012070
:1095000061790B4A02EBC10108716079114641F89B
:10951000304000260749084A891AC908032242EA4E
:10952000014011A104F0DCF93046AEE7F42300203D
:10953000F823002034680300AC6703005254432032
:10954000696E7374616E636520616C7265616479C4
:1095500020696E697469616C697A65642E00000027
:1095600000E400E018ED00E05254433A20696E69CF
:109570007469616C697A65642E00000010B501465B
:1095800091F90400002807DB00F01F0301229A4034
:10959000024B440943F8242000BF10BD00E200E064
:1095A00070B505460C4622460221284600F0B6F961
:1095B00070BD10B504464FF48271204600F03AFAAF
:1095C00010BD10B504460021206804F051FC10BD08
:1095D00010B504460421206804F04AFC10BD2DE9B2
:1095E000F84F04468846154699464FF4803000FAF5
:1095F00008FA4FF4A07000EB88001FFA80FB25F0FA
:109600007F455146204600F07DF9206804F019FCA2
:1096100006464146206804F009FC00903246414667
:10962000206804F009FC5946206804F00EFC31461D
:1096300000980AF0CFF8012806D1102005F010F8A4
:109640005946206804F001FC206804F0FAFB064645
:10965000314628460AF0BEF807465146206804F015
:10966000FEFB012F0FD16A1C4146206804F0E4FB89
:10967000102004F0F5FF206804F0E3FBB04225D091
:109680000D20BDE8F88F2A464146206804F0D4FB3F
:10969000206804F0D6FB0646681E31460AF09AF8A8
:1096A00007466FF07F40A0EB0900B84201D20D20C1
:1096B000E7E75FB96A1C4146206804F0BDFB2068FB
:1096C00004F0BFFBB04201D00D20DAE70122514681
:1096D000204600F023F90020D3E770B506460C467B
:1096E00015462B46224600213046FFF781FC70BD0F
:1096F0002DE9F84305460E46174698466946104838
:10970000006802F006FE044614B90420BDE8F883A0
:109710001C212046FCF7D1FE012020712560C4F8F1
:10972000088008480068B6FBF0F0E06067616946B1
:109730000348006802F017FE08F02AFA0020E5E767
:10974000BC4A0300B04A030010B50446D4E9032123
:10975000501828DF10BD0278072A38D2DFE802F05F
:1097600037040712222B340000220A7030E0012255
:109770000A7003898B818388CB81C2688A60002349
:109780000B7425E002220A7003898B818388CB81C8
:10979000C2688A60827D062A01D1012300E000238D
:1097A0000B7415E003220A70C3888B810389CB8177
:1097B000C2688A600CE004220A70C3888B8100238F
:1097C000CB8100228A6003E005220A7000E000BF1E
:1097D00000BF704770B50546002409E0064850F800
:1097E000240020B1044850F8241028468847641CFF
:1097F000042CF3D370BD0000CC2E002030B587B010
:1098000004460D462068806808B907B030BD1821AD
:1098100001A8FCF752FE0295A0680690207910B1CD
:10982000012815D109E001208DF80400206903907A
:10983000E0680490606905900BE002208DF8040058
:109840000749E0680968484303906069059000E0B3
:1098500000BF00BF2068816801A8884700BFD4E727
:10986000B04A0300F0B585B005460C461646002CFC
:109870003ED0112C3CD0082C3AD00D2C24D11D49BF
:109880001D4A891AC908022242EA01402A461B4998
:1098900004F030F82A460321684602F049FB2EB155
:1098A000307800F0010008B1012000E002208DF8BE
:1098B000080000218DF80C1041F20111ADF80A10DA
:1098C000684600F025F913E0204604F015FE07462F
:1098D0000849094A891AC908012242EA01402B466F
:1098E0003A46074904F012F82146284609F0D6F80E
:1098F00005B0F0BDF4670300AC6703002C5E030005
:109900003C5F030070B504460D462946206804F00C
:10991000A3FA2946206804F0A5FA70BD70B5044684
:109920000E4615463146206804F099FA1DB13146BD
:10993000206804F09AFA70BD10B50446204600F085
:10994000E7F810BDF8B505460C46284609F02EFE8E
:1099500005286AD2DFE800F003212A393F00DCB194
:109960000121284609F032FE002000906846FDF7EC
:1099700076FC2A460126002730463946FCF771FD61
:109980002B4AD2E9003218431143294A03C29DF8F9
:109990000000FDF76BFC00BF47E00CB1022000E0C7
:1099A00000200146284609F011FE3EE044B10321A3
:1099B000284609F00BFE012128460AF0F5FA03E0DB
:1099C0000121284609F002FE2FE01CB90421284697
:1099D00009F0FCFD29E024B10321284609F0F6FD39
:1099E00022E00021284609F0F1FD002128460AF076
:1099F000DBFA002000906846FDF731FC2A4601267C
:109A0000002730463946FCF72CFD0A46C143D043B7
:109A1000074B0CCB11401840054AC2E900109DF8D5
:109A20000000FDF723FC00BF00BF00BFF8BD000031
:109A3000C823002070B505460C462868015929B195
:109A40002146286804F001FA012070BD0020FCE7DF
:109A500070B50446608801F009FBA080002505E090
:109A6000044850F82510204688476D1C002DF7D07B
:109A700070BD00008022002070B50446A08801F06F
:109A800025FA6080002505E0044850F8251020469E
:109A900088476D1C002DF7D070BD00009422002077
:109AA00070B50546002405E0044850F82410284607
:109AB0008847641C022CF7D370BD00003C480300AB
:109AC00070B50546002405E0054850F824102846E6
:109AD0008847641C034800788442F5DB70BD0000B1
:109AE000FC2C0020C222002070B50446608801F0E2
:109AF000BDFAA080002505E0044850F82510204656
:109B000088476D1C002DF7D070BD0000E4480300AD
:109B100070B50546002405E0044850F82410284696
:109B20008847641C002CF7D070BD00005C4903001E
:109B300010B586B00446142101A8FCF7BEFCA0892C
:109B400000F052FAADF80800207806285ED2DFE86F
:109B500000F05D0304052E4A00BF00BFA08900F09D
:109B600048FA18B9E08908F024FAF8B1E08908F059
:109B70001DFA8DF80C002078032801D1012100E0A6
:109B800000218DF80D10A1680491606830B908209B
:109B90008DF8040001218DF8141004E009208DF8DF
:109BA00004006168059101A806F062F92FE0A08920
:109BB00000F01FFAB0B1E089A0B9606838B90A2096
:109BC0008DF80400BDF8080006F0A2FB04E00B20AD
:109BD0008DF804006068039001201149087001A805
:109BE00006F046F913E0606818B913208DF80400F8
:109BF00004E014208DF80400606803904FF6FF70B5
:109C0000ADF8080001A806F033F900E000BF00BF7E
:109C10000348007808B106F0C1FA06B010BD000094
:109C2000A122002038B505461048007810B948F246
:109C3000016038BD4FF6FF70854202D148F20360E3
:109C4000F7E7684607F084FE044614B948F2076057
:109C5000EFE70520207001202071E580684607F0BD
:109C600087FE07F089FF0020E3E7000000240020C2
:109C700038B50E48007810B948F2016038BD684622
:109C800007F066FE044614B948F20760F6E70620BE
:109C90002070684607F06CFE0548007810B101207E
:109CA0000349087307F068FF0020E7E7002400205D
:109CB000A02F002070B586B0142101A8FCF7FDFB91
:109CC0002E48007828B101A8FFF784FD002006B0D7
:109CD00070BD2A48001D02F0D6FB08B10020F6E74F
:109CE00000F036FA06460EB13046F0E707F06CFE9B
:109CF00005F0F2FD054625B1022D03D0062D0ED14B
:109D000003E000BF48F20A60E1E701201B49087048
:109D10000020486001A8FFF75DFD0020D7E700BFE5
:109D200000BF684607F014FE044614B948F2076005
:109D3000CDE7012020700C2D16D2DFE805F01506C6
:109D4000150715111512150A0E0B00BF0020207102
:109D50000BE000BF0320207107E00220207104E027
:109D600000BF0120207100E000BF00BF684607F07F
:109D7000FFFD07F001FF0020A9E7000000240020FC
:109D800038B5044614B948F2046038BD6946204627
:109D900008F00CF808B3BDF8000000EB8000114992
:109DA00001EB8000C068A8B1A07A98B1BDF80000AE
:109DB00000EB800001EB8000C068401EBDF8001081
:109DC00001EB8101074A02EB8101C8600020A0720B
:109DD000002504E048F2056501E048F209652846DF
:109DE000D3E70000782F00207FB514461D462B4690
:109DF000224601A9684607F071FF04B070BD37B56F
:109E00000C4615462B4622466946002007F066FFA1
:109E10003EBD37B50C4615462B4622460021684606
:109E200007F05CFF3EBD024602B111B948F2046082
:109E30007047106808600020FAE70000F8B5044693
:109E40000D4604B115B948F20460F8BD69462046D4
:109E500007F0ACFFA0B16668BDF8001001EB81010E
:109E6000094A02EB810101F10C00012102F012FB11
:109E70002E6060680C3068600120A0720020E4E76A
:109E800048F20960E1E70000782F002070B5044631
:109E90000D4614B948F2046070BD03230022294620
:109EA00020460AF01BFBF7E770B504460D46022377
:109EB0000022294620460AF011FB70BD70B5054608
:109EC00009480068042802D148F20B6409E00748F9
:109ED0000549096840F821500121034802F0DAFAE7
:109EE0000024204670BD00000C240020CC2E002051
:109EF0002DE9F84304464FF4806800262B4800788B
:109F000018B948F20160BDE8F88314B948F204605A
:109F1000F9E712212046FCF7D0FA03202080002523
:109F20003FE005EB8500224901EB8000008905EB4D
:109F300085011F4A02EB81014989084487B205EB7C
:109F4000850102EB8101486805F042FC032802D13B
:109F50002088401E2080608805EB8501144A02EBB2
:109F60008101C96808446080208905EB850102EB06
:109F70008101498908442081608938446081C7F59E
:109F8000806086B2A089B04200DAA68104F1100098
:109F9000831EA21D211D0090284608F05DF8681C54
:109FA00085B2022DBDDB0020ADE7000000240020BB
:109FB000782F00203EB504460A4B6A460021A01DBA
:109FC00007F08CFE054635B9064A9188019807F0DE
:109FD00067FF054603E00348002101604160284611
:109FE0003EBD00001C2400200146A1F5404080B287
:109FF00070470146B1F5404F05DB4FF6FE708142D8
:10A0000001DC012070470020FCE710B504462078F1
:10A01000182802D1FDF74AFE207010BD10B5044685
:10A020002078182802D1FDF741FE207010BD70B5D0
:10A0300005460E46144624B13146284602F006FA7B
:10A0400003E03146284602F09CF970BD30B5044665
:10A050001088C01C984201D90C2030BD0220158800
:10A0600048551088401C10800120158848551088DC
:10A07000401C108015884C551088401C1080002012
:10A08000EBE770B504460D4640F21442115B012225
:10A09000D4F81004FDF786FB064606B1357004F1CE
:10A0A0003C0204F5826104F1540072DF70BD0000CF
:10A0B0002DE9F04106460C4615460027112C01D12A
:10A0C000012700E0002765B13A460A48017830468A
:10A0D000FDF710FE0022084801783046FDF70AFE21
:10A0E00005E03A46044801783046FDF703FEBDE836
:10A0F000F0810000972300209423002010B54FF436
:10A10000405400F009F80349086108460069001B43
:10A11000C86010BDC024002010B540F6F87000687B
:10A12000401C18B94FF01020406902E040F6F8706A
:10A13000006803464FF0805001694269581C08B11D
:10A14000184601E002FB01F00446204610BD000065
:10A1500010B5FFF7D3FF00220249034802F0F6FDD5
:10A1600010BD0000C04A0300C0240020F7B50D4612
:10A1700017460DB90020FEBD0026009868B10024E6
:10A1800009E02146684602F052F918B1A0B23946FA
:10A19000A847761C641C142CF3D33046EBE710B5AB
:10A1A0000446606807F03EFC10BD00003EB500BFED
:10A1B0009DF8000020F00F00401C00909DF800006A
:10A1C00020F0F0001030009000BF3D2216A168463C
:10A1D0007CDF044600BF254635B100BF22A2D32153
:10A1E0002846FCF717F800BF00BF0020019002903E
:10A1F0005020ADF80400A020ADF806000020ADF816
:10A2000008004FF4C870ADF80A0001A87ADF0446D0
:10A2100000BF254635B100BF13A2E1212846FBF758
:10A22000F9FF00BF00BF3EBD4E6F726469635F54AB
:10A23000656D706C617465787878787878787878FE
:10A24000787878787878787878787878787878788E
:10A25000787878787878787878787878787878787E
:10A2600078787878780000002E2E5C2E2E5C2E2ECA
:10A270005C6D61696E2E630070B50021074802F0C5
:10A28000D9F9044600BF254635B100BF04A2EA2132
:10A290002846FBF7BFFF00BF00BF70BDD4240020DD
:10A2A0002E2E5C2E2E5C2E2E5C6D61696E2E630050
:10A2B00070B5054615B14FF4064070BD1848007BD7
:10A2C00018B100201649087301E000F0DFF81448C7
:10A2D000007808281DD2DFE800F01C04080C101CD0
:10A2E000141800F03FF8044616E000F0BDF80446EC
:10A2F00012E000F099F804460EE000F047F804463A
:10A300000AE000F035F9044606E000F043F904469F
:10A3100002E048F20E6400BF00BF2046CDE7000017
:10A32000A02F00200D480089401C0C490881002006
:10A330004880087300BF0DE000EB8001084A12F866
:10A34000211009B9012200E0002204490A310A540F
:10A35000411C88B20228EFDB70470000A02F0020CC
:10A36000782F002010B5084800F036F840B90020DA
:10A370000549891E08704880486041F61D5010BD8F
:10A3800000F072F8FBE70000A22F002070B50F4824
:10A39000458805EB85000E4901EB8000C06878B95F
:10A3A00004200A49087005EB8500094A02EB800089
:10A3B000002301224168074802F010FC044602E035
:10A3C00000F090F80446204670BD0000A02F002049
:10A3D000782F0020C024002010B501460022002064
:10A3E00018E00F4B1B5C9BB100240D4B1C5400EB81
:10A3F00080030C4C04EB8303DB684BB900EB800358
:10A4000004EB83031B7C012B02D10880012203E0B3
:10A41000431C98B20228E4DB00BF104610BD0000C8
:10A42000AA2F0020782F0020F8B50C4844680C486B
:10A4300000680B49898800EB81056088C01C86B2E2
:10A440000320064908700020B30000900846294602
:10A450004268044802F03AFDF8BD0000A02F002039
:10A4600014240020C024002010B507494888091D85
:10A4700007F0DAFC18B1FFF7D7FF044602E0FFF758
:10A4800085FF0446204610BDA02F002010B51448BB
:10A490000078082820D2DFE800F0041F1F0A1016F9
:10A4A000171BFFF73FFF01200D49087015E000F072
:10A4B0007DF802200A4908700FE000F029F8062014
:10A4C0000749087009E000BF07200549087004E04B
:10A4D00001200349087000E000BF00BF10BD00006C
:10A4E000A02F002010B5052006490870022006495B
:10A4F00088800846002301220168044802F06EFBB0
:10A5000010BD0000A02F002014240020C024002033
:10A51000144908681449498801EB8101134A02EB88
:10A52000810149680F4A11600F49498801EB810197
:10A530000E4A02EB810148600A4989880A4A52881A
:10A5400002EB8202094B03EB820211810221054AD0
:10A5500091800021044A528802EB820203EB8202BE
:10A560001174704714240020A02F0020782F0020A1
:10A5700010B5062005490870498801EB8101044A9D
:10A5800002EB8101486805F085F910BDA02F00207D
:10A59000782F002010B5072003490870002048607C
:10A5A00005F088F910BD0000A02F0020054A506872
:10A5B0004288D21C91B2044A92880A44024B9A8083
:10A5C00070470000A02F0020142400202DE9F04146
:10A5D00086B00446A688208850282ED004DC352872
:10A5E00036D0362808D189E0522802D05428F9D133
:10A5F00003E0304601F078F9B9E01422634901A87C
:10A60000FBF742FFADF80660304600F02FFDADF8D5
:10A610000800BDF8080000F03BFA00225C48017811
:10A620003046FDF767FB00225A4801783046FDF7B7
:10A6300061FB01A8FFF70CFA99E0A01DFEF7FCFAF8
:10A6400028B10121304601F0B1F909F029FC8EE072
:10A650000027A68804F10A054F4801783046FDF727
:10A6600033FB00B983E000224B4801783046FDF708
:10A6700041FBE088B0F5857F3AD0E08858B1E288A8
:10A680004649474BC91AC908022343EA014045A17C
:10A6900003F030F92CE0288801280AD02A883F49A5
:10A6A0003F4BC91AC908022343EA01404CA103F0F9
:10A6B00021F9688801280BD06A883849384BC91AB3
:10A6C000C908022343EA014054A103F013F90FE043
:10A6D000A98800223046A1DF8046B8F1000F06D1DC
:10A6E000012701225C4801783046FDF703FB00BFDB
:10A6F0001FB90021304608F0F7FF38E00027A68890
:10A7000004F10A05544801783046FDF7DDFA00B936
:10A710002DE00022504801783046FDF7EBFAE08842
:10A7200058B1E2881D491E4BC91AC908022343EAE1
:10A7300001401CA103F0DEF814E0A88801280BD02A
:10A74000AA881649164BC91AC908022343EA0140D0
:10A7500032A103F0CFF805E0A87908B1012000E0AC
:10A76000002007463946304608F0BEFF00BF00BF54
:10A7700000BF002239493A480078FDF737FA00BF98
:10A7800008F03CFA06B0BDE8F08100001048030074
:10A790008F2200208E22002091220020AC6703002F
:10A7A000AC670300556E6578706563746564204717
:10A7B00041545420737461747573207768696C65B3
:10A7C0002067657474696E67204341522063686135
:10A7D000722076616C75653A20307825780000002B
:10A7E0004D756C7469706C6520282564292043417F
:10A7F000522063686172616374657269737469631E
:10A800007320666F756E642C207573696E67207493
:10A8100068652066697273742E000000556E657855
:10A82000706563746564204341522063686172619E
:10A830006374657269737469632076616C756520F1
:10A840006C656E67746820282564292C2073746FEA
:10A85000726520302E000000922200200174020058
:10A860008D22002010B50446207858B9608801F088
:10A870003BF8608808F0B2F96088FEF7A7F909F0A4
:10A880000FFB00E000BF00BF10BD000010B500F0DE
:10A890004FFDFDF70BFA2A490870FDF707FA294921
:10A8A0000870FDF703FA28490870FDF7FFF92749FA
:10A8B0000870FDF7FBF926490870FDF7F7F92549FF
:10A8C0000870FDF7F3F9244908701D48007818282E
:10A8D00017D01C480078182813D01B480078182877
:10A8E0000FD01A48007818280BD01948007818287B
:10A8F00007D018480078182803D008460078182890
:10A900000BD11649164A891AC908012242EA0140A8
:10A91000144902F0E5FF032010BD00BF00201249DA
:10A92000086000BF00BF00BF00BFBFF35F8F00BF64
:10A9300000BF00BF00BF01200C4908700020EBE7FA
:10A940008C2200208D2200208E2200208F220020C9
:10A95000902200209122002092220020AC67030068
:10A96000AC670300A44D030088220020842200204D
:10A970007CB504462078082840D1607A00283DD173
:10A98000207A012814D0072802D0082834D12BE0DF
:10A99000A08800F09BFA05464FF6FF70854206D06E
:10A9A0000121284601F002F82846FEF70FF924E0BD
:10A9B000A0886A46012105F04FF906469EB9019824
:10A9C000007880B1A08800F081FA05464FF6FF704C
:10A9D000854207D001220B4801782846FDF78AF905
:10A9E00008F00CF900BF08E007480068012802D110
:10A9F000054803F099F900E000BF00BF09F050FAE4
:10AA00007CBD00008E2200208822002070B50B48FB
:10AA1000FEF71AFD0A4B0CCB841843F100050949D7
:10AA200003C9201A75EB010004D24FF08073E418BB
:10AA300045F100052046294670BD0000D0230020C6
:10AA4000E0230020E82300202DE9F0410446884659
:10AA5000E0B2FEF765F80546287803F0EDFE0746FC
:10AA60006878012800D100E00020784080F00106DD
:10AA70004EB10648D0E90010002359405840014328
:10AA800001D108F04DFFBDE8F0810000C82300208F
:10AA90001CB50446044903C9CDE9000100226946FA
:10AAA000204605F0E7FA1CBD3448030010B500F05D
:10AAB00045FC012001490870002010BD98220020AB
:10AAC0002DE9FC470546284600F0D0FA0646002747
:10AAD000B8464FF003094FF0010A4FF6FF70864267
:10AAE0000DD06A460821304605F0B6F8044634B960
:10AAF0000198871DB0F80480D0F8009000BF00BF17
:10AB00004B46424639462846B1DF0446042C01D163
:10AB1000112422E0082C01D100241EE00B2C1CD1B2
:10AB20004FF0000A09F0020010B14FF0010914E0E3
:10AB300017B9B8F1000F04D00027B8464FF0030949
:10AB40000BE00A490A4A891AC908012242EA01406F
:10AB50002A46084902F0CEFE03240B2CD0D0BAF1CD
:10AB6000000F00D10B242046BDE8FC87B46703002A
:10AB7000AC6703006C5003002DE9FC5F8046404643
:10AB800000F074FA06464FF6FF70864203D143F296
:10AB90000200BDE8FC9F4FF001094FF0000A00BF22
:10ABA0004FF0000A4A46511C1FFA81F96B460821F2
:10ABB000304605F0B3F80446002C31D1019D032046
:10ABC00028602A1DA91D40462B68B2DF044634B90F
:10ABD00032460821304605F029F904461FE00C2CC6
:10ABE00002D14FF0010A02E0052C00D10024082117
:10ABF000304605F00BF9074687B1384603F07CFC78
:10AC000083460C490C4A891AC908012242EA0140CC
:10AC10005B463246094902F079FE032400BF02E098
:10AC2000072C00D10C24BAF1000FB9D100BF204687
:10AC3000AFE70000B4670300AC670300EC4F03000C
:10AC400010B50446044800884FF6FF71884201D0D1
:10AC500007F0E0FF10BD00009A220020FEB5044678
:10AC600002A80190204600F001FA06466A4601213A
:10AC7000304604F0F1FF05460DB10020FEBD0198FD
:10AC80000078FBE72DE9F04105464FF6FF761648C0
:10AC9000B3DF04468CB1204603F02EFC074613496F
:10ACA000134A891AC908012242EA01403A46114969
:10ACB00002F020FE0320BDE8F08100BF4FF6FF72D6
:10ACC000094801882846AFDF044643F20300844266
:10ACD00004D105480088401C0349088043F2030062
:10ACE0008442EBD02046E6E79C220020B4670300B4
:10ACF000AC670300A04F030070B504460D46204624
:10AD000000F01DF8A84201D9022070BDA0884FF6BE
:10AD1000FF71884204D0208810B1A068401C08B997
:10AD20000120F2E70020F0E7024613468B4204D2EE
:10AD30001868401C08B1012070470020FCE701465C
:10AD40004A8801F10C0000EB8200704710B502F058
:10AD500039FC08B903F014F810BD3EB504460D46A1
:10AD600020780221B1EB500F01D000203EBDB4F895
:10AD70000100ADF80800E0788DF80A00A188ADF870
:10AD80000010A0798DF8020001AA69462846FCF758
:10AD900021F8032201A902A8FBF7A1FB08B90120B1
:10ADA000E4E70020E2E7000070B504460D46142CED
:10ADB00003DA2046FCF7B4FF10B943F2020070BD7D
:10ADC00004EB8400054901EB4000D0F80210296033
:10ADD000C188A980007AA8710020F0E7642A0020C9
:10ADE00030B591B005462888102801D011B030BD8B
:10ADF0002C22291D06A8FBF747FB4FF6FF749DF890
:10AE00001C000321B1EB500F35D005F0DDF89DF8A3
:10AE10001C00400820B1012803D0022828D114E0EA
:10AE200000BF09E0049800F1110107A8FBF7A6FE96
:10AE300010B1BDF8144006E003AA05A9072005F0EB
:10AE40008DF80028EED100BF13E008E00498411C03
:10AE500007A8FFF782FF10B1BDF8144006E003AA6F
:10AE600005A9072005F07AF80028EFD100BF00E01F
:10AE700000BF00BF00BFBDF8180000EB8000124902
:10AE800021F81040BDF8180000EB800001EB4000F5
:10AE90000799C0F80210BDF82010C1809DF822105B
:10AEA00001724FF6FF7084420CD0BDF81800ADF867
:10AEB0000600ADF8084000208DF8040001A8FEF758
:10AEC000EFFD00BF00BF91E7642A002070B5054682
:10AED0004FF6FF70854200D170BD00240EE004EBF8
:10AEE0008400094931F81000A84205D12046FCF73A
:10AEF00017FF08B12046EFE7601C84B2142CEEDB8C
:10AF00004FF6FF70E8E70000642A00203EB50546D2
:10AF10000C4605F059F80BE0BDF80800A04207D038
:10AF20002846019900F00EF810B1BDF808003EBDAA
:10AF30006A4602A9072005F011F80028ECD14FF667
:10AF4000FF70F4E72DE9F04704460D4604F11106C1
:10AF500005F111071022691C601CFBF7C0FA48B903
:10AF6000601C00F07EFB28B1681C00F07AFB08B181
:10AF7000012000E00020824639463046FBF7FEFD06
:10AF8000804630780221B1EB500F10D03078032189
:10AF9000B1EB500F0BD038780221B1EB500F06D037
:10AFA00038780321B1EB500F01D0012000E00020E0
:10AFB0008146B8F1000F02D0B9F1000F05D1BAF106
:10AFC000000F05D0B9F1000F02D10120BDE8F087D4
:10AFD0000020FBE70246108808B1012070470021DD
:10AFE00005E0901C405C08B10120F7E7491C0829E6
:10AFF000F7D30020F2E770B505460C462846FFF768
:10B00000E9FF08B9002070BD28882188884201D056
:10B010000020F8E70822A11CA81CFBF760FA08B979
:10B020000120F0E70020EEE7142804DA00EB8002AC
:10B03000014B23F812107047642A002070B50646B1
:10B040003046FFF743FF0446304604F011FE054644
:10B0500045B9142C06DA4FF6FF7004EB8401024A5E
:10B0600022F81100284670BD642A002010B504465D
:10B07000142C03DA2046FCF753FE10B94FF6FF708C
:10B0800010BD04EB8400024931F81000F8E700001D
:10B09000642A00203EB5044604F096FF10E00198B3
:10B0A00000F146012046FFF7A6FF30B9019800F1F4
:10B0B0002A012046FFF79FFF10B1BDF808003EBDF2
:10B0C0006A4602A9072004F049FF0028E7D14FF69D
:10B0D000FF70F4E770B504460D4609486060094802
:10B0E00001F0D1F950B903F00FF9064908741C2397
:10B0F0008C2205490548006801F0F7F8002070BD72
:10B10000B04A030058300020BC2F0020BC4A030086
:10B110002DE9F04106460C4648F20E6736B1002094
:10B12000434948604FF40640BDE8F081207930B1D2
:10B1300001280AD0022835D003286DD140E0012033
:10B14000207104F0B7FB074667E04FF000080025C8
:10B1500019E005EB8500374911F82000022810D1CD
:10B16000002005EB8501334A02F821004FF0010869
:10B1700005EB850102EB8101486804F08BFB074673
:10B1800003E0681C85B2022DE3DB00BFB8F1000FBD
:10B1900007D10120264908700020486041F61D5063
:10B1A000C2E73AE000202071022023498880084647
:10B1B000002301220168214801F010FD07462CE020
:10B1C000002020711C49086804F064FB07461C48F5
:10B1D00045881948D0F8008005EB8500154901EB3A
:10B1E000800040681449086005EB8500114901EBB7
:10B1F0008000C0F804801048808805EB85010D4A66
:10B2000002EB8101088102200B498880002005EBB8
:10B21000850102F8210000E000BF00BF2FB100202F
:10B220000349486048F20D607EE700207CE700009B
:10B2300000240020782F002014240020C0240020A7
:10B24000A02F0020024600210CE001EB8100074BFB
:10B2500033F82000904204D101EB810003EB800021
:10B260007047491C0029F0D00020F9E7B8290020D8
:10B270002DE9FC5F83460E4691461F46DDE90C45ED
:10B28000002E01DA704200E0304682464FF001089D
:10B2900003E09AFBF9FA08F10108CA45F9DA4745D3
:10B2A00000D9B84634B1002E03DB05F004000428B1
:10B2B00000D1641E05F0020000B167B105F0010085
:10B2C00048B944B104E0641E20215846FDF706FC4D
:10B2D0000CB1A045F7D3002E05DA76422D21584651
:10B2E000FDF7FCFB07E005F00400042803D12B2147
:10B2F0005846FDF7F3FB05F0020002280DD105F0DA
:10B30000010050B94FB944B104E0641E30215846E1
:10B31000FDF7E4FB0CB1A045F7D33B464A46314666
:10B320005846CDE9004508F05FFDBDE8FC9F0000F0
:10B330000020014908707047842200200020034942
:10B3400008704FF6FF70024908807047982200206D
:10B350009A22002010B5002407E004EB4401044ABF
:10B3600002EB810009F093F8641C042CF5D310BDA6
:10B370004C2B002010B5044640212046FBF79DF8D9
:10B3800010BD00004FF6FF700249088000200249FE
:10B3900008607047C0220020B822002070B5054622
:10B3A0001249286803F0CFF8286803F06DF90446C5
:10B3B0002046002817DB00F01F02012191400C4AB3
:10B3C000430942F8231000BF00BF00BFBFF34F8FF7
:10B3D00000BF00BF00BF00BF00BF00BFBFF36F8F43
:10B3E00000BF00BF00BF00BF00BF70BD84020200ED
:10B3F00080E100E070B505461249286803F0D4F8F2
:10B40000286803F045F904462046002817DB00F0C1
:10B410001F02012191400C4A430942F8231000BF4A
:10B4200000BF00BFBFF34F8F00BF00BF00BF00BF12
:10B4300000BF00BFBFF36F8F00BF00BF00BF00BFE2
:10B4400000BF70BD1003420080E100E02DE9F04133
:10B4500004460E464FF48E71206803F068F84FF4EE
:10B46000A271206803F063F81A49206803F06EF8AF
:10B47000206803F009F90546374628463946002872
:10B4800004DB4A07130E144A135408E04A074FEA34
:10B49000126C124A00F00F031B1F02F803C000BF1A
:10B4A00000BF206803F0F0F80546284600280DDBB1
:10B4B00000BF00BF00F01F0201219140420992002D
:10B4C00002F1E022C2F8001100BF00BF00BF00BFC0
:10B4D000BDE8F0818000020000E400E018ED00E02B
:10B4E0002DE9F04104460E464FF48871206803F0C0
:10B4F0004EF84FF49071206803F049F84FF49271C0
:10B50000206803F044F84FF4A271206803F03FF87C
:10B510004FF4AC71206803F03AF81B49206803F03F
:10B5200046F8206803F0B4F8054637462846394601
:10B53000002804DB4A07130E144A135408E04A0794
:10B540004FEA126C124A00F00F031B1F02F803C0EF
:10B5500000BF00BF206803F09BF80546284600287E
:10B560000DDB00BF00BF00F01F0201219140420926
:10B57000920002F1E022C2F8001100BF00BF00BF3C
:10B5800000BFBDE8F08100001003420000E400E0CD
:10B5900018ED00E030B5024600201378C3F38003B5
:10B5A000D3B1137803F00303012B02D0022B10D187
:10B5B00007E01388C3F383139B1C0C6823440B60C0
:10B5C00008E00B680225146805EB945423440B60D3
:10B5D00000E000BF00BF012030BD0000014603486D
:10B5E000007A08B1012070470020FCE758300020A5
:10B5F0002DE9F0410446A08800EB020CB4F8048069
:10B60000904501DD104600E0A088A8EB0005E08829
:10B61000C618B4F80680984501DD184600E0E088B9
:10B62000A8EB00074888B4F80080404504DB488850
:10B63000B4F80280404502DD0020BDE8F081888832
:10B64000A84202D38888604501D90020F5E7C88860
:10B65000B84202D3C888B04201D90020EDE70120EA
:10B66000EBE70246002104E0505C08B1012070477E
:10B67000491C1029F8D30020F9E7014601F0030026
:10B6800008B9012070470020FCE70146086808B1AE
:10B6900002680A6070477CB504466A460721204666
:10B6A00004F0DAFA05463DB9019890F8440000F03C
:10B6B000010008B101207CBD0020FCE710B5044664
:10B6C00022460121002001F0E7FD002105E054F8A9
:10B6D000210008B1012010BD491C0029F7D000202D
:10B6E000F9E7000010B50848007850B1002405E0E3
:10B6F000022C02D02046FCF7CFFD641C042CF7D3AB
:10B7000001E0FCF70DFE10BD6022002010B50446DC
:10B710000448007800F0010018B103480078FCF7F5
:10B720009DFF10BD5C2200205822002010B502F0C1
:10B730005BFF20B902F07EFF00200149887010BD38
:10B74000482D0020172101804180002101714171A5
:10B750001B218171C17170472DE9FE4F80460F4654
:10B76000924699460FB1002612E0684600F0D0FBE1
:10B770006A460021404604F0D3F9009E2A4800782A
:10B7800028B99DF8090010B90520BDE8FE8F00BF5B
:10B7900052463146404607F0DDFD04460022214670
:10B7A0004046FEF785FC0D2C1CD005DCCCB1082CE6
:10B7B0001AD00B2C1BD118E0112C04D0A4F540504A
:10B7C0000238A0B90FE03A46184801784046FCF725
:10B7D00091FA5246164801784046FCF78BFA00254C
:10B7E00017E000BF00BF00BF00BF254611E02046A4
:10B7F00002F082FE83460F490F4A891AC9080122C6
:10B8000042EA014043465A460C4902F07FF80325BC
:10B8100000BF00BFB9F1000F04D0324621464046B8
:10B82000FEF720F82846B0E78C230020962300205E
:10B8300095230020F4670300AC670300E45E030077
:10B8400070B505460E46314628467EDF0446042C78
:10B8500000D11124204670BD70B504460D46164631
:10B8600000BF0B4801782046FCF72EFA70B1204645
:10B8700004F0EAF828B132462946204604F0EEF8F2
:10B8800004E0324629462046FDF727FF70BD000040
:10B89000792300202DE9F041044688460A480178C2
:10B8A0002046FCF711FA0646084801782046FCF7C6
:10B8B0000BFA07460123324639462046FFF74CFF74
:10B8C0000546BDE8F0810000952300209623002066
:10B8D00070B505460C46002624B121462846FFF7E0
:10B8E000AFFF0646304670BDF0B585B00446002671
:10B8F00014216846FAF7E1FDADF802404FF6FF70FB
:10B90000844201D105B0F0BD2046FFF7D9F80546C5
:10B9100045B10B2D0FD0112D0BD0A5F5405002389D
:10B92000E0B91AE00E208DF800006846FEF790F8A6
:10B9300029E0012627E00F208DF800001649174A5C
:10B94000891AC908022242EA01402246144901F03C
:10B95000D1FF6846FEF77CF815E014E0284602F0B7
:10B96000CBFD07460C490D4A891AC908012242EA53
:10B97000014023463A460B4901F0C8FF29462046BC
:10B9800007F050F800BF00BF324607480178204654
:10B99000FCF7B0F900BFB5E7AC670300AC67030084
:10B9A000C84E0300744E03008D22002070B505467A
:10B9B0000C462246024801782846FCF79BF970BDE8
:10B9C0008C2200202DE9F04186B004460026002795
:10B9D0002046FFF7D1F805464DB1112D0AD0862D2E
:10B9E0000AD0A5F54050023800281BD101E00127FC
:10B9F0002DE02CE001262AE01422194901A8FAF7CB
:10BA000043FDADF806401749174A891AC9080222B2
:10BA100042EA0140224615A101F06CFF01A8FEF7A1
:10BA200017F814E0284602F067FD80460D490E4ADB
:10BA3000891AC908012242EA01402346424619A157
:10BA400001F064FF2946204606F0ECFF00BF00BF6E
:10BA500031462046FFF7AAFF384606B0BDE8F08120
:10BA6000CC470300AC670300AC670300466C61730E
:10BA7000682066756C6C2E20436F756C64206E6F49
:10BA8000742073746F7265206461746120666F72D4
:10BA900020636F6E6E5F68616E646C653A2025642A
:10BAA000000000006773636D5F6C6F63616C5F64BF
:10BAB000625F63616368655F75706461746528299E
:10BAC0002072657475726E656420257320666F72CE
:10BAD00020636F6E6E5F68616E646C653A202564EA
