:020000040002F8
:1060000028560020C1630200C9630200CB6302006E
:10601000CD630200CF630200D163020000000000E4
:10602000000000000000000000000000D363020038
:10603000D563020000000000D7630200D9630200AC
:1060400051660200DB630200656A0200B966020065
:10605000DB630200DB63020079650200DB630200A0
:10606000DB630200DB630200DB630200DB63020030
:10607000DB630200DB630200DB630200DB63020020
:10608000DB630200A9660200DB630200DB6302003F
:10609000DB630200DB630200C9660200DB6302000F
:1060A000DB630200DB630200DB630200DB630200F0
:1060B000DB630200DB630200000000000000000060
:1060C000DB630200DB630200DB630200DB630200D0
:1060D000DB630200DB630200DB6302000000000000
:1060E00000000000000000000000000000000000B0
:1060F00000000000000000000000000000000000A0
:10610000000000000000000000000000000000008F
:10611000000000000000000000000000000000007F
:10612000000000000000000000000000000000006F
:10613000000000000000000000000000000000005F
:10614000000000000000000000000000000000004F
:10615000000000000000000000000000000000003F
:10616000000000000000000000000000000000002F
:10617000000000000000000000000000000000001F
:10618000000000000000000000000000000000000F
:1061900000000000000000000000000000000000FF
:1061A00000000000000000000000000000000000EF
:1061B00000000000000000000000000000000000DF
:1061C00000000000000000000000000000000000CF
:1061D00000000000000000000000000000000000BF
:1061E00000000000000000000000000000000000AF
:1061F000000000000000000000000000000000009F
:10620000DFF80CD000F07AF9004800475DA60200E4
:106210002856002030B450E8012F93B2C48923449B
:106220008489A34228BF1B1B0489A34202BFBFF37A
:106230002F8F002007E0C3EA020340E80134002C5E
:10624000E9D14FF001000A6030BC704750E8012FDF
:10625000C2EA024240E801210029F7D1704730B478
:1062600050E8022F1FFAA2F3C488A34202BFBFF373
:106270002F8F00200DE0C48923448489A34228BFC6
:106280001B1BC2EA034340E80234002CE8D14FF064
:1062900001000A6030BC704750E8022FC2EA224277
:1062A00040E802210029F7D17047034653E8022F46
:1062B000D988B2EB324F4FF0000017BF92B241EADB
:1062C000014142EA014104E05A68B2EB324F08BF93
:1062D000012043E80212002AE8D1704730B4044696
:1062E00054E8000F0D4644E80053002BF8D1156028
:1062F00030BC704730B4044654E8000F40EA010552
:1063000044E80053002BF7D1156030BC704730B41F
:10631000044654E8000F00EA010544E80053002B4E
:10632000F7D1156030BC704730B4044654E8000F14
:1063300080EA010544E80053002BF7D1156030BC1A
:10634000704730B4044654E8000F00EB010544E800
:106350000053002BF7D1156030BC704730B40446B1
:1063600054E8000FA0EB010544E80053002BF7D1DF
:10637000156030BC704770B404464FF0000054E81C
:10638000006F0D68AE4207BF44E80023012044E8D7
:1063900000630E60002B1CBF0020F0E770BC70474C
:1063A00030B4044654E8000F88422CBF451A054615
:1063B00044E80053002BF5D1156030BC7047000055
:1063C0000648804706480047FEE7FEE7FEE7FEE78F
:1063D000FEE7FEE7FEE7FEE7FEE7FEE7CD6602002A
:1063E000016202002DE9F05F0546002092469B46BF
:1063F00088460646814640241BE0284641464746DB
:10640000224600F06BF853465A46C01A914110D309
:1064100011461846224600F016F82D1A67EB0108BF
:106420004F4622460120002100F00DF817EB00092D
:106430004E41201EA4F10104DFDC484631462A46C5
:106440004346BDE8F09F202A04DB203A00FA02F11F
:10645000002070479140C2F1200320FA03F3194352
:106460009040704700487047A419030040EA0103B8
:106470009B0703D009E008C9121F08C0042AFAD2FA
:1064800003E011F8013B00F8013B521EF9D27047BE
:10649000D2B201E000F8012B491EFBD27047002266
:1064A000F6E710B513460A4604461946FFF7F0FF13
:1064B000204610BD421C10F8011B0029FBD1801A98
:1064C000704730B504460020034600E05B1C934251
:1064D00003D2E05CCD5C401BF8D030BD202A04DB49
:1064E000203A21FA02F00021704721FA02F3D0404D
:1064F000C2F120029140084319467047064C074DEF
:1065000006E0E06840F0010394E807009847103483
:10651000AC42F6D3FFF778FEF02F030010300300F3
:1065200070B58C1810F8015B15F0070301D110F855
:10653000013B2A1106D110F8012B03E010F8016B82
:1065400001F8016B5B1EF9D12B0705D40023521E05
:106550000DD401F8013BFAE710F8013BCB1A921C6D
:1065600003E013F8015B01F8015B521EF9D5A1426B
:10657000D8D3002070BD00002DE9F8430025DFF8D6
:1065800094804FF4807601242F460095304605F024
:10659000CBF938B1D8F80403204203D0304605F0D7
:1065A000B9F92543361D64007F1CB6B2082FEDD320
:1065B0004FF4BE74204605F0B7F948B1204605F007
:1065C000A9F945F000456A460121002005F06AF965
:1065D00015F0FF0F16D0012600242E420ED008EB36
:1065E0008401D1F81005D1F81015C0F304200A4A2F
:1065F000C1F3014152F8242002B190477600641C97
:10660000082CEAD3002D02DA684608F01BFBBDE82F
:10661000F883000000600040342D00201FB5094BB6
:106620000FCB8DE80F0007480023074A6946103852
:1066300004F0E6FC08B100F011FC02480C3806F04A
:1066400069F91FBDEC1803007D04030070470000CA
:1066500070B54FF48076304604F078FC114CB505E7
:1066600060B1304604F079FC0120C5F80803607978
:1066700020B9012060712168002088474FF482769C
:10668000304604F063FC00280AD0304604F065FC74
:106690000220C5F808032168BDE8704001200847C2
:1066A00070BD00004423002002490248091F096808
:1066B00000680847982300200149024809F0E4BE19
:1066C000E83500200030004005F0B8BEF0B5D34AF0
:1066D000D3494FF080541368D4F830010978D4F8C6
:1066E0003421451CC1F3031107D084461646012707
:1066F0000025BCF1060F04D013E003F0FF0C0E469A
:10670000F5E7032E05D0042E03D0052E01D0062E6A
:1067100007D1B4F82463DFF80CC3C6F30426CCF821
:106720000060DEB2062E06D1032904D1DFF8FCC2D8
:10673000BD4ECCF87460461C06D084464FEA020673
:10674000BCF1060F04D013E003F0FF0C0E46F7E790
:10675000032E05D0042E03D0052E01D0062E07D11E
:10676000D4F84462DFF8C8C2C6F34236CCF8006001
:10677000DEB2062E08D1032906D1AE4ED6F800C0EF
:106780002CF0807CC6F800C0461C05D08446164616
:10679000BCF1060F04D014E003F0FF0C0E46F7E73F
:1067A000032E05D0042E03D0052E01D0062E08D1CD
:1067B0004FF08046C6F80C51C6F810519C4E361F5B
:1067C0003560DEB2062E08D1032906D1DFF860C29B
:1067D00003260CF1640CCCF80060DEB2062E11D159
:1067E00003290FD1DFF850C20526CCF80060924E85
:1067F00078363760904E083635600CF1040C3F2631
:10680000CCF80060461C05D084461646BCF1060F45
:1068100004D087E003F0FF0C0E46F7E7032E7CD090
:10682000042E7FD0052E01D0062E7BD1834E3668F4
:10683000DFF80CC2CCF80060804E361D36680CF1D3
:10684000040CCCF800607D4E083636680CF1040C60
:10685000CCF80060794E0C3636680CF1040CCCF89C
:106860000060764E103636680CF1040CCCF80060EF
:10687000724E143636680CF1040CCCF800606F4E82
:1068800018363668DFF8B8C10CF1200CCCF800607F
:106890006A4E1C3636680CF1040CCCF80060674E6A
:1068A000203636680CF1040CCCF80060634E2436B8
:1068B00036680CF1040CCCF80060604E283636685F
:1068C0000CF1040CCCF800605C4E2C3636680CF1F0
:1068D000040CCCF80060594E30363668DFF860C1E1
:1068E0000CF1400CCCF80060544E343636680CF194
:1068F000040CCCF80060514E383636680CF1040CAC
:10690000CCF800604D4E3C3636680CF1040CCCF8E7
:1069100000604A4E4036366800E003E00CF1040C9B
:10692000CCF80060461C05D084461646BCF1060F24
:1069300004D011E003F0FF0C0E46F7E7032E05D05C
:10694000042E03D0052E01D0062E05D1D4F85842CE
:106950003C4E04F04F043460441C04D003461146FE
:10696000062B02D010E0DBB2FAE7032905D0042998
:1069700003D0052901D0062906D133490B68DB076E
:1069800002D06FF001030B6006280CD1032A0AD055
:10699000042A08D0052A06D0062A04D12B4801680B
:1069A00041F48061016023487438016841F470014A
:1069B0000160BFF34F8FBFF36F8F4FF01021D1F8FD
:1069C0000002002803DBD1F80402002822DA204A62
:1069D000176020480368002BFCD01523C1F8003253
:1069E0000468002CFCD0C1F8043201680029FCD0F6
:1069F000156001680029FCD0BFF34F8F0D48F038B7
:106A00000168154A01F4E06111430160BFF34F8F43
:106A100000BFFDE7124911480860F0BDE00F00F02B
:106A2000E80F00F0403501400DF0ADBA00C007405E
:106A30003C050040FCED00E010560040040400104E
:106A400020C50040E40E0040000400403C17004018
:106A500004E5014000E401400400FA050090D00381
:106A60006C24002001480068004700004C230020EF
:106A700002E008C8121F08C1002AFAD17047704707
:106A8000002001E001C1121F002AFBD17047000065
:106A90000121202803DA81400548014003E0402815
:106AA00002DA2038814009B1012070470020704788
:106AB000FC06FFBD2DE9F843804643F2020659B9B2
:106AC000694607F0C9FAB04202D008B100F0C6F931
:106AD0009DF80000800744D40021404607F0C6FA24
:106AE00005003ED0112D3CD01F482049401AC70850
:106AF000022000EB07440D2D0AD00B2D1DD0B5420E
:106B00001FD11B4920464246BDE8F84305F012B9A3
:106B100020464246174905F00DF91321404676DF1D
:106B200000281ED005F03CFD024601B02046434639
:106B3000BDE8F04310A105F004B9204642461C49C7
:106B4000E2E7284605F02CFD0246012000EB074055
:106B5000434618A105F0F5F82846BDE8F84300F0D3
:106B60007DB9BDE8F88300005830030020300300F1
:106B7000C42103005021030073645F626C655F678A
:106B800061705F646973636F6E6E6563742829203A
:106B900072657475726E6564202573206F6E206354
:106BA0006F6E6E5F68616E646C652025642E0000F8
:106BB00010220300417373657274696E672E207032
:106BC0006D5F636F6E6E5F736563757265282920F4
:106BD00072657475726E6564202573206F6E206314
:106BE0006F6E6E5F68616E646C652025642E0000B8
:106BF00010B560B159B102780B785208B2EB530F5F
:106C000005D10622401C491CFFF75BFC08B100209F
:106C100010BD012010BD800701D000207047012069
:106C20007047C3688B4206D811440069491E8142EF
:106C300001D8012070470020704790F824000128F7
:106C400001D01F207047EE20704710B501220221AD
:106C5000002001F007FA08B1072810D1072202210D
:106C6000012001F0FFF908B1072808D100210A220C
:106C7000084601F0F7F908B1072800D1002010BD3F
:106C800010B560B10B480C49401AC008032101EB54
:106C900000400AA105F04AF807F064FF03E0032171
:106CA0000A4800F092FC002803D0BDE8104000F034
:106CB000D5B810BDC83003002030030045726173A1
:106CC0006520626F6E64732100000000C8240020FC
:106CD00070B58CB015460E4600236C46C3F10F010B
:106CE000415CE1545B1C102BF8D30D2104F1100022
:106CF000FFF7D5FB0020C0F10F02315C2244401C9D
:106D000011740328F7D3684646DF0020C0F10F0155
:106D1000214491F820102954401C0328F6D30CB0CC
:106D200070BD022001F0A8B80149C97800F010BE7A
:106D30001823002070B50024064D06E06868012184
:106D400010F8340005F0B4FC641C28788442F5D3B4
:106D5000002070BD58230020F8B516460C460546A5
:106D60000A2A01D20720F8BD05F09CFD18B905F0EC
:106D70005FFD0028F7D1134F102113487D603C7050
:106D8000BE60FFF78CFB0020C7E904000F4E0DE04A
:106D900005EBC4003168009181788DF8011000780E
:106DA0000B4A694605F0D4FC0028DCD1641EE4B22D
:106DB000EED2BDE8F84005480021064A001D00F06B
:106DC0005FB8000058230020002E0020C4150300E7
:106DD00095990200C188020072B605F051F800BF13
:106DE00004F088FE0028FBD111481249401AC4085B
:106DF000012000EB044010A104F098FF1148006846
:106E0000C00700D000BE022000EB04400EA104F039
:106E10008DFFBFF34F8F0B48E43801680E4A01F431
:106E2000E06111430160BFF34F8F00BFFDE7000039
:106E3000C830030020300300466174616C20657225
:106E4000726F7200F0ED00E053797374656D20721B
:106E500065736574000000000400FA050EB500219A
:106E60000091CDE901106A4644F20100FFF7B4FF3A
:106E70000EBD0000014801F08ABD0000782300200B
:106E80003AB100680129426100D00021016100206F
:106E9000704707207047000038B511480823582272
:106EA000416800910F49006803F02DFE002815D1BC
:106EB0000D4A69460D4801F06FFD04000ED1012115
:106EC0000A4801F0E4FD0123094A1946074801F088
:106ED00036FD0649012008390870204638BD0000FB
:106EE000CC150300202E002025F30200782300207B
:106EF000FFFF7F0070B50446007F0D4608B10020FB
:106F000070BDA26102F02CFD401941F10001C4E9FD
:106F10000201206900B125612146BDE870400020D2
:106F200009F00EBA014600200877012009F008BADE
:106F300030B5EFF3108172B60D4A9468012324B185
:106F40000370002900D162B630BD93604FF0E0239A
:106F5000D3F88051074C25401560C3F88041D3F821
:106F6000844154605A17C3F8842100220270E8E774
:106F7000782E0020FC06FFBD0B498A68002A11D03C
:106F800000280FD1EFF3108072B60B684FF0E022AB
:106F9000C2F800314B68C2F8043100228A60002830
:106FA00000D162B670470000782E00202DE9F04134
:106FB000064608680C46411C4FF0A0474FF00105FB
:106FC00006D005FA00F1C7F80815206804F044FC63
:106FD0006068411C02D0002104F024FC3168A069E3
:106FE000C1F82405607D227D31681043C1F86C052D
:106FF000D4E900123068C0F81425C0F80C15207DC3
:10700000012815D1A068411C02D0002104F00AFC1F
:10701000E068411C05D08540C7F80855E06804F0D9
:107020001BFCD4E902123068C0F80825C0F810151E
:10703000BDE8F0812DE9F041064608680C46411C88
:107040004FF0A0474FF0010506D005FA00F1C7F850
:107050000815206804F00AFC6068411C02D0002179
:1070600004F0E9FB3168A069C1F82405607D217D49
:1070700032680843C2F86C05D4E900123068C0F8E1
:107080000C15C0F81425207D012815D1A068411CDD
:1070900002D0002104F0CFFBE068411C05D0854000
:1070A000C7F80855E06804F0E1FBD4E90212306843
:1070B000C0F80825C0F81015BDE8F08103F09AB9B2
:1070C0002DE9F047814605884A484FF000088AB00C
:1070D00001784246284600F053FC99F80500400725
:1070E00001D4002176E005F58077B8B205AB012226
:1070F000072106F007FC04003F48404A4FF0010119
:10710000A0EB02004FEAD00001EB00460AD0204677
:1071100005F046FA024630462B46394904F011FE86
:10712000214629E0284602F0F9FE4FF6FF71044699
:1071300088422BD18A46069802F05AFE04465045F2
:1071400010D00146284602F0C9FE2846FFF7ECFDA4
:10715000E0B9284608F09CFB2846FFF7E5FD00282B
:10716000BFD013E006F0A4FD0446504508D13046D8
:1071700024A104F0DBFD0421284608F0B7FBB0E7AA
:107180000146284602F0AAFE4FF00108B8B2224696
:10719000072106F02FFC07001BD0862F1ED005F01C
:1071A000FFF9024630462B462349009404F0D1FDF6
:1071B0003946284608F09AFB0021484606F09AFA1C
:1071C000B8F1000F02D0204602F092FE0AB0BDE8EE
:1071D000F0870121484606F08DFAF7E71422174997
:1071E0006846FFF743F9ADF80250684601F070FEBB
:1071F000EFE7000018230020603003002030030078
:107200000C250300436F756C64206E6F7420616CF5
:107210006C6F63617465206E657720706565725F61
:10722000696420666F7220696E636F6D696E672096
:10723000626F6E642E0000002826030064150300B0
:107240002DE9FC47002517880646158090F82D008B
:107250001446894630B13A462146484600F0B6FB0E
:10726000051E09D1B0784FF00C0A18B32088C84623
:10727000001DB84202D95046BDE8FC87684679DF58
:107280000028F9D12088032108F80010208819214E
:10729000401C80B2208008F800102088401C80B27A
:1072A000208000EB0801BDF8000009F0CEFC218829
:1072B00008442080F0780222C8B1218896F9033072
:1072C00001F1030C4846BC45D5D8425421884FF003
:1072D000010C491C89B2218000F801C02188491C99
:1072E00089B2218009F801302088401C2080706814
:1072F000B8B1218890F9003001F1030C4846BC4533
:10730000B9D8425421880A22491C89B221804254AA
:107310002188491C89B2218009F801302088401C4D
:107320002080308950B1CDE900474B46062202212A
:1073300006F1080009F078FD051E9DD1308A50B194
:10734000CDE900474B460722032106F1100009F062
:107350006BFD051E90D1308B50B1CDE900474B46F7
:107360001522142106F1180009F05EFD051E83D1D7
:10737000306A30B13B462246494601F034F9051ED9
:10738000DBD1706A30B13B462246494603F096FA9B
:10739000051ED2D196F82C0038B13B46224649460C
:1073A000304608F0DFFB051EC7D1307838B13B46C8
:1073B00022464946304603F00FFB051EBDD1284644
:1073C0005AE718B504460020ADF8000013466A4697
:1073D000204600F006F8002802D0BDF80000204446
:1073E00018BD70B5E0B1DAB1002402E0045D2C44B0
:1073F000A4B2651C8D4206D21688A642F6D806199C
:1074000076789E42F2D18C420AD2A31C005D9BB2D8
:1074100000B1401E0004000C02D01C188C4201D99F
:10742000002070BD138070BD80F8301070472DE9CA
:10743000F0410D00044606D02CB195F87A000026E4
:10744000012803D006E00E20BDE8F08195F89800F1
:10745000012829D0D5F8A000042825D0D5F89C0013
:10746000042821D04FF00108A6702C2205F17801E4
:10747000201DFEF7FBFF84F83060D5F8A4006063A0
:10748000D5F8A800A0634FF6FF70A4F8240404F513
:107490008260C4F82004C4F82664A4F82A6484F83E
:1074A0002C64207810B104E00720CDE7FF2084F899
:1074B000540004F155072046C4F81074FFF7BDFBD3
:1074C000A4F8140404F2144239462846FFF7B8FE23
:1074D0000028B9D104F23120C4F818042046FFF77F
:1074E000ACFBA4F81C0404F21C4205F13C00D4F8E7
:1074F0001814FFF7A5FE0028A6D184F85180208B30
:10750000A4F8480084F83C80266484F850606069E0
:1075100000216064454604F13C02781E72DF0028B9
:1075200092D1257090E710B50288102A1BD0112A3D
:1075300020D0262A1DD1007A0C46012801D002282D
:1075400017D1A0780521401CB0FBF1F201FB12011C
:10755000204600F03AF800280BD0A16B002908D093
:10756000BDE810400847C27B012A02D18088A1F8FB
:10757000240410BD0C46002184F82E148088B4F831
:1075800024148842F5D120790028F2D10121DFE7C7
:1075900010B5044690F8540074DF012084F82E04DE
:1075A000002084F8300484F850000621204601F0C1
:1075B000C8FE002808D1A178204600F006F810B1D6
:1075C000A16B01B18847002010BD2DE9F05F044692
:1075D00000780F4698B1A7700025C4F82654A4F887
:1075E0002A5484F82C54A079012608B1012F09D01F
:1075F000E07980B1012F05D0022F03D00BE00820E5
:10760000BDE8F09F616B21B184F82D6408208847A4
:1076100001E084F82D5404F2274100200A5C0AB1ED
:10762000304603E0401C0628F8D300204FF0020843
:107630004FF0030B012F06D0022F0CD0032F0FD0D9
:10764000042F15D110E0A17929B194F8241011B9B3
:1076500008B130460DE0E17911B108B1404608E0CB
:10766000207A08B1584604E0607A08B1042000E0AE
:107670002846A070616B41B1032801D0042804D1D1
:10768000607910B194F82E0498B184F82F5404F165
:107690003C0018210746FEF702FF84F83C6004F125
:1076A0002C0006F037FC58B194F82C0084F85100F7
:1076B00008E084F8305484F82F6407208847E6E710
:1076C00084F8516094F8240058B104F1280006F0C1
:1076D00021FC20B194F8280084F8520001E084F8DD
:1076E000526084F85050A27804F2264104F5826971
:1076F0004FF0060A052A64D2DFE802F07C030F226D
:10770000420084F83160C4F82054C4E9101584F8AC
:107710003C808020A4F8480055E084F8318094F83B
:107720002420384612B10722027001E080F800B030
:10773000228A8281C4F820544160E168B96042E045
:107740006069B860208BB88194F824003D46002819
:10775000204602D084F83CA001E084F83C6009F0A7
:107760002FFB50B185F814800421204601F0E9FD7B
:1077700038BB052184F8311021E084F831B01EE0D7
:10778000E069B860208CB88194F824003D46002858
:10779000204602D084F83CA001E084F83C6009F067
:1077A0000FFB48B185F814800421204601F0C9FD83
:1077B00038B984F831A002E0042084F83100C4F81C
:1077C0002094A07878B13A4604F15400D4F82014FB
:1077D00072DF00287FF414AF94F8301094F854004E
:1077E00073DF0028F6D1616B11B194F8310088473E
:1077F000002005E784F83150F5E7000070B504007B
:1078000012D001461C221448FEF730FE1248134DD8
:107810000560206850B17ADF002806D12068016831
:1078200029604068686005E00E2070BD0B487BDF72
:107830000028FAD108484FF6FF711438084A20F89A
:10784000041B0549343901600021FFF719FB0028AA
:10785000EBD0032070BD0000A4290020702200207E
:10786000590D030010B5044600F0A6F8002805D015
:107870002146BDE81040024803F0C4B910BD000025
:10788000D029002070B515460E46044609F0A4FA2A
:10789000002809D0054800EB8400C0692A4631461B
:1078A000BDE8704001F07ABD70BD0000C029002025
:1078B00010B5044600F080F8002805D02146BDE848
:1078C0001040024803F09EB910BD0000D8290020E6
:1078D00010B5044600F070F8002805D02146BDE838
:1078E0001040024803F08EB910BD0000D4290020DA
:1078F00070B50546002400F05FF838B12946044809
:1079000003F080F908B1022400E00124204670BD94
:10791000CC29002070B50546002400F04DF838B1A0
:107920002946044803F06EF908B1022400E001245E
:10793000204670BDC829002010B51821034803F067
:107940003CF9182800D0C0B210BD0000C0290020AA
:1079500070B505460C46084609F03EFA60B1284667
:1079600000F02AF840B10548294600EB8400BDE844
:1079700070401C3003F046B9002070BDC0290020C3
:1079800070B5054616460C46084609F025FA00284B
:107990000ED0284600F010F8002809D005483246DD
:1079A00000EB84002946BDE870401C3001F0C4BCE7
:1079B00070BD0000C0290020142801D300207047AA
:1079C0000146014803F01EB9C42900207CB50546D4
:1079D00008880C460930904201D90C207CBD6846CD
:1079E0006DDF0028FAD121880820685420881B21E7
:1079F000401C80B2208029542088401C80B2208006
:107A00002844DDF801100160BDF805108180208850
:107A1000801D80B220809DF80010490800D001210F
:107A200029542088401C208000207CBD38B50446A5
:107A300001882848284A801AC008042202EB004026
:107A4000212933D012DC244A224B4FF00300A3EB50
:107A500002024FEAD20200EB0240102911D0112994
:107A600030D1BDE838401DA104F060B93B292AD0CF
:107A7000562927D11DA104F059F9A088132176DFDA
:107A80000EE020A104F052F9072000F00DFB08B130
:107A9000FFF7E4F91E48A18841801E4803F0DEF993
:107AA00000280FD0BDE83840FFF7D8B91AA104F07C
:107AB0003DF900200090A08869468FDF002801D0A2
:107AC000FFF7CCF938BD19A104F030F9A0881321D3
:107AD00076DFE5E7C83003002030030044697363B4
:107AE0006F6E6E65637465642E00000047415454E8
:107AF000205365727665722054696D656F75742EBA
:107B000000000000436F6E6E65637465642E0000B4
:107B100050220020BC240020504859207570646118
:107B2000746520726571756573742E0047415454F5
:107B300020436C69656E742054696D656F75742E91
:107B40000000000010B51A4C0188606810290ED0A2
:107B500011292BD1401E606028D1FFF776F800284C
:107B600024D02168002921D0BDE810400847D0B9B1
:107B700000210122084600F075FA08B107280FD14C
:107B800007220221012000F06DFA08B1072807D171
:107B900004220221002000F065FA20B1072802D05B
:107BA000216801B188476068401C606010BD00001A
:107BB000682200202DE9F04701883B4E40F2F3197E
:107BC0004FF6FF7510291BD011293ED0122954D031
:107BD000502946D1C188F289841D914241D16189E1
:107BE00002293ED18688304602F046FA050038D098
:107BF00004F10C0000F0FCF8A8B3294630464EE032
:107C0000C17B8788044601292BD1A846284602F06B
:107C100033FA050017D02F800020287223484346EE
:107C20004A460168C5F80A104068C5F80E0004F11C
:107C3000100105F10A0002F0E3FA6872F0890028E9
:107C40000FD129462AE0042013E0808802F014FABC
:107C5000040006D06068FFF765F908B107F02AFE56
:107C60002580BDE8F087FFE76868FFF75BF900282B
:107C7000F7D0BDE8F04707F01DBE878806463846B6
:107C800002F0FAF90400ECD02B464A4606F108014E
:107C900004F10A0002F0B4FA607221463846BDE8E9
:107CA000F04700F0E7BC0000A4290020702200206B
:107CB0002DE9F04F044686880188424897B08346F4
:107CC00010290CD0112950D0103019296AD01A2946
:107CD00074D1217A0C09042C4DD301224CE0394D8A
:107CE000083DA868C0430B9069680BA802F0AEFF7E
:107CF0000B990CA800F058FC2C220CA96846FEF742
:107D0000B5FB0027E946A84610E000BF09EB470095
:107D10005FF00005B0F804A008EB85005146001D97
:107D200002F030FF6D1C1E2DF6D37F1C0098B84268
:107D3000ECD8142E05D317B00420BDE8F04FFFF7A0
:107D40008DB83146584602F068FF314608F104000C
:107D500002F063FFE07B022830D117B03146BDE866
:107D6000F04F1848001D02F058BF17B03146BDE86B
:107D7000F04F02F007BF0022314601F0DDFA032C7C
:107D800001D3012200E000220E4831460C3001F000
:107D9000D3FA022C01D3012200E000220948314627
:107DA000083006E0217A002908D1617AC1F3C002C7
:107DB000314617B0BDE8F04F01F0BEBA17B0BDE8CC
:107DC000F08F0000C829002010B50446074800784D
:107DD00000280AD0204601F07DFF204607F01AFF58
:107DE0002046BDE8104001F0F7BB10BDA8220020DE
:107DF000007800F0010070470149085C70470000FE
:107E0000FA1303000649095C4FF0A040D0F81005B2
:107E1000C84010F0010000D0012080F00100704740
:107E2000FA1303002DE9FC410646C0074FF0000598
:107E30000ED0104F00240122385D0095002311461A
:107E4000019503F083FC641C042CF4D300F046F885
:107E5000B0070DD5074E0024361D0022305D0323E8
:107E600000951146019503F071FC641C042CF4D3B9
:107E7000BDE8FC81F613030007490B5C4FF0A041FD
:107E8000D1F804250120984020EA0203C1F8083502
:107E90001040C1F80C057047F61303000249085C56
:107EA000012103F02BBD0000F61303000249085C1A
:107EB000002103F023BD0000F61303000649095C0E
:107EC0004FF0A040D0F80405C84010F0010000D0E9
:107ED000012080F001007047F613030010B5002464
:107EE0002046FFF7DBFF641C042CF9D310BD10B54E
:107EF00000242046FFF7DAFF641C042CF9D310BDE0
:107F000010B50246064B4FF0FF3000215C5C9442F6
:107F100001D1084610BD491C0429F7D310BD00004B
:107F2000FA13030070B50C4E0C004FF000053060E2
:107F30000BD0012000F06AF808B1022004E0002014
:107F400000F064F800B10B202070706810B9FEF7E3
:107F50007CFE0546284670BD6822002010B5002032
:107F600000F0DCF908B1062806D1012000F0D6F9AE
:107F700008B1062800D1002010BD00002DE9F0470F
:107F80000D468146FFF7BCFF0446042836D2DFF8D1
:107F900074801B481C4EA8F10C0725B3012D0ED090
:107FA000022D2BD104EB440030444578002D25D020
:107FB000B968002922D02846BDE8F047084704EBFD
:107FC0004401755C0E44717849B10E4A4FF480410A
:107FD000093A8068FEF78EFF08B987F80390B178F8
:107FE00008F80410E2E78068FEF79CFF04EB440108
:107FF000314418F804008D78A842D7D0BDE8F08746
:10800000001403006422002040290020042801D22B
:10801000FFF7F8BE002070470146104810B54088B1
:10802000042907D007290ED00A2915D1BDE8104030
:1080300007F0DCBD132176DF0CE000280CD0BDE892
:108040001040FEF70BBFA0F57F41FF3904D1044873
:10805000FFF79EFA0828F0D110BD00005022002042
:10806000C824002070B50023042810D20D4D00EB69
:108070004004012A02D101290CD00022094E00EB54
:108080004000304461B1012906D0022906D00723FF
:10809000184670BD0E30C2B22A55F9E74270F7E7B4
:1080A0008270F5E740290020044A01460020127939
:1080B000D20702D0084600F04DB870475822002081
:1080C00070B506461E480024C0E90161B00720D5FE
:1080D0000025012211462846FFF7C4FF6D1C044607
:1080E000042D02D2002CF4D013E094B940F23332C4
:1080F00004211448FEF730FE04000AD1FEF71AFEF0
:10810000040006D10F48104A0021001FFEF7B8FEF8
:108110000446F00712D00120FFF784FE74B9094825
:108120000A4A00210C38FEF7ABFE040006D10548D0
:10813000074A01210838FEF7A3FE0446204670BD19
:10814000582200200C1403002984020095A202008A
:10815000236D02002DE9F05F6E4C05460026607825
:10816000B34618B184F801B002F07CF86A4F4FF4BE
:108170007A694FF4C87A4FF00108182D69D2DFE808
:1081800005F00C1313384754696E727B727BC584FB
:1081900084848484B3B6B9BCC5C502F063F838687A
:1081A000FEF7C0FE06465CE00020FFF787FE0028D1
:1081B0004FF0000008D0FFF771FE022D02D14FF4FE
:1081C000E16008E0484606E0FFF770FE022D01D1AD
:1081D000C82000E05046410CC0034FF47A7280186A
:1081E00041F10001257052000023FEF7FBF8014623
:1081F0002AE00020FFF762FE00284FF0000004D0C4
:10820000FFF74CFE4FF44870E5E7FFF74FFEDFE75E
:108210000020FFF753FE00284FF0000002D0FFF7C8
:108220003DFECFE7FFF742FED4E70020FFF746FE12
:1082300000284FF0000002D0FFF730FE01E0FFF70A
:1082400035FE257040F6CD4100223868FEF752FE1B
:10825000064646E00020FFF70FFE257008E00020EC
:1082600051E025703DE084F801800120FFF704FE15
:10827000002240F26661E8E784F801800120FFF700
:10828000FBFD00224FF40051DFE77868FEF74AFE5D
:108290000646D5F1110000D02EB10220FFF7FEFDF9
:1082A00084F802B01DE0012816D980B2C8214843E5
:1082B000C117C90341EA5041C0034FF47A728018D4
:1082C00041F1000152000023FEF78CF80146002224
:1082D0007868FEF70FFE06460220FFF7E7FD84F8F8
:1082E00002803046BDE8F09F01F0BCFFB9E701F025
:1082F000B9FFB4E701F0B6FF04E001F0B3FF0020DE
:10830000FFF7D4FD0120FFF7D1FDAAE7FFF7EFFD4E
:10831000A7E700005822002000140300012108F004
:10832000EABD00002DE9F84F0546861C00208DF8B7
:10833000000091460F464FF0010A6846FEF7F8FD2F
:108340001B4C04F21C4860683860D4E90101194FE5
:10835000401A3968081A0EE00121404602F070FC0C
:1083600002F02AF90146404602F06AFCD4E9010114
:10837000401A3968081A401C8642EDD8B9F1000F3E
:1083800003D0052065F3891002E0062065F39F50B5
:1083900061683A68114004EB8101C860606830444C
:1083A00060609DF80000FEF7E7FD5046BDE8F88FDD
:1083B000C83100200024002070B50D4604460A296B
:1083C00002D10D21FFF7F8FFA0682268411CA160CF
:1083D0001554D4E90101814204D32046BDE8704020
:1083E00002F079BE70BD0000044881684068814297
:1083F00001D101207047002070470000C8310020E3
:10840000034630B5074800210478426806E000BF03
:1084100002EBC10005789D4203D0491CA142F7DB65
:10842000002030BD5823002000780221FFF7A6BDB0
:108430001CB5044601F072FD00236A46092105F0CF
:10844000A3FB052805D10348012241792046FFF707
:1084500097FA1CBD782200201CB50446002000902D
:1084600042F6A620ADF8000001208DF80200084871
:1084700001AA6946006801902046A0DF002805D1C6
:108480000448012281792046FFF77AFA1CBD0000DA
:108490002C1403007822002005494FF0FF320828F1
:1084A00041F8202002D3084480F84820704700009B
:1084B000342D0020F0B54FF0FF3512B1002308260F
:1084C00001E008230C260C4C05E000BF54F8237093
:1084D0007F1C04D05B1CB342F8D32846F0BD26189D
:1084E0005DB286F8305044F82310002AF5D1E11827
:1084F00081F84800F1E70000342D002002490844CB
:1085000090F9300070470000342D002070B504460B
:108510004FF6FF750A462846AC4209D14FF48074E5
:108520002146104602F049FB80B2A0420BD070BD3C
:10853000FF2CFCD82146104602F02FFB90F0010FD3
:1085400001D0204670BD284670BD000070B5084CB3
:10855000050009D010342168002907D00868206080
:10856000496828468847F6E70834F4E770BD0000FC
:10857000202D0020054A012120B1012805D191704C
:10858000FFF7E4BF51700020FAE77047202D00206C
:1085900010B5D0E90234D1E90220D11AA04101D3AB
:1085A000012010BD002010BD73B58CB00646002020
:1085B00000900D9880B100246D4621460DA802F070
:1085C00021FB30B1009805EB400084800098401CEE
:1085D0000090641C142CF0D32C2269463046FDF721
:1085E00045FF0EB070BD2DE9F04117880646B81D55
:1085F00014460D46984202D90C20BDE8F08131881E
:10860000072206290AD34FF4486C4FF6FF736145E1
:1086100001D9994202D17088062801D21046ECE7B0
:10862000604501D99842F9D1994203D0984201D0CE
:108630008142F3D80520E85520881221401C80B2E1
:10864000208029542088401C80B220804119308825
:1086500008F0FBFA2188084480B220804119708814
:1086600008F0F3FA2188084420800020C5E7FEF7CF
:10867000F5BB000038B54A7A0F4B62B100220A728E
:108680005969002906D001228DF80020ADF80200BA
:108690006846884738BD0A7A62B19B684C680246D2
:1086A00019462046FEF726FC0028F3D0BDE83840E6
:1086B00007F000B95B68F1E7A4290020F0B585B0A8
:1086C00016460F4604461D4614220B496846FDF720
:1086D000CDFE0A488DF80870ADF80240ADF80A608A
:1086E0008DF80C50017800222046FFF749F96846C2
:1086F00000F0EEFB05B0F0BD781503001823002054
:10870000FEF7D8B9F0B50C4606461E481E4987B09C
:10871000401AC708042000EB0740334622461BA13D
:1087200003F00FFB002004900590ADF8104001907D
:108730000290ADF8124001AA04A9304690DF05006E
:108740001DD003F02DFF0346012000EB0740044637
:1087500032461A4903F0F5FABDF8042012B9BDF803
:10876000060028B1BDF80630204615A103F0E9FA4D
:10877000BDF808201AB12046214903F0DBFA07B002
:108780002846F0BD38300300203003005570646186
:1087900074696E672064617461206C656E677468CB
:1087A00020746F202575206F6E20636F6E6E656379
:1087B00074696F6E20307825782E0000301D03001C
:1087C00054686520726571756573746564205458CA
:1087D0002F5258207061636B6574206C656E6774EE
:1087E0006820697320746F6F206C6F6E67206279E8
:1087F0002025752F2575206F63746574732E000016
:108800007C1D030070B504460948012102F033FACB
:10881000BFF35F8F0025002808D1204601F046FEF7
:10882000002803D1BFF35F8F0148056070BD0000D1
:10883000842200202DE9FF410C4620B14FF4064070
:1088400004B0BDE8F0812079002748F2096538B10D
:1088500041F61D5601281BD0022826D0681DEFE7DF
:108860000220207102970397E0680190694601A8F1
:1088700006F06EFC50B102988188E180008820816A
:10888000BDF80010029806F0E1FCD9E72846D7E7CA
:108890000A4B6A460021A01D06F012FC38B10749B8
:1088A00018398F61CF61A842CAD13046C8E7034862
:1088B0008188019806F0CAFCF5E70000B823002083
:1088C00070B500240F4D10E0686800EBC4063078E6
:1088D00003F0A4FF7178012901D0012100E00021FB
:1088E0004140307800F048FA641C28788442EBDB81
:1088F000D5E90401084303D0BDE8704007F03CBD52
:1089000070BD00005823002010B50021024802F07D
:10891000B2F980F3100010BDE43500204FF480322E
:108920008A400168C1F848230068C0F808237047EE
:108930004FF4A07202EB810189B200F08DBA2DE9EB
:10894000F04105460E464FF4A07000EB860081B260
:1089500028684FF48034B440984622F07F47C0F82E
:1089600008432868C0F84843286803F0ADFB28682E
:1089700000EB8600C0F840752868C0F84443B8F1A1
:10898000000F02D02868C0F80443BDE8F0810068F9
:10899000D0F804057047000070B54379234C44F8C3
:1089A00023204279231D03EBC202224C1579204A71
:1089B000121BD4082DB10825022000EB04401EA193
:1089C00030E005680A88C5F8082590F90420897800
:1089D000002A4FEA411104DB02F1E02282F8001480
:1089E00005E002F00F0202F1E02282F8141D90F976
:1089F00004100122002909DB01F01F0502FA05F528
:108A00004909890001F1E021C1F8005141790025AF
:108A100003EBC1010A71417943F83100032000EBF7
:108A200004400EA103F082F9284670BD9423002073
:108A3000A83003002030030052544320696E737441
:108A4000616E636520616C726561647920696E692D
:108A50007469616C697A65642E0000005254433A6F
:108A600020696E697469616C697A65642E00000022
:108A700090F90400002809DB00F01F020121914059
:108A80004009800000F1E020C0F8001270470A465B
:108A9000022100F067B94FF4827100F0DDB900687F
:108AA00001210160704700680121416070472DE994
:108AB000F05F07460C464FF4A07000EB84001FFAED
:108AC00080FA38684FF48036A6409B4622F07F45F6
:108AD000C0F848633868C0F808633868D0F804857F
:108AE00000EB8402D2F84095C2F8408551463868C0
:108AF00003F0EAFAA9EB080020F07F40012806D134
:108B0000102003F0C5FD5146386803F0DDFA3868DF
:108B1000D0F80485C0F84463A5EB080121F07F413B
:108B20003868012900EB840010D0C0F8405538683F
:108B3000D0F804156FF07F4C6A1A521E22F07F4263
:108B4000ACEB0B03934217D362B118E06D1CC0F875
:108B50004055102003F09CFD3868D0F804054045CE
:108B60000AD10CE000EB84006D1CC0F84055386859
:108B7000D0F80405884202D00D20BDE8F09F012204
:108B80003146384600F0EEF80020F6E713460A4674
:108B90000021FFF793BD00002DE9F843104D0F466B
:108BA00080461E4691466946286801F0BFFF0400D2
:108BB00014D01C21FDF773FC01202071C4F814901F
:108BC000380BC4F80080C4E902606946286801F0E7
:108BD000CEFF06F0DFF90020BDE8F8830420FBE7B4
:108BE0007016030010B503780022072B06D2DFE8C9
:108BF00003F005040610202930000A7010BD01237F
:108C00000B7003898B818388CB81C06888600A746C
:108C100010BD02220A7002898A818288CA81C268D4
:108C20008A60807D062802D00020087410BD0120D3
:108C3000FBE703220A70C2888A810289CA81C06860
:108C4000886010BD04230B70C0888881CA818A6047
:108C500010BD0520087010BD70B5064D06460024F5
:108C600055F8241009B130468847641C042CF7D30A
:108C700070BD0000A02E002030B50446006887B00B
:108C80000D46806800281FD018216846FDF707FCB4
:108C90000195A0680590207910B1012810D107E056
:108CA00001208DF8000020690290E068039005E043
:108CB00002208DF80000E0680003029060690490D3
:108CC000206881686846884707B030BDF0B585B038
:108CD00017460C0005463AD0112C38D0082C36D057
:108CE0001C481D49401AC6080D2C11D0204603F01F
:108CF00057FC0246012000EB06402B46174903F0C3
:108D000020F82A460721684601F0C4FE02941BE0C1
:108D1000022000EB06402A46114903F00BF82A46D0
:108D20000321684601F0B6FE27B13878C00701D0AC
:108D3000012000E002208DF8080000208DF80C00D2
:108D400041F20110ADF80A00684600F0CFF805B016
:108D5000F0BD00006830030020300300F42703005A
:108D6000E42603000368C3F84413002A02D0006815
:108D7000C0F80413704700002DE9F84F0E4634493F
:108D8000804601EB5001C007097801D00F0901E0CE
:108D900001F00F074FF00009424601204946FDF758
:108DA00052FBDFF8B0A004460D46052F4ED2DFE897
:108DB00007F003161B282C00002E47D00121404647
:108DC00007F0BEF98DF800906846FEF7B1F85046FE
:108DD000D0E904120C431543CAE9044532E00EB150
:108DE000022114E0002112E04EB10321404607F0B9
:108DF000A7F94046BDE8F84F012108F005B8012168
:108E000005E0002E22D1042101E02EB103214046CD
:108E1000BDE8F84F07F094B90021404607F090F9FB
:108E20000021404607F0F0FF8DF800906846FEF7FD
:108E30007FF85046E243D0E904341A4024EA0501A1
:108E4000CAE904219DF80000FEF796F8BDE8F88F06
:108E5000002E00205823002010B5006842581AB197
:108E600003F032F9012010BD002010BD10B50446FA
:108E7000408801F053F8A080024801682046BDE810
:108E8000104008478022002010B50446808800F07A
:108E90008FFF6080024801682046BDE81040084707
:108EA000902200202DE9F04107460024064E074D90
:108EB00005E000BF56F8241038468847641CE8785F
:108EC0008442F7DBBDE8F081D42C0020A8220020EA
:108ED00010B50446408801F021F8A08002480168DE
:108EE0002046BDE8104008473815030001490968CD
:108EF00008470000B415030070B586B0044614217D
:108F00006846FDF7CCFAA0890125A0F54040ADF8F0
:108F1000040020782F4E062833D2DFE800F0320319
:108F200003032C4AA08900F0EBF930B9E08943F63D
:108F3000FE71A0F54040884223D8A07B8DF8080040
:108F4000207803280FD000208DF80900A068039036
:108F5000606850B109208DF8000060680490684690
:108F600004F064FD0DE00120EEE708208DF800001C
:108F70008DF81050F3E7A08900F0C2F908B1E0893C
:108F800030B17078002801D004F0A4FE06B070BDA6
:108F9000606830B10B208DF8000060680290757039
:108FA000DDE70A208DF80000BDF8040004F036FF6C
:108FB000F5E7606848B114208DF800006068029001
:108FC0004FF6FF70ADF80400C9E713208DF80000DC
:108FD000F6E700009422002038B504460F480078D8
:108FE000B0B1A4F57F40FF380FD0684605F002FF0E
:108FF00088B10521017001210171C480684605F026
:1090000007FF05F0B9FF002038BD48F2036038BD06
:1090100048F2016038BD48F2076038BDC023002027
:109020000D4808B5007888B1684605F0E3FE80B1C8
:1090300006210170684605F0EBFE0848017809B189
:109040000121017305F098FF002008BD48F201607E
:1090500008BD48F2076008BDC0230020642F00202F
:10906000F0B587B014216846FDF719FA304C207826
:1090700018B16846FFF7F0FD57E0201D01F0DDFD57
:1090800098BB40F6F8700168481C02D14FF01020E0
:1090900041694FF08050026940694B1C01D100FBCF
:1090A00002F1244800220161A1F54051C16022492A
:1090B00002F0A6F9002823D121481C238C221F4945
:1090C000006801F020FD04F03DFA050016D0022DE5
:1090D00014D000270126062D14D005A805F08AFE1D
:1090E00098B106700C2D1BD200E01EE0DFE805F001
:1090F00018101810181718171812141248F20A60CE
:1091000007B0F0BD26706760B3E748F20760F7E785
:10911000077105E0032100E00221017100E0067102
:1091200005A805F075FE05F027FF0020E8E7000020
:10913000C02300207024002080160300B02E0020E1
:10914000E815030038B5040014D0694606F000F8AD
:10915000B0B1BDF8000000EB80010B4800EB8100CE
:10916000C16851B1A17A41B1C168491EC1600020F6
:10917000A07238BD48F2046038BD48F2056038BDC1
:1091800048F2096038BD00003C2F00201FB501A93E
:10919000684605F095FF04B010BD07B513460A46B2
:1091A0006946002005F08CFF0EBD07B513460A4640
:1091B0000021684605F084FF0EBD20B119B100689A
:1091C00008600020704748F204607047F8B50D460B
:1091D000040018D0BDB1694605F0BAFFB0B1BDF8C2
:1091E00000000C4900EB800001EB800001210C30F5
:1091F000666801F025FD2E6060680C306860012013
:10920000A0720020F8BD48F20460F8BD48F2096081
:10921000F8BD00003C2F002018B10323002207F006
:10922000ADBF48F2046070470223002207F0A6BFDA
:10923000094910B50A69042A0AD0084A096942F89E
:10924000210005480121103001F0FAFC002010BD7A
:1092500048F20B6010BD0000A0230020A02E0020CB
:109260002DE9F84F044624480078D8B1F4B1122112
:109270002046FDF714F90320DFF8809020800025B8
:1092800004F1100804F10E0A05EB850109EB8106D3
:1092900030897189084487B2706804F0DDF80328CA
:1092A00007D009E048F20160BDE8F88F48F2046099
:1092B000FAE72088401E20806088F16808446080BA
:1092C0002089718908442081608938446081C7F50C
:1092D0008060A18980B2814200D2A0815346A21D44
:1092E000211D2846CDF8008005F0CEFF6D1CADB2E3
:1092F000022DC9D30020D7E7C02300203C2F002037
:1093000043F6FE71A0F54040884201D80120704725
:109310000020704710B504460078182802D1FEF7E7
:109320000BFB207010BD10B504460078182802D140
:10933000FEF702FB207010BD0AB101F06EBC01F017
:1093400021BC70B50D460446B0F81414D0F81004D2
:109350000122FEF736F800B1057004F13C0204F575
:10936000826104F1540072DF70BD000070B51346D5
:1093700000220546112900D10122074C33B1217981
:10938000FEF7FEFA00226178284600E06178BDE829
:109390007040FEF7F5BA000020230020F7B517460D
:1093A0000E0011D00098002560B1002421466846C7
:1093B00001F028FC18B1A0B23946B0476D1C641CFE
:1093C000142CF3D32846FEBD0020FEBD406805F0F6
:1093D00031BD000070B510B14FF4064070BD1C4C9B
:1093E0000025207B08B1257301E000F0A5F8207866
:1093F00008282AD2DFE800F02904080C10291422DA
:10940000BDE8704000F026B8BDE8704000F082B8BA
:10941000BDE8704000F064B8BDE8704000F040B8AE
:109420000620207060880A4900EB8000283901EB93
:1094300080004068BDE8704004F064B807202070E8
:109440006560BDE8704004F06BB848F20E6070BD16
:10945000642F00201149F0B48A1C00200346A1F1BA
:1094600028050C18A67A4EB1A37200EB800405EB18
:109470008404E66816B9247C012C0AD0401C80B212
:109480000228EED30B704B804B60F0BC41F61D50B0
:1094900070471080F0BC00F03DB80000642F002041
:1094A0000C48418801EB8102A0F1280101EB820107
:1094B000CA6852B105210170074802218180016804
:1094C00000230122054801F0FFBE04220270496812
:1094D000F6E70000642F0020C8230020702400203D
:1094E00038B50A49084803240B684268898803EBA9
:1094F000810153880470DB1C00201B0400909B0B2F
:10950000034802F035F838BD642F0020C82300203E
:1095100070240020074910B54888091D05F068FE31
:1095200018B1BDE81040FFF7DBBFBDE81040FFF702
:10953000B7BF0000642F002070B5194C01212078BE
:1095400008281AD2DFE800F00419191C2529291867
:109550002089134A401C2081002060802073283A13
:1095600000EB800312F8233043B100232518401C80
:1095700080B2AB720228F3D3217070BD0123F5E7EE
:109580006068084940888A88C01C1044888002208E
:1095900004E000F009F8062000E00720207070BD0C
:1095A000642F0020C82300200A490948498802681E
:1095B00001EB81030749283901EB83014B68036004
:1095C0004A6082880A8102228280002008747047E3
:1095D000C8230020642F00202DE9F0430646808830
:1095E0003288DFF85C8185B00746502A37D010DC1E
:1095F0005449554B06F10A05A1EB03014FEAD1018D
:109600004FF0020303EB0144352A3AD0362A07D142
:1096100068E0522A02D0542AF9D102E000F0EAFEB2
:1096200082E0142249496846FCF720FFADF8027039
:10963000384600F073FCADF8040000F0C9F90022D0
:10964000444698F804103846FEF79AF90022E1786B
:109650003846FEF795F96846FFF708FC64E0307B72
:10966000012861D1B07A01285ED13089A0F524515A
:10967000023959D10121384600F010FF07F054FBA0
:1096800052E098F80610FEF763F900284CD000224B
:1096900098F806103846FEF773F9F288B2F5857F20
:1096A00017D012B120462AA10BE02A88012A03D044
:1096B000204636A102F03EFB6A88012A04D02046EB
:1096C00041A102F037FB04E0A98800223846A1DF5F
:1096D00008B1002125E0012298F807103846FEF76E
:1096E0004FF921E04FF0000998F80710FEF730F924
:1096F000D0B1002298F807103846FEF741F9F288F9
:1097000012B1204612A104E0AA88012A04D0204602
:109710002DA102F00FFB03E0A87900B101208146E2
:109720004946384606F06EFD0022364998F8020098
:10973000FEF7A8F805B0BDE8F04306F00BB900004D
:10974000782200202030030020300300841403001E
:10975000556E657870656374656420474154542084
:10976000737461747573207768696C6520676574BC
:1097700074696E672043415220636861722076618C
:109780006C75653A20307825780000004D756C7452
:1097900069706C6520282564292043415220636844
:1097A0006172616374657269737469637320666F53
:1097B000756E642C207573696E6720746865206609
:1097C000697273742E000000556E6578706563745D
:1097D00065642043415220636861726163746572FD
:1097E00069737469632076616C7565206C656E675A
:1097F000746820282564292C2073746F72652030CA
:109800002E000000BD70020070B5044600780028EC
:1098100014D1608800F0EEFD6588284600F09AF9C2
:1098200028B107480122C1782846FEF7A9F86088C8
:10983000FEF7FEFDBDE8704007F076BA70BD00008F
:109840007822002070B5204C00252570FEF774F8B2
:109850006070FEF771F8A070FEF76EF8E070FEF72A
:109860006BF82071FEF768F86071FEF765F8A0717B
:10987000FEF762F8E07162780121182A18D0A27808
:10988000182A15D0E278182A12D02279182A0FD077
:109890006279182A0CD0A279182A09D0182807D082
:1098A00004F10C000560BFF35F8F2170002070BDD4
:1098B0000648074A801AC00801EB0040054902F03B
:1098C00035FA032070BD000078220020203003000C
:1098D00020300300A81903007CB50446007808284E
:1098E00037D1607A58BB207A1C4E4FF6FF7501289D
:1098F00011D0072802D008282BD121E0A08800F041
:1099000057FA0446A84224D0012100F0C7FD2046A2
:10991000FEF78EFD1DE0A0886A46012103F0A8FF36
:1099200068B90198007850B1A08800F041FAA842C7
:109930000FD00122F178FEF723F806F00BF808E0CB
:10994000F068012805D1BFF35F8F044900200C3176
:109950000860BDE87C4007F0E7B9000078220020ED
:1099600010B50B48FFF713F8094A083AD2E9043456
:10997000C018D2E9063244F10001C31A71EB0202A9
:1099800004D24FF08072801841F1000110BD000038
:109990007823002010B5C0B2FEF732FD04460078EF
:1099A00002F03CFF01466078012801D0012000E070
:1099B000002090EA010F08D00449D1E904010843CE
:1099C00003D1BDE8104006F0D7BC10BD58230020DD
:1099D0001CB5054AD2E90212CDE9001200226946FF
:1099E00004F00CF91CBD00009C14030003484FF662
:1099F000FF718180012101700020704788220020C2
:109A00002DE9FC41804600F089FA00240325012756
:109A1000A0F57F412646FF3908D06A46082103F0A9
:109A200027FF18B90198841D8688056832462B46A1
:109A300021464046B1DF042804D0082804D00B2872
:109A400008D002E0112000E00020002F00D10B2000
:109A5000BDE8FC810027A80701D50125E6E73443CE
:109A600003D0002426460325E0E70648064942467F
:109A7000401AC008012101EB0040044902F05AF9E4
:109A8000E5E700002830030020300300701C0300CD
:109A90002DE9FC41804600F041FAA0F57F410646E1
:109AA000FF390ED001252A466D1C0027ADB26B464A
:109AB0000821304603F026FF040006D0072C33D0DF
:109AC00033E043F20200BDE8FC81019903230A1D43
:109AD0000B604046891DB2DF040004D00C2C09D075
:109AE000052C09D009E032460821104603F082FF18
:109AF00004461AE0012700E000240821304603F064
:109B00006FFF70B102F04CFD034609480949324627
:109B1000401AC008012101EB0040074902F011F989
:109B20000324002FBFD100E00C242046CBE7000027
:109B30002830030020300300F01B03000448808815
:109B4000A0F57F41FF3901D005F00EBF704700003E
:109B5000882200200EB502A9019100F0DFF96A46C3
:109B6000012103F085FE08B100200EBD01980078A8
:109B70000EBD00002DE9F04107464FF6FF76104874
:109B8000B3DF78B102F00CFD02460E480E49401AD0
:109B9000C008012101EB00400C4902F0CBF8032082
:109BA000BDE8F081064C43F20305A41E32466188ED
:109BB0003846AFDFA842F3D16088401C6080F5E7EB
:109BC0008A2200202830030020300300A41B030059
:109BD000428800EB82020C328A4201D9022070478F
:109BE0008188A1F57F42FF3A06D0018821B18068C3
:109BF000401C01D00020704701207047884204D2E9
:109C00000068401C01D00120704700207047000010
:109C10003EB50E4C8DF80800002525700120034646
:109C2000009002AA68210A4801F00DFA2078002865
:109C3000FCD02570012301AA6821054801F000FA33
:109C400020780028FCD09DF804003EBD5824002058
:109C5000DC1803003EB5027802230C46B3EB520F2A
:109C600017D1B0F80110ADF80010C1788DF80210CE
:109C70008188ADF8041080798DF8060002AA01A948
:109C80002046FDF725F8032202A96846FCF719FCD7
:109C900008B100203EBD01203EBD000070B50D465C
:109CA0000446142810D2FDF787FE68B1084904EB7A
:109CB000840001EB4000D0F802102960C188A9801F
:109CC000007AA871002070BD43F2020070BD000050
:109CD0003C2A002070B5018890B0102961D1011D87
:109CE0002C226846FCF7C2FB9DF804004FF6FF7675
:109CF00003213446B1EB500F2BD003F03DFF9DF80C
:109D000004006D4640080ED001280CD0022820D156
:109D100018E00D99281D1131FCF76AFF18B100BF3A
:109D2000BDF82C4015E00CAA0BA9072003F0F8FEA3
:109D30000028EED10DE00D99281D491CFFF78AFF80
:109D40000028EDD10CAA0BA9072003F0E9FE00289A
:109D5000F1D1BDF80000B44200EB8001124820F8B8
:109D6000114000EB41000199C0F80210BDF8081045
:109D7000C1809DF80A10017213D0BDF80000ADF843
:109D80002E000020ADF83040084E8DF82C000BADB1
:109D9000044600BF56F8241028468847641C022C4D
:109DA000F8D310B070BD00003C2A0020B0140300AE
:109DB0002DE9F0414FF6FF760546B04213D00B4F28
:109DC000002400BF04EB840037F81000A84206D13D
:109DD0002046FDF7F1FD10B12046BDE8F081641C7E
:109DE000A4B2142CEED33046F7E700003C2A002042
:109DF0003EB50C46054603F0BFFE0BE0BDF8000083
:109E0000A04207D02846029900F00EF810B1BDF824
:109E100000003EBD01AA6946072003F081FE00282C
:109E2000ECD14FF6FF703EBD2DE9F0410C460546E2
:109E300000F1110701F111061022491C401CFCF72A
:109E400040FB48B9681C00F0FDF928B1601C00F027
:109E5000F9F908B1012400E0002431463846FCF746
:109E6000C7FE3B780222B2EB530F0CD00321B1EBBB
:109E7000530F08D03378B2EB530F04D0B1EB530F2C
:109E800001D0012100E00021084201D18C4302D021
:109E90000120BDE8F0810020FBE7018811B94218DC
:109EA00092780AB101207047491C0829F7D3002095
:109EB000704710B50C460346FFF7EFFF00280AD0A5
:109EC00018882188884205D10822A11C981CFCF71B
:109ED000F8FA08B1002010BD012010BD142804D2EA
:109EE000024A00EB800022F8101070473C2A002044
:109EF00070B50546FFF75CFF0446284603F0BCFC3E
:109F0000002808D1142C06D2034B04EB84024FF630
:109F1000FF7123F8121070BD3C2A002010B50446D2
:109F2000142808D2FDF748FD28B1044904EB840049
:109F300031F8100010BD4FF6FF7010BD3C2A002014
:109F40003EB5044603F018FE0EE001992046463166
:109F5000FFF7AFFF28B9019920462A31FFF7A9FF83
:109F600010B1BDF808003EBD6A4602A9072003F003
:109F7000D7FD0028E9D14FF6FF703EBD10B50A4964
:109F800041600A4800F059FE58B902F069FA0749E1
:109F90001C238C22087404488C39001F006800F0D0
:109FA000B2FD002010BD0000741603001030002028
:109FB0002DE9F0412D4F002520B17D604FF4064082
:109FC000BDE8F0810879012258B1294E01280CD052
:109FD000264C4FF002080834022820D0032841D133
:109FE00027E00A7103F09CFA3AE0002000EB8001C0
:109FF00016F82110022908D0401C80B20228F5D39F
:10A000003A707D6041F61D50DAE700EB800006F8FB
:10A01000205006EB8000406803F074FA20E00D71D8
:10A02000A4F80480002301221248216801F04CF9B1
:10A0300016E00D71206803F065FA0D492368283198
:10A04000498801EB810206EB8201D1F804C0C4F813
:10A0500000C04B60A3880B81A4F8048006F822504E
:10A060000028ADD07D6048F20D60A9E7C023002034
:10A070003C2F0020702400200146034802888A42B9
:10A0800000D0002070470000902900202DE9FC5FDF
:10A090000E008346DDE90C47C6F100009846924663
:10A0A000814600D40846012503E000BF90FBFAF08A
:10A0B0006D1C5045FADAA84500D9454624B1002E5A
:10A0C00001DB780700D5641EB80702D5B8F1000F90
:10A0D0000AD0F80708D13CB1A54205D22021584644
:10A0E000641EFEF769F9F6E7002E02DA4E462D21CE
:10A0F00002E0780703D52B215846FEF75DF907F0FB
:10A10000030002280BD1B8F1000F08D13CB1A542E1
:10A1100005D230215846641EFEF74EF9F6E7CDE928
:10A120000047434652463146584606F0A3FDBDE877
:10A13000FC9F000070B50D46044600684FF488711E
:10A1400002F059FA4FF49071206802F054FA4FF47B
:10A150009271206802F04FFA4FF4A271206802F069
:10A160004AFA4FF4AC71206802F045FA20681249AF
:10A17000C0F804132068690740F30730090E00286F
:10A1800004DB00F1E02080F8001405E000F00F008F
:10A1900000F1E02080F8141D206840F3073000280B
:10A1A00009DB00F01F02012191404009800000F10D
:10A1B000E020C0F8001170BD1003420002460020EC
:10A1C0001268530713D502F00300012802D00228B9
:10A1D0000CD105E0C2F383100B68801C184404E026
:10A1E0000223086803EB9252104408600120704774
:10A1F0000248007A002800D001207047103000206B
:10A20000F0B58488A518944200D82246A41AC288C2
:10A21000D6189A4200D81346D21A4B880788BB42F8
:10A220000CD34088834209D88888A04206D3A8422C
:10A2300004D8C888904201D3B04201D90020F0BDB3
:10A240000120F0BD0021425C0AB101207047491C89
:10A250001029F8D300207047800701D000207047F4
:10A26000012070470A4810B5807860B1002401E0F1
:10A27000022C06D02046FDF711FE641C042CF7D3F7
:10A2800010BD0324F6E7BDE81040FDF727BE00002F
:10A290005822002003480179C90702D00078FDF751
:10A2A00059BF7047582200201721018041800021AA
:10A2B000017141711B218171C17170472DE9FE4F00
:10A2C0002E4F984692460D00814601D000260DE0A3
:10A2D000684600F0D5FB6A460021484603F024FAA0
:10A2E0003878009E10B99DF8090098B15246314661
:10A2F000484605F03DFE0446014600224846FFF769
:10A3000035F80D2C37D008DCA4B3082C33D00B2C37
:10A3100009D130E00520BDE8FE8F112C1ED0A4F538
:10A320004050023827D0204602F03AF9024614483D
:10A3300014494B46401AC008012101EB0040124964
:10A3400001F0FFFC5FF00305B8F1000F04D03246C6
:10A3500021464846FEF7BAFC2846DCE72A46F9784B
:10A360004846FDF70DFB5246B9784846FDF708FB15
:10A370000025E9E7FFE72546E6E700002023002067
:10A3800068300300203003009C27030070B50E46A0
:10A390000C49154604460978FDF7DAFA00280FD073
:10A3A000204603F067F900282A463146204603D0AC
:10A3B000BDE8704003F064B9BDE87040FEF7E6BB4D
:10A3C00070BD00001823002070B5094D0646A9781D
:10A3D000FDF7BEFA0446E9783046FDF7B9FA0146C2
:10A3E00022463046BDE870400123FFF767BF0000FA
:10A3F00020230020F0B585B00546002714216846CB
:10A40000FCF74DF8A5F57F40ADF80250FF3825D098
:10A410002846FFF7F5FA040022D01B481B49401AD2
:10A42000C6080B2C22D0112C1ED0A4F540500238A7
:10A430000ED0204602F0B4F80246012000EB0640A0
:10A440002B46134901F07DFC2146284605F03AFAD7
:10A4500010483A4681782846FDF792FA05B0F0BDDB
:10A460000E208DF800000BE00127F1E70F208DF89A
:10A470000000022000EB06402A46074901F05AFC82
:10A480006846FEF7F3FCE3E72030030020300300CA
:10A49000781A030078220020CC1A03000A460249E9
:10A4A0004978FDF76DBA0000782200202DE9F041CF
:10A4B000002786B080463E46FFF7EAFA040022D025
:10A4C000112C22D01B481C49401AC508862C1ED0CE
:10A4D000A4F5405002380ED0204602F061F8024642
:10A4E000012000EB0540434614A101F02AFC21465F
:10A4F000404605F0E7F939464046FFF7CFFF06B082
:10A500003046BDE8F0810126F5E70127F3E7142284
:10A510001A496846FBF7AAFF0220ADF8028000EB5B
:10A520000540424616A101F005FC6846FEF79EFC78
:10A53000E1E7000020300300203003006773636D03
:10A540005F6C6F63616C5F64625F63616368655FCA
:10A5500075706461746528292072657475726E6502
:10A560006420257320666F7220636F6E6E5F686172
:10A570006E646C653A202564000000005C140300E2
:10A58000466C6173682066756C6C2E20436F756C29
:10A5900064206E6F742073746F72652064617461DF
:10A5A00020666F7220636F6E6E5F68616E646C65AB
:10A5B0003A202564000000002DE9FF4100262448D0
:10A5C00000F038FB2248001F074600F033FB214C07
:10A5D0002149A06800900D6800E000986946284075
:10A5E00004EB80000C30FFF7E9FD0028F5D101AA4B
:10A5F000009901EA050304EB8303491CDB6842F878
:10A600002030401C00910228F2D3019800F0030092
:10A6100001280BD0022810D10198032101EB9050A2
:10A620000099BDF80A6001EB900005E00198BDF8C3
:10A630000A60C0F3831008440090384600F0F7FA2F
:10A6400008B10098A06004B03046BDE8F081000079
:10A65000E0350020C831002000240020ACB00620E6
:10A6600001F0F2F84FF0A04540200126C5F80C0596
:10A67000FBF7D4FF0020FFF7CBFA7B490870EA28EC
:10A68000FDD14FF48041002001F0CEFB08B1FCF772
:10A69000E5FB01F021FAFCF7FFFB08B1FCF7DEFB5C
:10A6A000724A01217248FCF7EBFB08B1FCF7D6FBBC
:10A6B00070490320FDF704FD08B1FCF7CFFB6946A4
:10A6C0000020FDF72FFC08B1FCF7C8FB9DF8000047
:10A6D00002287DD05FF0000701F0B0FC08B1FCF764
:10A6E000BDFB01F071FE08B1FCF7B8FB0024694620
:10A6F0000120009401F0F8FC08B1FCF7AFFB6846BC
:10A7000001F072FD08B1FCF7A9FB9DF808005AA101
:10A7100020F00F00401C20F0F00010308DF80800F1
:10A72000092202A87CDF08B1FCF798FB00941820EE
:10A73000ADF800000194ADF80200ADF804404FF40C
:10A74000C870ADF8060068467ADF08B1FCF786FBF2
:10A7500000214C4800F0FAFA08B1FCF77FFB042016
:10A760008DF8AC00AC216846FBF799FE02208DF80D
:10A7700000002BA801908DF8026006208DF80300E0
:10A780003948ADF81060001D05904FF49670229086
:10A7900044F2506023908DF87C603B482990394802
:10A7A00069462030FCF743FE08B1FCF757FB3548FB
:10A7B00001212030FCF738FE3448009031486946CA
:10A7C000143000F056FB08B1FCF748FB1C2100E0F8
:10A7D00038E06846FBF763FE4FF4A030CDE9004057
:10A7E0004FF4F02002902A480590032629488DF85E
:10A7F0000C600690ADF80E408DF810406846FCF7EE
:10A80000FDFF08B1FCF72AFB03F04EFB2248234969
:10A81000401AC00806EB004021A101F087FA384633
:10A82000FCF72EFA0E2001F00FF811480022A421A7
:10A830000068FCF75FFB08B1FCF710FB01F05AF968
:10A8400010B103E0012747E701F00CFC4020C5F8F8
:10A850000C05642000F08AFB4020C5F80805642040
:10A8600000F084FBEAE70000502200204D66020061
:10A87000E01303001980020069636D5F32303934E0
:10A8800038000000A824002059CF0200A9C002000F
:10A89000ADCF02006F860200C830030020300300F5
:10A8A00054656D706C617465206578616D706C6560
:10A8B00020737461727465642E00000070B51446D4
:10A8C00082880E4605462088111D0144921C99423B
:10A8D00001D8FE2A01D90C2070BD521C32542088A8
:10A8E000FF21401C80B2208031542088401C80B25F
:10A8F00020808119288806F0A8F92188084480B2B0
:10A900002080AA8842B1A96841B13044FBF7AEFD6E
:10A910002088A98808442080002070BD072070BDD1
:10A920002DE9F047C5881E1DB6FBF5F78946B6FB35
:10A93000F5F1044605FB176C407916686843DDF8AD
:10A9400020A0F718001F874200D9C61A166001E040
:10A950002468491E0029FBD1A5EB0C078846B742A5
:10A9600016D818E004EB0C00001D09EB0803BAF13F
:10A97000000F3A4602D00146184600E01946FBF7A0
:10A9800075FD2468F61B4FF0000CB844B54201D9A0
:10A99000374600E02F46002EE4D1BDE8F0870000E6
:10A9A00030B5024651B101F053FA0021074C08E0DE
:10A9B00034F821301568AB4202D11160002030BD5F
:10A9C000491C8142F4D3052030BD00000000000086
:10A9D000BFF35F8F00F016B9F8B50F460178144643
:10A9E0000546012901D1687830B12088821C9A423D
:10A9F00032D8012902D006E00720F8BD6978014469
:10AA0000891C994228D8181A801E86B2ADF80060B9
:10AA10002188B81C084469467DDF0028EDD12978DB
:10AA2000022904D06878BDF80020904205D3BDF813
:10AA30000000B04201D809200AE00820012905D110
:10AA40006978B14202D8ADF8001001E0ADF80060BD
:10AA5000BDF80010FE2901D90C20F8BD2288491C40
:10AA6000B9542188491C89B2218078542088401C1F
:10AA70002080BDF80010084420800020F8BD0000B0
:10AA8000034A00219268C0E90021816070470000FC
:10AA90002023002070B586B00D46064614461421CA
:10AAA0006846FBF7FCFC8DF80050ADF802402046EC
:10AAB000FFF734FAADF80400142269463046FBF77C
:10AAC000D5FC06B070BD70B54FF6FF750E46A842B6
:10AAD00001D1002000E0401C84B208E0214630464D
:10AAE00000F090F808B1204670BD641CA4B2FF2CA1
:10AAF000F4D9284670BD10B5FBF7D7FB08B100208C
:10AB000010BD112010BD10B531B1B2FBF3F403FB41
:10AB100014241CB1092010BD0E2010BD01600021BD
:10AB2000416081608281C381084610BD70B50C46CA
:10AB30000546FBF76FFB002802D0218828680844EF
:10AB400070BD10B50A8849888A4203D1FBF7A4FB7F
:10AB5000012010BD002010BD70B50C460546FBF766
:10AB60007EFB002802D061882868084470BD10B5BB
:10AB70000A8849888A4203D1FBF768FB012010BD8F
:10AB8000002010BD01F01F0301229A40D243490961
:10AB900000EB8100114600F059B80A4601F01F038E
:10ABA0000121994010B552090C4600EB820000F0DB
:10ABB0005DF8204000D0012010BD2DE9F041804615
:10ABC0000D460024481E012101EB501716E058F8ED
:10ABD0002400C04390FAA0F0B0FA80F020280CD2F4
:10ABE00000EB4416AE4208D231464046FFF7D5FF8F
:10ABF0000028ECD13046BDE8F081641CA742E6D8BD
:10AC00002846F8E74A0950F8220001F01F02012106
:10AC10009140084000D00120704701F01F0301223D
:10AC20009A40490900EB8100114600F029B8002143
:10AC300000F017B8012100F023B8012100F016B888
:10AC400008B56A46FBF77DFB009808BD08B56A4663
:10AC5000FBF75DFB009808BD08B56A46FBF771FB82
:10AC600008BD08B56A46FBF752FB08BD08B56A4641
:10AC7000FBF740FB08BD08B56A46FBF72FFB08BD94
:10AC800008B56A46FBF736FB009808BD08B56A466A
:10AC9000FBF764FB009808BD38B5044600258DF825
:10ACA00000506846FCF744F92168626808689042E1
:10ACB0000ED9401E08600178238AE26801FB032553
:10ACC000227A2168101AC0B20A79824200D2087131
:10ACD0009DF80000FCF750F9284638BD38B5054608
:10ACE00000208DF800000C466846FCF721F9E86862
:10ACF000298A201AB0FBF1F12A681068431C1360FE
:10AD000001709DF80000FCF737F938BD10B530B17F
:10AD1000017A42680368891AC9B21A6006E00E20F7
:10AD200010BD03681A68541C1C601170491EC9B21A
:10AD3000F7D2006800210171084610BDC20800F07A
:10AD400007030120895C98400840704710B560B146
:10AD50000161172120F8021B20F8021B1B2100F8BB
:10AD6000021BFFF7A1FA002010BD0E2010BD00004D
:10AD700070B585880C46002D4FD1018824291FD03D
:10AD800006DC102909D011290CD0232921D11CE07F
:10AD90003A290BD055291CD10DE00146204602F07E
:10ADA00013F916E0A01DFFF77FFA12E001462046D6
:10ADB00002F0FCFA0DE00146204602F051FA08E0EC
:10ADC0000146204602F084F903E00146204602F0E5
:10ADD00009FAA07A002820D0E1882846A5DF0F498B
:10ADE0000F4A0126891ACD0858B1112815D001F053
:10ADF000D7FB024606EB0540BDE8704009A100F014
:10AE000099BF0023A372E6720420E28800EB05409C
:10AE1000BDE87040104900F094BF70BD38300300A9
:10AE20002030030073645F626C655F6761747463F4
:10AE30005F65786368616E67655F6D74755F726585
:10AE4000717565737428292072657475726E6564F6
:10AE50002025732E00000000E81C030020B10278BA
:10AE6000DE2A03D0082070470E2070474180002062
:10AE7000704760B159B10278DE2A0AD00968416092
:10AE8000DE2101704FF6FF714180002070470E20D7
:10AE90007047082070477FB5054600294DD0002D2A
:10AEA0004BD008780C46DE2847D1A88861888842B4
:10AEB00002D1204605F096FF2888012825D00228D7
:10AEC0003BD011283AD0512837D135F8040F61888A
:10AED000884232D1A978A81C02292ED1017A0429EE
:10AEE00003D0062901D0052927D100210091022293
:10AEF0008DF8002001914FF4C07202910391ADF8DA
:10AF00000420007A05280FD010E0297A2046012974
:10AF100013D1A988428891420FD10121017204B056
:10AF2000BDE8704005F05EBFADF8041028886946A2
:10AF3000B0DF002801D0616888477FBDA88861889C
:10AF40008842FAD14FF6FF7060807FBD00F18040EB
:10AF50000068002800D00120704708B500F180404B
:10AF6000002101600068009008BD00002DE9F0415B
:10AF7000040007D0044E4FF47A47751C3846A847A2
:10AF8000641EFAD1BDE8F081F013030070B50D4CDA
:10AF90000125207808B185260EE00020A0606060C1
:10AFA0002061E060084801F04BFB064601F058FACA
:10AFB00008B901F02FFB257001F024FB00B1A5704A
:10AFC000304670BD202D00207585020038B5002563
:10AFD0008DF800506846FBF7ABFF084CE068401E58
:10AFE000E060E06828B901F00DFB10B901F038FB12
:10AFF000A5709DF80000FBF7BFFF38BD202D002095
:10B000002DE9F041064604780B4815460F4640F8F6
:10B010002420083040F82430487B10B1084605F061
:10B02000B7F90DB1054A00E0002223463946301D2C
:10B03000BDE8F04101F07EBC5C2400203D0403002B
:10B04000001D01F0E9BC38B5001D049C009401F01E
:10B05000FBFC38BDF0B505460478154889B01646A6
:10B0600040F82420124A0869121DA2F1080742F88C
:10B070002400487F385520226846FBF7F7F90494EE
:10B080002878385C48B10EB10A4A00E000226946CF
:10B09000281D01F043FE09B0F0BD0EB1064A00E0E4
:10B0A0000022694605F10C0001F002FDF3E7000003
:10B0B0003C230020090B0300510903000FB408B51D
:10B0C0000399002904D004AA00926A4600F00FF800
:10B0D00001B05DF814FB10B582680446002A05D063
:10B0E000D4E90403216898470020A06010BD2DE931
:10B0F000FC4791460C00804676D014F8011B39B10C
:10B1000025290ED04046FDF757F920780028F4D1C4
:10B1100098F80C00002867D04046BDE8FC47FFF7D0
:10B12000DABF0020012221782B291BD02D2902D043
:10B13000302908D102E040F0010001E040F00200B7
:10B14000641C002AEFD100252A290ED02178A1F114
:10B1500030020A2A11D205EB850201EB4205641C7C
:10B16000303DF1E740F00400EAE7D9F800100B1D8C
:10B17000C9F800300968641C0D44217800232E2989
:10B180000BD114F8011FA1F130020A2A05D203EBFA
:10B19000830201EB4203303BF3E76C290DD06829B1
:10B1A0000BD0692921D00BDC252918D0582931D0A2
:10B1B00063290ED0642915D117E014F8011FECE7BC
:10B1C000702969D0732932D075291BD0782909D10B
:10B1D00020E0D9F80000011DC9F8001001784046B0
:10B1E000FDF7EAF8641C90E76CE0D9F800100A1D3E
:10B1F000C9F800200968CDE900500A224046FEF750
:10B2000045FFEFE7D9F800100A1DC9F800200968CA
:10B210000A2206E0D9F800100A1DC9F800200968C2
:10B220001022CDE90050404605F024FDDAE7D9F8B8
:10B23000001000270A1DC9F800200E68C00705D1BC
:10B2400012E04046761C7F1CFDF7B6F831780029E5
:10B25000F7D104E0202140466D1EFDF7ADF8BD4258
:10B26000C0D9002DF6D1BDE74EB13046FBF722F92B
:10B27000074604E0202140466D1EFDF79DF8BD42C3
:10B2800006D9002DF6D103E04046761CFDF794F870
:10B2900031780029F8D1A5E7D9F80000011DC9F8D7
:10B2A0000010056830214046FDF786F878214046B9
:10B2B000FDF782F808200021CDE9000103461022A5
:10B2C0002946B0E7BDE8FC872DE9F843884605002C
:10B2D0002C482D499946A0EB01004FEAD0004FF0D1
:10B2E0000101164601EB004424D0286800282CD028
:10B2F000002E34D0696840464FF010070A68511E8E
:10B3000011EA080F11D1014672432846FBF789FC68
:10B3100000282ED028684B463246046901B04146C9
:10B320002846A446BDE8F04360472046174B18A2C4
:10B33000009722E00E2000902046144B1EA220A170
:10B3400000F007FD0E20BDE8F8830820009020469D
:10B350000E4B26A21AA100F0FCFC0820F3E70920FE
:10B3600000902046094B24A215A100F0F2FC092010
:10B37000E9E7064B214A2046009711A100F0E9FCBD
:10B380001020E0E7B0300300203003005B1603001C
:10B39000616464725F69735F706167655F616C6946
:10B3A000676E656428705F66732C20706167655FE7
:10B3B0006164647229000000705F66730000000021
:10B3C000257320636865636B206661696C65642022
:10B3D000696E202573282920776974682076616C4E
:10B3E000756520307825782E00000000705F667348
:10B3F0002D3E705F617069006C656E00602803000F
:10B4000038B503001148124D4FF00E04A0EB0500B3
:10B410004FEAD0004FF0010505EB004009D061B1C3
:10B4200019600C6801B0A446BDE8304011461846CA
:10B430006047084B08A2009402E0064B08A2009463
:10B4400009A100F086FC0E2038BD0000B0300300DA
:10B450002030030010160300705F667300000000C8
:10B46000705F617069000000257320636865636B1D
:10B47000206661696C656420696E20257328292027
:10B48000776974682076616C756520307825782E30
:10B4900000000000044801214174007A08B1002036
:10B4A000704701207047000010300020012801D0B3
:10B4B000032808D10449002201284A7400D0002042
:10B4C000087403F009BD70471030002070B50246C3
:10B4D000022801D0032A45D1234C207A002841D0EC
:10B4E000012833D0022831D120480023022A0068E5
:10B4F00002D0032A2AD11BE0E360017911B10129AE
:10B5000024D10DE0D0E90565711B4FF48056B1429E
:10B5100000D33146294481614569A9420ED015E026
:10B520000169491C0161426991420FD1237213E004
:10B53000E168491CE160082908D9E3602372022A06
:10B540000AD00D21FDF798FB03F06AFC607C28B15E
:10B55000BDE8704000F08ABF0021F3E7BDE870400D
:10B5600003F0BABC70BD000010300020D0230020D2
:10B570002DE9F84F90468A463A493B4A0500A1EB2F
:10B5800002014FEAD1014FF00102DDF828901E467A
:10B590004FF00E0002EB01441AD0B8F1000F1CD09E
:10B5A0002868002822D00920002E29D0696849681F
:10B5B000B6FBF1F201FB1261002926D000902B4B63
:10B5C00020462BA235A100F0C4FB0920BDE8F88F6E
:10B5D00000902046254B3CA203E00090234B2046E0
:10B5E0003BA22EA100F0B5FB0E20EFE70820009053
:10B5F00020461E4B38A229A100F0ABFB0820E5E74E
:10B6000000902046194B37A2DCE75046FBF703FBBE
:10B61000102798B14046FBF7FEFAA0B132465146DA
:10B620002846FBF7FEFA98B1CDF80090286833461B
:10B630004246C46851462846A047C7E720460B4B00
:10B6400029A2009708E02046084B2DA2009703E0AE
:10B65000064B204633A2009710A100F07AFB102081
:10B66000B4E70000B03003002030030048160300A8
:10B6700021286C656E202520705F66732D3E705FFB
:10B68000666C6173685F696E666F2D3E70726F677E
:10B6900072616D5F756E6974290000002573206307
:10B6A0006865636B206661696C656420696E20253E
:10B6B00073282920776974682076616C756520305D
:10B6C0007825782E00000000705F6673000000008F
:10B6D000705F737263000000705F66732D3E705F71
:10B6E000617069006C656E00616464725F69735FAC
:10B6F000616C69676E656433322864657374290010
:10B70000616464725F69735F616C69676E656433FD
:10B7100032282875696E7433325F7429705F7372D2
:10B7200063290000616464725F69735F776974689C
:10B73000696E5F626F756E647328705F66732C202C
:10B74000646573742C206C656E29000070B541EA45
:10B750004201DDE904564FF0A04441EA830141EA89
:10B76000052104EB800041EA0641C0F8001770BDD6
:10B7700070B541EA4201DDE904564FF0A04441EAC8
:10B78000830141EA052104EB800041EA0641C0F84B
:10B79000001770BD70B541EA4201DDE904564FF073
:10B7A000A04441EA830141EA052104EB800041EA1B
:10B7B0000641C0F8001770BD70B541EA4201DDE9ED
:10B7C00004564FF0A04441EA830141EA052104EB0D
:10B7D000800041EA0641C0F8001770BD70B541EA2B
:10B7E0004201DDE904564FF0A04441EA830141EAF9
:10B7F000052104EB800041EA0641C0F8001770BD46
:10B800001CB5002100910B4601220191FFF7C2FFF8
:10B810001CBD1CB5002100910B4601220191FFF7D0
:10B82000CBFF1CBD1CB500220B46009211460192B5
:10B83000FFF7B0FF1CBD1CB500220B46009211465D
:10B840000192FFF7B9FF1CBD4FF0A04202EB800050
:10B850000321C0F8001770471CB5002100910B466A
:10B86000012201911146FFF795FF1CBD1CB5002177
:10B8700000910B46012201911146FFF79DFF1CBD6F
:10B880004FF0A04202EB8000D0F8002722F44032B3
:10B89000C0F80027D0F8002742EA0141C0F800179D
:10B8A0007047000038B5094B44181B6800936B467D
:10B8B00008E000BF53F82010D1F8205520C2C1F88D
:10B8C0002055401C8442F5D838BD0000B81503004F
:10B8D00042094FF0000100D1491E00F01F00012273
:10B8E00082400A4201D001207047002070474FF08B
:10B8F000A04201218140C2F80815704701224FF093
:10B90000A043824011B1C3F808257047C3F80C2545
:10B9100070470000034908B5084400210160006831
:10B92000009008BD0060004002494058012800D046
:10B93000002070470060004030B5154A01460020E5
:10B94000D2F8104423460AE0DB681D79854205D110
:10B95000401C0A28F6DB4FF0FF3030BD1B68002B7F
:10B96000F2D1431CF9D0CB681871D2F8103443B12E
:10B97000DB68CC681B682360D2F81024D2681160A1
:10B9800030BDC2F81014C96800220A6030BD000042
:10B99000C8310020F0B595B01C4615460F46084644
:10B9A0001A9E00F025FB182109A8FAF778FD0E96DB
:10B9B000CDE909540023082203A9384600F02DFBE5
:10B9C00005980690BDF81000ADF81C00BDF81200F7
:10B9D000ADF81E0000208DF821000398082600F025
:10B9E0000300012802D0022818D032E00398334621
:10B9F000850AC0F3C2008DF8200003980FA9C0F398
:10BA00008314A200384600F008FB09A8009006AB9A
:10BA100022460FA9284600F047FA1AE00398840D41
:10BA2000C0F3C2008DF82000082C01D2254600E0AA
:10BA3000082533462A460FA9384600F0EEFA2E4470
:10BA4000641B09AB06AA29460FA800F095F9002C43
:10BA5000EAD1384600F0D2FA15B0F0BD70470120A7
:10BA600004F094BF084810B50178084A515C19B138
:10BA7000001D01F0EDF902E00C3001F0E7F8BDE83F
:10BA80001040002004F082BFE4230020382300206F
:10BA900008B5034A00924023024AFFF77BFF08BD26
:10BAA00015F90200303000200A4A012902EBC000DB
:10BAB00007D0022907D0032907D0042907D0002086
:10BAC0007047022070470420704700797047407922
:10BAD000704700002030030010B5FFF7C0FF0421BD
