:020000040800F2
:10000000081E0020D50200083B840008B3800008C9
:1000100039840008E97500082D89000800000000F7
:100020000000000000000000000000003F84000805
:10003000EB750008000000003D840008D58400082E
:10004000EF020008EF020008EF020008EF020008CC
:10005000EF020008EF020008EF020008EF020008BC
:10006000EF020008EF020008EF020008EF020008AC
:10007000EF020008EF020008EF020008EF0200089C
:10008000EF020008EF020008EF020008EF0200088C
:10009000EF020008EF020008EF020008EF0200087C
:1000A000EF020008EF020008EF020008EF0200086C
:1000B000EF020008EF020008EF020008EF0200085C
:1000C000EF020008EF020008EF020008EF0200084C
:1000D000EF02000801890008EF020008EF020008A3
:1000E000EF020008EF020008EF020008EF0200082C
:1000F000EF020008EF020008EF020008EF0200081C
:10010000EF020008EF020008EF020008EF0200080B
:10011000EF020008EF020008EF020008EF020008FB
:10012000EF020008EF020008EF020008EF020008EB
:10013000EF020008EF020008EF020008EF020008DB
:10014000EF020008EF020008EF020008EF020008CB
:10015000EF020008EF020008EF020008EF020008BB
:10016000EF020008EF020008EF020008EF020008AB
:10017000EF020008EF020008EF0200080000000094
:10018000EF020008EF02000800F002F800F092F819
:100190000AA090E8000C82448344AAF10107DA45E2
:1001A00001D100F087F8AFF2090EBAE80F0013F0A2
:1001B000010F18BFFB1A43F001031847100201009A
:1001C00030020100103A24BF78C878C1FAD852072B
:1001D00024BF30C830C144BF04680C6070470000C1
:1001E0000023002400250026103A28BF78C1FBD840
:1001F000520728BF30C148BF0B6070476E2905F019
:10020000B987702905F0138566290FF020806529CC
:100210000FF01D8067290FF01A8061290FF01980F7
:1002200003681B0A28BF41F08001692905F0848416
:10023000642905F08184752905F07E846F2906F014
:10024000AA82782905F0DF84E92906F04582E429AD
:1002500006F04282F52906F03F82EF2906F0A782D8
:10026000F82905F0DE840368DB0928BF41F080012E
:10027000632906F0BD84732906F0C284E32906F0E1
:10028000CD84F32906F0D284002070471FB50EF00C
:1002900090FF06F097FA0400002000210EF0C0F84D
:1002A000401C6060002000210EF0A4F8E0601FBD3B
:1002B00010B510BD06F058FD1146FFF7E7FF0CF032
:1002C000FBFD06F07FFD03B4FFF7F2FF03BC09F06E
:1002D00092FE00000948804709480047FEE7FEE714
:1002E000FEE7FEE7FEE7FEE7FEE7FEE7FEE7FEE7E6
:1002F00004480549054A064B70470000D9840008A8
:100300008901000808180020081E0020081A002093
:10031000081A0020FE4880ED3A0A70472DE9F047A0
:10032000DFF8EC9300262DED0A8B0446B0EE408AF0
:10033000F0EE608A884635463746D9F8AC000EF0B4
:100340003AFB53EC182B0EF061FB6FD3D9F8B000D9
:100350000EF031FB53EC182B0EF092FCF5D3B4F9F0
:100360000000B4F90610401A0EF025FB53EC182BD0
:100370000EF04CFB00D20126B4F90E00B4F91410B3
:10038000401A0EF018FB53EC182B0EF03FFB00D276
:10039000761CB4F91C00B4F92210401A0EF00BFBC5
:1003A00053EC182B0EF032FB00D2761C9FEDD90BCC
:1003B000012E3BDC53EC102B51EC180B0EF062FBC2
:1003C0008946064649EC180BB4F90000B4F906104A
:1003D000401A0EF0F0FA53EC182B0EF051FC00D23C
:1003E0000125B4F90E00B4F9141049EC186B401A49
:1003F0000EF0E1FA53EC182B0EF042FC00D26D1C0B
:10040000B4F91C00B4F9221049EC186B401A0EF034
:10041000D2FA53EC182B0EF033FC00D26D1C002DD9
:1004200005DD0220BDEC0A8BBDE8F08765E0002603
:100430009FEDBACB06EB460904EB8905B5F90A0036
:100440000EF0B9FA98ED048B53EC182B0EF026FD44
:1004500041EC190BB5F904000EF0ADFA53EC182B72
:100460000EF01CFD53EC192B0EF00CFB41EC190B9C
:10047000B5F908000EF09FFA98ED028B53EC182B9B
:100480000EF00CFD41EC1A0BB5F902000EF093FAD8
:1004900053EC182B0EF002FD53EC1A2B0EF0F2FA6F
:1004A00041EC1A0BB5F906000EF085FA98ED008BB9
:1004B00053EC182B0EF0F2FC41EC1B0B34F9290025
:1004C0000EF079FA53EC182B0EF0E8FC53EC1B2BD2
:1004D0000EF0D8FA53EC1A2B0DF0F6FF53EC192B53
:1004E0000DF0F2FF53EC1C2B0EF090FA00D27F1CA3
:1004F000761C032E9EDB022F01DA012092E70020FA
:1005000090E788490A684B68D00180EAD20080EA07
:10051000031048608B68520380EAC30382EA5312D7
:10052000520282EAD0208B600860704710B52DED32
:10053000048BF0EE408AFFF7E4FF00EE100AB8EEFD
:10054000400ADFED790A20EE200A9FED789A20EE2E
:10055000090A08F08DFCB0EE408AFFF7D2FF00EEEA
:10056000100AB8EE400A20EE090AB5EEC00AF1EE14
:1005700010FA01D1B7EE000A10EE100A0EF078FD65
:1005800041EC100B08F028FD9FED691B51EC100B9E
:1005900053EC112B0EF076FA0DF064FF00EE100A0A
:1005A00009F001F820EE280A20EE080ABDEC048BC1
:1005B00010BD2DE9F04105462DED048BB0EE608AAB
:1005C000F0EE408A0F4618EE100A0EF051FD97ED3E
:1005D000301B53EC112B0EF055FA41EC190B18EEB1
:1005E000900A0EF045FD95ED301B53EC112B0EF0EB
:1005F00049FA53EC192B0DF067FF0024C5E93001CF
:1006000018EE100A0EF034FD07EBC40898ED001B3D
:1006100053EC112B0EF036FA41EC190B18EE900A40
:100620000EF026FD05EBC40696ED001B53EC112BD6
:100630000EF028FA53EC192B0DF046FFC6E9000125
:1006400018EE100A0EF014FD98ED241B53EC112B3C
:100650000EF018FA41EC190B18EE900A0EF008FD96
:1006600096ED241B53EC112B0EF00CFA53EC192BC6
:100670000DF02AFF641CC6E92401062CC0DB00240F
:1006800018EE100A0EF0F4FC41EC100B07EBC4005E
:1006900090ED121B51EC100B53EC112B0EF0F2F9F4
:1006A00041EC190B18EE900A0EF0E2FC05EBC406C3
:1006B00096ED121B53EC112B0EF0E4F953EC192BB1
:1006C0000DF002FF641CC6E91201092CD8DB0024DE
:1006D00018EE100A0EF0CCFC41EC100B07EBC40036
:1006E00090ED0C1B51EC100B53EC112B0EF0CAF9D2
:1006F00041EC190B18EE900A0EF0BAFC05EBC4069B
:1007000096ED0C1B53EC112B0EF0BCF914E000001D
:10071000880A0020000000000000044000000000E3
:100720000000000070000020DB0FC9400000802F97
:1007300000000000000000C053EC192B0DF0C4FEB7
:10074000641CC6E90C01032CC2DBBDEC048BBDE8C4
:10075000F0812DE9F04F04462DED068B83B00D4658
:1007600008680EF028F941EC1A0B68680EF023F9BE
:1007700041EC190BA8680EF01EF941EC180B94ED32
:10078000300B9FEDFE1B51EC100B53EC112B0DF0B9
:100790009BFEC4E9300194ED0C0B53EC1A2B51EC89
:1007A000100B0DF091FEC4E90C0194ED0E0B53EC0F
:1007B000192B51EC100B0DF087FEC4E90E0194EDDE
:1007C000100B53EC182B51EC100B0DF07DFEC4E90F
:1007D000100153EC1A2B51EC1A0B0EF053F9029145
:1007E00094ED001B064653EC112B0DF06DFEC4E991
:1007F000000153EC192B51EC1A0B0EF043F989460A
:1008000049EC100B94ED021B054653EC112B51ECF7
:10081000100B0DF059FEC4E9020153EC182B51ECFA
:100820001A0B0EF02FF98B464BEC100B94ED041BBA
:10083000804653EC112B51EC100B0DF045FEC4E932
:10084000040153EC192B51EC190B0EF01BF901911B
:1008500094ED061B074653EC112B0DF035FEC4E951
:10086000060153EC182B51EC190B0EF00BF900910B
:1008700094ED081B824653EC112B0DF025FEC4E9C4
:10088000080153EC182B51EC180B0EF0FBF894ED0B
:100890000A1B53EC112B0DF017FEC4E90A01029953
:1008A00053EC1A2B41EC106B51EC100B0EF0EAF8E4
:1008B00094ED121B53EC112B0DF006FE49EC105B6E
:1008C000C4E9120153EC192B51EC100B0EF0DAF8BD
:1008D00094ED141B53EC112B0DF0F6FD4BEC108B2B
:1008E000C4E9140153EC182B51EC100B0EF0CAF8AC
:1008F00094ED161B53EC112B0DF0E6FD49EC105B4B
:10090000C4E9160153EC1A2B51EC100B0EF0BAF897
:1009100094ED181B53EC112B0DF0D6FDC4E9180112
:10092000019953EC192B41EC107B51EC100B0EF09C
:10093000A9F894ED1A1B53EC112B0DF0C5FDC4E979
:100940001A010099554641EC10AB0E4653EC182B9A
:1009500051EC100B0EF096F894ED1C1B53EC112B80
:100960000DF0B2FDC4E91C0153EC1A2B51EC180B2D
:100970000EF088F853EC1A2B0EF084F894ED1E1B41
:1009800053EC112B0DF0A0FD46EC105BC4E91E01E9
:1009900053EC192B51EC100B0EF074F894ED201B56
:1009A00053EC112B0DF090FDC4E9200153EC182BF2
:1009B00051EC180B0EF066F8894649EC100B07460F
:1009C00053EC182B51EC100B0EF05CF894ED221B3D
:1009D00053EC112B0DF078FDC4E9220153EC1A2BD6
:1009E00051EC1A0B0EF04EF8884648EC100B0546F9
:1009F00053EC1A2B51EC100B0EF044F853EC1A2B5D
:100A00000EF040F894ED241B53EC112B0DF05CFD1F
:100A1000C4E9240153EC192B51EC190B0EF032F8F8
:100A20008A464AEC100B064653EC192B51EC100B7E
:100A30000EF028F853EC192B0EF024F894ED261B39
:100A400053EC112B0DF040FD49EC107BC4E926015D
:100A500053EC182B51EC100B0EF014F853EC182B30
:100A60000EF010F894ED281B53EC112B0DF02CFD1B
:100A700048EC105BC4E9280153EC192B51EC100B26
:100A80000EF000F853EC192B0DF0FCFF94ED2A1B2F
:100A900053EC112B0DF018FD48EC105BC4E92A0152
:100AA00053EC182B51EC100B0DF0ECFF53EC182B02
:100AB0000DF0E8FF94ED2C1B53EC112B0DF004FD11
:100AC0004AEC106BC4E92C0153EC182B51EC100BC1
:100AD0000DF0D8FF53EC182B0DF0D4FF94ED2E1B26
:100AE00053EC112B0DF0F0FCC4E92E0103B0BDEC6A
:100AF000068BBDE8F08F2DE9F04F93462DED108B5E
:100B00000D46044693B090ED0CEB53EC1E2B51ECCC
:100B10001E0B0DF0B7FF94ED000B41EC190B8DEDA2
:100B2000080B94ED308B53EC102B51EC180B0DF09F
:100B3000A9FF53EC192B0EF0B1F994ED0EDB41EC4B
:100B40001F0B53EC1D2B51EC1D0B0DF09BFF94ED77
:100B5000060B41EC190B8DED060B53EC102B51ECF1
:100B6000180B0DF08FFF53EC192B0EF097F941EC99
:100B7000100B8DED040B94ED10CB03E00000000092
:100B80000000F03F53EC1C2B51EC1C0B0DF07AFFD6
:100B900094ED0A0B41EC190B8DED020B53EC102B6D
:100BA00051EC180B0DF06EFF53EC192B0EF076F98B
:100BB00041EC110B53EC1D2B8DED001B51EC1E0B6A
:100BC0000DF060FF94ED020B41EC190B53EC102B70
:100BD00051EC180B0DF056FF53EC192B0EF05EF98B
:100BE00041EC1B0B53EC1C2B51EC1E0B0DF04AFF80
:100BF00094ED040B41EC190B53EC102B51EC180B3A
:100C00000DF040FF53EC192B0EF048F941EC1A0B94
:100C100053EC1C2B51EC1D0B0DF034FF94ED080B25
:100C200041EC190B53EC102B51EC180B0DF02AFF73
:100C300053EC192B0EF032F99DED020B41EC190B20
:100C400053EC102B51EC1E0B0DF01CFF41EC110B63
:100C500051EC180B8DED101B94ED160B53EC102B73
:100C60000DF010FF41EC110B51EC1E0B8DED0E1B26
:100C70009DED060B53EC102B0DF004FF41EC110B16
:100C800051EC180B8DED0C1B94ED140B53EC102B49
:100C90000DF0F8FE41EC110B51EC1E0B8DED0A1B13
:100CA0009DED080B53EC102B0DF0ECFE94ED120BA8
:100CB00041EC1E0B53EC102B51EC180B0DF0E2FE27
:100CC00053EC1E2B0EF0EAF89DED0A1B53EC112B92
:100CD0000DF0FAFB9DED0C1B53EC112B0EF0DEF822
:100CE0009DED0E1B53EC112B0DF0EEFB9DED101B3B
:100CF00053EC112B0EF0D2F89FEDFE1B53EC112B91
:100D00000DF0C0FE9DED020B41EC1E0B53EC102BC1
:100D100051EC1D0B0DF0B6FE41EC110B51EC180B14
:100D20008DED101B94ED1C0B53EC102B0DF0AAFE57
:100D300041EC110B51EC1D0B8DED0E1B9DED060BC7
:100D400053EC102B0DF09EFE41EC110B51EC180BE7
:100D50008DED0C1B94ED1A0B53EC102B0DF092FE45
:100D600041EC110B51EC1D0B8DED0A1B9DED080B99
:100D700053EC102B0DF086FE94ED180B41EC1D0B7F
:100D800053EC102B51EC180B0DF07CFE53EC1D2B8B
:100D90000EF084F89DED0A1B53EC112B0DF094FB23
:100DA0009DED0C1B53EC112B0EF078F89DED0E1BF6
:100DB00053EC112B0DF088FB9DED101B53EC112B08
:100DC0000EF06CF89FEDCB1B53EC112B0DF05AFE7F
:100DD0009DED020B41EC1D0B53EC102B51EC1C0B49
:100DE0000DF050FE41EC110B51EC180B8DED021B78
:100DF00094ED220B53EC102B0DF044FE41EC110B43
:100E000051EC1C0B8DED0A1B9DED060B53EC102BCA
:100E10000DF038FE41EC110B51EC180B8DED0C1B55
:100E200094ED200B53EC102B0DF02CFE41EC110B2C
:100E300051EC1C0B8DED061B9DED080B53EC102B9C
:100E40000DF020FE94ED1E0B41EC1C0B53EC102B0F
:100E500051EC180B0DF016FE53EC1C2B0EF01EF887
:100E60009DED061B53EC112B0DF02EFB9DED0C1B85
:100E700053EC112B0EF012F89DED0A1B53EC112BC5
:100E80000DF022FB9DED021B53EC112B0EF006F82A
:100E90009FED981B53EC112B0DF0F4FD9DED040B11
:100EA00041EC180B53EC102B51EC1F0B0DF0EAFD2D
:100EB00010919DED001B824653EC112B0DF0E2FDCD
:100EC00041EC110B53EC192B8DED0A1B51EC1F0B50
:100ED0000DF0D8FD53EC192B0DF0D4FD41EC110BA6
:100EE00053EC1A2B8DED081B9DED040B51EC100BF0
:100EF0000DF0C8FD814653EC1A2B11910DF0C2FD87
:100F000041EC110B8DED061B9FED7C0B51EC1B0B87
:100F100053EC102B0DF0B6FD53EC1A2B0DF0B2FD77
:100F200053EC192B0DF0AEFD9DED001B41EC1C0B9D
:100F300053EC1B2B51EC110B0DF0A4FD074653ECA9
:100F40001B2B02910DF09EFD53EC1C2B0DF0A6FF08
:100F50009DED061B53EC112B0DF0B6FA9DED081B11
:100F600053EC112B0DF0B0FA9DED0A1B53EC112B35
:100F70000DF094FF41EC1C0B9FED620B53EC102B1A
:100F80000DF0AEFC7DD053EC192B51EC1B0B0DF08A
:100F900079FD53EC182B0DF075FD41EC110B53EC62
:100FA0001D2B8DED0E1B029941EC107B51EC100BAB
:100FB0000DF068FD41EC110B8DED0C1B9DED000B50
:100FC00053EC102B9DED040B51EC100B0DF05AFD62
:100FD00053EC1E2B0DF056FD41EC110B53EC192B6D
:100FE0008DED081B51EC190B0DF04CFD53EC1E2B35
:100FF0000DF048FD41EC110B53EC1D2B8DED0A1B40
:1010000051EC190B0DF03EFD41EC110B53EC182B7C
:101010008DED061B9DED040B51EC100B0DF032FD18
:101020009DED061B53EC112B0DF038FF53EC1A2BE2
:101030000DF028FD9DED0A1B53EC112B0DF044FA29
:101040009DED081B53EC112B0DF028FF9DED0C1BA3
:1010500053EC112B0DF038FA9DED0E1B53EC112BB8
:101060000DF01CFF41EC100B53EC1A2B8DED060B11
:1010700051EC1B0B0DF006FD8846064648EC100BA4
:1010800000E065E153EC182B51EC100B0DF0FAFC6D
:1010900041EC110B53EC1E2B8DED041B029941EC1E
:1010A000107B51EC100B0DF0EDFC41EC110B51ECF1
:1010B0001F0B8DED021B9DED000B53EC102B0DF063
:1010C000E1FC53EC1D2B0DF0DDFC41EC110B53EC5E
:1010D0001A2B8DED081B51EC1A0B0DF0D3FC53ECC1
:1010E0001D2B0DF0CFFC41EC110B53EC1E2B8DEDA5
:1010F000001B0BE0000000000000E03F00000000CB
:1011000000000040000000000000000051EC1A0B3D
:101110000DF0B8FC41EC1A0B53EC182B51EC1F0BE3
:101120000DF0B0FC53EC1A2B0DF0B8FE53EC192B5C
:101130000DF0A8FC9DED001B53EC112B0DF0C4F934
:101140009DED081B53EC112B0DF0A8FE9DED021B2D
:1011500053EC112B0DF0B8F99DED041B53EC112B42
:101160000DF09CFE41EC100B53EC1D2B8DED040B90
:1011700048EC106B51EC100B0DF084FC41EC110BA2
:1011800053EC1E2B8DED001B119941EC109B51EC83
:10119000100B0DF077FC41EC110B53EC182B8DED7F
:1011A000021B109941EC10AB51EC100B0DF06AFCD6
:1011B00041EC1A0B53EC1B2B51EC1B0B0DF062FC9A
:1011C00053EC182B0DF05EFC41EC180B53EC1E2B6E
:1011D00051EC1B0B0DF056FC41EC1B0B53EC1D2B83
:1011E00051EC1F0B0DF04EFC53EC1B2B0DF056FE7B
:1011F00053EC192B0DF046FC53EC182B0DF064F951
:1012000053EC1A2B0DF04AFE9DED021B53EC112BF3
:101210000DF05AF99DED001B53EC112B0DF03EFE25
:101220009DED060B41EC190B53EC1C2B51EC100BF4
:101230000DF0FEF941EC180B53EC1C2B85ED008BE7
:101240009DED040B51EC100B0DF0F2F941EC1A0B73
:1012500053EC1C2B85ED02AB51EC190B0DF0E8F9AA
:1012600041EC190B85ED049B94ED100B53EC102B06
:101270000DF008FC94ED0E0B41EC1B0B53EC102B06
:1012800051EC1A0B0DF0FEFB94ED0C0B41EC1C0B1A
:1012900053EC102B51EC180B0DF0F4FB53EC1C2B02
:1012A0000DF012F953EC1B2B0DF00EF91FED6D1B19
:1012B00053EC112B0DF0E6FB94ED061B94ED000BA7
:1012C00041EC1B0B53EC112B51EC100B0DF0FCF807
:1012D00094ED0A1B53EC112B0DF0F6F853EC1B2B7D
:1012E0000DF0DCFD94ED301B53EC112B0DF0A0F94B
:1012F00041EC1B0B53EC192B51EC190B0DF0C2FBFD
:1013000041EC190B53EC1A2B51EC1A0B0DF0BAFBF4
:1013100041EC1A0B53EC182B51EC180B0DF0B2FBEF
:1013200053EC1A2B0DF0D0F853EC192B0DF0CCF830
:1013300053EC1B2B0DF0C8F841EC100B08F0F6F83D
:101340008BED000B012013B0BDEC108BBDE8F08FCE
:101350000020F8E72DE9F04F0D462DED108B0446E7
:101360008BB091ED00AB53EC1A2B51EC1A0B0DF036
:1013700089FB94ED0CCB53EC1C2B0DF083FB53EC51
:101380001C2B0DF07FFB94ED30FB41EC180B53EC64
:101390001A2B51EC1F0B0DF075FB8B464BEC100B11
:1013A000074653EC1A2B51EC100B0DF06BFB94ED30
:1013B00000EB53EC1E2B0DF065FB53EC182B0DF0DE
:1013C0006DFD41EC190B53EC1E2B51EC1A0B0DF07B
:1013D00059FB53EC1C2B0DF055FB4BEC107B94EDA3
:1013E000121B41EC180B53EC112B51EC100B0DF0B0
:1013F00049FB53EC192B0DF079FC53EC182B0DF035
:1014000063F841EC1B0B1FEDC30B51EC1A0B53ECB3
:10141000102B0DF037FB894649EC100B95ED029B24
:10142000064653EC192B51EC100B0DF02BFB53EC33
:101430001C2B0DF027FB94ED0EDB53EC1D2B0DF058
:1014400021FB41EC180B1FEDD30B51EC1F0B53ECA0
:10145000102B0DF017FB824653EC1A2B06910DF062
:1014600011FB53EC192B0DF00DFB94ED021B53EC0B
:10147000112B0DF007FB53EC1B2B0DF025F853EC53
:10148000182B0DF00BFD41EC180B53EC1C2B51EC01
:101490001A0B0DF0F7FA049194ED06BB804653EC5D
:1014A0001B2B0DF0EFFA41EC110B4BEC107B8DED8B
:1014B000001B94ED141B51EC100B53EC112B0DF091
:1014C000E1FA53EC182B0DF011FC9DED001B53ECD1
:1014D000112B0CF0F9FF41EC110B49EC106B8DED69
:1014E000001B95ED048B51EC100B53EC182B0DF0F9
:1014F000C9FA53EC1C2B0DF0C5FA94ED10CB53EC4C
:101500001C2B0DF0BFFA41EC110B53EC1A2B8DED97
:10151000021B069941EC10AB51EC100B0DF0B2FA26
:1015200053EC182B0DF0AEFA94ED041B53EC112B79
:101530000DF0A8FA9DED001B53EC112B0CF0C4FF2D
:101540009DED021B53EC112B0DF0A8FC41EC100B90
:101550008DED000B049994ED0AAB41EC108B53EC2C
:101560001A2B51EC100B0DF08DFA41EC110B4BECDA
:10157000107B8DED021B94ED161B51EC100B53EC00
:10158000112B0DF07FFA9DED001B53EC112B0DF08C
:10159000ADFB9DED021B53EC112B0CF095FF41ECC4
:1015A000110B8DED001B9FEDFE0B51EC1E0B53EC50
:1015B000102B0DF067FA53EC1E2B0DF063FA41EC83
:1015C000110B8DED021B9FEDF60B51EC1F0B53EC35
:1015D000102B0DF057FA059194ED241B814653EC26
:1015E000112B0DF04FFA9DED001B53EC112B0CF05D
:1015F0006BFF9DED021B53EC112B0DF04FFC41ECEA
:10160000110B53EC1E2B8DED001B51EC190B0DF043
:1016100039FA53EC1D2B0DF035FA41EC110B53EC5C
:10162000192B8DED081B51EC1F0B0DF02BFA0391BC
:1016300094ED181B064653EC112B0DF023FA9DED8B
:10164000001B53EC112B0DF051FB9DED081B53ECCF
:10165000112B0CF039FF41EC110B8DED001B9FEDB0
:10166000D20B51EC1E0B53EC102B0DF00BFA8B46EA
:101670004BEC100B054653EC1B2B51EC100B0DF0F3
:1016800001FA41EC110B8DED081B9FEDC70B51ECDE
:101690001F0B53EC102B0DF0F5F9049194ED2A1B60
:1016A000804653EC112B0DF0EDF99DED001B53EC32
:1016B000112B0CF009FF9DED081B53EC112B0DF0C5
:1016C000EDFB41EC110B53EC1E2B8DED001B51EC8F
:1016D000180B0DF0D7F953EC1C2B0DF0D3F941EC9E
:1016E0001E0B53EC182B51EC1F0B0DF0CBF9029194
:1016F00094ED1E1B074653EC112B0DF0C3F99DED25
:10170000001B53EC112B0DF0F1FA53EC1E2B0CF0D7
:10171000DBFE4BEC105B41EC1F0B53EC1A2B51EC36
:10172000100B0DF0AFF941EC1E0B049994ED2C1B3E
:1017300041EC108B53EC112B51EC100B0DF0A2F976
:1017400053EC1F2B0CF0C0FE53EC1E2B0DF0A6FB30
:1017500041EC1F0B53EC192B51EC190B0DF092F9C6
:1017600053EC1D2B0DF08EF953EC1D2B0DF08AF967
:1017700041EC1E0B039953EC192B41EC106B51EC0F
:10178000100B0DF07FF953EC1B2B0DF07BF953EC94
:101790001F2B0CF099FE53EC1E2B0DF07FFB41EC40
:1017A0001F0B53EC1B2B51EC190B0DF06BF953EC89
:1017B0001D2B0DF067F941EC1E0B039994ED1A1BDC
:1017C00041EC106B53EC112B51EC100B0DF05AF94E
:1017D00053EC1F2B0DF08AFA53EC1E2B0CF074FE09
:1017E00041EC1F0B9FED720B51EC190B53EC102BBE
:1017F0000DF048F953EC182B0DF044F953EC1D2B68
:101800000DF040F953EC1C2B0DF03CF941EC1E0B94
:10181000069953EC192B41EC10AB51EC100B0DF069
:1018200031F953EC182B0DF02DF994ED081B53EC06
:10183000112B0DF027F953EC1F2B0CF045FE53EC48
:101840001E2B0DF02BFB41EC1E0B53EC1D2B51EC12
:10185000190B0DF017F953EC1A2B0DF013F941EC9D
:10186000190B039994ED1C1B41EC106B53EC112BDD
:1018700051EC100B0DF006F953EC1E2B0DF036FA5F
:1018800053EC192B0CF020FE41EC1D0B9FED44EBAB
:1018900051EC1B0B53EC1E2B0DF0F4F853EC1B2BEF
:1018A0000DF0F0F841EC190B059994ED261B41EC75
:1018B000109B53EC112B51EC100B0DF0E3F853EC93
:1018C0001D2B0CF001FE53EC192B0DF0E7FA41EC47
:1018D0001D0B53EC1B2B51EC180B0DF0D3F853ECF4
:1018E0001C2B0DF0CFF841EC190B029994ED201B45
:1018F00041EC107B53EC112B51EC100B0DF0C2F8A6
:1019000053EC1D2B0DF0F2F953EC192B0CF0DCFD10
:101910009FED250B41EC190B53EC102B51EC1B0BDD
:101920000DF0B0F853EC1A2B0DF0ACF841EC1B0B9A
:10193000049994ED2E1B41EC108B53EC112B51ECC0
:10194000100B0DF09FF853EC192B0CF0BDFD53EC70
:101950001B2B0DF0A3FA41EC1B0B53EC182B51EC95
:10196000180B0DF08FF853EC1C2B0DF08BF853EC8B
:101970001C2B0DF087F841EC190B029953EC182B36
:1019800041EC107B51EC100B0DF07CF853EC1A2B52
:101990000DF078F853EC1B2B0CF096FD0CE00000DA
:1019A000000000000000D03F000000000000E03F09
:1019B000000000000000004053EC192B0DF06EFAFF
:1019C00041EC190B53EC1A2B51EC180B0DF05AF893
:1019D00053EC1C2B0DF056F841EC180B029994EDCA
:1019E000221B41EC107B53EC112B51EC100B0DF032
:1019F00049F853EC192B0DF079F953EC182B0CF036
:101A000063FD41EC180B53EC1E2B51EC1A0B0DF03F
:101A100039F853EC1A2B0DF035F841EC190B0599F8
:101A200094ED281B41EC109B53EC112B51EC100B47
:101A30000DF028F853EC182B0CF046FD53EC192B45
:101A40000DF02CFA41EC100B0BB07DE430B50446E0
:101A5000B0F88C0089B000040690B4F88E000D46F2
:101A600000040790B4F8900088340004089002A89D
:101A70000AF0C6F9029906982B46401A0690039977
:101A8000079806AA401A079004990898401A0890E7
:101A90002088616A80B20AF05FF809B030BDF0B505
:101AA0000D462DED048B87B06946FFF7CFFF9FED04
:101AB000FE8B00246F469FEDFE9A03AE57F824007C
:101AC00000EE100A06EB8400B8EEC00A20EE090A08
:101AD00080ED000A20EE000A10EE100A0DF0C8FAA0
:101AE00053EC182B0CF0F0FC41EC180B641C032C8D
:101AF000E4DBB0EE480AF0EE680A07F017FDB0EE3E
:101B0000408AF0EE608A002456F824000DF0B0FA06
:101B100053EC182B0CF08CFD0CF0A4FC00EE100A1A
:101B200005EB8400641CD0ED000A032C30EE200A83
:101B300080ED000AE8DB686D401C68650AF0CAFBAE
:101B4000E86707B0BDEC048BF0BD2DE9F041044619
:101B50000AF0F2F940BB0AF07FF9042824D0D549F5
:101B600020460E46FFF79BFFD34DD5E95C0181422D
:101B700005DB304603F0E5FB0020C5F87401208E3C
:101B80004FF00406C00515D504F118000AF0C8F995
:101B90008009B0F5C87F0AD2D5F8B800002850DD1A
:101BA000401EC5F8B8004AE00120BDE8F081C5F844
:101BB000B86044E0D4F8A010D5F81401081A01D494
:101BC000034600E04342BB4A4FF4A02C583A634519
:101BD00005DDD4E929035365C2E913102FE0031290
:101BE000D4F8A470D5F818015B43381A01D486469E
:101BF00001E0C0F1000EE64505DDD4F8A800D1648F
:101C0000C2E914701BE0001200FB0033D4F8A800F6
:101C1000D5F81C11401A01D4014600E0414261454B
:101C20000DDC001200FB0030B0F5403FB4DBA03407
:101C3000C5F8B86094E80B004C3282E80B00002035
:101C4000B3E70220B1E72DE9F04F9B4C2DED028B5D
:101C500093B0D4F8A81090ED000B04EBC10181ED16
:101C6000000BD4F8A810491CC4F8A81090ED020B82
:101C700004EBC10181ED000BD4F8A810491CC4F895
:101C8000A81090ED040B04EBC10080ED000BD4F81C
:101C9000A800401CC4F8A800152802DB0020C4F8E6
:101CA000A800182284490CA804F001F918228249DE
:101CB00004A804F0FCF801260DF1300A0DF1100B18
:101CC000A146002406EB460808EB040109EBC10518
:101CD0000AEBC40795ED001B97ED000B53EC112B9D
:101CE00051EC100B0CF0CCFF03D295ED000B87EDFF
:101CF000000B0BEBC40795ED001B97ED000B53ECAD
:101D0000112B51EC100B0CF081FE03D295ED000B62
:101D100087ED000B641C032CD6DB761C072ED0DB72
:101D20009DED0C1B9DED040B53EC112B51EC100B96
:101D30000DF0B4F89DED0E1B9DED060B41EC180B5C
:101D400053EC112B51EC100B0DF0A8F853EC182BA1
:101D50000CF05CFE0BD39DED0E1B9DED060B53ECC2
:101D6000112B51EC100B0DF099F841EC180B9DED77
:101D7000101B9DED080B53EC112B51EC100B0DF0CB
:101D80008DF853EC182B0CF041FE0BD39DED101B7E
:101D90009DED080B53EC112B51EC100B0DF07EF860
:101DA00041EC180B13B0B0EE480AF0EE680ABDEC37
:101DB000028BBDE8F08F10B504462DED068B9CB06C
:101DC000002155200E91CDE90F1011909FED3B8B16
:101DD0000AA809F0E3FF12A90AA80AF059FB16AAFB
:101DE0000EA912A80AF077FB6A460AA916A80AF0FB
:101DF00072FB0198B2EE059A00F596700190029878
:101E0000B0EE490A00F596700290039800F59670BE
:101E10000390FEF78BFBBDEEC00A019910EE100A8D
:101E2000B0EE490A08440190FEF780FBBDEEC00AFF
:101E3000029810EE101AB0EE490A08440290FEF71C
:101E400075FBBDEEC00A039910EE100A084403901A
:101E5000204601A9FEF77DFC94ED300B9FED191B88
:101E600051EC100B53EC112B0CF00AFF5DD21AAAA7
:101E700004A92046FEF73FFE60B39DED080B9FEDE1
:101E8000138B51EC100B53EC182B0DF007F841ECB1
:101E9000100B53EC102B0CF0F5FD41EC190B9DEDE4
:101EA000060B53EC182B16E00000000000000000A9
:101EB00000008037A80B0020880A002000000000E6
:101EC00000408F400000000000003440000000008F
:101ED00000C0724029E051EC100B0CF0DFFF41EC28
:101EE000100B53EC102B0CF0CDFD9DED040B41ECD1
:101EF0001A0B53EC182B51EC100B0CF0CFFF41ECEC
:101F0000100B53EC102B0CF0BDFD53EC1A2B0CF006
:101F1000DBFA53EC192B0CF0D7FA41EC100B07F05D
:101F200005FBB0EE408AF0EE608A9FEDFD0B51ECB0
:101F3000180B53EC102B0CF07BFB1CB041EC100B7E
:101F4000BDEC068B10BD10B5E821F74804F048F849
:101F5000F648F74920F8BC1F4A0CC280C181828232
:101F600081834284F048E821E83004F039F8EF49F1
:101F70000020C1F8B40010BD2DE9F043EB4D04463C
:101F80002DED108BC3B0006BC5F8A0012046FFF704
:101F9000DCFD00287ED1D5F8941105F1BC0801299B
:101FA00011D1B4F98C003D90B4F98E003E90B4F993
:101FB00090003F903DA9DC48FEF7CBFB04F18C017B
:101FC000404600F0A4FB1FED48DB9FEDDABB9FED20
:101FD000DBCB9FEDDCAB9FEDDDEBD34ED5F80801FD
:101FE000E83E002802DD401EC5F8080196ED300BE2
:101FF00053EC1D2B51EC100B0CF042FE7DD2CA4964
:10200000E822E839684603F052FFC7483DA9E8389E
:10201000FEF79FFBC44940AA20390F46A1F1C80032
:10202000FEF769FD00287BD0BF483946E838FFF746
:1020300091F9B0EE408AF0EE608A95ED400B51ECDC
:10204000180B53EC102B0CF029FF96ED300B41ECE4
:10205000190B53EC1B2B51EC100B0CF01FFF41EC38
:10206000100B51EC190B53EC102B0CF0E1FA41EC76
:10207000100B07F05BFA96ED30FBB0EE409AF0EEF5
:10208000609A53EC1B2B51EC1F0B0CF007FF53EC29
:102090001F2B00E0E9E00CF0F5FC41EC1F0B53ECCA
:1020A0001C2B51EC180B0CF0EDFC53EC1F2B0CF01F
:1020B000BFFA41EC100B07F039FAD5F8E8000CF044
:1020C000D7FF95ED381B53EC112B0CF0DBFC53ECD8
:1020D000192B0CF09BFC03D3D5F80801002826DD52
:1020E0009148E8226946E83803F0E1FED5F8E800B7
:1020F0000CF0BEFF95ED381B01E010E010E053EC52
:10210000112B0CF0BFFC53EC192B0CF07FFC5CD2B4
:102110004FF4FA7001F03CFE0A20C5F8080154E0C3
:102120008148E8226946E83803F0C1FE4DE0D5F861
:102130009801012849D1D5F8B400401CC5F8B40075
:1021400000200AF07BFD96ED320B53EC1A2B51EC7C
:10215000100B0CF097FC0CF0FFFB3A9096ED340B53
:1021600053EC1A2B51EC100B0CF08CFC0CF0F4FB24
:102170003B9096ED360B53EC1A2B51EC100B0CF0F8
:1021800081FC0CF0E9FB3C9003213AA80AF0C8FC62
:1021900096ED300B53EC1E2B51EC100B0CF070FD38
:1021A00011D29FED6C0A6049E839F0EE400A08460A
:1021B000FEF7FFF95C483946E838FFF7CBF8B0EE98
:1021C000408AF0EE608A85ED408B208E564FC00528
:1021D0000CD5B4F87400C00508D507F1E800FFF786
:1021E000EAFDB0EE408AF0EE608A01E09FED4C8B94
:1021F00097ED300B1FEDCD1B51EC100B53EC112B59
:102200000CF004FC31D3484940AAC83189464648FD
:10221000FEF771FC00287CD0D4F8AC000CF0CBFBAE
:1022200041EC100B53EC102B9FED4B0B51EC100BB2
:102230000CF0FEF941EC1F0B4846FFF704FDB0EE31
:10224000409AF0EE609A53EC1F2B51EC190B0CF0F6
:1022500017FD0BD29FED420B51EC180B53EC102BDA
:102260000CF0D4FB02D2FFF76EFEDBE153EC1F2B28
:1022700051EC190B0CF0CAFB51D251EC180B9FED2D
:102280003A9B53EC192B0CF0C1FBF5D297ED300BB8
:102290009FED371B51EC100B53EC112B0CF0F0FCA5
:1022A000EAD296ED300B53EC1D2B51EC100B0CF0D9
:1022B00017FB7CD149461C48FFF74CF8B0EE408A2A
:1022C000F0EE608A85ED408B97ED309B53EC1B2B35
:1022D00051EC190B0CF0E2FD53EC192B0CF0D2FB76
:1022E00041EC190B53EC1C2B51EC180B0CF0CAFBF6
:1022F00053EC192B0CF09CF941EC100B07F016F97C
:10230000B0EE408AF0EE608AD5F8E8000CF0B0FE3E
:1023100000E088E195ED381B53EC112B2CE078E1BF
:102320000000000000000840B8080020880A0020D3
:102330000080FFFF000000000000F03F00000000F0
:1023400000000040000000000000F040000000001D
:1023500000409F406666E63E9A9999999999A941ED
:10236000000000000000F83F0000000000001040E6
:102370000000000000003E400CF084FB53EC182BE2
:102380000CF044FBFFF46FAF9DED400B4946404617
:10239000FDF7C4FF02283FF466AF00287ED1D5F8D0
:1023A00098010128FAD100200AF048FC00E02FE053
:1023B00097ED320B53EC1A2B51EC100B0CF062FB27
:1023C0000CF0CAFA3A9097ED340B53EC1A2B51ECFF
:1023D000100B0CF057FB0CF0BFFA3B9097ED360B4F
:1023E00053EC1A2B51EC100B0CF04CFB0CF0B4FA24
:1023F0003C9003213AA80AF093FB01200AF0BCFBB1
:10240000192000900190029068460AF0ADFBF6E0BA
:10241000D5F8B4000CF0CFFA97ED301B53EC112B2C
:102420000CF006F99FEDE71B53EC112B0CF028FC88
:10243000A8D34946E548FEF78DFF97ED30DBB0EEB7
:10244000408AF0EE608A53EC1B2B51EC1D0B0CF014
:1024500025FD53EC1D2B0CF015FB41EC1B0B53EC35
:102460001C2B51EC180B0CF00DFB53EC1B2B0CF040
:10247000DFF841EC100B07F059F8B0EE40BAF0EE7F
:1024800060BAD5F8E8000CF0F3FD95ED381B53EC7D
:10249000112B0CF0F7FA53EC1B2B00E087E00CF04B
:1024A000B5FAC5D39DED400B49464046FDF736FFD2
:1024B00000287CD196ED361B97ED360B53EC112B93
:1024C00051EC100B0CF0EAFC41EC100B53EC102B10
:1024D0000CF0D8FA96ED341B97ED340B41EC1B0B46
:1024E00053EC112B51EC100B0CF0D8FC41EC100B01
:1024F00053EC102B0CF0C6FA96ED321B97ED320B15
:1025000041EC1C0B53EC112B51EC100B0CF0C6FCE6
:1025100041EC100B53EC102B0CF0B4FA53EC1C2BC9
:102520000BF0D2FF53EC1B2B0BF0CEFF41EC100B4A
:1025300006F0FCFFB0EE40BAF0EE60BAD4F8AC00A2
:102540000CF039FA53EC1B2B0CF09CFA9FEDA01BFE
:1025500053EC112B0CF096FA41EC1B0B53EC192B9E
:102560000CF08EFB1AD39FED9C0B51EC1B0B53EC24
:10257000102B0CF085FBBFF476AED5F8B4000CF050
:102580001AFA97ED301B53EC112B0CF051F89FED1C
:10259000941B53EC112B0CF039FAECD2D5F89801BE
:1025A00001287FF460AE00200AF048FB00E039E02B
:1025B00085ED408B97ED320B53EC1A2B51EC100B41
:1025C0000CF060FA0CF0C8F93A9097ED340B53EC2C
:1025D0001A2B51EC100B0CF055FA0CF0BDF93B9096
:1025E00097ED360B53EC1A2B51EC100B0CF04AFA0A
:1025F0000CF0B2F93C9003213AA80AF091FAF7EEF8
:10260000000A9FED790A7149A1F1E800FDF7D1FFB9
:1026100029E697ED300B53EC1E2B51EC100B0CF010
:102620002FFBF5D3002043B0BDEC108BBDE8F08349
:1026300070B56E4C0546D4F80C0110B9284600F070
:1026400091F8D5F8B01044F6206081420ADAD4F847
:10265000102111448142C4F810114FF0000005DB35
:10266000C4F810012846BDE8704085E470BD04221E
:102670004FF4C871AFF247000AF016B9AFF24F003D
:102680000AF0D0BB514810B5E821E83803F0A8FCA7
:10269000FFF759FC4FF4D471544803F0A1FC534C9C
:1026A000B7EE000A04F5907084ED3A0A02F095FD49
:1026B0000A20C4F87001B2EE000A84ED570A1E2009
:1026C0009FED4B0AC4F87C0184ED620A9FED490A34
:1026D00084ED610A9FED480A002084ED630A10BD75
:1026E00010B5FFF7CFFF002805D1AFF27D00BDE8A0
:1026F00010400AF061B910BD10B5AFF2CB000AF07E
:1027000091FBAFF29500BDE810400AF0B1BB30B5C7
:102710000022C2EBC20331F9124030F91350AC422F
:102720000ADD02EB42040D8820F8245000EB8404FB
:102730004D8865808D88A58000EB430331F91240F8
:10274000B3F906309C4209DA02EB420300EB830343
:102750000C88DC804C881C818C885C81521C032A8C
:10276000D7DB30BD70B5214DD0F8AC200446EAB1BE
:10277000D3170020192103F075F945F8AC0F54F870
:10278000AC2F0020D317052103F06CF96860226894
:102790000020D317962103F065F90CF00CF9C5E978
:1027A0000D01AC3D0120C5F80C0170BD6FF000407B
:1027B000C5F8AC009FED110BC5F8B00085ED380BE6
:1027C000F0E700000AD7A3703D0AE73FB8080020F1
:1027D000000000000000103E000000000000044067
:1027E000333333333333C33F00000000880A002003
:1027F000CDCCCC3E3333333F9A99193F0000C0FF14
:10280000FFFFDF4110B5FF49C4074FF040434FF0D1
:10281000804205D08B66CB66C1E91C328A67CA67E5
:10282000840709D5C1F80031C1F80431C1E9423249
:10283000C1F81021C1F81421400709D5C1F8983119
:10284000C1F89C31C1E96832C1F8A821C1F8AC21B6
:1028500010BD2DE9F14F002082B0824681460298DA
:10286000806F00287ED000220020401C0428FCDB62
:10287000029800EBC203D3E90010A1FB0167D3E982
:10288000065400FB017701FB0077AB46AD1BCDE999
:1028900000670326A5FB06C8A64664EB070404FBF5
:1028A0000684002705FB0745DDE900671CEB0604ED
:1028B0007D41A4FB016705FB017504FB0055D3E9CD
:1028C0000C47341B65EB0705CDE900455D46A5FBCC
:1028D00005670324A6FB04580EFB0B770BFB0E7752
:1028E00007FB04844FF0000C06FB0C44D3E9126391
:1028F000761B63EB04034C18A4FB017C40EB000542
:1029000005FB01C504FB0055A7FB014C05FB01C5F8
:1029100007FB0055A4FB017C05FB01C504FB00542B
:10292000F6196341DDE90045AD0045EA9475A40060
:10293000A4FB017C05FB01C104FB0014F01B73EB3D
:10294000040103D50023404263EB0101BAEB00040C
:1029500079EB010301DA82468946521C032A83DBA4
:10296000504600E016E049460CF0B0FB00EE900A3D
:10297000A54890ED0E1A80EE810A10EE100A0CF0B8
:1029800023FCA04AD2F80C2203B09200BDE8F04F1D
:1029900003F055B8002003B00146BDE8F08F2DE9E3
:1029A000F14F0020009A0146926FE2B3002400220A
:1029B000521C042AFCDB009A02EBC405AA46D5E9A6
:1029C0000029A2FB023CD5E906769E46FB1A0325A8
:1029D000A3FB057809FB02CC02FB09CB66EB0B06D7
:1029E00006FB05854FF0000C03FB0C5617EB0E039E
:1029F000A3FB027C46EB0B0606FB02C203FB09238A
:102A0000DAE90C25BA1AAB4103D50025524265EB31
:102A10000303851A71EB030501DA10461946641C9D
:102A2000032CC4DB00E015E00CF050FB00EE900A34
:102A3000754890ED0E1A80EE810A10EE100A0CF027
:102A4000C3FB704AD2F80C22BDE8F84F02EB4202F9
:102A500002F0F5BF00200146BDE8F88F2DE9FE43E6
:102A6000684D80460024D5F810626F4605EBC4011E
:102A70003246D1E9020102F0CFFF05EB8401B1F843
:102A800084100904401847F8240004F10104032CC1
:102A9000ECDB5C489821083003F0A2FA0120FFF734
:102AA000B1FE95F8E8010199042807D1D5F818027C
:102AB000B0F5201F02DD052085F8E801524C009892
:102AC000636AC11A01D40E4600E01E1A0198A26A78
:102AD000801A01D4074601E0019FD71BBE4206DDE4
:102AE000002901D4084606E00098181A03E00028DF
:102AF00001D50198101A029AE16A521A01D41346BC
:102B000001E0029BCB1A834205DB002A01D4104668
:102B100001E00298081AD8F8241009F080FCD5F8D2
:102B20001812814206DD032168460AF0CDF8022022
:102B30000AF01CF9009860620198A0620298E062B5
:102B4000BDE8FE83304AC2E9020170472E4AC2E95D
:102B5000060170472C4AC2E904017047294AD2F89D
:102B6000E0310360D2E97402C1E900027047254AEE
:102B7000D2F8E0310360D2E97602C1E90002704781
:102B80002DE9FE4781460020EA468A6F22B901EB13
:102B9000800339F91020DA6701EB800239F910302F
:102BA000D46F1D1B4AF82050136E9D4200DD156640
:102BB000D36E9D4200DAD5660123002422464FEAF7
:102BC000E578A3FB056704FB057403FB0844334663
:102BD00002EB420601EBC60606EBC00CDCE9007610
:102BE000FF186641CCE90076521C042AE9DB401C40
:102BF0000328CADB886F401C88670120C1F8900059
:102C0000BDE8FE87300C0020900E002030B5002378
:102C100002EB830550F823405B1CEC66032BF7DBCB
:102C2000C2F88810916F79B1002102EB810450F84D
:102C30002130E56F5B1B00D55B42256E9D4200DABB
:102C40002366491C0329F0DB906F401C906701202C
:102C5000C2F8900030BD10B500210B4600EB810298
:102C6000491CD46ED46713660329F7DBD0F88810AB
:102C700040F8783FC0E9051310BDD0E92210081ACA
:102C800070470146D1E91802824200DB1046896E86
:102C9000814200DB084670472DE9F0478046501E10
:102CA000012686408946C2F12007404602F0C7FE51
:102CB00004460D46404649463A4602F0ADFE3A46C5
:102CC00002F0BDFEB04203DD641C45F1000505E0E5
:102CD0007142884202DA641E45F1FF3520462946DA
:102CE000BDE8F087F7490020086248628862C86240
:102CF000086448648864C864086348638863C86378
:102D0000086548658865C865704730B5EE4AD2F8F1
:102D1000483223B1D2E990542D1A8C4101DAC2E92C
:102D200090015B1CC2F8483230BD30B5E64AD2F89B
:102D3000583223B1D2E994542D1A8C4101DAC2E9F8
:102D400094015B1CC2F8583230BD30B5DE4AD2F86F
:102D500028322BB1D2E98845041B71EB050401DA56
:102D6000C2E988015B1CC2F8283230BD30B5D64AB2
:102D7000D2F838322BB1D2E98C45041B71EB050433
:102D800001DAC2E98C015B1CC2F8383230BD2DE992
:102D9000F0470246CC48012508308046C36E016EDC
:102DA000046FC91A436E1B1B8B4200DB1946836EEE
:102DB000D8F87400181A884200DB0146C14F60370A
:102DC000F86B884204DA002400F010FA204687E706
:102DD000108E0124BC4EC0054FF000010ED5D6F870
:102DE00080303068834209DBB2F87420D20506D502
:102DF000D6F8B021824201DB052400E00C4674B312
:102E0000600719D5AF48C8388146FFF722FD000D8D
:102E100040EA01300915C6E97601D7E904321B1AE8
:102E20008A4102DA0025FFF7A1FF9821484603F006
:102E3000D7F80420FFF7E6FCE0070ED04046FFF786
:102E400008FDC6E97C01D7E906340246181A8C4110
:102E500003DA00251046FFF778FF284640E7FFE732
:102E600002203DE71EB5044690F83000C0F3811003
:102E7000032804D19449201D0831FFF781FE94F8FE
:102E80007400C0F38110032805D18E4904F1480075
:102E9000C839FFF775FED4F8B8008B4AC0F3811328
:102EA000A0326946032B0FD0C0F3411003281AD17A
:102EB000002004EB8003D3F8A0309B1341F82030AE
:102EC000401C0328F5DB09E0002004EB4003B3F9C4
:102ED0008C3041F82030401C0328F6DB6846D4F8DB
:102EE000C010FFF793FE1EBD2DE9F04705460020F8
:102EF000296BCA056AD501F05001402900D1012093
:102F000095F8741001F05001402900D1012095F886
:102F1000B8106D4C01F05001402900D030B100F0E4
:102F200065F90020C4F8E00184F8E801654ED4F8A2
:102F30000812E86A6036814228D0C4F808020A28DC
:102F4000306B0CDA40002060716B00EE100A491CF7
:102F5000C4F80C12B8EEC00A06F025FB05E02060AC
:102F6000706BC4F80C0296ED0E0A84ED850AD4F855
:102F70000C02C0F11000C4F810024FF48040C4F8F5
:102F8000180296F8341019208840F0632846FFF79D
:102F900069FF94F8E811DFF8309105274FF0020837
:102FA00009F1A009072911D2DFE801F00411273047
:102FB0005E7E8500D4F8E001411CC4F8E0110A28C7
:102FC00004DB00F013F9012084F8E80186E0D4F86E
:102FD0009800012810D12846FFF7D9FE10B101282A
:102FE00003D004E084F8E87101E084F8E881484601
:102FF000FFF731FEFFF776FE70E0032084F8E8016A
:103000002846FFF72BFD00F0F1F867E02846FFF7B0
:10301000BEFEE8B3012861D1B5F8B8004FF0040353
:10302000C00515D54846FFF72CFE0146C017C4E978
:103030007410D6E902C2BCEB0101824102DA84F8C5
:10304000E87108E04846FFF718FE316A884202D36B
:1030500084F8E83124E0F4E97601FFF766FED4E96C
:103060000601FFF752FE39E0B5F8B800C0050BD5F0
:103070004846FFF706FE0146C017C4E97410D6E9BA
:103080000232591A824108DB2846FFF780FE00E031
:1030900003E010B1012803D020E084F8E8711DE0BE
:1030A0002846FFF7DBFCD6E7062084F8E80101207C
:1030B00009F05CFE0DE02846FFF769FE012805D007
:1030C00038B10BE0300E0020300C002084F8E8818D
:1030D00004E000F08BF84846FFF7BDFD0020FFE557
:1030E00010B500214010002802D001F10101F9DCE7
:1030F0004FF0010001F1010100FA01F0434C00EE34
:10310000100AC4E90C01B8EEC00A06F04CFA84EDCE
:103110000E0A94F8341019208840E06310BD10B5F1
:103120004FF418713A4802F05BFF4021374802F033
:1031300057FF0720FFF766FB344840F2DC510022BE
:10314000C0E906121421C0E902124FF41671C0E959
:10315000041230492E4C01620120C4F8E401192008
:10316000FFF7BEFF0020C4F8080210BD10B54FF4F1
:103170001871274802F034FF0720FFF743FB24486B
:1031800001210022C0F8E41180F8E8110321012098
:1031900009F0E2FD07226421AFF2B320BDE8104040
:1031A00009F082BB10B5012009F0E0FDAFF2C720A5
:1031B000BDE8104009F036BE10B5FFF7B0FF00289B
:1031C00005D1AFF25700BDE8104009F0F5BB10BDC6
:1031D00010B5FFF7E7FFAFF26B00BDE8104009F054
:1031E00047BE0B49D1E97C0170477047084810B5CC
:1031F0009821083002F0F4FE9821074802F0F0FE12
:10320000BDE810400520FFF7FDBA0000900E002039
:10321000300C00200008AF2F680D0020F0B51646D6
:103220002DED028B85B01F460C4605463C22FE491B
:10323000A1F10C0002F06DFEFB4950224C31A1F1CE
:10324000100002F066FEF84996E80D000C3901F115
:103250003C0C8CE80D005CCC01F1980080E85C002F
:103260009FEDF28AD1F82401401CC1F82401062800
:1032700002DD0620C1F82401C0F106060C46A03587
:103280001AE004EB06116A463846483109F023F982
:1032900006EB460004EB80016A46284608F006FC6F
:1032A000F0EEC00AB0EEC81AF4EEC10AF1EE10FA60
:1032B00001D2B0EE408A761C062EE2DB05B0B0EEFD
:1032C000480ABDEC028BF0BD70B514462DED048BA1
:1032D0000E46B0EE408A00259FEDD59A416BF0EE88
:1032E000498A002904DBD0F8BC00032800D101255D
:1032F000CD492422B431081F02F00BFECA480C3815
:10330000002380ED388A00EB83015B1C91ED2F0ACE
:103310000A2B70EE288AF6DBB2EE040AC822C8EE49
:10332000800AC0ED390A9FEDC31A322E1DDB9FEDD6
:10333000C20AC0F81C21B6F57A7FC8EE001A00EE6A
:10334000104AB8EEC00A61EE801A81EE810A2FDBC6
:103350009FEDBA0AC8EE001A00EE104AB8EEC00A95
:1033600061EE801A81EE810A22E041F2883194FBFD
:10337000F1F14942D0F81C3101EB8101C918C0F8C4
:103380001C1102D50021C0F81C119FEDAD0AC8EE3A
:10339000001A00EE104AB8EEC00A61EE801A81EE03
:1033A000810A29B9D0F82811012901D1B0EE490AC2
:1033B000D0F8201109B1B0EE480AA2498C4201D1DF
:1033C000B0EE480AB5EEC00AF1EE10FA01D0C0ED39
:1033D0003A0A90ED3A1A9C4B71EE600AF0EEE00A60
:1033E00010EE901A994227DDD0ED2E0AF5EEC00AB4
:1033F000F1EE10FA20D1002D1ED0C0F81C2120467D
:103400000BF0D9FA41EC190B18EE100A0BF030FE54
:103410009FED8E1B53EC112B0BF00AF953EC192B7B
:103420000BF030FB9FED8B1B53EC112B0BF000F9D5
:103430000BF018F800EE100ABDEC048B70BD2DE9FE
:10344000F04F04462DED048BA9B09FED799A4FF013
:10345000000A754ECDF810A00C3ECDF814A0CDF8A2
:1034600018A0D6F82011022003297DD000209FED5E
:103470007B8A20AD06EB800191ED2A0A05EB8001E5
:10348000401CB8EEC00A042820EE080A81ED000AAC
:10349000F0DB0FA808F082FC24A808F0E3FC624BE4
:1034A00024AA9C330FA920462793FFF7B7FEF0EE1E
:1034B000408A04F1180008F033FD81096148D6F80C
:1034C0003021824200DB0246B0EE680A2046FFF758
:1034D000FBFED6ED3B0AB3460BA820EE200A86ED94
:1034E0002E0A08F05BFC13A90BA809F06FF94E48EF
:1034F0000FAAF0300BA9064608F0EDFF31460BA8E5
:1035000008F0C6FF00210DF13C080DF14C090DF14A
:10351000100E00221346104601EB410C0CEB000785
:1035200059F8276008EB8007401C7F680328C6FB1A
:103530000723F3DB900F40EA83004EF82100491C7B
:103540000329E6DBDBF820015E4600286AD05046FE
:10355000CDF818A0404200EE100AB8EEC00A20EEE6
:10356000080A05F085FC00E0A2E08DED000A8DED73
:10357000019A8DED029A0698404200EE100AB8EECC
:10358000C00A20EE080A05F009FF8DED030A9DED43
:10359000060ADFED330AD6F83001B8EEC00A41F270
:1035A000883190FBF1F080EE201A00EE100AF8EE60
:1035B000C01A81EE210AB0EE001AC0EE011ABDEE6B
:1035C000E10A10EE101A490000EE101A0691B8EE4A
:1035D000C00A60EE200A00EE100AB8EEC00A20EE23
:1035E000800ABDEEC00A8DED060AB8EEC00A20EED4
:1035F000080A05F03DFC8DED070A8DED089A8DED6A
:10360000099A9DED060AB8EEC00A20EE080A05F0F8
:10361000C5FE8DED0A0A1CAA694620A808F0B3FF72
:103620006A461FE04BE00000DC0E002000247449D5
:103630000000000000409C45000048430000484254
:103640000000C84340420F000E2DB23D00000000B4
:1036500000007940000000000088B3400000803086
:10366000E102374707A91CA808F08DFF6F46DFED80
:10367000958AD4F8BC00002813DD002007EB8001F8
:1036800091ED000A05EB800181ED000A20EE280A89
:1036900006EB8001401C0428BDEEC00A81ED2A0A19
:1036A000ECDBD4F8BC00F6EE009A03280CD108E05D
:1036B000C6F8200129B0BDEC048BBDE8F08F069858
:1036C00048E700F03DFEE0B396ED2A0AB8EEC00AE6
:1036D00020EE080A8DED1C0A96ED2B0AB8EEC00A02
:1036E00020EE080A8DED1D0A96ED2C0AB8EEC00AF0
:1036F00020EE080A8DED1E0A96ED2D0AB8EEC00ADE
:1037000020EE080A8DED1F0AD6F820010028D1D03E
:1037100096ED2E0A20EE290A05F0AAFB20EE280AD3
:10372000BDEEC00A86ED2A0AC6F8ACA0C6F8B0A065
:1037300096ED2E0A20EE290A05F030FE20EE280A2A
:1037400000E004E0BDEEC00A86ED2D0A2BE096ED08
:103750002E0A20EE290A05F08BFB8DED070A8DED70
:10376000089A8DED099A96ED2E0A20EE290A05F0A9
:1037700015FE8DED0A0A6A4607A920A808F003FF86
:10378000684608F0ABFF002007EB800191ED000ACE
:1037900006EB8001401C20EE280A0428BDEEC00A7A
:1037A00081ED2A0AF0DBD4F8C010279809F0EAF975
:1037B000D6F820010028AAD0401E79E770B590F80D
:1037C000B810414ACC064FF000034FF0030101D47A
:1037D000C2E94813B0F82041E40509D4048EE40599
:1037E00003D5B0F87440E40502D4C2E948131AE0E6
:1037F000D2F8341139B1D0E93013C91A4FF47A73C1
:10380000B1FBF3F105E0D0F8B01044F62064A1421A
:1038100002DBC2F830110AE0D2F82C512944C2F878
:103820002C11A14201DA002070BDC2E94B31FFF733
:1038300006FEF8E710B54FF49C71234802F0D0FB68
:10384000214C4FF080400021C4F8FC0044F8A80F40
:103850001D48A83009F096F94FF47A70B7EE000AC7
:10386000606784ED110A10BD174880ED3B0A002007
:1038700070471549C1F82801002070471249C1F866
:1038800034010020704704224FF41671AFF2D300C8
:1038900009F00AB8AFF2DB0009F0C4BA10B5FFF7BF
:1038A000C9FF09490020C1F82801C1F83401AFF26D
:1038B0002900BDE8104009F07FB8AFF2350009F0EB
:1038C000D7BA00000000804ED00E00201FB5014680
:1038D0001022684602F0A6FAF7489DE80E0080E83C
:1038E0000E00F6499DF80C0081F8B001002004B0EC
:1038F00010BD1FB5F0490EC98DE80E00EF4910222A
:1039000091F8B0118DF80C10694602F08BFA002086
:10391000EDE72DE9F04F91B000251821684602F03F
:103920005FFB0024182106A802F05AFBE348A046DA
:10393000C14690F8C01101297ED1D0F8B8B1D0F8B5
:10394000B4A10022C2EBC20000EB4001DB4800EB57
:10395000810E9EF850000F90002864D000215FE097
:10396000DDE900076D1C5EF821300E93181847EB57
:10397000E376CDE900060EEB8100EDB243690D93CD
:10398000DDE9027C4FEAE376DB1946EB0C06CDE974
:103990000236836ADDE9047CDE170C93DB1946EB03
:1039A0000C06CDE90436C06B0E9BDDE9067C83FB7B
:1039B0000063360C46EA0346F6194CEB2343CDE987
:1039C00006630D9BDDE9087C83FB00634FEA164626
:1039D00046EA0346F6194CEB2343CDE908630C9BFA
:1039E000DDE90A7C83FB00634FEA164646EA03469C
:1039F000F6194CEB2343CDE90A6380FB00634FEAE1
:103A0000164646EA034616EB080849EB23490444E8
:103A1000584501DA834602E0504500DD8246491CE4
:103A20000F9888429CDC521C052A8BDBA348AAEB2A
:103A30000B01D0F8BC0100E056E0814254DBA5FB4D
:103A40000823E0170026109006FB083005FB09004C
:103A5000CDE90C2084FB0420110C41EA0041001444
:103A6000CDE90E0106A800EBC601D1E90003A0FBD9
:103A700005B203FB0522002100FB012C684600EB88
:103A8000C601D1E90001A0FB043701FB0471109AC3
:103A900000FB0210190C41EA00490CAA4FEA204A27
:103AA00092E889000F9983EA070880EA010252EA46
:103AB000080212D0421A63EB0703BBEB09006CEB60
:103AC0000A0C4FEA0C4141EA1041000401F0CAFF20
:103AD0007A4901EB8601C1F8A401761C032EC1DBF3
:103AE0007648012180F8B01111B00020BDE8F08FB8
:103AF000F8B5724D0E460446D5E96D01091A052246
:103B000091FBF2F1301A90FBF1F0C0B28DF8000099
:103B1000042801D92020F8BDC0EBC00000EB400014
:103B200005EB800191F85000052816D0421C81F861
:103B300050209DF80010C1EBC10101EB410105EBE4
:103B4000810202EB8001CE63236842F82030606876
:103B50004861A06888620020F8BD01F14003181F89
:103B60001022194602F0D5F99DF800001022C0EB92
:103B7000C00000EB400005EB8000011D02F0C9F918
:103B80009DF800001022C0EBC00000EB400005EBE8
:103B9000800000F11801143002F0BBF99DF800001C
:103BA0001022C0EBC00000EB400005EB800000F1EC
:103BB0002C01283002F0ADF90420BAE730B585B009
:103BC000044603A9684608F085F904A808F034FA09
:103BD00002282BD0D4F8E4000399401A374991F811
:103BE000B02112B308B3D1F8A421009C80FB0232AB
:103BF000150445EA134222440092D1F8A821019C01
:103C000080FB0232150445EA134222440192D1F8A6
:103C1000AC11029A80FB0110030443EA11401044E6
:103C200002900321684609F04FF80CE0606B03280E
:103C300009D108F061F930B168460399FFF758FFE0
:103C400008B9FFF766FE05B0002030BD10B54FF48F
:103C5000E2711A4802F0C4F918481949C0F8B411C1
:103C60004FF4AA01C0F8B8114FF4A021C0F8BC115C
:103C7000012180F8C011002010BD1049C1F8B80121
:103C8000002070470D49C1F8B401002070470B496E
:103C9000C1F8BC010020704758B10849D1F8A421EF
:103CA0000260D1F8A8214260D1F8AC1181600020F7
:103CB0007047052070470000AC110020081000205C
:103CC0000000D8FF2420F5E720B12D4981F8C0017C
:103CD0000020EFE72420EDE7294B93F8B1010028FD
:103CE000E8D0D3E96D10401A052190FBF1F00020D7
:103CF000C0EBC00101EB410103EB810191F85020C1
:103D000022B1002100E0491C8A42FCDC401C05284D
:103D1000EEDB0020CEE7082296211A4808F0C4BD49
:103D2000184809F07FB810B5FFF790FF4FF49A7369
:103D300010221549154808F00BFE20B9AFF22900F2
:103D400008F03AFE08B1012010BD0D49012081F8AC
:103D5000B101002010BD10B5094C94F8B101002844
:103D600008D0084809F05EF8AFF2550009F080F875
:103D700008B1012010BD002084F8B10110BD000081
:103D800008100020BD3B0008F3380008CD380008BB
:103D9000002803DDFE490122C1E92002002070470E
:103DA00010B5B821FA4802F01BF99FEDFA0AF8485D
:103DB00080ED030A9FEDF80A80ED020A9FEDF70AF5
:103DC0004FF0804180ED000AB3EE0E0A80ED010A4B
:103DD00041664FF4FA619FEDF20AC16780ED270A50
:103DE000002010BD70B5EA4C002594ED001AB4EE29
:103DF000C01AF1EE10FA17D394ED011AB4EEC01AFE
:103E0000F1EE10FA10DC2069012817D194ED030AB5
:103E1000B4EEE00AF1EE10FA06D394ED020AB4EE25
:103E2000E00AF1EE10FA09DD606F20B9D848A16D03
:103E3000183008F0A7FE0120C4E91D05D4E91E01D1
:103E4000884204DB606F012800D1E565656770BDBD
:103E500010B504462DED028BB0EE408A07F0A8FFA6
:103E6000CB49002220B918EE100ACE4B984202DD51
:103E70000A614A6102E00869002808D148692044C3
:103E80004861B0F5FA7F02DD0120C1E90402BDEC12
:103E9000028B10BDF0B58DB00D461446064669463E
:103EA00008F094FC09AA3146284608F014FB29467C
:103EB000304608F0EDFA0021EC460DF1240E002307
:103EC0001A46184601EB41073D180EEB80065CF8D8
:103ED00025507668401CC5FB06320328F4DB980F9A
:103EE00040EA820044F82100491C0329E7DB0DB0B9
:103EF000F0BDA7490020C1F88C00704710B590EDC7
:103F0000000AD0ED010AB8EEC00AB8EEE01AF8EEE9
:103F1000E00A20EE000A01EE200AD0ED020AB8EE17
:103F2000E01AF8EEE00A01EE200A05F03CFBDFEDB6
:103F30009E0A20EE200A10BD00229549012330B1CF
:103F4000012810D0C1F8983041F88C2F31E081ED74
:103F5000280A81ED290A9FED950A81ED2A0AE1E9F7
:103F600024328A607047D1ED280A91ED271A70EE4D
:103F7000600AF0EEE00AF4EEC10AF1EE10FA16D291
:103F8000D1F89400401CC1F89400D1ED290A3128E1
:103F900030EE800A81ED290AE4DD0220DFED840A9B
:103FA000C1F8900080EE201A81ED2A1A704741F87E
:103FB000902F4A6070472DE9F04798462DED088B09
:103FC0008AB017468A4604469FED788A0025704ECF
:103FD000039504950595D6F8880000287DD007F054
:103FE00097FF10B103A807F067FFD6F880004FF0E5
:103FF0000109002817DDC6F8849007F089FF48B151
:1040000003A807F08DFF8009B0F5C87F02D2D6F86B
:10401000800004E0D6F88000001BC6F8800000286D
:1040200001DCC6F8845008F055F9002855D000206E
:104030009FED5D9A57F8201000EE101A58F82010E6
:10404000401CB8EEC00A032860EE090A00EE101A00
:10405000B8EEC00A20EE800A00EE098AEADB384694
:10406000FFF74CFFF0EE408A4FF07E5788EE280AAB
:10407000F7EE00AA10EE100AB84201DDB0EE6A0AAF
:1040800010EE100ADFF82C81BFEE00BA404501D9CE
:10409000B0EE4B0A04F0D2FCD6F88C00B0EE40AA89
:1040A00098B196ED000AB4EEE80AF1EE10FA0CDDD4
:1040B00096ED010AB4EEE80AF1EE10FA05D2B0EE80
:1040C0004A0AD6F89000FFF737FF684607F09EFFD0
:1040D0002F490C22AC31684600E0E2E001F076FEA8
:1040E00018B9D6F8980001286BD129489DE80E0030
:1040F000AC3080E80E00009818B9019808B9029811
:10410000F0B36846FFF7FAFEB0EE408AB5EEC08A1B
:10411000F1EE10FA55D0F2EE049A38EE690A20EE6C
:10412000000A05F040FA86ED010A38EE290A20EE71
:10413000000A05F038FA86ED000A9DED020AB8EE95
:10414000C00A60EE090AB0EE480A80EE808A18EED6
:10415000100AB84201DDB0EE6A8A18EE100A404536
:1041600001D9B0EE4B8AB0EE480A04F067FCD6EDF8
:10417000270A30EE600A86ED020AB0EE480A00E037
:1041800024E004F05BFCD6ED270A30EE200A14E0B0
:10419000CC1100200000B4420000B4C20000704204
:1041A0007B142E3E00401C460000803700000000BB
:1041B00000004842000080BF03E086ED030AC6F815
:1041C0008C50DFF88481F16D21B32FE01FED0D0AD3
:1041D00086ED000AB3EE0E0A86ED010AD6F89800C5
:1041E000012808D01FED140A86ED020A1FED170AF8
:1041F00086ED030AE5E796ED2A0A96ED271A70EE9A
:10420000410A30EE010AC6ED020A86ED030AC6F83D
:104210009850D6E70027C6F85C9006EB0710414699
:10422000183007F0F7FD7F1C042FF6DB464906AA7D
:104230000C310F465046FFF72DFE3946504608F028
:1042400027F903A807F06CFE00EE100ADFED3F0A25
:104250002046B8EE400A20EE200AFFF7F9FDF0EE06
:104260004A0AB0EE680AFFF7BDFDD6E91E01884292
:1042700001DA2044B067706F90B9306E2044306628
:10428000B0F57A7F0CDD304930223039A1F11000D1
:10429000356601F03EFE2C484146103807F0BAFD65
:1042A000706F0AB0BDEC088BBDE8F08770B588B0C0
:1042B000044604A807F0D6FDD4E93001451A684643
:1042C00007F06CFD064604AB04F1A00269462846DF
:1042D000FFF771FE08F066FC08B0304670BD04229E
:1042E0004FF49671AFF23B0008F0DEBAAFF2430034
:1042F00008F098BD10B5FFF753FD00280DD1124806
:1043000000215838C0F88C100121C0F88810AFF295
:104310003100BDE8104008F04FBB10BD10B5AFF242
:10432000730008F07FFDAFF27B00BDE8104008F09D
:1043300079BD054901205839C1F88C00002070472B
:1043400001485838406F7047241200200000803C1C
:10435000F0B51D462DED028B99B090ED000AD0ED21
:10436000010A1746B8EEC00AB8EEE01AF8EEE00A05
:104370000E4620EE000A044601EE200AD0ED020AA5
:10438000B8EEE01AF8EEE00A01EE200A05F00BF9AB
:10439000F0EEC00A10EE900AB0F18D4F7EDDD6ED42
:1043A000000AB8EEE01ADFEDFE0A21EE201A8DEDCC
:1043B000041A96ED011AB8EEC11A21EE201A8DEDFD
:1043C000051A96ED021AB8EEC11A21EE201A8DEDEB
:1043D000061A96ED031AB8EEC11A61EE200ACDED69
:1043E000070A9FEDF08A10AA8DED0C8AD4ED000A21
:1043F0000CA904A8F8EEE00A80EE801A8DED0D1AE3
:10440000D4ED010AF8EEE00A80EE801A8DED0E1A66
:10441000D4ED020AF8EEE00A80EE801A8DED0F1A54
:1044200008F0B1F814A904A808F03EF86A4614A9E7
:1044300010A808F0A8F89DED021ADDED010ADA498E
:1044400021EE010A00EEA00A10EE100A884202DAFC
:104450009FEDD60A11E010EE100AD549884202DA23
:104460009FEDD40A09E010EE100AD349884202DA1F
:10447000B5EE000A01E09FEDD10A01EE907AB8EEA8
:10448000E12ADFEDCF2A8DED088AC2EE221A21EE55
:10449000800A21EE001A8DED091A00E038E020EEC6
:1044A000C00A6A4604A98DED0A0A8DED0B8A08A898
:1044B00008F069F86A4604A9104607F0C8FF684684
:1044C00008F0CAF8DDED000A9FEDBE0A60EE800A32
:1044D000FDEEE00AC5ED000ADDED010A60EE800A9E
:1044E000FDEEE00AC5ED010ADDED020A60EE800A8C
:1044F000FDEEE00AC5ED020ADDED030A20EE800ABA
:10450000BDEEC00A85ED030A19B0BDEC028BF0BD0B
:1045100096E80F0085E80F00F6E72DE9F0410C461C
:104520002DED068B054690ED000AD0ED010AB8EEA0
:10453000C00AB8EEE01AF8EEE00A20EE000A01EE3A
:10454000200AD0ED020AB8EEE01AF8EEE00A01EE19
:10455000200A05F028F810EE100A4FF07E580026C9
:104560004FF0804740453FDDD5ED020AB7EE009A97
:10457000F8EEE00AC0EE808A39EE680A9FED89AA5B
:10458000B5EEC00AF1EE10FA01DCB0EE4A0AF6EE22
:10459000009A20EE290A05F006F8B0EE408A38EEBF
:1045A000890AB5EEC00AF1EE10FA01DCB0EE4A0A53
:1045B00020EE290A04F0F7FFF0EE408A95ED000A9C
:1045C000B8EEC00A60EE000A95ED010AB8EEC01A16
:1045D000B8EEC00A41EE000AB0EE600A04F0E3FF54
:1045E00010EE100A404503DCC4E90076A66025E021
:1045F000DFED740A28EEA01ABDEEC11A84ED001A90
:1046000095ED011AF8EEC11A81EE801A21EE081A12
:1046100061EE200AFDEEE00AC4ED010AD5ED000AC4
:10462000F8EEE00A80EE801A21EE080ADFED660A55
:1046300020EE200ABDEEC00A84ED020AE660BDEC61
:10464000068BBDE8F08170B590ED000AD0ED010A4F
:104650000546B8EEC00AB8EEE01AF8EEE00A0C46DD
:1046600020EE000A01EE200AD0ED020AB8EEE01AB0
:10467000F8EEE00A01EE200AD0ED030AB8EEE01AE7
:10468000F8EEE00A01EE200AB5EEC00AF1EE10FAEB
:1046900007D84FF08040206000206060A060C860B4
:1046A00070BD04F080FFB7EE001AC1EE000A9FED66
:1046B000450A20EE800AD5ED000AF8EEE00A60EE29
:1046C000800AFDEEE00AC4ED000AD5ED010AF8EE1D
:1046D000E00A60EE800AFDEEE00AC4ED010AD5EDC5
:1046E000020AF8EEE00A60EE800AFDEEE00AC4ED90
:1046F000020AD5ED030AF8EEE00A20EE800ABDEECC
:10470000C00A84ED030A70BD70B5044690F830000D
:1047100088B040067ED5A069002801DB014600E094
:1047200041424FF480320026284D91420BDAE16974
:10473000002900DA4942914205DA216A002900DAAB
:104740004942914267DB002800DA40424FF4C80139
:1047500088420BDCE069002800DA4042884205DC30
:10476000206A002800DA4042884201DD032000E090
:104770000220A863696BA06A814242D0686394ED0D
:104780000A0A9FED131AF8EEC00A80EE810ADFEDE7
:10479000110A20EE200A10EE100A0AF069FC1BE054
:1047A000000080300000000017B75139A69BC43BC1
:1047B0000AD7233C8FC2753DCDCC4C3ECDCCCC3EF0
:1047C0000014CD470000804E000080CE84120020EF
:1047D000002474490000004E9FEDFA1B53EC112B8E
:1047E0000AF050F99FEDF91B53EC112B0AF04AF92E
:1047F0009FEDF81B53EC112B09F01AFF0AF0ACF8EF
:1048000028630496296BA06907F009FE0590296BBF
:10481000E06901E022E023E007F001FE0690296B49
:10482000206A07F0FCFD07906A4604A9EB4807F0F0
:1048300052FE0098E94A8001009001986946800183
:104840000190029880010290039880010390104625
:1048500007F0EBFDE1490846FFF7F5FE08B070BD33
:10486000AE63FBE770B504462DED048B8EB0D0F837
:104870002001410676D5D94DD4F81011D84B2A68BD
:10488000891AD4F82C215A438A4201DA032100E024
:104890000221A963800504F5887602D5CF49304608
:1048A000B5E0002107A807F015FBCC490C223C31EC
:1048B00007A801F08BFA20B9D4F82801A96D884225
:1048C0007ED020886B4680B207AA616A07F044F95F
:1048D0009DED000ADDED010AB8EEC00AB8EEE01A5F
:1048E000F8EEE00A20EE000A01EE200ADDED020AF1
:1048F000B8EEE01AF8EEE00A01EE200A04F053FEEA
:10490000B0EE408A9FEDB70A68EE000A9FEDB61A36
:1049100080EE810ADFEDB50A20EE200AD4ED4A0AC6
:10492000F8EEE00A60EE800A1FED571A80EE810A69
:10493000F6EE000A20EE209AB0EE490A04F098FA4A
:10494000F0EE408AB0EE490A04F028FD18EE100A95
:104950004FF08041884206DA0020C5E91210286530
:10496000686532E055E05FED690A68EEA00AFDEE89
:10497000E00AC5ED120A5FED6C0A20EE200ADDEDBB
:10498000000AF8EEE00A60EE200A80EE881AFDEEDA
:10499000C10AC5ED130ADDED010AF8EEE00A60EE8A
:1049A000200A80EE881AFDEEC10AC5ED140ADDED7D
:1049B000020AF8EEE00A20EE200AC0EE080A00E043
:1049C0000DE0BDEEE00A85ED150A07AB93E80700A0
:1049D00005F13C0383E80700D4F82801A8657F4966
:1049E00003AA4831304607F076FD7C480AAA5C30BD
:1049F00003A9044607F06FFD2146304607F048FD45
:104A000003AA0AA9754807F066FD744903A8FFF7D1
:104A10001AFE0EB0BDEC048B70BD1FB5044669468E
:104A20006E4807F035FD6D4A69462032204607F092
:104A300052FD6A491DCC103181E81D001FBD2DE9D2
:104A4000F0470446654E90F8740006F15C0A06F1E2
:104A50002008012500F05001103692B004F5887945
:104A600004F15C07402906D094F8200100F05000C2
:104A700040280DD01DE031463846FFF74EFDB4F812
:104A80002001C0050CD55146484607F001FD07E05E
:104A90005146484607F0FCFCB4F87400C00508D540
:104AA00069464E4807F0F4FC42466946304607F036
:104AB00012FDB4F82001C005204602D5FFF7D2FE52
:104AC00001E0FFF721FE32464449404607F003FD6E
:104AD00094F8740040066FD5208EB4F82011084376
:104AE000C0056DD50FAA3946304607F04FFED4E910
:104AF000172080FB0001C2FB0201626E374FC2FB30
:104B000002014FF08042801A71F1020014DB04A808
:104B100007F03CFADDE9042080FB0001C2FB020142
:104B2000069AC2FB02014FF08042801A71F1020026
:104B300002DB0420B8630BE0B86B042808D041F214
:104B40008832022806D0032804D0012852D009E078
:104B5000002507E0E16E91FBF2F5012D00DA012559
:104B6000032800D0AD002248002445431098079444
:104B70008002294607F053FC08900F9829464042CE
:104B8000800207F04CFCCDE909040BAA314607A8C6
:104B900007F0A1FC32460BA9104607F046FC31464F
:104BA0000846FFF750FD69460C4807F071FC424685
:104BB0006946304607F08FFC12B00020BDE8F08750
:104BC00020E00000112D4454FB21094000000000AA
:104BD0000000704000000000008066408412002049
:104BE00071981C00DB0F49400000344300008037FF
:104BF000A69BC400E06E90FBF2F0012800DA0120D1
:104C00004500AFE7334619463846E26EFFF7A0FB92
:104C1000C9E770B50446008EC105D4F8200107D459
:104C2000B4F87410C90503D4C10501D4002070BDC7
:104C3000C0F30120032807D02046FFF700FF2348D8
:104C4000A16B08F0DFF8F1E704F588711F482EC961
:104C500080E82E00F3E71E4808F0E4B81B4810B5C2
:104C60006C21103801F0BCF918484FF08041103821
:104C7000016101600162C163C165002010BD184877
:104C800010B5082213A1006801F0A0F808B1322085
:104C900010BD1322BDE81040C8210D4807F004BE26
:104CA00010B5FFF7DBFF002805D1AFF22D00BDE8FE
:104CB000104007F081BE10BD10B5054808F0B2F8ED
:104CC000AFF24500BDE8104008F0D2B894120020C1
:104CD000134C0008654D504C20352E31000000006B
:104CE0001C00002000209FEDFE0AFE4ADFEDFE0AB8
:104CF00002EB8001401C81ED080AC0B2C1ED0B0A35
:104D00000328F5D37047F74A002002EB8001D1ED6C
:104D1000080A91ED2D0AF4EEC00AF1EE10FA01D264
:104D200081ED080AD1ED0B0AF4EEC00AF1EE10FA9B
:104D300001DD81ED0B0A401CC0B20328E5D37047AA
:104D40003EB50B46B0F8481009040091B0F84A107F
:104D5000009A09040191B0F84C1009040291E1494C
:104D60004C6E121B0092019A8C6E121B0192029AD9
:104D7000C96E511A0291816EB0F844006A4680B241
:104D800006F0EAFE3EBDF0B5D64F00242546D7F822
:104D900094208DB02E46012A01D1C7F8946009A94C
:104DA000FFF7CEFF05A807F05DF805990998602286
:104DB000A0EBA130099006990A98A0EBA1300A90C7
:104DC00007990B98A0EBA130C8490B90081F01F080
:104DD000A0F80DF1240CC5489CE80E00143080E8C2
:104DE0000E00684607F0D2F8C04960226C31081FF7
:104DF00001F08FF8BD489DE80E00803080E80E007D
:104E000000210922D7F82C04401CC7F82C0401EB20
:104E1000410007EB8000DDF800C0D0F84C33491C9E
:104E200093FBF2F31C44D0F85033092993FBF2F3BF
:104E30001D44D0F8543393FBF2F31E44D0F8B8333A
:104E400093FBF2F363440093D0F8BC33DDF804C065
:104E500093FBF2F363440193D0F8C003029B90FBF1
:104E6000F2F018440290CDDB002C00DA6442002DF1
:104E700000DA6D42002E00DA76420098002800DA4F
:104E8000404200900198002800DA404201900298C8
:104E9000002800DA40420290009900208C4200DA9B
:104EA000012001998D4200DA401C02998E4200DAFD
:104EB000401CD7F82C14092900DB401C04280DD114
:104EC00097F8240402280BD901468648D7F82824ED
:104ED000643007F0E1FD012007F0D8FD0DB0F0BD12
:104EE00007F0C6FDFAE72DE9F0417E4D00272DEDD4
:104EF000048B06463C4685F824749FED7D9B9FED10
:104F00007E8BC5F8287405EB8400D5ED0F0A90ED73
:104F1000330AB4EEE00AF1EE10FA1EDB95ED140B45
:104F200053EC182B51EC100B09F0B8FF41EC100BAF
:104F300004F046F853EC192B51EC100B09F066FD08
:104F40000BD295F824040121401C85F82404D5F8DF
:104F50002804A1400843C5F82804641CE4B2032CCB
:104F6000D1D395F82404B8B3002406EBC40090ED27
:104F7000000B51EC100B09F0EFFC05EB8401641CF5
:104F8000E4B24866032CF0D3C5F82C74A868042852
:104F900002DA95F82404A86095F8240403281BD1AC
:104FA0005749E868884217DC95ED140B53EC182B31
:104FB00051EC100B09F072FF41EC100B04F000F8FB
:104FC00053EC192B51EC100B09F020FD04D2A8680A
:104FD000032801D10420A8604A49286988421DDAC3
:104FE0004949E868884219DC95ED140B53EC182BFD
:104FF00051EC100B09F052FF41EC100B03F0E0FFF5
:105000009FED421B51EC100B53EC112B09F0FEFCF1
:1050100004D2A868042801D10520A860BDEC048B47
:10502000BDE8F0812DE9F0412E4C0746D4F8A404E8
:10503000012802D000252846F2E73649F7EE000A9B
:10504000A1F1E800B7EE000A0646FBF7B2FA254ADE
:105050003046503202F5AC71FBF74DFD0500EAD049
:105060006068401C606094ED140B51EC100B09F06B
:1050700073FCB96E07F0D3F900EE100ADFED260AD3
:10508000B8EEC00A20EE200A10EE100A09F0F0FF78
:10509000C4E9140194ED6A0B51EC100B09F05CFCAF
:1050A000A06594ED6C0B51EC100B09F055FCE0651C
:1050B00094ED6E0B51EC100B09F04EFC206694ED54
:1050C000680B9FED161B51EC100B53EC112B09F0E4
:1050D000D7FDB0D231469FED130AF0EE400A23E02F
:1050E00000401CC6F012002000401C464016002064
:1050F0009A9999999999B93F000000000000F03FF2
:10510000AE47E13D00007A43BC74933C9CC420B0A0
:105110007268913FB8140020000080370000000042
:105120000070A740CDCCCC3E0846FBF742FA82E7A0
:10513000D0ED030A90ED040A00210122F4EEC00A2A
:105140000223F1EE10FA12DD90ED051AF4EEC10A19
:10515000F1EE10FA0BDDB4EEC10A0164F1EE10FAC3
:1051600002DBC0E911237047C0E911327047B4EE89
:10517000E00AF1EE10FA12DD90ED051AB4EEC10A64
:10518000F1EE10FA0BDDF4EEC10A0264F1EE10FA52
:1051900002DBC0E911137047C0E911317047F4EE2A
:1051A000C00A0364F1EE10FA02DBC0E91112704785
:1051B000C0E911217047002319469FEDFE0AC36420
:1051C00000EB8102491C82ED000A82ED090A0329E5
:1051D000F6DB0121C0E91D13704730B504461420E9
:1051E000A0650A202066002584F870502046FFF74D
:1051F000E2FF656530BD70B52DED048B86B0694664
:10520000FFF79EFD9FEDEC8B1FED3D9A00246E464F
:1052100003AD56F8240000EE100A05EB8400B8EE4A
:10522000C00A20EE090A80ED000A20EE000A10EE06
:10523000100A09F01DFF53EC182B09F045F941EC59
:10524000180B641C032CE4DBB0EE480AF0EE680A8D
:1052500004F06CF9DA4EB0EE408AF0EE608A002479
:1052600055F8240009F004FF53EC182B09F0E0F97D
:1052700009F0F8F800EE100A06EB840000F58060F3
:10528000641CD0ED0C0A032C30EE200A80ED0C0AD1
:10529000E6DBD6F88404401CC6F884040120C6F876
:1052A000AC0406B0BDEC048B70BD70B505462DEDA9
:1052B000028B86B004AA03A9684606F0DBFF9FEDC7
:1052C000BE8B00246E4606EB840090ED000A20EEB3
:1052D000000A10EE100A09F0CBFE53EC182B09F06F
:1052E000F3F841EC180B641C032CECDBB0EE480A1D
:1052F000F0EE680A04F01AF9B0EE408AF0EE608A27
:10530000002456F8240009F0B3FE53EC182B09F0E2
:105310008FF909F0A7F800EE100A05EB8400641C71
:10532000D0ED000A032C30EE200A80ED000AE8DB05
:10533000686D401C68650120E86706B0BDEC028B13
:1053400070BDF0B504460021F7EE001A9FED992AD2
:1053500094ED140A04EB8100B8EEC01AD0ED000AF7
:1053600080EE810AB5EEC00AF1EE10FA02DBB0EE73
:10537000401A01E0B1EE401AD0ED060AF5EEC00A7F
:10538000F1EE10FA01DAF1EE600A71EE600AC0ED9A
:105390000C0A80ED060A94ED0F1AD0ED092A71EE81
:1053A000610A00EEA20AC0EE010AC0ED090AF5EE9C
:1053B000C00AF1EE10FA01DAF1EE600AC0ED030A5C
:1053C000491C80ED002A0329C2DB2046FFF7B0FE0E
:1053D000E06CB0F57A7F01DA401CE06494F87070FC
:1053E00000210526042303250122206C062F09D263
:1053F000DFE807F00309102B52376267A267E16408
:1054000084F87020F0BDE06F0128FBD1022084F801
:1054100070000DE004EB8000D4ED190A90ED030A52
:10542000B4EEE00AF1EE10FA04DB84F8703031E0FB
:10543000A167F0BDD4ED1A0AB4EEE00AF1EE10FA5D
:1054400022D934E06267A267F0BD04EB8000D4ED9E
:10545000190A90ED030AB4EEE00AF1EE10FAE4DA6C
:10546000F0BD04EB8000D4ED1A0A90ED030AB4EE0F
:10547000E00AF1EE10FA07D9006B524EB04206D99D
:10548000216EE06C8842EBDB84F87050DAE784F838
:105490007030E1646167CBE704EB8000D4ED1B0A58
:1054A00090ED030AB4EEE00AF1EE10FAD8D884F8D1
:1054B0007060E164C6E710B5044600EE104AB8EE2D
:1054C000C00ADFED410A20EE200A9FED401AC0EE2F
:1054D000010AB6EE000A20EE800A10EE100A09F06A
:1054E000C7FD41EC100B03F05FFC9FED391B51EC45
:1054F000100B53EC112B09F0C5FA09F02DFA0146F7
:105500002F48C0E9204110BD2DE9F04F00242DEDBA
:10551000028B91B00546049405940694C06E44F63F
:105520002061274E884206DBD6F88010884210D0D2
:10553000FFF7C1FF0DE0D6F848231044C6F8480332
:1055400088427DDBE96E814201D0FFF7B4FFC6F8E7
:105550004843286BC6F8B0042846FFF74CFE06F512
:10556000906003C8814204DB1B48FFF7EAFEC6F8DF
:105570008444D6F8A804012802D12846FFF703FC8A
:10558000D6F8A40401285BD104A806F01DFD9DED0A
:10559000040ADDED050A20EE000A00EEA00ADDEDAA
:1055A000060A00EEA00A03F0FEFF86ED030ADFED17
:1055B0000B0A15E0000000000000000000000000E1
:1055C000F0120020CDCC4CBD368D2740002474490C
:1055D000000000000000D04120170020000080469D
:1055E00020EE200AC149A146ADF82040BDEEC00A18
:1055F000099110EE100AADF81C00ADF81E4007A886
:10560000FDF7BEFA684606F01FFD316F009806F000
:1056100006FF0446716F019806F001FF0444B16F64
:10562000029806F0FCFE0444F16F039806F0F7FEC2
:1056300004EB00089DE80F0000240DF1340A00E09F
:10564000A2E006F170079FEDAA8A87E80F000DF12E
:10565000280B05EB4407A96E37F8480F000406F045
:10566000DEFE00EE100A4AF8240006EB8400B8EED5
:10567000C00A20EE080A80ED050A388801044BF8BC
:105680002410641CE4B2032CE3D398480AA9E83838
:105690000446FBF75EF83168D6F82803884273DBCE
:1056A00095ED390AD6ED360AB8EEC00AF5EEC00A15
:1056B00020EE080AF1EE10FA05D070EE600AF0EE66
:1056C000E00AC6ED370A86ED360AB068062818D219
:1056D000DFE800F0030303030D249FED860AC820D2
:1056E00086ED0E0AB7EE000A86ED0F0A08E09FED80
:1056F000820A86ED0E0A9FED810A642086ED0F0A6C
:105700003064288EC005099812D4FDF748F909F0D5
:10571000DDFC00EE100A5FED530A11E09FED780A00
:1057200086ED0E0A9FED770A322086ED0F0AE7E735
:10573000FDF78FF809F0CAFC00EE100ADFED720ADF
:10574000982180EE201A86ED041A099800F048FC92
:10575000D6F88410414543DA96ED040AB5EEC00A46
:10576000F1EE10FA3CDDD6ED0E0AB4EEE00AF1EEF1
:1057700010FA35D2316C7068884206DA2846FFF795
:1057800051FC002859D00CE056E06049D6F8B00032
:10579000884206DB2846FFF745FC00284DD0C6F8B6
:1057A0000490002006EB8001401C91ED050AC0B278
:1057B00081ED2D0A0328F5D3FFF7A5FA002006EBAB
:1057C0008001401C91ED080AD1ED0B0AC0B20328FC
:1057D00030EE600A81ED330AF1D34D48FFF783FBC9
:1057E000002006EB8001401C91ED260AD1ED050A50
:1057F000C0B2032830EE600AB0EEC00A81ED290A7B
:10580000EFD396ED290AD6ED2A0A002030EE200AC1
:10581000D6ED2B0A30EE200A86ED2C0A06EB80012D
:10582000401C91ED050AC0B281ED260A0328F5D38C
:10583000E821204600F0D4FB002011B0BDEC028B23
:10584000BDE8F08F10B54FF49761324800F0C8FB07
:10585000304C0A20206040072067FFF743FA04F528
:105860008660FFF7BAFC2068C4F880049FED2A0A1E
:1058700004F580601E2180ED1B0A9FED280AC4F804
:105880008C1480ED260A9FED260A80ED250A9FEDF7
:10589000250A80ED270A1920FDF722FC002010BD03
:1058A000012240F25231AFF29F3006F0FDBFAFF25D
:1058B000A73007F0B7BA10B5FFF7C4FF002805D12D
:1058C000AFF22300BDE8104007F076B810BD10B568
:1058D000AFF2CB3007F0A6FAAFF23B00BDE81040C4
:1058E00007F0C6BA0B48806870470000A01500207A
:1058F000000080370080BB44000096439A99993F8E
:10590000000070423333B33F0050C347CDCC4C3D11
:1059100098140020F012002000000042CDCCCC3EB4
:10592000CDCC4C3F3333333F704753EA020C00F089
:1059300069802DE9F04B4FF00006002B1FBFB3FA32
:1059400083F503FA05F424FA05F65E4012BF164308
:10595000B2FA82F502FA05F4C5F120051EBF22FA5B
:1059600005FC44EA0C04203556EA044C4FEA144482
:1059700018BF641C4FF000084FF00009904271EB13
:10598000030C39D3002919BFB1FA81F701FA07F6E0
:10599000B0FA80F700FA07F6C7F120071EBF20FA19
:1059A00007FC46EA0C062037B6FBF4FCA7EB05071C
:1059B000103F07F01F0BCBF120060CFA0BFB2CFA63
:1059C00006F644BFB3460026202FA4BF5E464FF024
:1059D000000B5BEA060C08BF4FF0010B19EB0B093B
:1059E000ABFB027C48EB0608C01B06FB02CC0BFBA2
:1059F00003CC71EB0C01C1E70B4602464146484619
:105A0000BDE8F08B13B54FF000004FF00001AFF38D
:105A10000080BDE81C407047B2F120030AD5C2F1F6
:105A2000200301FA02F120FA03F300FA02F041EA3E
:105A30000301704700FA03F14FF000007047B2F124
:105A400020030AD5C2F1200320FA02F001FA03F381
:105A500041FA02F140EA0300704741FA03F04FEACD
:105A6000E171704710B54C1084EA530404D54042EC
:105A7000C1F1000138BF491E1B4204D55242C3F197
:105A8000000338BF5B1EFFF750FF14F0804F04D0B7
:105A90004042C1F1000138BF491E14F0004F04D04C
:105AA0005242C3F1000338BF5B1E10BD1CB50C464B
:105AB000064B7B4469460090204600F084FD044676
:105AC0000020694600F092FD20461CBD370B000007
:105AD0000FB4044910B503AA029800F08DFD10BC64
